{
  "_format": "hh-sol-artifact-1",
  "contractName": "Bidder",
  "sourceName": "contracts/Bidder.sol",
  "abi": [
    {
      "anonymous": false,
      "inputs": [
        {
          "indexed": true,
          "internalType": "uint256",
          "name": "bidderID",
          "type": "uint256"
        },
        {
          "indexed": false,
          "internalType": "address",
          "name": "walletAddress",
          "type": "address"
        },
        {
          "indexed": false,
          "internalType": "uint256",
          "name": "bidValue",
          "type": "uint256"
        }
      ],
      "name": "BidderAdded",
      "type": "event"
    },
    {
      "anonymous": false,
      "inputs": [
        {
          "indexed": true,
          "internalType": "uint256",
          "name": "bidderID",
          "type": "uint256"
        },
        {
          "indexed": false,
          "internalType": "uint256",
          "name": "refundAmount",
          "type": "uint256"
        }
      ],
      "name": "RefundSet",
      "type": "event"
    },
    {
      "anonymous": false,
      "inputs": [
        {
          "indexed": true,
          "internalType": "uint256",
          "name": "bidderID",
          "type": "uint256"
        },
        {
          "indexed": false,
          "internalType": "uint256",
          "name": "tokensPurchased",
          "type": "uint256"
        }
      ],
      "name": "TokensAllocated",
      "type": "event"
    },
    {
      "anonymous": false,
      "inputs": [
        {
          "indexed": true,
          "internalType": "uint256",
          "name": "bidderID",
          "type": "uint256"
        },
        {
          "indexed": true,
          "internalType": "address",
          "name": "bidder",
          "type": "address"
        },
        {
          "indexed": false,
          "internalType": "uint256",
          "name": "amount",
          "type": "uint256"
        }
      ],
      "name": "TokensClaimed",
      "type": "event"
    },
    {
      "inputs": [
        {
          "internalType": "address",
          "name": "_walletAddress",
          "type": "address"
        },
        {
          "internalType": "uint256",
          "name": "_bidValue",
          "type": "uint256"
        }
      ],
      "name": "addBidder",
      "outputs": [],
      "stateMutability": "nonpayable",
      "type": "function"
    },
    {
      "inputs": [
        {
          "internalType": "uint256",
          "name": "",
          "type": "uint256"
        }
      ],
      "name": "bidders",
      "outputs": [
        {
          "internalType": "uint256",
          "name": "bidderID",
          "type": "uint256"
        },
        {
          "internalType": "address",
          "name": "walletAddress",
          "type": "address"
        },
        {
          "internalType": "uint256",
          "name": "bidValue",
          "type": "uint256"
        },
        {
          "internalType": "uint256",
          "name": "tokensPurchased",
          "type": "uint256"
        },
        {
          "internalType": "uint256",
          "name": "refundEth",
          "type": "uint256"
        },
        {
          "internalType": "bool",
          "name": "tokenSent",
          "type": "bool"
        },
        {
          "internalType": "bool",
          "name": "ethRefunded",
          "type": "bool"
        }
      ],
      "stateMutability": "view",
      "type": "function"
    },
    {
      "inputs": [
        {
          "internalType": "uint256",
          "name": "_bidderID",
          "type": "uint256"
        }
      ],
      "name": "getBidderInfo",
      "outputs": [
        {
          "components": [
            {
              "internalType": "uint256",
              "name": "bidderID",
              "type": "uint256"
            },
            {
              "internalType": "address",
              "name": "walletAddress",
              "type": "address"
            },
            {
              "internalType": "uint256",
              "name": "bidValue",
              "type": "uint256"
            },
            {
              "internalType": "uint256",
              "name": "tokensPurchased",
              "type": "uint256"
            },
            {
              "internalType": "uint256",
              "name": "refundEth",
              "type": "uint256"
            },
            {
              "internalType": "bool",
              "name": "tokenSent",
              "type": "bool"
            },
            {
              "internalType": "bool",
              "name": "ethRefunded",
              "type": "bool"
            }
          ],
          "internalType": "struct Bidder.BidderInfo",
          "name": "",
          "type": "tuple"
        }
      ],
      "stateMutability": "view",
      "type": "function"
    },
    {
      "inputs": [
        {
          "internalType": "uint256",
          "name": "_bidderID",
          "type": "uint256"
        }
      ],
      "name": "markTokensAsClaimed",
      "outputs": [],
      "stateMutability": "nonpayable",
      "type": "function"
    },
    {
      "inputs": [
        {
          "internalType": "uint256",
          "name": "_bidderID",
          "type": "uint256"
        },
        {
          "internalType": "uint256",
          "name": "_refundAmount",
          "type": "uint256"
        }
      ],
      "name": "setRefund",
      "outputs": [],
      "stateMutability": "nonpayable",
      "type": "function"
    },
    {
      "inputs": [
        {
          "internalType": "uint256",
          "name": "_bidderID",
          "type": "uint256"
        },
        {
          "internalType": "uint256",
          "name": "_tokensPurchased",
          "type": "uint256"
        }
      ],
      "name": "setTokensPurchased",
      "outputs": [],
      "stateMutability": "nonpayable",
      "type": "function"
    },
    {
      "inputs": [],
      "name": "totalBidders",
      "outputs": [
        {
          "internalType": "uint256",
          "name": "",
          "type": "uint256"
        }
      ],
      "stateMutability": "view",
      "type": "function"
    }
  ],
  "bytecode": "0x6080604052348015600f57600080fd5b50610ac18061001f6000396000f3fe608060405234801561001057600080fd5b506004361061007d5760003560e01c8063cff29dfd1161005b578063cff29dfd146100d6578063de71bf071461010c578063edd6b4381461012a578063ff6a6d65146101465761007d565b806330840a3e14610082578063743f62631461009e578063bbca9fd5146100ba575b600080fd5b61009c60048036038101906100979190610728565b610176565b005b6100b860048036038101906100b39190610768565b6102e9565b005b6100d460048036038101906100cf9190610768565b610383565b005b6100f060048036038101906100eb91906107a8565b61041d565b604051610103979695949392919061080e565b60405180910390f35b610114610499565b604051610121919061087d565b60405180910390f35b610144600480360381019061013f91906107a8565b61049f565b005b610160600480360381019061015b91906107a8565b610514565b60405161016d9190610953565b60405180910390f35b600060015490506040518060e001604052808281526020018473ffffffffffffffffffffffffffffffffffffffff1681526020018381526020016000815260200160008152602001600015158152602001600015158152506000808381526020019081526020016000206000820151816000015560208201518160010160006101000a81548173ffffffffffffffffffffffffffffffffffffffff021916908373ffffffffffffffffffffffffffffffffffffffff16021790555060408201518160020155606082015181600301556080820151816004015560a08201518160050160006101000a81548160ff02191690831515021790555060c08201518160050160016101000a81548160ff021916908315150217905550905050807f26548a55603217b1dae1d10532937779f21b565c4f88aedf3d3d5b6b7b2c2f2484846040516102c492919061096e565b60405180910390a2600160008154809291906102df906109c6565b9190505550505050565b600154821061032d576040517f08c379a000000000000000000000000000000000000000000000000000000000815260040161032490610a6b565b60405180910390fd5b8060008084815260200190815260200160002060030181905550817f0350e1165f0f548d4d7a9ae9e57f282526b8aa4a8cd51dda7aec17041fe8e21982604051610377919061087d565b60405180910390a25050565b60015482106103c7576040517f08c379a00000000000000000000000000000000000000000000000000000000081526004016103be90610a6b565b60405180910390fd5b8060008084815260200190815260200160002060040181905550817f5b1907460c5f0400ff899d46abd5b8a1fac31c506d8190fde794dff9d00357f382604051610411919061087d565b60405180910390a25050565b60006020528060005260406000206000915090508060000154908060010160009054906101000a900473ffffffffffffffffffffffffffffffffffffffff16908060020154908060030154908060040154908060050160009054906101000a900460ff16908060050160019054906101000a900460ff16905087565b60015481565b60015481106104e3576040517f08c379a00000000000000000000000000000000000000000000000000000000081526004016104da90610a6b565b60405180910390fd5b600160008083815260200190815260200160002060050160006101000a81548160ff02191690831515021790555050565b61051c610638565b6001548210610560576040517f08c379a000000000000000000000000000000000000000000000000000000000815260040161055790610a6b565b60405180910390fd5b6000808381526020019081526020016000206040518060e0016040529081600082015481526020016001820160009054906101000a900473ffffffffffffffffffffffffffffffffffffffff1673ffffffffffffffffffffffffffffffffffffffff1673ffffffffffffffffffffffffffffffffffffffff1681526020016002820154815260200160038201548152602001600482015481526020016005820160009054906101000a900460ff161515151581526020016005820160019054906101000a900460ff1615151515815250509050919050565b6040518060e0016040528060008152602001600073ffffffffffffffffffffffffffffffffffffffff1681526020016000815260200160008152602001600081526020016000151581526020016000151581525090565b600080fd5b600073ffffffffffffffffffffffffffffffffffffffff82169050919050565b60006106bf82610694565b9050919050565b6106cf816106b4565b81146106da57600080fd5b50565b6000813590506106ec816106c6565b92915050565b6000819050919050565b610705816106f2565b811461071057600080fd5b50565b600081359050610722816106fc565b92915050565b6000806040838503121561073f5761073e61068f565b5b600061074d858286016106dd565b925050602061075e85828601610713565b9150509250929050565b6000806040838503121561077f5761077e61068f565b5b600061078d85828601610713565b925050602061079e85828601610713565b9150509250929050565b6000602082840312156107be576107bd61068f565b5b60006107cc84828501610713565b91505092915050565b6107de816106f2565b82525050565b6107ed816106b4565b82525050565b60008115159050919050565b610808816107f3565b82525050565b600060e082019050610823600083018a6107d5565b61083060208301896107e4565b61083d60408301886107d5565b61084a60608301876107d5565b61085760808301866107d5565b61086460a08301856107ff565b61087160c08301846107ff565b98975050505050505050565b600060208201905061089260008301846107d5565b92915050565b6108a1816106f2565b82525050565b6108b0816106b4565b82525050565b6108bf816107f3565b82525050565b60e0820160008201516108db6000850182610898565b5060208201516108ee60208501826108a7565b5060408201516109016040850182610898565b5060608201516109146060850182610898565b5060808201516109276080850182610898565b5060a082015161093a60a08501826108b6565b5060c082015161094d60c08501826108b6565b50505050565b600060e08201905061096860008301846108c5565b92915050565b600060408201905061098360008301856107e4565b61099060208301846107d5565b9392505050565b7f4e487b7100000000000000000000000000000000000000000000000000000000600052601160045260246000fd5b60006109d1826106f2565b91507fffffffffffffffffffffffffffffffffffffffffffffffffffffffffffffffff8203610a0357610a02610997565b5b600182019050919050565b600082825260208201905092915050565b7f496e76616c696420626964646572204944000000000000000000000000000000600082015250565b6000610a55601183610a0e565b9150610a6082610a1f565b602082019050919050565b60006020820190508181036000830152610a8481610a48565b905091905056fea2646970667358221220c76a47de017228fbcc6389272f190b860b1b23e0ab5354b9385054101a1fd1ae64736f6c634300081b0033",
  "linkReferences": {},
  "deployedLinkReferences": {}
}