{
  "_format": "hh-sol-artifact-1",
  "contractName": "Bidder",
  "sourceName": "contracts/Bidder.sol",
  "abi": [
    {
      "anonymous": false,
      "inputs": [
        {
          "indexed": true,
          "internalType": "uint256",
          "name": "bidderID",
          "type": "uint256"
        },
        {
          "indexed": false,
          "internalType": "address",
          "name": "walletAddress",
          "type": "address"
        },
        {
          "indexed": false,
          "internalType": "uint256",
          "name": "bidValue",
          "type": "uint256"
        }
      ],
      "name": "BidderAdded",
      "type": "event"
    },
    {
      "anonymous": false,
      "inputs": [
        {
          "indexed": true,
          "internalType": "uint256",
          "name": "bidderID",
          "type": "uint256"
        },
        {
          "indexed": false,
          "internalType": "uint256",
          "name": "refundAmount",
          "type": "uint256"
        }
      ],
      "name": "RefundSet",
      "type": "event"
    },
    {
      "anonymous": false,
      "inputs": [
        {
          "indexed": true,
          "internalType": "uint256",
          "name": "bidderID",
          "type": "uint256"
        },
        {
          "indexed": false,
          "internalType": "uint256",
          "name": "tokensPurchased",
          "type": "uint256"
        }
      ],
      "name": "TokensAllocated",
      "type": "event"
    },
    {
      "anonymous": false,
      "inputs": [
        {
          "indexed": true,
          "internalType": "uint256",
          "name": "bidderID",
          "type": "uint256"
        },
        {
          "indexed": true,
          "internalType": "address",
          "name": "bidder",
          "type": "address"
        },
        {
          "indexed": false,
          "internalType": "uint256",
          "name": "amount",
          "type": "uint256"
        }
      ],
      "name": "TokensClaimed",
      "type": "event"
    },
    {
      "inputs": [
        {
          "internalType": "address",
          "name": "_walletAddress",
          "type": "address"
        },
        {
          "internalType": "uint256",
          "name": "_bidValue",
          "type": "uint256"
        }
      ],
      "name": "addBidder",
      "outputs": [],
      "stateMutability": "nonpayable",
      "type": "function"
    },
    {
      "inputs": [
        {
          "internalType": "uint256",
          "name": "",
          "type": "uint256"
        }
      ],
      "name": "bidders",
      "outputs": [
        {
          "internalType": "uint256",
          "name": "bidderID",
          "type": "uint256"
        },
        {
          "internalType": "address",
          "name": "walletAddress",
          "type": "address"
        },
        {
          "internalType": "uint256",
          "name": "bidValue",
          "type": "uint256"
        },
        {
          "internalType": "uint256",
          "name": "tokensPurchased",
          "type": "uint256"
        },
        {
          "internalType": "uint256",
          "name": "refundEth",
          "type": "uint256"
        },
        {
          "internalType": "bool",
          "name": "tokenSent",
          "type": "bool"
        },
        {
          "internalType": "bool",
          "name": "ethRefunded",
          "type": "bool"
        }
      ],
      "stateMutability": "view",
      "type": "function"
    },
    {
      "inputs": [
        {
          "internalType": "uint256",
          "name": "_bidderID",
          "type": "uint256"
        }
      ],
      "name": "getBidderInfo",
      "outputs": [
        {
          "components": [
            {
              "internalType": "uint256",
              "name": "bidderID",
              "type": "uint256"
            },
            {
              "internalType": "address",
              "name": "walletAddress",
              "type": "address"
            },
            {
              "internalType": "uint256",
              "name": "bidValue",
              "type": "uint256"
            },
            {
              "internalType": "uint256",
              "name": "tokensPurchased",
              "type": "uint256"
            },
            {
              "internalType": "uint256",
              "name": "refundEth",
              "type": "uint256"
            },
            {
              "internalType": "bool",
              "name": "tokenSent",
              "type": "bool"
            },
            {
              "internalType": "bool",
              "name": "ethRefunded",
              "type": "bool"
            }
          ],
          "internalType": "struct Bidder.BidderInfo",
          "name": "",
          "type": "tuple"
        }
      ],
      "stateMutability": "view",
      "type": "function"
    },
    {
      "inputs": [
        {
          "internalType": "uint256",
          "name": "_bidderID",
          "type": "uint256"
        }
      ],
      "name": "markTokensAsClaimed",
      "outputs": [],
      "stateMutability": "nonpayable",
      "type": "function"
    },
    {
      "inputs": [
        {
          "internalType": "uint256",
          "name": "_bidderID",
          "type": "uint256"
        },
        {
          "internalType": "uint256",
          "name": "_refundAmount",
          "type": "uint256"
        }
      ],
      "name": "setRefund",
      "outputs": [],
      "stateMutability": "nonpayable",
      "type": "function"
    },
    {
      "inputs": [
        {
          "internalType": "uint256",
          "name": "_bidderID",
          "type": "uint256"
        },
        {
          "internalType": "uint256",
          "name": "_tokensPurchased",
          "type": "uint256"
        }
      ],
      "name": "setTokensPurchased",
      "outputs": [],
      "stateMutability": "nonpayable",
      "type": "function"
    },
    {
      "inputs": [],
      "name": "totalBidders",
      "outputs": [
        {
          "internalType": "uint256",
          "name": "",
          "type": "uint256"
        }
      ],
      "stateMutability": "view",
      "type": "function"
    }
  ],
  "bytecode": "0x6080604052348015600f57600080fd5b50610b078061001f6000396000f3fe608060405234801561001057600080fd5b506004361061007d5760003560e01c8063cff29dfd1161005b578063cff29dfd146100d6578063de71bf071461010c578063edd6b4381461012a578063ff6a6d65146101465761007d565b806330840a3e14610082578063743f62631461009e578063bbca9fd5146100ba575b600080fd5b61009c6004803603810190610097919061073a565b610176565b005b6100b860048036038101906100b3919061077a565b6102e9565b005b6100d460048036038101906100cf919061077a565b610395565b005b6100f060048036038101906100eb91906107ba565b61042f565b6040516101039796959493929190610820565b60405180910390f35b6101146104ab565b604051610121919061088f565b60405180910390f35b610144600480360381019061013f91906107ba565b6104b1565b005b610160600480360381019061015b91906107ba565b610526565b60405161016d9190610965565b60405180910390f35b600060015490506040518060e001604052808281526020018473ffffffffffffffffffffffffffffffffffffffff1681526020018381526020016000815260200160008152602001600015158152602001600015158152506000808381526020019081526020016000206000820151816000015560208201518160010160006101000a81548173ffffffffffffffffffffffffffffffffffffffff021916908373ffffffffffffffffffffffffffffffffffffffff16021790555060408201518160020155606082015181600301556080820151816004015560a08201518160050160006101000a81548160ff02191690831515021790555060c08201518160050160016101000a81548160ff021916908315150217905550905050807f26548a55603217b1dae1d10532937779f21b565c4f88aedf3d3d5b6b7b2c2f2484846040516102c4929190610980565b60405180910390a2600160008154809291906102df906109d8565b9190505550505050565b600154821061032d576040517f08c379a000000000000000000000000000000000000000000000000000000000815260040161032490610a7d565b60405180910390fd5b8060008084815260200190815260200160002060030160008282546103529190610a9d565b92505081905550817f0350e1165f0f548d4d7a9ae9e57f282526b8aa4a8cd51dda7aec17041fe8e21982604051610389919061088f565b60405180910390a25050565b60015482106103d9576040517f08c379a00000000000000000000000000000000000000000000000000000000081526004016103d090610a7d565b60405180910390fd5b8060008084815260200190815260200160002060040181905550817f5b1907460c5f0400ff899d46abd5b8a1fac31c506d8190fde794dff9d00357f382604051610423919061088f565b60405180910390a25050565b60006020528060005260406000206000915090508060000154908060010160009054906101000a900473ffffffffffffffffffffffffffffffffffffffff16908060020154908060030154908060040154908060050160009054906101000a900460ff16908060050160019054906101000a900460ff16905087565b60015481565b60015481106104f5576040517f08c379a00000000000000000000000000000000000000000000000000000000081526004016104ec90610a7d565b60405180910390fd5b600160008083815260200190815260200160002060050160006101000a81548160ff02191690831515021790555050565b61052e61064a565b6001548210610572576040517f08c379a000000000000000000000000000000000000000000000000000000000815260040161056990610a7d565b60405180910390fd5b6000808381526020019081526020016000206040518060e0016040529081600082015481526020016001820160009054906101000a900473ffffffffffffffffffffffffffffffffffffffff1673ffffffffffffffffffffffffffffffffffffffff1673ffffffffffffffffffffffffffffffffffffffff1681526020016002820154815260200160038201548152602001600482015481526020016005820160009054906101000a900460ff161515151581526020016005820160019054906101000a900460ff1615151515815250509050919050565b6040518060e0016040528060008152602001600073ffffffffffffffffffffffffffffffffffffffff1681526020016000815260200160008152602001600081526020016000151581526020016000151581525090565b600080fd5b600073ffffffffffffffffffffffffffffffffffffffff82169050919050565b60006106d1826106a6565b9050919050565b6106e1816106c6565b81146106ec57600080fd5b50565b6000813590506106fe816106d8565b92915050565b6000819050919050565b61071781610704565b811461072257600080fd5b50565b6000813590506107348161070e565b92915050565b60008060408385031215610751576107506106a1565b5b600061075f858286016106ef565b925050602061077085828601610725565b9150509250929050565b60008060408385031215610791576107906106a1565b5b600061079f85828601610725565b92505060206107b085828601610725565b9150509250929050565b6000602082840312156107d0576107cf6106a1565b5b60006107de84828501610725565b91505092915050565b6107f081610704565b82525050565b6107ff816106c6565b82525050565b60008115159050919050565b61081a81610805565b82525050565b600060e082019050610835600083018a6107e7565b61084260208301896107f6565b61084f60408301886107e7565b61085c60608301876107e7565b61086960808301866107e7565b61087660a0830185610811565b61088360c0830184610811565b98975050505050505050565b60006020820190506108a460008301846107e7565b92915050565b6108b381610704565b82525050565b6108c2816106c6565b82525050565b6108d181610805565b82525050565b60e0820160008201516108ed60008501826108aa565b50602082015161090060208501826108b9565b50604082015161091360408501826108aa565b50606082015161092660608501826108aa565b50608082015161093960808501826108aa565b5060a082015161094c60a08501826108c8565b5060c082015161095f60c08501826108c8565b50505050565b600060e08201905061097a60008301846108d7565b92915050565b600060408201905061099560008301856107f6565b6109a260208301846107e7565b9392505050565b7f4e487b7100000000000000000000000000000000000000000000000000000000600052601160045260246000fd5b60006109e382610704565b91507fffffffffffffffffffffffffffffffffffffffffffffffffffffffffffffffff8203610a1557610a146109a9565b5b600182019050919050565b600082825260208201905092915050565b7f496e76616c696420626964646572204944000000000000000000000000000000600082015250565b6000610a67601183610a20565b9150610a7282610a31565b602082019050919050565b60006020820190508181036000830152610a9681610a5a565b9050919050565b6000610aa882610704565b9150610ab383610704565b9250828201905080821115610acb57610aca6109a9565b5b9291505056fea26469706673582212207d656baf40b9a7b2ec29eb550a603fa93d0b14c7e493e33c7c8102e3414328f764736f6c634300081b0033",
  "linkReferences": {},
  "deployedLinkReferences": {}
}