{
  "_format": "hh-sol-artifact-1",
  "contractName": "DutchAuction",
  "sourceName": "contracts/Auction.sol",
  "abi": [
    {
      "inputs": [
        {
          "internalType": "address",
          "name": "_token",
          "type": "address"
        },
        {
          "internalType": "address",
          "name": "_bidderContract",
          "type": "address"
        },
        {
          "internalType": "uint256",
          "name": "_startPrice",
          "type": "uint256"
        },
        {
          "internalType": "uint256",
          "name": "_reservePrice",
          "type": "uint256"
        },
        {
          "internalType": "uint256",
          "name": "_auctionDuration",
          "type": "uint256"
        },
        {
          "internalType": "uint256",
          "name": "_totalTokens",
          "type": "uint256"
        },
        {
          "internalType": "uint256",
          "name": "_priceDecrement",
          "type": "uint256"
        }
      ],
      "stateMutability": "nonpayable",
      "type": "constructor"
    },
    {
      "inputs": [],
      "name": "ReentrancyGuardReentrantCall",
      "type": "error"
    },
    {
      "anonymous": false,
      "inputs": [
        {
          "indexed": false,
          "internalType": "uint256",
          "name": "totalFundsRaised",
          "type": "uint256"
        },
        {
          "indexed": false,
          "internalType": "uint256",
          "name": "unsoldTokens",
          "type": "uint256"
        }
      ],
      "name": "AuctionEnded",
      "type": "event"
    },
    {
      "anonymous": false,
      "inputs": [],
      "name": "AuctionPaused",
      "type": "event"
    },
    {
      "anonymous": false,
      "inputs": [],
      "name": "AuctionResumed",
      "type": "event"
    },
    {
      "anonymous": false,
      "inputs": [
        {
          "indexed": false,
          "internalType": "uint256",
          "name": "startTime",
          "type": "uint256"
        },
        {
          "indexed": false,
          "internalType": "uint256",
          "name": "startPrice",
          "type": "uint256"
        },
        {
          "indexed": false,
          "internalType": "uint256",
          "name": "reservePrice",
          "type": "uint256"
        },
        {
          "indexed": false,
          "internalType": "uint256",
          "name": "totalTokens",
          "type": "uint256"
        }
      ],
      "name": "AuctionStarted",
      "type": "event"
    },
    {
      "anonymous": false,
      "inputs": [
        {
          "indexed": true,
          "internalType": "address",
          "name": "bidder",
          "type": "address"
        },
        {
          "indexed": false,
          "internalType": "uint256",
          "name": "bidAmount",
          "type": "uint256"
        },
        {
          "indexed": false,
          "internalType": "uint256",
          "name": "tokensAllocated",
          "type": "uint256"
        }
      ],
      "name": "BidPlaced",
      "type": "event"
    },
    {
      "anonymous": false,
      "inputs": [
        {
          "indexed": false,
          "internalType": "string",
          "name": "message",
          "type": "string"
        },
        {
          "indexed": false,
          "internalType": "uint256",
          "name": "value",
          "type": "uint256"
        }
      ],
      "name": "Debug",
      "type": "event"
    },
    {
      "anonymous": false,
      "inputs": [
        {
          "indexed": true,
          "internalType": "uint256",
          "name": "bidderID",
          "type": "uint256"
        },
        {
          "indexed": true,
          "internalType": "address",
          "name": "bidder",
          "type": "address"
        },
        {
          "indexed": false,
          "internalType": "uint256",
          "name": "amount",
          "type": "uint256"
        }
      ],
      "name": "TokensClaimed",
      "type": "event"
    },
    {
      "inputs": [],
      "name": "auctionDuration",
      "outputs": [
        {
          "internalType": "uint256",
          "name": "",
          "type": "uint256"
        }
      ],
      "stateMutability": "view",
      "type": "function"
    },
    {
      "inputs": [],
      "name": "auctionStarted",
      "outputs": [
        {
          "internalType": "bool",
          "name": "",
          "type": "bool"
        }
      ],
      "stateMutability": "view",
      "type": "function"
    },
    {
      "inputs": [],
      "name": "auctionState",
      "outputs": [
        {
          "internalType": "enum DutchAuction.AuctionState",
          "name": "",
          "type": "uint8"
        }
      ],
      "stateMutability": "view",
      "type": "function"
    },
    {
      "inputs": [],
      "name": "bidderContract",
      "outputs": [
        {
          "internalType": "contract Bidder",
          "name": "",
          "type": "address"
        }
      ],
      "stateMutability": "view",
      "type": "function"
    },
    {
      "inputs": [],
      "name": "checkAndEndAuction",
      "outputs": [],
      "stateMutability": "nonpayable",
      "type": "function"
    },
    {
      "inputs": [],
      "name": "endAuction",
      "outputs": [],
      "stateMutability": "nonpayable",
      "type": "function"
    },
    {
      "inputs": [],
      "name": "getAuctionStatus",
      "outputs": [
        {
          "internalType": "enum DutchAuction.AuctionState",
          "name": "",
          "type": "uint8"
        }
      ],
      "stateMutability": "view",
      "type": "function"
    },
    {
      "inputs": [
        {
          "internalType": "uint256",
          "name": "bidderID",
          "type": "uint256"
        }
      ],
      "name": "getBidderInfo",
      "outputs": [
        {
          "components": [
            {
              "internalType": "uint256",
              "name": "bidderID",
              "type": "uint256"
            },
            {
              "internalType": "address",
              "name": "walletAddress",
              "type": "address"
            },
            {
              "internalType": "uint256",
              "name": "bidValue",
              "type": "uint256"
            },
            {
              "internalType": "uint256",
              "name": "tokensPurchased",
              "type": "uint256"
            },
            {
              "internalType": "uint256",
              "name": "refundEth",
              "type": "uint256"
            },
            {
              "internalType": "bool",
              "name": "tokenSent",
              "type": "bool"
            },
            {
              "internalType": "bool",
              "name": "ethRefunded",
              "type": "bool"
            }
          ],
          "internalType": "struct Bidder.BidderInfo",
          "name": "",
          "type": "tuple"
        }
      ],
      "stateMutability": "view",
      "type": "function"
    },
    {
      "inputs": [],
      "name": "getCurrentPrice",
      "outputs": [
        {
          "internalType": "uint256",
          "name": "",
          "type": "uint256"
        }
      ],
      "stateMutability": "view",
      "type": "function"
    },
    {
      "inputs": [],
      "name": "getRemainingTokens",
      "outputs": [
        {
          "internalType": "uint256",
          "name": "",
          "type": "uint256"
        }
      ],
      "stateMutability": "view",
      "type": "function"
    },
    {
      "inputs": [],
      "name": "getTimeRemaining",
      "outputs": [
        {
          "internalType": "uint256",
          "name": "",
          "type": "uint256"
        }
      ],
      "stateMutability": "view",
      "type": "function"
    },
    {
      "inputs": [],
      "name": "getTotalFundsRaised",
      "outputs": [
        {
          "internalType": "uint256",
          "name": "",
          "type": "uint256"
        }
      ],
      "stateMutability": "view",
      "type": "function"
    },
    {
      "inputs": [
        {
          "internalType": "uint256",
          "name": "secondsToAdd",
          "type": "uint256"
        }
      ],
      "name": "incrementTime",
      "outputs": [],
      "stateMutability": "nonpayable",
      "type": "function"
    },
    {
      "inputs": [],
      "name": "owner",
      "outputs": [
        {
          "internalType": "address",
          "name": "",
          "type": "address"
        }
      ],
      "stateMutability": "view",
      "type": "function"
    },
    {
      "inputs": [],
      "name": "pauseAuction",
      "outputs": [],
      "stateMutability": "nonpayable",
      "type": "function"
    },
    {
      "inputs": [],
      "name": "placeBid",
      "outputs": [],
      "stateMutability": "payable",
      "type": "function"
    },
    {
      "inputs": [],
      "name": "priceDecrement",
      "outputs": [
        {
          "internalType": "uint256",
          "name": "",
          "type": "uint256"
        }
      ],
      "stateMutability": "view",
      "type": "function"
    },
    {
      "inputs": [],
      "name": "reservePrice",
      "outputs": [
        {
          "internalType": "uint256",
          "name": "",
          "type": "uint256"
        }
      ],
      "stateMutability": "view",
      "type": "function"
    },
    {
      "inputs": [],
      "name": "resumeAuction",
      "outputs": [],
      "stateMutability": "nonpayable",
      "type": "function"
    },
    {
      "inputs": [],
      "name": "sendTokens",
      "outputs": [],
      "stateMutability": "nonpayable",
      "type": "function"
    },
    {
      "inputs": [],
      "name": "startAuction",
      "outputs": [],
      "stateMutability": "nonpayable",
      "type": "function"
    },
    {
      "inputs": [],
      "name": "startPrice",
      "outputs": [
        {
          "internalType": "uint256",
          "name": "",
          "type": "uint256"
        }
      ],
      "stateMutability": "view",
      "type": "function"
    },
    {
      "inputs": [],
      "name": "startTime",
      "outputs": [
        {
          "internalType": "uint256",
          "name": "",
          "type": "uint256"
        }
      ],
      "stateMutability": "view",
      "type": "function"
    },
    {
      "inputs": [],
      "name": "timeElapsed",
      "outputs": [
        {
          "internalType": "uint256",
          "name": "",
          "type": "uint256"
        }
      ],
      "stateMutability": "view",
      "type": "function"
    },
    {
      "inputs": [],
      "name": "token",
      "outputs": [
        {
          "internalType": "contract IERC20",
          "name": "",
          "type": "address"
        }
      ],
      "stateMutability": "view",
      "type": "function"
    },
    {
      "inputs": [],
      "name": "totalFundsRaised",
      "outputs": [
        {
          "internalType": "uint256",
          "name": "",
          "type": "uint256"
        }
      ],
      "stateMutability": "view",
      "type": "function"
    },
    {
      "inputs": [],
      "name": "totalTokensAvailable",
      "outputs": [
        {
          "internalType": "uint256",
          "name": "",
          "type": "uint256"
        }
      ],
      "stateMutability": "view",
      "type": "function"
    },
    {
      "inputs": [],
      "name": "withdrawFunds",
      "outputs": [],
      "stateMutability": "nonpayable",
      "type": "function"
    },
    {
      "inputs": [
        {
          "internalType": "uint256",
          "name": "bidderID",
          "type": "uint256"
        }
      ],
      "name": "withdrawRefund",
      "outputs": [],
      "stateMutability": "nonpayable",
      "type": "function"
    }
  ],
  "bytecode": "0x608060405234801561001057600080fd5b506040516137e73803806137e7833981810160405281019061003291906101f0565b600160008190555033600160006101000a81548173ffffffffffffffffffffffffffffffffffffffff021916908373ffffffffffffffffffffffffffffffffffffffff16021790555086600260006101000a81548173ffffffffffffffffffffffffffffffffffffffff021916908373ffffffffffffffffffffffffffffffffffffffff16021790555085600360006101000a81548173ffffffffffffffffffffffffffffffffffffffff021916908373ffffffffffffffffffffffffffffffffffffffff16021790555084600481905550836005819055508260068190555081600881905550806009819055506002600c60016101000a81548160ff0219169083600281111561014657610145610292565b5b0217905550505050505050506102c1565b600080fd5b600073ffffffffffffffffffffffffffffffffffffffff82169050919050565b60006101878261015c565b9050919050565b6101978161017c565b81146101a257600080fd5b50565b6000815190506101b48161018e565b92915050565b6000819050919050565b6101cd816101ba565b81146101d857600080fd5b50565b6000815190506101ea816101c4565b92915050565b600080600080600080600060e0888a03121561020f5761020e610157565b5b600061021d8a828b016101a5565b975050602061022e8a828b016101a5565b965050604061023f8a828b016101db565b95505060606102508a828b016101db565b94505060806102618a828b016101db565b93505060a06102728a828b016101db565b92505060c06102838a828b016101db565b91505092959891949750929550565b7f4e487b7100000000000000000000000000000000000000000000000000000000600052602160045260246000fd5b613517806102d06000396000f3fe6080604052600436106101c25760003560e01c80638da5cb5b116100f7578063e47112bd11610095578063f1a9af8911610064578063f1a9af891461055d578063fc0c546a14610588578063fe67a54b146105b3578063ff6a6d65146105ca576101c2565b8063e47112bd146104e6578063eb91d37e146104fd578063ecfc7ecc14610528578063ee2679bc14610532576101c2565b8063b9ae7364116100d1578063b9ae73641461044e578063dac6270d14610465578063db2e1eed14610490578063dc2cf3f5146104bb576101c2565b80638da5cb5b146103cf5780639d153495146103fa578063af35ae2714610423576101c2565b806351b5dbd9116101645780636b64c7691161013e5780636b64c769146103375780636dd2cbe51461034e57806378e97925146103795780637fb45099146103a4576101c2565b806351b5dbd9146102cc578063621de3c4146102e3578063699ca55f1461030e576101c2565b806326cddbfb116101a057806326cddbfb146102345780632e93be301461025f57806332353fbd1461028a578063427c0c7f146102a1576101c2565b80630c3e2d2d146101c75780630cbf54c8146101f257806324600fc31461021d575b600080fd5b3480156101d357600080fd5b506101dc610607565b6040516101e99190611ff2565b60405180910390f35b3480156101fe57600080fd5b50610207610611565b6040516102149190611ff2565b60405180910390f35b34801561022957600080fd5b50610232610617565b005b34801561024057600080fd5b50610249610789565b6040516102569190611ff2565b60405180910390f35b34801561026b57600080fd5b5061027461078f565b6040516102819190612084565b60405180910390f35b34801561029657600080fd5b5061029f6107a6565b005b3480156102ad57600080fd5b506102b6610905565b6040516102c39190611ff2565b60405180910390f35b3480156102d857600080fd5b506102e161090b565b005b3480156102ef57600080fd5b506102f8610a3a565b604051610305919061211e565b60405180910390f35b34801561031a57600080fd5b5061033560048036038101906103309190612174565b610a60565b005b34801561034357600080fd5b5061034c610a7c565b005b34801561035a57600080fd5b50610363610c6d565b6040516103709190611ff2565b60405180910390f35b34801561038557600080fd5b5061038e610c73565b60405161039b9190611ff2565b60405180910390f35b3480156103b057600080fd5b506103b9610c79565b6040516103c69190612084565b60405180910390f35b3480156103db57600080fd5b506103e4610c8c565b6040516103f191906121c2565b60405180910390f35b34801561040657600080fd5b50610421600480360381019061041c9190612174565b610cb2565b005b34801561042f57600080fd5b50610438610ef0565b6040516104459190611ff2565b60405180910390f35b34801561045a57600080fd5b50610463610efa565b005b34801561047157600080fd5b5061047a611059565b6040516104879190611ff2565b60405180910390f35b34801561049c57600080fd5b506104a56110b3565b6040516104b29190611ff2565b60405180910390f35b3480156104c757600080fd5b506104d06110b9565b6040516104dd9190611ff2565b60405180910390f35b3480156104f257600080fd5b506104fb6110bf565b005b34801561050957600080fd5b50610512611686565b60405161051f9190611ff2565b60405180910390f35b610530611700565b005b34801561053e57600080fd5b50610547611a98565b60405161055491906121f8565b60405180910390f35b34801561056957600080fd5b50610572611aab565b60405161057f9190611ff2565b60405180910390f35b34801561059457600080fd5b5061059d611ab1565b6040516105aa9190612234565b60405180910390f35b3480156105bf57600080fd5b506105c8611ad7565b005b3480156105d657600080fd5b506105f160048036038101906105ec9190612174565b611e87565b6040516105fe919061230a565b60405180910390f35b6000600a54905090565b60065481565b600160009054906101000a900473ffffffffffffffffffffffffffffffffffffffff1673ffffffffffffffffffffffffffffffffffffffff163373ffffffffffffffffffffffffffffffffffffffff16146106a7576040517f08c379a000000000000000000000000000000000000000000000000000000000815260040161069e90612382565b60405180910390fd5b6002808111156106ba576106b961200d565b5b600c60019054906101000a900460ff1660028111156106dc576106db61200d565b5b1461071c576040517f08c379a0000000000000000000000000000000000000000000000000000000008152600401610713906123ee565b60405180910390fd5b600160009054906101000a900473ffffffffffffffffffffffffffffffffffffffff1673ffffffffffffffffffffffffffffffffffffffff166108fc600a549081150290604051600060405180830381858888f19350505050158015610786573d6000803e3d6000fd5b50565b60095481565b6000600c60019054906101000a900460ff16905090565b600160009054906101000a900473ffffffffffffffffffffffffffffffffffffffff1673ffffffffffffffffffffffffffffffffffffffff163373ffffffffffffffffffffffffffffffffffffffff1614610836576040517f08c379a000000000000000000000000000000000000000000000000000000000815260040161082d90612382565b60405180910390fd5b6001600281111561084a5761084961200d565b5b600c60019054906101000a900460ff16600281111561086c5761086b61200d565b5b146108ac576040517f08c379a00000000000000000000000000000000000000000000000000000000081526004016108a39061245a565b60405180910390fd5b6000600c60016101000a81548160ff021916908360028111156108d2576108d161200d565b5b02179055507f979e0f22222b399f6e77f2614325775244291877598c6174fd7caf44b4bdfcc560405160405180910390a1565b600a5481565b600c60009054906101000a900460ff1661095a576040517f08c379a0000000000000000000000000000000000000000000000000000000008152600401610951906124c6565b60405180910390fd5b60006007544261096a9190612515565b90507f3c5ad147104e56be34a9176a6692f7df8d2f4b29a5af06bc6b98970d329d65778160405161099b9190612595565b60405180910390a160065481106109f2577f3c5ad147104e56be34a9176a6692f7df8d2f4b29a5af06bc6b98970d329d65776006546040516109dd9190612635565b60405180910390a16109ed611ad7565b610a37565b7f3c5ad147104e56be34a9176a6692f7df8d2f4b29a5af06bc6b98970d329d657781600654610a219190612515565b604051610a2e91906126af565b60405180910390a15b50565b600360009054906101000a900473ffffffffffffffffffffffffffffffffffffffff1681565b80600b6000828254610a7291906126dd565b9250508190555050565b600160009054906101000a900473ffffffffffffffffffffffffffffffffffffffff1673ffffffffffffffffffffffffffffffffffffffff163373ffffffffffffffffffffffffffffffffffffffff1614610b0c576040517f08c379a0000000000000000000000000000000000000000000000000000000008152600401610b0390612382565b60405180910390fd5b600280811115610b1f57610b1e61200d565b5b600c60019054906101000a900460ff166002811115610b4157610b4061200d565b5b14610b81576040517f08c379a0000000000000000000000000000000000000000000000000000000008152600401610b7890612783565b60405180910390fd5b600c60009054906101000a900460ff1615610bd1576040517f08c379a0000000000000000000000000000000000000000000000000000000008152600401610bc8906127ef565b60405180910390fd5b426007819055506000600c60016101000a81548160ff02191690836002811115610bfe57610bfd61200d565b5b02179055506001600c60006101000a81548160ff0219169083151502179055506000600b819055507fa832766a05f1bd0298b0268308621777cfe1e4eea23afe7c06beea79bc6ddd2d600754600454600554600854604051610c63949392919061280f565b60405180910390a1565b60085481565b60075481565b600c60019054906101000a900460ff1681565b600160009054906101000a900473ffffffffffffffffffffffffffffffffffffffff1681565b610cba611f32565b6000600360009054906101000a900473ffffffffffffffffffffffffffffffffffffffff1673ffffffffffffffffffffffffffffffffffffffff1663ff6a6d65836040518263ffffffff1660e01b8152600401610d179190611ff2565b60e060405180830381865afa158015610d34573d6000803e3d6000fd5b505050506040513d601f19601f82011682018060405250810190610d589190612a06565b905060008160800151905060008111610da6576040517f08c379a0000000000000000000000000000000000000000000000000000000008152600401610d9d90612a7f565b60405180910390fd5b600360009054906101000a900473ffffffffffffffffffffffffffffffffffffffff1673ffffffffffffffffffffffffffffffffffffffff1663bbca9fd58460006040518363ffffffff1660e01b8152600401610e04929190612ada565b600060405180830381600087803b158015610e1e57600080fd5b505af1158015610e32573d6000803e3d6000fd5b5050505060003373ffffffffffffffffffffffffffffffffffffffff1682604051610e5c90612b34565b60006040518083038185875af1925050503d8060008114610e99576040519150601f19603f3d011682016040523d82523d6000602084013e610e9e565b606091505b5050905080610ee2576040517f08c379a0000000000000000000000000000000000000000000000000000000008152600401610ed990612b95565b60405180910390fd5b505050610eed611f78565b50565b6000600854905090565b600160009054906101000a900473ffffffffffffffffffffffffffffffffffffffff1673ffffffffffffffffffffffffffffffffffffffff163373ffffffffffffffffffffffffffffffffffffffff1614610f8a576040517f08c379a0000000000000000000000000000000000000000000000000000000008152600401610f8190612382565b60405180910390fd5b60006002811115610f9e57610f9d61200d565b5b600c60019054906101000a900460ff166002811115610fc057610fbf61200d565b5b14611000576040517f08c379a0000000000000000000000000000000000000000000000000000000008152600401610ff790612c01565b60405180910390fd5b6001600c60016101000a81548160ff021916908360028111156110265761102561200d565b5b02179055507f749d6d79623c8cbd2345906702c70ae75d4254a6c409047c16d52fa5a37ef69860405160405180910390a1565b6000600c60009054906101000a900460ff166110795760065490506110b0565b6000600754426110899190612515565b9050600654811061109e5760009150506110b0565b806006546110ac9190612515565b9150505b90565b60055481565b600b5481565b600160009054906101000a900473ffffffffffffffffffffffffffffffffffffffff1673ffffffffffffffffffffffffffffffffffffffff163373ffffffffffffffffffffffffffffffffffffffff161461114f576040517f08c379a000000000000000000000000000000000000000000000000000000000815260040161114690612382565b60405180910390fd5b6002808111156111625761116161200d565b5b600c60019054906101000a900460ff1660028111156111845761118361200d565b5b146111c4576040517f08c379a00000000000000000000000000000000000000000000000000000000081526004016111bb90612c6d565b60405180910390fd5b6000600360009054906101000a900473ffffffffffffffffffffffffffffffffffffffff1673ffffffffffffffffffffffffffffffffffffffff1663de71bf076040518163ffffffff1660e01b8152600401602060405180830381865afa158015611233573d6000803e3d6000fd5b505050506040513d601f19601f820116820180604052508101906112579190612c8d565b90507f3c5ad147104e56be34a9176a6692f7df8d2f4b29a5af06bc6b98970d329d6577816040516112889190612d06565b60405180910390a160005b81811015611682576000600360009054906101000a900473ffffffffffffffffffffffffffffffffffffffff1673ffffffffffffffffffffffffffffffffffffffff1663ff6a6d65836040518263ffffffff1660e01b81526004016112f89190611ff2565b60e060405180830381865afa158015611315573d6000803e3d6000fd5b505050506040513d601f19601f820116820180604052508101906113399190612a06565b90507f3c5ad147104e56be34a9176a6692f7df8d2f4b29a5af06bc6b98970d329d65778260405161136a9190612d80565b60405180910390a16000816060015111801561138857508060a00151155b156115ed576000816060015190507f3c5ad147104e56be34a9176a6692f7df8d2f4b29a5af06bc6b98970d329d6577816040516113c59190612dfa565b60405180910390a17f3c5ad147104e56be34a9176a6692f7df8d2f4b29a5af06bc6b98970d329d6577826020015173ffffffffffffffffffffffffffffffffffffffff166040516114169190612e74565b60405180910390a1600360009054906101000a900473ffffffffffffffffffffffffffffffffffffffff1673ffffffffffffffffffffffffffffffffffffffff1663edd6b438846040518263ffffffff1660e01b81526004016114799190611ff2565b600060405180830381600087803b15801561149357600080fd5b505af11580156114a7573d6000803e3d6000fd5b505050506000600260009054906101000a900473ffffffffffffffffffffffffffffffffffffffff1673ffffffffffffffffffffffffffffffffffffffff1663a9059cbb8460200151846040518363ffffffff1660e01b815260040161150e929190612ea2565b6020604051808303816000875af115801561152d573d6000803e3d6000fd5b505050506040513d601f19601f820116820180604052508101906115519190612ecb565b905080611593576040517f08c379a000000000000000000000000000000000000000000000000000000000815260040161158a90612f44565b60405180910390fd5b826020015173ffffffffffffffffffffffffffffffffffffffff16847f880f2ef2613b092f1a0a819f294155c98667eb294b7e6bf7a3810278142c1a1c846040516115de9190611ff2565b60405180910390a35050611674565b6000816060015103611631577f3c5ad147104e56be34a9176a6692f7df8d2f4b29a5af06bc6b98970d329d6577826040516116289190612fb0565b60405180910390a15b8060a0015115611673577f3c5ad147104e56be34a9176a6692f7df8d2f4b29a5af06bc6b98970d329d65778260405161166a919061302a565b60405180910390a15b5b508080600101915050611293565b5050565b600060065460075461169891906126dd565b42106116a85760055490506116fd565b6000603c600754426116ba9190612515565b6116c49190613087565b90506000600954826116d691906130b8565b905080600454116116e9576005546116f8565b806004546116f79190612515565b5b925050505b90565b611708611f32565b6000600281111561171c5761171b61200d565b5b600c60019054906101000a900460ff16600281111561173e5761173d61200d565b5b1461177e576040517f08c379a000000000000000000000000000000000000000000000000000000000815260040161177590612c01565b60405180910390fd5b6000611788611686565b9050803410156117cd576040517f08c379a00000000000000000000000000000000000000000000000000000000081526004016117c490613146565b60405180910390fd5b600081346117db9190613087565b9050600854811115611822576040517f08c379a0000000000000000000000000000000000000000000000000000000008152600401611819906131b2565b60405180910390fd5b80600860008282546118349190612515565b9250508190555034600a600082825461184d91906126dd565b92505081905550600360009054906101000a900473ffffffffffffffffffffffffffffffffffffffff1673ffffffffffffffffffffffffffffffffffffffff166330840a3e33346040518363ffffffff1660e01b81526004016118b1929190612ea2565b600060405180830381600087803b1580156118cb57600080fd5b505af11580156118df573d6000803e3d6000fd5b50505050600360009054906101000a900473ffffffffffffffffffffffffffffffffffffffff1673ffffffffffffffffffffffffffffffffffffffff1663743f62636001600360009054906101000a900473ffffffffffffffffffffffffffffffffffffffff1673ffffffffffffffffffffffffffffffffffffffff1663de71bf076040518163ffffffff1660e01b8152600401602060405180830381865afa158015611990573d6000803e3d6000fd5b505050506040513d601f19601f820116820180604052508101906119b49190612c8d565b6119be9190612515565b836040518363ffffffff1660e01b81526004016119dc9291906131d2565b600060405180830381600087803b1580156119f657600080fd5b505af1158015611a0a573d6000803e3d6000fd5b505050503373ffffffffffffffffffffffffffffffffffffffff167fdf8644c0a4c21ed214ce69f395675b3a5fcd1039083daea5058898de40ea31493483604051611a569291906131d2565b60405180910390a260006008541480611a7e5750600654600754611a7a91906126dd565b4210155b15611a8c57611a8b611ad7565b5b5050611a96611f78565b565b600c60009054906101000a900460ff1681565b60045481565b600260009054906101000a900473ffffffffffffffffffffffffffffffffffffffff1681565b600160009054906101000a900473ffffffffffffffffffffffffffffffffffffffff1673ffffffffffffffffffffffffffffffffffffffff163373ffffffffffffffffffffffffffffffffffffffff1614611b67576040517f08c379a0000000000000000000000000000000000000000000000000000000008152600401611b5e90612382565b60405180910390fd5b7f3c5ad147104e56be34a9176a6692f7df8d2f4b29a5af06bc6b98970d329d6577600854604051611b989190613247565b60405180910390a16002600c60016101000a81548160ff02191690836002811115611bc657611bc561200d565b5b0217905550600060085490507f3c5ad147104e56be34a9176a6692f7df8d2f4b29a5af06bc6b98970d329d6577600c60019054906101000a900460ff166002811115611c1557611c1461200d565b5b604051611c2291906132c1565b60405180910390a16000600160009054906101000a900473ffffffffffffffffffffffffffffffffffffffff1673ffffffffffffffffffffffffffffffffffffffff166108fc600a549081150290604051600060405180830381858888f19350505050905080611cc7576040517f08c379a0000000000000000000000000000000000000000000000000000000008152600401611cbe9061333b565b60405180910390fd5b7f3c5ad147104e56be34a9176a6692f7df8d2f4b29a5af06bc6b98970d329d6577600a54604051611cf891906133a7565b60405180910390a16000821115611e48577f3c5ad147104e56be34a9176a6692f7df8d2f4b29a5af06bc6b98970d329d657782604051611d389190613447565b60405180910390a16000600260009054906101000a900473ffffffffffffffffffffffffffffffffffffffff1673ffffffffffffffffffffffffffffffffffffffff1663a9059cbb600160009054906101000a900473ffffffffffffffffffffffffffffffffffffffff16856040518363ffffffff1660e01b8152600401611dc1929190612ea2565b6020604051808303816000875af1158015611de0573d6000803e3d6000fd5b505050506040513d601f19601f82011682018060405250810190611e049190612ecb565b905080611e46576040517f08c379a0000000000000000000000000000000000000000000000000000000008152600401611e3d906134c1565b60405180910390fd5b505b7fe536ac546f86787f3ea4069f79235c6b5a681e87d051300a3ed19a6ebb0db71c600a5483604051611e7b9291906131d2565b60405180910390a15050565b611e8f611f82565b600360009054906101000a900473ffffffffffffffffffffffffffffffffffffffff1673ffffffffffffffffffffffffffffffffffffffff1663ff6a6d65836040518263ffffffff1660e01b8152600401611eea9190611ff2565b60e060405180830381865afa158015611f07573d6000803e3d6000fd5b505050506040513d601f19601f82011682018060405250810190611f2b9190612a06565b9050919050565b600260005403611f6e576040517f3ee5aeb500000000000000000000000000000000000000000000000000000000815260040160405180910390fd5b6002600081905550565b6001600081905550565b6040518060e0016040528060008152602001600073ffffffffffffffffffffffffffffffffffffffff1681526020016000815260200160008152602001600081526020016000151581526020016000151581525090565b6000819050919050565b611fec81611fd9565b82525050565b60006020820190506120076000830184611fe3565b92915050565b7f4e487b7100000000000000000000000000000000000000000000000000000000600052602160045260246000fd5b6003811061204d5761204c61200d565b5b50565b600081905061205e8261203c565b919050565b600061206e82612050565b9050919050565b61207e81612063565b82525050565b60006020820190506120996000830184612075565b92915050565b600073ffffffffffffffffffffffffffffffffffffffff82169050919050565b6000819050919050565b60006120e46120df6120da8461209f565b6120bf565b61209f565b9050919050565b60006120f6826120c9565b9050919050565b6000612108826120eb565b9050919050565b612118816120fd565b82525050565b6000602082019050612133600083018461210f565b92915050565b6000604051905090565b600080fd5b61215181611fd9565b811461215c57600080fd5b50565b60008135905061216e81612148565b92915050565b60006020828403121561218a57612189612143565b5b60006121988482850161215f565b91505092915050565b60006121ac8261209f565b9050919050565b6121bc816121a1565b82525050565b60006020820190506121d760008301846121b3565b92915050565b60008115159050919050565b6121f2816121dd565b82525050565b600060208201905061220d60008301846121e9565b92915050565b600061221e826120eb565b9050919050565b61222e81612213565b82525050565b60006020820190506122496000830184612225565b92915050565b61225881611fd9565b82525050565b612267816121a1565b82525050565b612276816121dd565b82525050565b60e082016000820151612292600085018261224f565b5060208201516122a5602085018261225e565b5060408201516122b8604085018261224f565b5060608201516122cb606085018261224f565b5060808201516122de608085018261224f565b5060a08201516122f160a085018261226d565b5060c082015161230460c085018261226d565b50505050565b600060e08201905061231f600083018461227c565b92915050565b600082825260208201905092915050565b7f4e6f7420746865206f776e657200000000000000000000000000000000000000600082015250565b600061236c600d83612325565b915061237782612336565b602082019050919050565b6000602082019050818103600083015261239b8161235f565b9050919050565b7f41756374696f6e206973206e6f7420636c6f7365640000000000000000000000600082015250565b60006123d8601583612325565b91506123e3826123a2565b602082019050919050565b60006020820190508181036000830152612407816123cb565b9050919050565b7f41756374696f6e206973206e6f74207061757365640000000000000000000000600082015250565b6000612444601583612325565b915061244f8261240e565b602082019050919050565b6000602082019050818103600083015261247381612437565b9050919050565b7f41756374696f6e20686173206e6f742073746172746564000000000000000000600082015250565b60006124b0601783612325565b91506124bb8261247a565b602082019050919050565b600060208201905081810360008301526124df816124a3565b9050919050565b7f4e487b7100000000000000000000000000000000000000000000000000000000600052601160045260246000fd5b600061252082611fd9565b915061252b83611fd9565b9250828203905081811115612543576125426124e6565b5b92915050565b7f456c61707365642074696d650000000000000000000000000000000000000000600082015250565b600061257f600c83612325565b915061258a82612549565b602082019050919050565b600060408201905081810360008301526125ae81612572565b90506125bd6020830184611fe3565b92915050565b7f41756374696f6e206475726174696f6e206d65742e20456e64696e672061756360008201527f74696f6e2e000000000000000000000000000000000000000000000000000000602082015250565b600061261f602583612325565b915061262a826125c3565b604082019050919050565b6000604082019050818103600083015261264e81612612565b905061265d6020830184611fe3565b92915050565b7f41756374696f6e207374696c6c206f6e676f696e670000000000000000000000600082015250565b6000612699601583612325565b91506126a482612663565b602082019050919050565b600060408201905081810360008301526126c88161268c565b90506126d76020830184611fe3565b92915050565b60006126e882611fd9565b91506126f383611fd9565b925082820190508082111561270b5761270a6124e6565b5b92915050565b7f41756374696f6e20616c72656164792073746172746564206f7220706175736560008201527f6400000000000000000000000000000000000000000000000000000000000000602082015250565b600061276d602183612325565b915061277882612711565b604082019050919050565b6000602082019050818103600083015261279c81612760565b9050919050565b7f41756374696f6e20616c72656164792073746172746564000000000000000000600082015250565b60006127d9601783612325565b91506127e4826127a3565b602082019050919050565b60006020820190508181036000830152612808816127cc565b9050919050565b60006080820190506128246000830187611fe3565b6128316020830186611fe3565b61283e6040830185611fe3565b61284b6060830184611fe3565b95945050505050565b600080fd5b6000601f19601f8301169050919050565b7f4e487b7100000000000000000000000000000000000000000000000000000000600052604160045260246000fd5b6128a282612859565b810181811067ffffffffffffffff821117156128c1576128c061286a565b5b80604052505050565b60006128d4612139565b90506128e08282612899565b919050565b6000815190506128f481612148565b92915050565b612903816121a1565b811461290e57600080fd5b50565b600081519050612920816128fa565b92915050565b61292f816121dd565b811461293a57600080fd5b50565b60008151905061294c81612926565b92915050565b600060e0828403121561296857612967612854565b5b61297260e06128ca565b90506000612982848285016128e5565b600083015250602061299684828501612911565b60208301525060406129aa848285016128e5565b60408301525060606129be848285016128e5565b60608301525060806129d2848285016128e5565b60808301525060a06129e68482850161293d565b60a08301525060c06129fa8482850161293d565b60c08301525092915050565b600060e08284031215612a1c57612a1b612143565b5b6000612a2a84828501612952565b91505092915050565b7f4e6f20726566756e6420617661696c61626c6500000000000000000000000000600082015250565b6000612a69601383612325565b9150612a7482612a33565b602082019050919050565b60006020820190508181036000830152612a9881612a5c565b9050919050565b6000819050919050565b6000612ac4612abf612aba84612a9f565b6120bf565b611fd9565b9050919050565b612ad481612aa9565b82525050565b6000604082019050612aef6000830185611fe3565b612afc6020830184612acb565b9392505050565b600081905092915050565b50565b6000612b1e600083612b03565b9150612b2982612b0e565b600082019050919050565b6000612b3f82612b11565b9150819050919050565b7f526566756e64207472616e73666572206661696c656400000000000000000000600082015250565b6000612b7f601683612325565b9150612b8a82612b49565b602082019050919050565b60006020820190508181036000830152612bae81612b72565b9050919050565b7f41756374696f6e206973206e6f74206f70656e00000000000000000000000000600082015250565b6000612beb601383612325565b9150612bf682612bb5565b602082019050919050565b60006020820190508181036000830152612c1a81612bde565b9050919050565b7f41756374696f6e20686173206e6f7420656e6465640000000000000000000000600082015250565b6000612c57601583612325565b9150612c6282612c21565b602082019050919050565b60006020820190508181036000830152612c8681612c4a565b9050919050565b600060208284031215612ca357612ca2612143565b5b6000612cb1848285016128e5565b91505092915050565b7f546f74616c204269646465727300000000000000000000000000000000000000600082015250565b6000612cf0600d83612325565b9150612cfb82612cba565b602082019050919050565b60006040820190508181036000830152612d1f81612ce3565b9050612d2e6020830184611fe3565b92915050565b7f50726f63657373696e6720426964646572000000000000000000000000000000600082015250565b6000612d6a601183612325565b9150612d7582612d34565b602082019050919050565b60006040820190508181036000830152612d9981612d5d565b9050612da86020830184611fe3565b92915050565b7f546f6b656e7320746f2062652073656e74000000000000000000000000000000600082015250565b6000612de4601183612325565b9150612def82612dae565b602082019050919050565b60006040820190508181036000830152612e1381612dd7565b9050612e226020830184611fe3565b92915050565b7f4269646465722077616c6c657420616464726573730000000000000000000000600082015250565b6000612e5e601583612325565b9150612e6982612e28565b602082019050919050565b60006040820190508181036000830152612e8d81612e51565b9050612e9c6020830184611fe3565b92915050565b6000604082019050612eb760008301856121b3565b612ec46020830184611fe3565b9392505050565b600060208284031215612ee157612ee0612143565b5b6000612eef8482850161293d565b91505092915050565b7f546f6b656e207472616e73666572206661696c65640000000000000000000000600082015250565b6000612f2e601583612325565b9150612f3982612ef8565b602082019050919050565b60006020820190508181036000830152612f5d81612f21565b9050919050565b7f4e6f20746f6b656e7320746f2062652073656e7420666f722042696464657200600082015250565b6000612f9a601f83612325565b9150612fa582612f64565b602082019050919050565b60006040820190508181036000830152612fc981612f8d565b9050612fd86020830184611fe3565b92915050565b7f546f6b656e7320616c72656164792073656e7420666f72204269646465720000600082015250565b6000613014601e83612325565b915061301f82612fde565b602082019050919050565b6000604082019050818103600083015261304381613007565b90506130526020830184611fe3565b92915050565b7f4e487b7100000000000000000000000000000000000000000000000000000000600052601260045260246000fd5b600061309282611fd9565b915061309d83611fd9565b9250826130ad576130ac613058565b5b828204905092915050565b60006130c382611fd9565b91506130ce83611fd9565b92508282026130dc81611fd9565b915082820484148315176130f3576130f26124e6565b5b5092915050565b7f4269642062656c6f772063757272656e74207072696365000000000000000000600082015250565b6000613130601783612325565b915061313b826130fa565b602082019050919050565b6000602082019050818103600083015261315f81613123565b9050919050565b7f4e6f7420656e6f75676820746f6b656e73206c65667400000000000000000000600082015250565b600061319c601683612325565b91506131a782613166565b602082019050919050565b600060208201905081810360008301526131cb8161318f565b9050919050565b60006040820190506131e76000830185611fe3565b6131f46020830184611fe3565b9392505050565b7f5374617274696e6720656e6441756374696f6e00000000000000000000000000600082015250565b6000613231601383612325565b915061323c826131fb565b602082019050919050565b6000604082019050818103600083015261326081613224565b905061326f6020830184611fe3565b92915050565b7f41756374696f6e2073746174652073657420746f20434c4f5345440000000000600082015250565b60006132ab601b83612325565b91506132b682613275565b602082019050919050565b600060408201905081810360008301526132da8161329e565b90506132e96020830184611fe3565b92915050565b7f4f776e65722066756e64207472616e73666572206661696c6564000000000000600082015250565b6000613325601a83612325565b9150613330826132ef565b602082019050919050565b6000602082019050818103600083015261335481613318565b9050919050565b7f4f776e65722066756e6473207472616e73666572726564000000000000000000600082015250565b6000613391601783612325565b915061339c8261335b565b602082019050919050565b600060408201905081810360008301526133c081613384565b90506133cf6020830184611fe3565b92915050565b7f5472616e7366657272696e6720756e736f6c6420746f6b656e7320746f206f7760008201527f6e65720000000000000000000000000000000000000000000000000000000000602082015250565b6000613431602383612325565b915061343c826133d5565b604082019050919050565b6000604082019050818103600083015261346081613424565b905061346f6020830184611fe3565b92915050565b7f546f6b656e207472616e7366657220746f206f776e6572206661696c65640000600082015250565b60006134ab601e83612325565b91506134b682613475565b602082019050919050565b600060208201905081810360008301526134da8161349e565b905091905056fea2646970667358221220d44fa902590b4379926f400f48d8bba496ee1e939ee899c9c9f56261e653e2e764736f6c634300081b0033",
  "linkReferences": {},
  "deployedLinkReferences": {}
}