{
  "_format": "hh-sol-artifact-1",
  "contractName": "DutchAuction",
  "sourceName": "contracts/Auction.sol",
  "abi": [
    {
      "inputs": [
        {
          "internalType": "address",
          "name": "_token",
          "type": "address"
        },
        {
          "internalType": "address",
          "name": "_bidderContract",
          "type": "address"
        },
        {
          "internalType": "uint256",
          "name": "_startPrice",
          "type": "uint256"
        },
        {
          "internalType": "uint256",
          "name": "_reservePrice",
          "type": "uint256"
        },
        {
          "internalType": "uint256",
          "name": "_auctionDuration",
          "type": "uint256"
        },
        {
          "internalType": "uint256",
          "name": "_totalTokens",
          "type": "uint256"
        },
        {
          "internalType": "uint256",
          "name": "_priceDecrement",
          "type": "uint256"
        }
      ],
      "stateMutability": "nonpayable",
      "type": "constructor"
    },
    {
      "inputs": [],
      "name": "ReentrancyGuardReentrantCall",
      "type": "error"
    },
    {
      "anonymous": false,
      "inputs": [
        {
          "indexed": false,
          "internalType": "uint256",
          "name": "totalFundsRaised",
          "type": "uint256"
        },
        {
          "indexed": false,
          "internalType": "uint256",
          "name": "unsoldTokens",
          "type": "uint256"
        }
      ],
      "name": "AuctionEnded",
      "type": "event"
    },
    {
      "anonymous": false,
      "inputs": [],
      "name": "AuctionPaused",
      "type": "event"
    },
    {
      "anonymous": false,
      "inputs": [],
      "name": "AuctionResumed",
      "type": "event"
    },
    {
      "anonymous": false,
      "inputs": [
        {
          "indexed": false,
          "internalType": "uint256",
          "name": "startTime",
          "type": "uint256"
        },
        {
          "indexed": false,
          "internalType": "uint256",
          "name": "startPrice",
          "type": "uint256"
        },
        {
          "indexed": false,
          "internalType": "uint256",
          "name": "reservePrice",
          "type": "uint256"
        },
        {
          "indexed": false,
          "internalType": "uint256",
          "name": "totalTokens",
          "type": "uint256"
        }
      ],
      "name": "AuctionStarted",
      "type": "event"
    },
    {
      "anonymous": false,
      "inputs": [
        {
          "indexed": true,
          "internalType": "address",
          "name": "bidder",
          "type": "address"
        },
        {
          "indexed": false,
          "internalType": "uint256",
          "name": "bidAmount",
          "type": "uint256"
        },
        {
          "indexed": false,
          "internalType": "uint256",
          "name": "tokensAllocated",
          "type": "uint256"
        }
      ],
      "name": "BidPlaced",
      "type": "event"
    },
    {
      "anonymous": false,
      "inputs": [
        {
          "indexed": false,
          "internalType": "string",
          "name": "message",
          "type": "string"
        },
        {
          "indexed": false,
          "internalType": "uint256",
          "name": "value",
          "type": "uint256"
        }
      ],
      "name": "Debug",
      "type": "event"
    },
    {
      "anonymous": false,
      "inputs": [
        {
          "indexed": true,
          "internalType": "uint256",
          "name": "bidderID",
          "type": "uint256"
        },
        {
          "indexed": true,
          "internalType": "address",
          "name": "bidder",
          "type": "address"
        },
        {
          "indexed": false,
          "internalType": "uint256",
          "name": "amount",
          "type": "uint256"
        }
      ],
      "name": "TokensClaimed",
      "type": "event"
    },
    {
      "inputs": [],
      "name": "auctionDuration",
      "outputs": [
        {
          "internalType": "uint256",
          "name": "",
          "type": "uint256"
        }
      ],
      "stateMutability": "view",
      "type": "function"
    },
    {
      "inputs": [],
      "name": "auctionStarted",
      "outputs": [
        {
          "internalType": "bool",
          "name": "",
          "type": "bool"
        }
      ],
      "stateMutability": "view",
      "type": "function"
    },
    {
      "inputs": [],
      "name": "auctionState",
      "outputs": [
        {
          "internalType": "enum DutchAuction.AuctionState",
          "name": "",
          "type": "uint8"
        }
      ],
      "stateMutability": "view",
      "type": "function"
    },
    {
      "inputs": [],
      "name": "bidderContract",
      "outputs": [
        {
          "internalType": "contract Bidder",
          "name": "",
          "type": "address"
        }
      ],
      "stateMutability": "view",
      "type": "function"
    },
    {
      "inputs": [],
      "name": "checkAndEndAuction",
      "outputs": [],
      "stateMutability": "nonpayable",
      "type": "function"
    },
    {
      "inputs": [
        {
          "internalType": "uint256",
          "name": "bidderID",
          "type": "uint256"
        }
      ],
      "name": "claimTokens",
      "outputs": [],
      "stateMutability": "nonpayable",
      "type": "function"
    },
    {
      "inputs": [],
      "name": "endAuction",
      "outputs": [],
      "stateMutability": "nonpayable",
      "type": "function"
    },
    {
      "inputs": [],
      "name": "getAuctionStatus",
      "outputs": [
        {
          "internalType": "enum DutchAuction.AuctionState",
          "name": "",
          "type": "uint8"
        }
      ],
      "stateMutability": "view",
      "type": "function"
    },
    {
      "inputs": [
        {
          "internalType": "address",
          "name": "bidderAddress",
          "type": "address"
        }
      ],
      "name": "getBidderID",
      "outputs": [
        {
          "internalType": "uint256",
          "name": "",
          "type": "uint256"
        }
      ],
      "stateMutability": "view",
      "type": "function"
    },
    {
      "inputs": [
        {
          "internalType": "uint256",
          "name": "bidderID",
          "type": "uint256"
        }
      ],
      "name": "getBidderInfo",
      "outputs": [
        {
          "components": [
            {
              "internalType": "uint256",
              "name": "bidderID",
              "type": "uint256"
            },
            {
              "internalType": "address",
              "name": "walletAddress",
              "type": "address"
            },
            {
              "internalType": "uint256",
              "name": "bidValue",
              "type": "uint256"
            },
            {
              "internalType": "uint256",
              "name": "tokensPurchased",
              "type": "uint256"
            },
            {
              "internalType": "uint256",
              "name": "refundEth",
              "type": "uint256"
            },
            {
              "internalType": "bool",
              "name": "tokenSent",
              "type": "bool"
            },
            {
              "internalType": "bool",
              "name": "ethRefunded",
              "type": "bool"
            }
          ],
          "internalType": "struct Bidder.BidderInfo",
          "name": "",
          "type": "tuple"
        }
      ],
      "stateMutability": "view",
      "type": "function"
    },
    {
      "inputs": [],
      "name": "getCurrentPrice",
      "outputs": [
        {
          "internalType": "uint256",
          "name": "",
          "type": "uint256"
        }
      ],
      "stateMutability": "view",
      "type": "function"
    },
    {
      "inputs": [],
      "name": "getRemainingTokens",
      "outputs": [
        {
          "internalType": "uint256",
          "name": "",
          "type": "uint256"
        }
      ],
      "stateMutability": "view",
      "type": "function"
    },
    {
      "inputs": [],
      "name": "getTimeRemaining",
      "outputs": [
        {
          "internalType": "uint256",
          "name": "",
          "type": "uint256"
        }
      ],
      "stateMutability": "view",
      "type": "function"
    },
    {
      "inputs": [],
      "name": "getTotalFundsRaised",
      "outputs": [
        {
          "internalType": "uint256",
          "name": "",
          "type": "uint256"
        }
      ],
      "stateMutability": "view",
      "type": "function"
    },
    {
      "inputs": [
        {
          "internalType": "uint256",
          "name": "secondsToAdd",
          "type": "uint256"
        }
      ],
      "name": "incrementTime",
      "outputs": [],
      "stateMutability": "nonpayable",
      "type": "function"
    },
    {
      "inputs": [],
      "name": "owner",
      "outputs": [
        {
          "internalType": "address",
          "name": "",
          "type": "address"
        }
      ],
      "stateMutability": "view",
      "type": "function"
    },
    {
      "inputs": [],
      "name": "pauseAuction",
      "outputs": [],
      "stateMutability": "nonpayable",
      "type": "function"
    },
    {
      "inputs": [],
      "name": "placeBid",
      "outputs": [],
      "stateMutability": "payable",
      "type": "function"
    },
    {
      "inputs": [],
      "name": "priceDecrement",
      "outputs": [
        {
          "internalType": "uint256",
          "name": "",
          "type": "uint256"
        }
      ],
      "stateMutability": "view",
      "type": "function"
    },
    {
      "inputs": [],
      "name": "reservePrice",
      "outputs": [
        {
          "internalType": "uint256",
          "name": "",
          "type": "uint256"
        }
      ],
      "stateMutability": "view",
      "type": "function"
    },
    {
      "inputs": [],
      "name": "resumeAuction",
      "outputs": [],
      "stateMutability": "nonpayable",
      "type": "function"
    },
    {
      "inputs": [],
      "name": "sendTokens",
      "outputs": [],
      "stateMutability": "nonpayable",
      "type": "function"
    },
    {
      "inputs": [],
      "name": "startAuction",
      "outputs": [],
      "stateMutability": "nonpayable",
      "type": "function"
    },
    {
      "inputs": [],
      "name": "startPrice",
      "outputs": [
        {
          "internalType": "uint256",
          "name": "",
          "type": "uint256"
        }
      ],
      "stateMutability": "view",
      "type": "function"
    },
    {
      "inputs": [],
      "name": "startTime",
      "outputs": [
        {
          "internalType": "uint256",
          "name": "",
          "type": "uint256"
        }
      ],
      "stateMutability": "view",
      "type": "function"
    },
    {
      "inputs": [],
      "name": "timeElapsed",
      "outputs": [
        {
          "internalType": "uint256",
          "name": "",
          "type": "uint256"
        }
      ],
      "stateMutability": "view",
      "type": "function"
    },
    {
      "inputs": [],
      "name": "token",
      "outputs": [
        {
          "internalType": "contract IERC20",
          "name": "",
          "type": "address"
        }
      ],
      "stateMutability": "view",
      "type": "function"
    },
    {
      "inputs": [],
      "name": "totalFundsRaised",
      "outputs": [
        {
          "internalType": "uint256",
          "name": "",
          "type": "uint256"
        }
      ],
      "stateMutability": "view",
      "type": "function"
    },
    {
      "inputs": [],
      "name": "totalTokensAvailable",
      "outputs": [
        {
          "internalType": "uint256",
          "name": "",
          "type": "uint256"
        }
      ],
      "stateMutability": "view",
      "type": "function"
    },
    {
      "inputs": [],
      "name": "withdrawFunds",
      "outputs": [],
      "stateMutability": "nonpayable",
      "type": "function"
    },
    {
      "inputs": [
        {
          "internalType": "uint256",
          "name": "bidderID",
          "type": "uint256"
        }
      ],
      "name": "withdrawRefund",
      "outputs": [],
      "stateMutability": "nonpayable",
      "type": "function"
    }
  ],
  "bytecode": "0x608060405234801561001057600080fd5b50604051614017380380614017833981810160405281019061003291906101f0565b600160008190555033600160006101000a81548173ffffffffffffffffffffffffffffffffffffffff021916908373ffffffffffffffffffffffffffffffffffffffff16021790555086600260006101000a81548173ffffffffffffffffffffffffffffffffffffffff021916908373ffffffffffffffffffffffffffffffffffffffff16021790555085600360006101000a81548173ffffffffffffffffffffffffffffffffffffffff021916908373ffffffffffffffffffffffffffffffffffffffff16021790555084600481905550836005819055508260068190555081600881905550806009819055506002600c60016101000a81548160ff0219169083600281111561014657610145610292565b5b0217905550505050505050506102c1565b600080fd5b600073ffffffffffffffffffffffffffffffffffffffff82169050919050565b60006101878261015c565b9050919050565b6101978161017c565b81146101a257600080fd5b50565b6000815190506101b48161018e565b92915050565b6000819050919050565b6101cd816101ba565b81146101d857600080fd5b50565b6000815190506101ea816101c4565b92915050565b600080600080600080600060e0888a03121561020f5761020e610157565b5b600061021d8a828b016101a5565b975050602061022e8a828b016101a5565b965050604061023f8a828b016101db565b95505060606102508a828b016101db565b94505060806102618a828b016101db565b93505060a06102728a828b016101db565b92505060c06102838a828b016101db565b91505092959891949750929550565b7f4e487b7100000000000000000000000000000000000000000000000000000000600052602160045260246000fd5b613d47806102d06000396000f3fe6080604052600436106101d85760003560e01c80637fb4509911610102578063e47112bd11610095578063f1a9af8911610064578063f1a9af89146105d9578063fc0c546a14610604578063fe67a54b1461062f578063ff6a6d6514610646576101d8565b8063e47112bd14610562578063eb91d37e14610579578063ecfc7ecc146105a4578063ee2679bc146105ae576101d8565b8063b9ae7364116100d1578063b9ae7364146104ca578063dac6270d146104e1578063db2e1eed1461050c578063dc2cf3f514610537576101d8565b80637fb45099146104205780638da5cb5b1461044b5780639d15349514610476578063af35ae271461049f576101d8565b806346e04a2f1161017a5780636b64c769116101495780636b64c769146103765780636dd2cbe51461038d57806378e97925146103b85780637fa6d63f146103e3576101d8565b806346e04a2f146102e257806351b5dbd91461030b578063621de3c414610322578063699ca55f1461034d576101d8565b806326cddbfb116101b657806326cddbfb1461024a5780632e93be301461027557806332353fbd146102a0578063427c0c7f146102b7576101d8565b80630c3e2d2d146101dd5780630cbf54c81461020857806324600fc314610233575b600080fd5b3480156101e957600080fd5b506101f2610683565b6040516101ff9190612630565b60405180910390f35b34801561021457600080fd5b5061021d61068d565b60405161022a9190612630565b60405180910390f35b34801561023f57600080fd5b50610248610693565b005b34801561025657600080fd5b5061025f610805565b60405161026c9190612630565b60405180910390f35b34801561028157600080fd5b5061028a61080b565b60405161029791906126c2565b60405180910390f35b3480156102ac57600080fd5b506102b5610822565b005b3480156102c357600080fd5b506102cc610981565b6040516102d99190612630565b60405180910390f35b3480156102ee57600080fd5b5061030960048036038101906103049190612718565b610987565b005b34801561031757600080fd5b50610320610d77565b005b34801561032e57600080fd5b50610337610ea6565b60405161034491906127c4565b60405180910390f35b34801561035957600080fd5b50610374600480360381019061036f9190612718565b610ecc565b005b34801561038257600080fd5b5061038b610ee8565b005b34801561039957600080fd5b506103a26110d9565b6040516103af9190612630565b60405180910390f35b3480156103c457600080fd5b506103cd6110df565b6040516103da9190612630565b60405180910390f35b3480156103ef57600080fd5b5061040a6004803603810190610405919061281d565b6110e5565b6040516104179190612630565b60405180910390f35b34801561042c57600080fd5b506104356112b7565b60405161044291906126c2565b60405180910390f35b34801561045757600080fd5b506104606112ca565b60405161046d9190612859565b60405180910390f35b34801561048257600080fd5b5061049d60048036038101906104989190612718565b6112f0565b005b3480156104ab57600080fd5b506104b461152e565b6040516104c19190612630565b60405180910390f35b3480156104d657600080fd5b506104df611538565b005b3480156104ed57600080fd5b506104f6611697565b6040516105039190612630565b60405180910390f35b34801561051857600080fd5b506105216116f1565b60405161052e9190612630565b60405180910390f35b34801561054357600080fd5b5061054c6116f7565b6040516105599190612630565b60405180910390f35b34801561056e57600080fd5b506105776116fd565b005b34801561058557600080fd5b5061058e611cc4565b60405161059b9190612630565b60405180910390f35b6105ac611d3e565b005b3480156105ba57600080fd5b506105c36120d6565b6040516105d0919061288f565b60405180910390f35b3480156105e557600080fd5b506105ee6120e9565b6040516105fb9190612630565b60405180910390f35b34801561061057600080fd5b506106196120ef565b60405161062691906128cb565b60405180910390f35b34801561063b57600080fd5b50610644612115565b005b34801561065257600080fd5b5061066d60048036038101906106689190612718565b6124c5565b60405161067a91906129a1565b60405180910390f35b6000600a54905090565b60065481565b600160009054906101000a900473ffffffffffffffffffffffffffffffffffffffff1673ffffffffffffffffffffffffffffffffffffffff163373ffffffffffffffffffffffffffffffffffffffff1614610723576040517f08c379a000000000000000000000000000000000000000000000000000000000815260040161071a90612a19565b60405180910390fd5b6002808111156107365761073561264b565b5b600c60019054906101000a900460ff1660028111156107585761075761264b565b5b14610798576040517f08c379a000000000000000000000000000000000000000000000000000000000815260040161078f90612a85565b60405180910390fd5b600160009054906101000a900473ffffffffffffffffffffffffffffffffffffffff1673ffffffffffffffffffffffffffffffffffffffff166108fc600a549081150290604051600060405180830381858888f19350505050158015610802573d6000803e3d6000fd5b50565b60095481565b6000600c60019054906101000a900460ff16905090565b600160009054906101000a900473ffffffffffffffffffffffffffffffffffffffff1673ffffffffffffffffffffffffffffffffffffffff163373ffffffffffffffffffffffffffffffffffffffff16146108b2576040517f08c379a00000000000000000000000000000000000000000000000000000000081526004016108a990612a19565b60405180910390fd5b600160028111156108c6576108c561264b565b5b600c60019054906101000a900460ff1660028111156108e8576108e761264b565b5b14610928576040517f08c379a000000000000000000000000000000000000000000000000000000000815260040161091f90612af1565b60405180910390fd5b6000600c60016101000a81548160ff0219169083600281111561094e5761094d61264b565b5b02179055507f979e0f22222b399f6e77f2614325775244291877598c6174fd7caf44b4bdfcc560405160405180910390a1565b600a5481565b61098f612570565b6002808111156109a2576109a161264b565b5b600c60019054906101000a900460ff1660028111156109c4576109c361264b565b5b14610a04576040517f08c379a00000000000000000000000000000000000000000000000000000000081526004016109fb90612a85565b60405180910390fd5b6000600360009054906101000a900473ffffffffffffffffffffffffffffffffffffffff1673ffffffffffffffffffffffffffffffffffffffff1663ff6a6d65836040518263ffffffff1660e01b8152600401610a619190612630565b60e060405180830381865afa158015610a7e573d6000803e3d6000fd5b505050506040513d601f19601f82011682018060405250810190610aa29190612cac565b9050806020015173ffffffffffffffffffffffffffffffffffffffff163373ffffffffffffffffffffffffffffffffffffffff1614610b16576040517f08c379a0000000000000000000000000000000000000000000000000000000008152600401610b0d90612d25565b60405180910390fd5b8060a0015115610b5b576040517f08c379a0000000000000000000000000000000000000000000000000000000008152600401610b5290612d91565b60405180910390fd5b6000816060015111610ba2576040517f08c379a0000000000000000000000000000000000000000000000000000000008152600401610b9990612dfd565b60405180910390fd5b600360009054906101000a900473ffffffffffffffffffffffffffffffffffffffff1673ffffffffffffffffffffffffffffffffffffffff1663edd6b438836040518263ffffffff1660e01b8152600401610bfd9190612630565b600060405180830381600087803b158015610c1757600080fd5b505af1158015610c2b573d6000803e3d6000fd5b505050506000600260009054906101000a900473ffffffffffffffffffffffffffffffffffffffff1673ffffffffffffffffffffffffffffffffffffffff1663a9059cbb3384606001516040518363ffffffff1660e01b8152600401610c92929190612e1d565b6020604051808303816000875af1158015610cb1573d6000803e3d6000fd5b505050506040513d601f19601f82011682018060405250810190610cd59190612e46565b905080610d17576040517f08c379a0000000000000000000000000000000000000000000000000000000008152600401610d0e90612ebf565b60405180910390fd5b3373ffffffffffffffffffffffffffffffffffffffff16837f880f2ef2613b092f1a0a819f294155c98667eb294b7e6bf7a3810278142c1a1c8460600151604051610d629190612630565b60405180910390a35050610d746125b6565b50565b600c60009054906101000a900460ff16610dc6576040517f08c379a0000000000000000000000000000000000000000000000000000000008152600401610dbd90612f2b565b60405180910390fd5b600060075442610dd69190612f7a565b90507f3c5ad147104e56be34a9176a6692f7df8d2f4b29a5af06bc6b98970d329d657781604051610e079190612ffa565b60405180910390a16006548110610e5e577f3c5ad147104e56be34a9176a6692f7df8d2f4b29a5af06bc6b98970d329d6577600654604051610e49919061309a565b60405180910390a1610e59612115565b610ea3565b7f3c5ad147104e56be34a9176a6692f7df8d2f4b29a5af06bc6b98970d329d657781600654610e8d9190612f7a565b604051610e9a9190613114565b60405180910390a15b50565b600360009054906101000a900473ffffffffffffffffffffffffffffffffffffffff1681565b80600b6000828254610ede9190613142565b9250508190555050565b600160009054906101000a900473ffffffffffffffffffffffffffffffffffffffff1673ffffffffffffffffffffffffffffffffffffffff163373ffffffffffffffffffffffffffffffffffffffff1614610f78576040517f08c379a0000000000000000000000000000000000000000000000000000000008152600401610f6f90612a19565b60405180910390fd5b600280811115610f8b57610f8a61264b565b5b600c60019054906101000a900460ff166002811115610fad57610fac61264b565b5b14610fed576040517f08c379a0000000000000000000000000000000000000000000000000000000008152600401610fe4906131e8565b60405180910390fd5b600c60009054906101000a900460ff161561103d576040517f08c379a000000000000000000000000000000000000000000000000000000000815260040161103490613254565b60405180910390fd5b426007819055506000600c60016101000a81548160ff0219169083600281111561106a5761106961264b565b5b02179055506001600c60006101000a81548160ff0219169083151502179055506000600b819055507fa832766a05f1bd0298b0268308621777cfe1e4eea23afe7c06beea79bc6ddd2d6007546004546005546008546040516110cf9493929190613274565b60405180910390a1565b60085481565b60075481565b600080600360009054906101000a900473ffffffffffffffffffffffffffffffffffffffff1673ffffffffffffffffffffffffffffffffffffffff1663de71bf076040518163ffffffff1660e01b8152600401602060405180830381865afa158015611155573d6000803e3d6000fd5b505050506040513d601f19601f8201168201806040525081019061117991906132b9565b905060005b81811015611276576000600360009054906101000a900473ffffffffffffffffffffffffffffffffffffffff1673ffffffffffffffffffffffffffffffffffffffff1663ff6a6d65836040518263ffffffff1660e01b81526004016111e39190612630565b60e060405180830381865afa158015611200573d6000803e3d6000fd5b505050506040513d601f19601f820116820180604052508101906112249190612cac565b90508473ffffffffffffffffffffffffffffffffffffffff16816020015173ffffffffffffffffffffffffffffffffffffffff1603611268578193505050506112b2565b50808060010191505061117e565b506040517f08c379a00000000000000000000000000000000000000000000000000000000081526004016112a990613332565b60405180910390fd5b919050565b600c60019054906101000a900460ff1681565b600160009054906101000a900473ffffffffffffffffffffffffffffffffffffffff1681565b6112f8612570565b6000600360009054906101000a900473ffffffffffffffffffffffffffffffffffffffff1673ffffffffffffffffffffffffffffffffffffffff1663ff6a6d65836040518263ffffffff1660e01b81526004016113559190612630565b60e060405180830381865afa158015611372573d6000803e3d6000fd5b505050506040513d601f19601f820116820180604052508101906113969190612cac565b9050600081608001519050600081116113e4576040517f08c379a00000000000000000000000000000000000000000000000000000000081526004016113db9061339e565b60405180910390fd5b600360009054906101000a900473ffffffffffffffffffffffffffffffffffffffff1673ffffffffffffffffffffffffffffffffffffffff1663bbca9fd58460006040518363ffffffff1660e01b81526004016114429291906133f9565b600060405180830381600087803b15801561145c57600080fd5b505af1158015611470573d6000803e3d6000fd5b5050505060003373ffffffffffffffffffffffffffffffffffffffff168260405161149a90613453565b60006040518083038185875af1925050503d80600081146114d7576040519150601f19603f3d011682016040523d82523d6000602084013e6114dc565b606091505b5050905080611520576040517f08c379a0000000000000000000000000000000000000000000000000000000008152600401611517906134b4565b60405180910390fd5b50505061152b6125b6565b50565b6000600854905090565b600160009054906101000a900473ffffffffffffffffffffffffffffffffffffffff1673ffffffffffffffffffffffffffffffffffffffff163373ffffffffffffffffffffffffffffffffffffffff16146115c8576040517f08c379a00000000000000000000000000000000000000000000000000000000081526004016115bf90612a19565b60405180910390fd5b600060028111156115dc576115db61264b565b5b600c60019054906101000a900460ff1660028111156115fe576115fd61264b565b5b1461163e576040517f08c379a000000000000000000000000000000000000000000000000000000000815260040161163590613520565b60405180910390fd5b6001600c60016101000a81548160ff021916908360028111156116645761166361264b565b5b02179055507f749d6d79623c8cbd2345906702c70ae75d4254a6c409047c16d52fa5a37ef69860405160405180910390a1565b6000600c60009054906101000a900460ff166116b75760065490506116ee565b6000600754426116c79190612f7a565b905060065481106116dc5760009150506116ee565b806006546116ea9190612f7a565b9150505b90565b60055481565b600b5481565b600160009054906101000a900473ffffffffffffffffffffffffffffffffffffffff1673ffffffffffffffffffffffffffffffffffffffff163373ffffffffffffffffffffffffffffffffffffffff161461178d576040517f08c379a000000000000000000000000000000000000000000000000000000000815260040161178490612a19565b60405180910390fd5b6002808111156117a05761179f61264b565b5b600c60019054906101000a900460ff1660028111156117c2576117c161264b565b5b14611802576040517f08c379a00000000000000000000000000000000000000000000000000000000081526004016117f99061358c565b60405180910390fd5b6000600360009054906101000a900473ffffffffffffffffffffffffffffffffffffffff1673ffffffffffffffffffffffffffffffffffffffff1663de71bf076040518163ffffffff1660e01b8152600401602060405180830381865afa158015611871573d6000803e3d6000fd5b505050506040513d601f19601f8201168201806040525081019061189591906132b9565b90507f3c5ad147104e56be34a9176a6692f7df8d2f4b29a5af06bc6b98970d329d6577816040516118c691906135f8565b60405180910390a160005b81811015611cc0576000600360009054906101000a900473ffffffffffffffffffffffffffffffffffffffff1673ffffffffffffffffffffffffffffffffffffffff1663ff6a6d65836040518263ffffffff1660e01b81526004016119369190612630565b60e060405180830381865afa158015611953573d6000803e3d6000fd5b505050506040513d601f19601f820116820180604052508101906119779190612cac565b90507f3c5ad147104e56be34a9176a6692f7df8d2f4b29a5af06bc6b98970d329d6577826040516119a89190613672565b60405180910390a1600081606001511180156119c657508060a00151155b15611c2b576000816060015190507f3c5ad147104e56be34a9176a6692f7df8d2f4b29a5af06bc6b98970d329d657781604051611a0391906136ec565b60405180910390a17f3c5ad147104e56be34a9176a6692f7df8d2f4b29a5af06bc6b98970d329d6577826020015173ffffffffffffffffffffffffffffffffffffffff16604051611a549190613766565b60405180910390a1600360009054906101000a900473ffffffffffffffffffffffffffffffffffffffff1673ffffffffffffffffffffffffffffffffffffffff1663edd6b438846040518263ffffffff1660e01b8152600401611ab79190612630565b600060405180830381600087803b158015611ad157600080fd5b505af1158015611ae5573d6000803e3d6000fd5b505050506000600260009054906101000a900473ffffffffffffffffffffffffffffffffffffffff1673ffffffffffffffffffffffffffffffffffffffff1663a9059cbb8460200151846040518363ffffffff1660e01b8152600401611b4c929190612e1d565b6020604051808303816000875af1158015611b6b573d6000803e3d6000fd5b505050506040513d601f19601f82011682018060405250810190611b8f9190612e46565b905080611bd1576040517f08c379a0000000000000000000000000000000000000000000000000000000008152600401611bc890612ebf565b60405180910390fd5b826020015173ffffffffffffffffffffffffffffffffffffffff16847f880f2ef2613b092f1a0a819f294155c98667eb294b7e6bf7a3810278142c1a1c84604051611c1c9190612630565b60405180910390a35050611cb2565b6000816060015103611c6f577f3c5ad147104e56be34a9176a6692f7df8d2f4b29a5af06bc6b98970d329d657782604051611c6691906137e0565b60405180910390a15b8060a0015115611cb1577f3c5ad147104e56be34a9176a6692f7df8d2f4b29a5af06bc6b98970d329d657782604051611ca8919061385a565b60405180910390a15b5b5080806001019150506118d1565b5050565b6000600654600754611cd69190613142565b4210611ce6576005549050611d3b565b6000603c60075442611cf89190612f7a565b611d0291906138b7565b9050600060095482611d1491906138e8565b90508060045411611d2757600554611d36565b80600454611d359190612f7a565b5b925050505b90565b611d46612570565b60006002811115611d5a57611d5961264b565b5b600c60019054906101000a900460ff166002811115611d7c57611d7b61264b565b5b14611dbc576040517f08c379a0000000000000000000000000000000000000000000000000000000008152600401611db390613520565b60405180910390fd5b6000611dc6611cc4565b905080341015611e0b576040517f08c379a0000000000000000000000000000000000000000000000000000000008152600401611e0290613976565b60405180910390fd5b60008134611e1991906138b7565b9050600854811115611e60576040517f08c379a0000000000000000000000000000000000000000000000000000000008152600401611e57906139e2565b60405180910390fd5b8060086000828254611e729190612f7a565b9250508190555034600a6000828254611e8b9190613142565b92505081905550600360009054906101000a900473ffffffffffffffffffffffffffffffffffffffff1673ffffffffffffffffffffffffffffffffffffffff166330840a3e33346040518363ffffffff1660e01b8152600401611eef929190612e1d565b600060405180830381600087803b158015611f0957600080fd5b505af1158015611f1d573d6000803e3d6000fd5b50505050600360009054906101000a900473ffffffffffffffffffffffffffffffffffffffff1673ffffffffffffffffffffffffffffffffffffffff1663743f62636001600360009054906101000a900473ffffffffffffffffffffffffffffffffffffffff1673ffffffffffffffffffffffffffffffffffffffff1663de71bf076040518163ffffffff1660e01b8152600401602060405180830381865afa158015611fce573d6000803e3d6000fd5b505050506040513d601f19601f82011682018060405250810190611ff291906132b9565b611ffc9190612f7a565b836040518363ffffffff1660e01b815260040161201a929190613a02565b600060405180830381600087803b15801561203457600080fd5b505af1158015612048573d6000803e3d6000fd5b505050503373ffffffffffffffffffffffffffffffffffffffff167fdf8644c0a4c21ed214ce69f395675b3a5fcd1039083daea5058898de40ea31493483604051612094929190613a02565b60405180910390a2600060085414806120bc57506006546007546120b89190613142565b4210155b156120ca576120c9612115565b5b50506120d46125b6565b565b600c60009054906101000a900460ff1681565b60045481565b600260009054906101000a900473ffffffffffffffffffffffffffffffffffffffff1681565b600160009054906101000a900473ffffffffffffffffffffffffffffffffffffffff1673ffffffffffffffffffffffffffffffffffffffff163373ffffffffffffffffffffffffffffffffffffffff16146121a5576040517f08c379a000000000000000000000000000000000000000000000000000000000815260040161219c90612a19565b60405180910390fd5b7f3c5ad147104e56be34a9176a6692f7df8d2f4b29a5af06bc6b98970d329d65776008546040516121d69190613a77565b60405180910390a16002600c60016101000a81548160ff021916908360028111156122045761220361264b565b5b0217905550600060085490507f3c5ad147104e56be34a9176a6692f7df8d2f4b29a5af06bc6b98970d329d6577600c60019054906101000a900460ff1660028111156122535761225261264b565b5b6040516122609190613af1565b60405180910390a16000600160009054906101000a900473ffffffffffffffffffffffffffffffffffffffff1673ffffffffffffffffffffffffffffffffffffffff166108fc600a549081150290604051600060405180830381858888f19350505050905080612305576040517f08c379a00000000000000000000000000000000000000000000000000000000081526004016122fc90613b6b565b60405180910390fd5b7f3c5ad147104e56be34a9176a6692f7df8d2f4b29a5af06bc6b98970d329d6577600a546040516123369190613bd7565b60405180910390a16000821115612486577f3c5ad147104e56be34a9176a6692f7df8d2f4b29a5af06bc6b98970d329d6577826040516123769190613c77565b60405180910390a16000600260009054906101000a900473ffffffffffffffffffffffffffffffffffffffff1673ffffffffffffffffffffffffffffffffffffffff1663a9059cbb600160009054906101000a900473ffffffffffffffffffffffffffffffffffffffff16856040518363ffffffff1660e01b81526004016123ff929190612e1d565b6020604051808303816000875af115801561241e573d6000803e3d6000fd5b505050506040513d601f19601f820116820180604052508101906124429190612e46565b905080612484576040517f08c379a000000000000000000000000000000000000000000000000000000000815260040161247b90613cf1565b60405180910390fd5b505b7fe536ac546f86787f3ea4069f79235c6b5a681e87d051300a3ed19a6ebb0db71c600a54836040516124b9929190613a02565b60405180910390a15050565b6124cd6125c0565b600360009054906101000a900473ffffffffffffffffffffffffffffffffffffffff1673ffffffffffffffffffffffffffffffffffffffff1663ff6a6d65836040518263ffffffff1660e01b81526004016125289190612630565b60e060405180830381865afa158015612545573d6000803e3d6000fd5b505050506040513d601f19601f820116820180604052508101906125699190612cac565b9050919050565b6002600054036125ac576040517f3ee5aeb500000000000000000000000000000000000000000000000000000000815260040160405180910390fd5b6002600081905550565b6001600081905550565b6040518060e0016040528060008152602001600073ffffffffffffffffffffffffffffffffffffffff1681526020016000815260200160008152602001600081526020016000151581526020016000151581525090565b6000819050919050565b61262a81612617565b82525050565b60006020820190506126456000830184612621565b92915050565b7f4e487b7100000000000000000000000000000000000000000000000000000000600052602160045260246000fd5b6003811061268b5761268a61264b565b5b50565b600081905061269c8261267a565b919050565b60006126ac8261268e565b9050919050565b6126bc816126a1565b82525050565b60006020820190506126d760008301846126b3565b92915050565b6000604051905090565b600080fd5b6126f581612617565b811461270057600080fd5b50565b600081359050612712816126ec565b92915050565b60006020828403121561272e5761272d6126e7565b5b600061273c84828501612703565b91505092915050565b600073ffffffffffffffffffffffffffffffffffffffff82169050919050565b6000819050919050565b600061278a61278561278084612745565b612765565b612745565b9050919050565b600061279c8261276f565b9050919050565b60006127ae82612791565b9050919050565b6127be816127a3565b82525050565b60006020820190506127d960008301846127b5565b92915050565b60006127ea82612745565b9050919050565b6127fa816127df565b811461280557600080fd5b50565b600081359050612817816127f1565b92915050565b600060208284031215612833576128326126e7565b5b600061284184828501612808565b91505092915050565b612853816127df565b82525050565b600060208201905061286e600083018461284a565b92915050565b60008115159050919050565b61288981612874565b82525050565b60006020820190506128a46000830184612880565b92915050565b60006128b582612791565b9050919050565b6128c5816128aa565b82525050565b60006020820190506128e060008301846128bc565b92915050565b6128ef81612617565b82525050565b6128fe816127df565b82525050565b61290d81612874565b82525050565b60e08201600082015161292960008501826128e6565b50602082015161293c60208501826128f5565b50604082015161294f60408501826128e6565b50606082015161296260608501826128e6565b50608082015161297560808501826128e6565b5060a082015161298860a0850182612904565b5060c082015161299b60c0850182612904565b50505050565b600060e0820190506129b66000830184612913565b92915050565b600082825260208201905092915050565b7f4e6f7420746865206f776e657200000000000000000000000000000000000000600082015250565b6000612a03600d836129bc565b9150612a0e826129cd565b602082019050919050565b60006020820190508181036000830152612a32816129f6565b9050919050565b7f41756374696f6e206973206e6f7420636c6f7365640000000000000000000000600082015250565b6000612a6f6015836129bc565b9150612a7a82612a39565b602082019050919050565b60006020820190508181036000830152612a9e81612a62565b9050919050565b7f41756374696f6e206973206e6f74207061757365640000000000000000000000600082015250565b6000612adb6015836129bc565b9150612ae682612aa5565b602082019050919050565b60006020820190508181036000830152612b0a81612ace565b9050919050565b600080fd5b6000601f19601f8301169050919050565b7f4e487b7100000000000000000000000000000000000000000000000000000000600052604160045260246000fd5b612b5f82612b16565b810181811067ffffffffffffffff82111715612b7e57612b7d612b27565b5b80604052505050565b6000612b916126dd565b9050612b9d8282612b56565b919050565b600081519050612bb1816126ec565b92915050565b600081519050612bc6816127f1565b92915050565b612bd581612874565b8114612be057600080fd5b50565b600081519050612bf281612bcc565b92915050565b600060e08284031215612c0e57612c0d612b11565b5b612c1860e0612b87565b90506000612c2884828501612ba2565b6000830152506020612c3c84828501612bb7565b6020830152506040612c5084828501612ba2565b6040830152506060612c6484828501612ba2565b6060830152506080612c7884828501612ba2565b60808301525060a0612c8c84828501612be3565b60a08301525060c0612ca084828501612be3565b60c08301525092915050565b600060e08284031215612cc257612cc16126e7565b5b6000612cd084828501612bf8565b91505092915050565b7f4e6f742074686520626964646572000000000000000000000000000000000000600082015250565b6000612d0f600e836129bc565b9150612d1a82612cd9565b602082019050919050565b60006020820190508181036000830152612d3e81612d02565b9050919050565b7f546f6b656e7320616c726561647920636c61696d656400000000000000000000600082015250565b6000612d7b6016836129bc565b9150612d8682612d45565b602082019050919050565b60006020820190508181036000830152612daa81612d6e565b9050919050565b7f4e6f20746f6b656e7320746f20636c61696d0000000000000000000000000000600082015250565b6000612de76012836129bc565b9150612df282612db1565b602082019050919050565b60006020820190508181036000830152612e1681612dda565b9050919050565b6000604082019050612e32600083018561284a565b612e3f6020830184612621565b9392505050565b600060208284031215612e5c57612e5b6126e7565b5b6000612e6a84828501612be3565b91505092915050565b7f546f6b656e207472616e73666572206661696c65640000000000000000000000600082015250565b6000612ea96015836129bc565b9150612eb482612e73565b602082019050919050565b60006020820190508181036000830152612ed881612e9c565b9050919050565b7f41756374696f6e20686173206e6f742073746172746564000000000000000000600082015250565b6000612f156017836129bc565b9150612f2082612edf565b602082019050919050565b60006020820190508181036000830152612f4481612f08565b9050919050565b7f4e487b7100000000000000000000000000000000000000000000000000000000600052601160045260246000fd5b6000612f8582612617565b9150612f9083612617565b9250828203905081811115612fa857612fa7612f4b565b5b92915050565b7f456c61707365642074696d650000000000000000000000000000000000000000600082015250565b6000612fe4600c836129bc565b9150612fef82612fae565b602082019050919050565b6000604082019050818103600083015261301381612fd7565b90506130226020830184612621565b92915050565b7f41756374696f6e206475726174696f6e206d65742e20456e64696e672061756360008201527f74696f6e2e000000000000000000000000000000000000000000000000000000602082015250565b60006130846025836129bc565b915061308f82613028565b604082019050919050565b600060408201905081810360008301526130b381613077565b90506130c26020830184612621565b92915050565b7f41756374696f6e207374696c6c206f6e676f696e670000000000000000000000600082015250565b60006130fe6015836129bc565b9150613109826130c8565b602082019050919050565b6000604082019050818103600083015261312d816130f1565b905061313c6020830184612621565b92915050565b600061314d82612617565b915061315883612617565b92508282019050808211156131705761316f612f4b565b5b92915050565b7f41756374696f6e20616c72656164792073746172746564206f7220706175736560008201527f6400000000000000000000000000000000000000000000000000000000000000602082015250565b60006131d26021836129bc565b91506131dd82613176565b604082019050919050565b60006020820190508181036000830152613201816131c5565b9050919050565b7f41756374696f6e20616c72656164792073746172746564000000000000000000600082015250565b600061323e6017836129bc565b915061324982613208565b602082019050919050565b6000602082019050818103600083015261326d81613231565b9050919050565b60006080820190506132896000830187612621565b6132966020830186612621565b6132a36040830185612621565b6132b06060830184612621565b95945050505050565b6000602082840312156132cf576132ce6126e7565b5b60006132dd84828501612ba2565b91505092915050565b7f426964646572206e6f7420666f756e6400000000000000000000000000000000600082015250565b600061331c6010836129bc565b9150613327826132e6565b602082019050919050565b6000602082019050818103600083015261334b8161330f565b9050919050565b7f4e6f20726566756e6420617661696c61626c6500000000000000000000000000600082015250565b60006133886013836129bc565b915061339382613352565b602082019050919050565b600060208201905081810360008301526133b78161337b565b9050919050565b6000819050919050565b60006133e36133de6133d9846133be565b612765565b612617565b9050919050565b6133f3816133c8565b82525050565b600060408201905061340e6000830185612621565b61341b60208301846133ea565b9392505050565b600081905092915050565b50565b600061343d600083613422565b91506134488261342d565b600082019050919050565b600061345e82613430565b9150819050919050565b7f526566756e64207472616e73666572206661696c656400000000000000000000600082015250565b600061349e6016836129bc565b91506134a982613468565b602082019050919050565b600060208201905081810360008301526134cd81613491565b9050919050565b7f41756374696f6e206973206e6f74206f70656e00000000000000000000000000600082015250565b600061350a6013836129bc565b9150613515826134d4565b602082019050919050565b60006020820190508181036000830152613539816134fd565b9050919050565b7f41756374696f6e20686173206e6f7420656e6465640000000000000000000000600082015250565b60006135766015836129bc565b915061358182613540565b602082019050919050565b600060208201905081810360008301526135a581613569565b9050919050565b7f546f74616c204269646465727300000000000000000000000000000000000000600082015250565b60006135e2600d836129bc565b91506135ed826135ac565b602082019050919050565b60006040820190508181036000830152613611816135d5565b90506136206020830184612621565b92915050565b7f50726f63657373696e6720426964646572000000000000000000000000000000600082015250565b600061365c6011836129bc565b915061366782613626565b602082019050919050565b6000604082019050818103600083015261368b8161364f565b905061369a6020830184612621565b92915050565b7f546f6b656e7320746f2062652073656e74000000000000000000000000000000600082015250565b60006136d66011836129bc565b91506136e1826136a0565b602082019050919050565b60006040820190508181036000830152613705816136c9565b90506137146020830184612621565b92915050565b7f4269646465722077616c6c657420616464726573730000000000000000000000600082015250565b60006137506015836129bc565b915061375b8261371a565b602082019050919050565b6000604082019050818103600083015261377f81613743565b905061378e6020830184612621565b92915050565b7f4e6f20746f6b656e7320746f2062652073656e7420666f722042696464657200600082015250565b60006137ca601f836129bc565b91506137d582613794565b602082019050919050565b600060408201905081810360008301526137f9816137bd565b90506138086020830184612621565b92915050565b7f546f6b656e7320616c72656164792073656e7420666f72204269646465720000600082015250565b6000613844601e836129bc565b915061384f8261380e565b602082019050919050565b6000604082019050818103600083015261387381613837565b90506138826020830184612621565b92915050565b7f4e487b7100000000000000000000000000000000000000000000000000000000600052601260045260246000fd5b60006138c282612617565b91506138cd83612617565b9250826138dd576138dc613888565b5b828204905092915050565b60006138f382612617565b91506138fe83612617565b925082820261390c81612617565b9150828204841483151761392357613922612f4b565b5b5092915050565b7f4269642062656c6f772063757272656e74207072696365000000000000000000600082015250565b60006139606017836129bc565b915061396b8261392a565b602082019050919050565b6000602082019050818103600083015261398f81613953565b9050919050565b7f4e6f7420656e6f75676820746f6b656e73206c65667400000000000000000000600082015250565b60006139cc6016836129bc565b91506139d782613996565b602082019050919050565b600060208201905081810360008301526139fb816139bf565b9050919050565b6000604082019050613a176000830185612621565b613a246020830184612621565b9392505050565b7f5374617274696e6720656e6441756374696f6e00000000000000000000000000600082015250565b6000613a616013836129bc565b9150613a6c82613a2b565b602082019050919050565b60006040820190508181036000830152613a9081613a54565b9050613a9f6020830184612621565b92915050565b7f41756374696f6e2073746174652073657420746f20434c4f5345440000000000600082015250565b6000613adb601b836129bc565b9150613ae682613aa5565b602082019050919050565b60006040820190508181036000830152613b0a81613ace565b9050613b196020830184612621565b92915050565b7f4f776e65722066756e64207472616e73666572206661696c6564000000000000600082015250565b6000613b55601a836129bc565b9150613b6082613b1f565b602082019050919050565b60006020820190508181036000830152613b8481613b48565b9050919050565b7f4f776e65722066756e6473207472616e73666572726564000000000000000000600082015250565b6000613bc16017836129bc565b9150613bcc82613b8b565b602082019050919050565b60006040820190508181036000830152613bf081613bb4565b9050613bff6020830184612621565b92915050565b7f5472616e7366657272696e6720756e736f6c6420746f6b656e7320746f206f7760008201527f6e65720000000000000000000000000000000000000000000000000000000000602082015250565b6000613c616023836129bc565b9150613c6c82613c05565b604082019050919050565b60006040820190508181036000830152613c9081613c54565b9050613c9f6020830184612621565b92915050565b7f546f6b656e207472616e7366657220746f206f776e6572206661696c65640000600082015250565b6000613cdb601e836129bc565b9150613ce682613ca5565b602082019050919050565b60006020820190508181036000830152613d0a81613cce565b905091905056fea2646970667358221220e68c17f64dc2ab7d751553e99c269b212a6747632c8b9a5144204516d79f3c4564736f6c634300081b0033",
  "linkReferences": {},
  "deployedLinkReferences": {}
}