{
  "_format": "hh-sol-artifact-1",
  "contractName": "DutchAuction",
  "sourceName": "contracts/Auction.sol",
  "abi": [
    {
      "inputs": [
        {
          "internalType": "address",
          "name": "_token",
          "type": "address"
        },
        {
          "internalType": "address",
          "name": "_bidderContract",
          "type": "address"
        },
        {
          "internalType": "uint256",
          "name": "_startPrice",
          "type": "uint256"
        },
        {
          "internalType": "uint256",
          "name": "_reservePrice",
          "type": "uint256"
        },
        {
          "internalType": "uint256",
          "name": "_auctionDuration",
          "type": "uint256"
        },
        {
          "internalType": "uint256",
          "name": "_totalTokens",
          "type": "uint256"
        },
        {
          "internalType": "uint256",
          "name": "_priceDecrement",
          "type": "uint256"
        }
      ],
      "stateMutability": "nonpayable",
      "type": "constructor"
    },
    {
      "inputs": [],
      "name": "ReentrancyGuardReentrantCall",
      "type": "error"
    },
    {
      "anonymous": false,
      "inputs": [
        {
          "indexed": false,
          "internalType": "uint256",
          "name": "totalFundsRaised",
          "type": "uint256"
        },
        {
          "indexed": false,
          "internalType": "uint256",
          "name": "unsoldTokens",
          "type": "uint256"
        }
      ],
      "name": "AuctionEnded",
      "type": "event"
    },
    {
      "anonymous": false,
      "inputs": [],
      "name": "AuctionPaused",
      "type": "event"
    },
    {
      "anonymous": false,
      "inputs": [],
      "name": "AuctionResumed",
      "type": "event"
    },
    {
      "anonymous": false,
      "inputs": [
        {
          "indexed": false,
          "internalType": "uint256",
          "name": "startTime",
          "type": "uint256"
        },
        {
          "indexed": false,
          "internalType": "uint256",
          "name": "startPrice",
          "type": "uint256"
        },
        {
          "indexed": false,
          "internalType": "uint256",
          "name": "reservePrice",
          "type": "uint256"
        },
        {
          "indexed": false,
          "internalType": "uint256",
          "name": "totalTokens",
          "type": "uint256"
        }
      ],
      "name": "AuctionStarted",
      "type": "event"
    },
    {
      "anonymous": false,
      "inputs": [
        {
          "indexed": true,
          "internalType": "address",
          "name": "bidder",
          "type": "address"
        },
        {
          "indexed": false,
          "internalType": "uint256",
          "name": "bidAmount",
          "type": "uint256"
        },
        {
          "indexed": false,
          "internalType": "uint256",
          "name": "tokensAllocated",
          "type": "uint256"
        }
      ],
      "name": "BidPlaced",
      "type": "event"
    },
    {
      "inputs": [],
      "name": "auctionDuration",
      "outputs": [
        {
          "internalType": "uint256",
          "name": "",
          "type": "uint256"
        }
      ],
      "stateMutability": "view",
      "type": "function"
    },
    {
      "inputs": [],
      "name": "auctionStarted",
      "outputs": [
        {
          "internalType": "bool",
          "name": "",
          "type": "bool"
        }
      ],
      "stateMutability": "view",
      "type": "function"
    },
    {
      "inputs": [],
      "name": "auctionState",
      "outputs": [
        {
          "internalType": "enum DutchAuction.AuctionState",
          "name": "",
          "type": "uint8"
        }
      ],
      "stateMutability": "view",
      "type": "function"
    },
    {
      "inputs": [],
      "name": "bidderContract",
      "outputs": [
        {
          "internalType": "contract Bidder",
          "name": "",
          "type": "address"
        }
      ],
      "stateMutability": "view",
      "type": "function"
    },
    {
      "inputs": [],
      "name": "getAuctionStatus",
      "outputs": [
        {
          "internalType": "enum DutchAuction.AuctionState",
          "name": "",
          "type": "uint8"
        }
      ],
      "stateMutability": "view",
      "type": "function"
    },
    {
      "inputs": [
        {
          "internalType": "uint256",
          "name": "bidderID",
          "type": "uint256"
        }
      ],
      "name": "getBidderInfo",
      "outputs": [
        {
          "components": [
            {
              "internalType": "uint256",
              "name": "bidderID",
              "type": "uint256"
            },
            {
              "internalType": "address",
              "name": "walletAddress",
              "type": "address"
            },
            {
              "internalType": "uint256",
              "name": "bidValue",
              "type": "uint256"
            },
            {
              "internalType": "uint256",
              "name": "tokensPurchased",
              "type": "uint256"
            },
            {
              "internalType": "uint256",
              "name": "refundEth",
              "type": "uint256"
            },
            {
              "internalType": "bool",
              "name": "tokenSent",
              "type": "bool"
            },
            {
              "internalType": "bool",
              "name": "ethRefunded",
              "type": "bool"
            }
          ],
          "internalType": "struct Bidder.BidderInfo",
          "name": "",
          "type": "tuple"
        }
      ],
      "stateMutability": "view",
      "type": "function"
    },
    {
      "inputs": [],
      "name": "getCurrentPrice",
      "outputs": [
        {
          "internalType": "uint256",
          "name": "",
          "type": "uint256"
        }
      ],
      "stateMutability": "view",
      "type": "function"
    },
    {
      "inputs": [],
      "name": "getRemainingTokens",
      "outputs": [
        {
          "internalType": "uint256",
          "name": "",
          "type": "uint256"
        }
      ],
      "stateMutability": "view",
      "type": "function"
    },
    {
      "inputs": [],
      "name": "getTimeRemaining",
      "outputs": [
        {
          "internalType": "uint256",
          "name": "",
          "type": "uint256"
        }
      ],
      "stateMutability": "view",
      "type": "function"
    },
    {
      "inputs": [],
      "name": "getTotalFundsRaised",
      "outputs": [
        {
          "internalType": "uint256",
          "name": "",
          "type": "uint256"
        }
      ],
      "stateMutability": "view",
      "type": "function"
    },
    {
      "inputs": [],
      "name": "owner",
      "outputs": [
        {
          "internalType": "address",
          "name": "",
          "type": "address"
        }
      ],
      "stateMutability": "view",
      "type": "function"
    },
    {
      "inputs": [],
      "name": "pauseAuction",
      "outputs": [],
      "stateMutability": "nonpayable",
      "type": "function"
    },
    {
      "inputs": [],
      "name": "placeBid",
      "outputs": [],
      "stateMutability": "payable",
      "type": "function"
    },
    {
      "inputs": [],
      "name": "priceDecrement",
      "outputs": [
        {
          "internalType": "uint256",
          "name": "",
          "type": "uint256"
        }
      ],
      "stateMutability": "view",
      "type": "function"
    },
    {
      "inputs": [],
      "name": "reservePrice",
      "outputs": [
        {
          "internalType": "uint256",
          "name": "",
          "type": "uint256"
        }
      ],
      "stateMutability": "view",
      "type": "function"
    },
    {
      "inputs": [],
      "name": "resumeAuction",
      "outputs": [],
      "stateMutability": "nonpayable",
      "type": "function"
    },
    {
      "inputs": [],
      "name": "startAuction",
      "outputs": [],
      "stateMutability": "nonpayable",
      "type": "function"
    },
    {
      "inputs": [],
      "name": "startPrice",
      "outputs": [
        {
          "internalType": "uint256",
          "name": "",
          "type": "uint256"
        }
      ],
      "stateMutability": "view",
      "type": "function"
    },
    {
      "inputs": [],
      "name": "startTime",
      "outputs": [
        {
          "internalType": "uint256",
          "name": "",
          "type": "uint256"
        }
      ],
      "stateMutability": "view",
      "type": "function"
    },
    {
      "inputs": [],
      "name": "token",
      "outputs": [
        {
          "internalType": "contract IERC20",
          "name": "",
          "type": "address"
        }
      ],
      "stateMutability": "view",
      "type": "function"
    },
    {
      "inputs": [],
      "name": "totalFundsRaised",
      "outputs": [
        {
          "internalType": "uint256",
          "name": "",
          "type": "uint256"
        }
      ],
      "stateMutability": "view",
      "type": "function"
    },
    {
      "inputs": [],
      "name": "totalTokensAvailable",
      "outputs": [
        {
          "internalType": "uint256",
          "name": "",
          "type": "uint256"
        }
      ],
      "stateMutability": "view",
      "type": "function"
    },
    {
      "inputs": [],
      "name": "withdrawFunds",
      "outputs": [],
      "stateMutability": "nonpayable",
      "type": "function"
    },
    {
      "inputs": [],
      "name": "withdrawRefund",
      "outputs": [],
      "stateMutability": "nonpayable",
      "type": "function"
    }
  ],
  "bytecode": "0x608060405234801561001057600080fd5b506040516124c93803806124c9833981810160405281019061003291906101f0565b600160008190555033600160006101000a81548173ffffffffffffffffffffffffffffffffffffffff021916908373ffffffffffffffffffffffffffffffffffffffff16021790555086600260006101000a81548173ffffffffffffffffffffffffffffffffffffffff021916908373ffffffffffffffffffffffffffffffffffffffff16021790555085600360006101000a81548173ffffffffffffffffffffffffffffffffffffffff021916908373ffffffffffffffffffffffffffffffffffffffff16021790555084600481905550836005819055508260068190555081600881905550806009819055506002600b60016101000a81548160ff0219169083600281111561014657610145610292565b5b0217905550505050505050506102c1565b600080fd5b600073ffffffffffffffffffffffffffffffffffffffff82169050919050565b60006101878261015c565b9050919050565b6101978161017c565b81146101a257600080fd5b50565b6000815190506101b48161018e565b92915050565b6000819050919050565b6101cd816101ba565b81146101d857600080fd5b50565b6000815190506101ea816101c4565b92915050565b600080600080600080600060e0888a03121561020f5761020e610157565b5b600061021d8a828b016101a5565b975050602061022e8a828b016101a5565b965050604061023f8a828b016101db565b95505060606102508a828b016101db565b94505060806102618a828b016101db565b93505060a06102728a828b016101db565b92505060c06102838a828b016101db565b91505092959891949750929550565b7f4e487b7100000000000000000000000000000000000000000000000000000000600052602160045260246000fd5b6121f9806102d06000396000f3fe60806040526004361061014b5760003560e01c80637fb45099116100b6578063eb91d37e1161006f578063eb91d37e146103f2578063ecfc7ecc1461041d578063ee2679bc14610427578063f1a9af8914610452578063fc0c546a1461047d578063ff6a6d65146104a85761014b565b80637fb45099146103045780638da5cb5b1461032f578063af35ae271461035a578063b9ae736414610385578063dac6270d1461039c578063db2e1eed146103c75761014b565b806332353fbd1161010857806332353fbd1461022a578063427c0c7f14610241578063621de3c41461026c5780636b64c769146102975780636dd2cbe5146102ae57806378e97925146102d95761014b565b80630c3e2d2d146101505780630cbf54c81461017b578063110f8874146101a657806324600fc3146101bd57806326cddbfb146101d45780632e93be30146101ff575b600080fd5b34801561015c57600080fd5b506101656104e5565b6040516101729190611646565b60405180910390f35b34801561018757600080fd5b506101906104ef565b60405161019d9190611646565b60405180910390f35b3480156101b257600080fd5b506101bb6104f5565b005b3480156101c957600080fd5b506101d2610864565b005b3480156101e057600080fd5b506101e96109d6565b6040516101f69190611646565b60405180910390f35b34801561020b57600080fd5b506102146109dc565b60405161022191906116d8565b60405180910390f35b34801561023657600080fd5b5061023f6109f3565b005b34801561024d57600080fd5b50610256610b52565b6040516102639190611646565b60405180910390f35b34801561027857600080fd5b50610281610b58565b60405161028e9190611772565b60405180910390f35b3480156102a357600080fd5b506102ac610b7e565b005b3480156102ba57600080fd5b506102c3610d17565b6040516102d09190611646565b60405180910390f35b3480156102e557600080fd5b506102ee610d1d565b6040516102fb9190611646565b60405180910390f35b34801561031057600080fd5b50610319610d23565b60405161032691906116d8565b60405180910390f35b34801561033b57600080fd5b50610344610d36565b60405161035191906117ae565b60405180910390f35b34801561036657600080fd5b5061036f610d5c565b60405161037c9190611646565b60405180910390f35b34801561039157600080fd5b5061039a610d66565b005b3480156103a857600080fd5b506103b1610ec5565b6040516103be9190611646565b60405180910390f35b3480156103d357600080fd5b506103dc610f1f565b6040516103e99190611646565b60405180910390f35b3480156103fe57600080fd5b50610407610f25565b6040516104149190611646565b60405180910390f35b610425610f9f565b005b34801561043357600080fd5b5061043c6112f4565b60405161044991906117e4565b60405180910390f35b34801561045e57600080fd5b50610467611307565b6040516104749190611646565b60405180910390f35b34801561048957600080fd5b5061049261130d565b60405161049f9190611820565b60405180910390f35b3480156104b457600080fd5b506104cf60048036038101906104ca9190611876565b611333565b6040516104dc919061195e565b60405180910390f35b6000600a54905090565b60065481565b6104fd6113de565b6000600360009054906101000a900473ffffffffffffffffffffffffffffffffffffffff1673ffffffffffffffffffffffffffffffffffffffff1663ff6a6d656001600360009054906101000a900473ffffffffffffffffffffffffffffffffffffffff1673ffffffffffffffffffffffffffffffffffffffff1663de71bf076040518163ffffffff1660e01b8152600401602060405180830381865afa1580156105ac573d6000803e3d6000fd5b505050506040513d601f19601f820116820180604052508101906105d0919061198e565b6105da91906119ea565b6040518263ffffffff1660e01b81526004016105f69190611646565b60e060405180830381865afa158015610613573d6000803e3d6000fd5b505050506040513d601f19601f820116820180604052508101906106379190611bbb565b60800151905060008111610680576040517f08c379a000000000000000000000000000000000000000000000000000000000815260040161067790611c45565b60405180910390fd5b600360009054906101000a900473ffffffffffffffffffffffffffffffffffffffff1673ffffffffffffffffffffffffffffffffffffffff1663bbca9fd56001600360009054906101000a900473ffffffffffffffffffffffffffffffffffffffff1673ffffffffffffffffffffffffffffffffffffffff1663de71bf076040518163ffffffff1660e01b8152600401602060405180830381865afa15801561072d573d6000803e3d6000fd5b505050506040513d601f19601f82011682018060405250810190610751919061198e565b61075b91906119ea565b60006040518363ffffffff1660e01b815260040161077a929190611ca0565b600060405180830381600087803b15801561079457600080fd5b505af11580156107a8573d6000803e3d6000fd5b5050505060003373ffffffffffffffffffffffffffffffffffffffff16826040516107d290611cfa565b60006040518083038185875af1925050503d806000811461080f576040519150601f19603f3d011682016040523d82523d6000602084013e610814565b606091505b5050905080610858576040517f08c379a000000000000000000000000000000000000000000000000000000000815260040161084f90611d5b565b60405180910390fd5b5050610862611424565b565b600160009054906101000a900473ffffffffffffffffffffffffffffffffffffffff1673ffffffffffffffffffffffffffffffffffffffff163373ffffffffffffffffffffffffffffffffffffffff16146108f4576040517f08c379a00000000000000000000000000000000000000000000000000000000081526004016108eb90611dc7565b60405180910390fd5b60028081111561090757610906611661565b5b600b60019054906101000a900460ff16600281111561092957610928611661565b5b14610969576040517f08c379a000000000000000000000000000000000000000000000000000000000815260040161096090611e33565b60405180910390fd5b600160009054906101000a900473ffffffffffffffffffffffffffffffffffffffff1673ffffffffffffffffffffffffffffffffffffffff166108fc600a549081150290604051600060405180830381858888f193505050501580156109d3573d6000803e3d6000fd5b50565b60095481565b6000600b60019054906101000a900460ff16905090565b600160009054906101000a900473ffffffffffffffffffffffffffffffffffffffff1673ffffffffffffffffffffffffffffffffffffffff163373ffffffffffffffffffffffffffffffffffffffff1614610a83576040517f08c379a0000000000000000000000000000000000000000000000000000000008152600401610a7a90611dc7565b60405180910390fd5b60016002811115610a9757610a96611661565b5b600b60019054906101000a900460ff166002811115610ab957610ab8611661565b5b14610af9576040517f08c379a0000000000000000000000000000000000000000000000000000000008152600401610af090611e9f565b60405180910390fd5b6000600b60016101000a81548160ff02191690836002811115610b1f57610b1e611661565b5b02179055507f979e0f22222b399f6e77f2614325775244291877598c6174fd7caf44b4bdfcc560405160405180910390a1565b600a5481565b600360009054906101000a900473ffffffffffffffffffffffffffffffffffffffff1681565b600160009054906101000a900473ffffffffffffffffffffffffffffffffffffffff1673ffffffffffffffffffffffffffffffffffffffff163373ffffffffffffffffffffffffffffffffffffffff1614610c0e576040517f08c379a0000000000000000000000000000000000000000000000000000000008152600401610c0590611dc7565b60405180910390fd5b600280811115610c2157610c20611661565b5b600b60019054906101000a900460ff166002811115610c4357610c42611661565b5b14610c83576040517f08c379a0000000000000000000000000000000000000000000000000000000008152600401610c7a90611f31565b60405180910390fd5b426007819055506000600b60016101000a81548160ff02191690836002811115610cb057610caf611661565b5b02179055506001600b60006101000a81548160ff0219169083151502179055507fa832766a05f1bd0298b0268308621777cfe1e4eea23afe7c06beea79bc6ddd2d600754600454600554600854604051610d0d9493929190611f51565b60405180910390a1565b60085481565b60075481565b600b60019054906101000a900460ff1681565b600160009054906101000a900473ffffffffffffffffffffffffffffffffffffffff1681565b6000600854905090565b600160009054906101000a900473ffffffffffffffffffffffffffffffffffffffff1673ffffffffffffffffffffffffffffffffffffffff163373ffffffffffffffffffffffffffffffffffffffff1614610df6576040517f08c379a0000000000000000000000000000000000000000000000000000000008152600401610ded90611dc7565b60405180910390fd5b60006002811115610e0a57610e09611661565b5b600b60019054906101000a900460ff166002811115610e2c57610e2b611661565b5b14610e6c576040517f08c379a0000000000000000000000000000000000000000000000000000000008152600401610e6390611fe2565b60405180910390fd5b6001600b60016101000a81548160ff02191690836002811115610e9257610e91611661565b5b02179055507f749d6d79623c8cbd2345906702c70ae75d4254a6c409047c16d52fa5a37ef69860405160405180910390a1565b6000600b60009054906101000a900460ff16610ee5576006549050610f1c565b600060075442610ef591906119ea565b90506006548110610f0a576000915050610f1c565b80600654610f1891906119ea565b9150505b90565b60055481565b6000600654600754610f379190612002565b4210610f47576005549050610f9c565b6000603c60075442610f5991906119ea565b610f639190612065565b9050600060095482610f759190612096565b90508060045411610f8857600554610f97565b80600454610f9691906119ea565b5b925050505b90565b610fa76113de565b60006002811115610fbb57610fba611661565b5b600b60019054906101000a900460ff166002811115610fdd57610fdc611661565b5b1461101d576040517f08c379a000000000000000000000000000000000000000000000000000000000815260040161101490611fe2565b60405180910390fd5b6000611027610f25565b9050600081346110379190612065565b905060085481111561107e576040517f08c379a000000000000000000000000000000000000000000000000000000000815260040161107590612124565b60405180910390fd5b806008600082825461109091906119ea565b9250508190555034600a60008282546110a99190612002565b92505081905550600360009054906101000a900473ffffffffffffffffffffffffffffffffffffffff1673ffffffffffffffffffffffffffffffffffffffff166330840a3e33346040518363ffffffff1660e01b815260040161110d929190612144565b600060405180830381600087803b15801561112757600080fd5b505af115801561113b573d6000803e3d6000fd5b50505050600360009054906101000a900473ffffffffffffffffffffffffffffffffffffffff1673ffffffffffffffffffffffffffffffffffffffff1663743f62636001600360009054906101000a900473ffffffffffffffffffffffffffffffffffffffff1673ffffffffffffffffffffffffffffffffffffffff1663de71bf076040518163ffffffff1660e01b8152600401602060405180830381865afa1580156111ec573d6000803e3d6000fd5b505050506040513d601f19601f82011682018060405250810190611210919061198e565b61121a91906119ea565b836040518363ffffffff1660e01b815260040161123892919061216d565b600060405180830381600087803b15801561125257600080fd5b505af1158015611266573d6000803e3d6000fd5b505050503373ffffffffffffffffffffffffffffffffffffffff167fdf8644c0a4c21ed214ce69f395675b3a5fcd1039083daea5058898de40ea314934836040516112b292919061216d565b60405180910390a2600060085414806112da57506006546007546112d69190612002565b4210155b156112e8576112e761142e565b5b50506112f2611424565b565b600b60009054906101000a900460ff1681565b60045481565b600260009054906101000a900473ffffffffffffffffffffffffffffffffffffffff1681565b61133b6115d6565b600360009054906101000a900473ffffffffffffffffffffffffffffffffffffffff1673ffffffffffffffffffffffffffffffffffffffff1663ff6a6d65836040518263ffffffff1660e01b81526004016113969190611646565b60e060405180830381865afa1580156113b3573d6000803e3d6000fd5b505050506040513d601f19601f820116820180604052508101906113d79190611bbb565b9050919050565b60026000540361141a576040517f3ee5aeb500000000000000000000000000000000000000000000000000000000815260040160405180910390fd5b6002600081905550565b6001600081905550565b6002600b60016101000a81548160ff0219169083600281111561145457611453611661565b5b021790555060006008549050600160009054906101000a900473ffffffffffffffffffffffffffffffffffffffff1673ffffffffffffffffffffffffffffffffffffffff166108fc600a549081150290604051600060405180830381858888f193505050501580156114ca573d6000803e3d6000fd5b50600081111561159857600260009054906101000a900473ffffffffffffffffffffffffffffffffffffffff1673ffffffffffffffffffffffffffffffffffffffff1663a9059cbb600160009054906101000a900473ffffffffffffffffffffffffffffffffffffffff16836040518363ffffffff1660e01b8152600401611553929190612144565b6020604051808303816000875af1158015611572573d6000803e3d6000fd5b505050506040513d601f19601f820116820180604052508101906115969190612196565b505b7fe536ac546f86787f3ea4069f79235c6b5a681e87d051300a3ed19a6ebb0db71c600a54826040516115cb92919061216d565b60405180910390a150565b6040518060e0016040528060008152602001600073ffffffffffffffffffffffffffffffffffffffff1681526020016000815260200160008152602001600081526020016000151581526020016000151581525090565b6000819050919050565b6116408161162d565b82525050565b600060208201905061165b6000830184611637565b92915050565b7f4e487b7100000000000000000000000000000000000000000000000000000000600052602160045260246000fd5b600381106116a1576116a0611661565b5b50565b60008190506116b282611690565b919050565b60006116c2826116a4565b9050919050565b6116d2816116b7565b82525050565b60006020820190506116ed60008301846116c9565b92915050565b600073ffffffffffffffffffffffffffffffffffffffff82169050919050565b6000819050919050565b600061173861173361172e846116f3565b611713565b6116f3565b9050919050565b600061174a8261171d565b9050919050565b600061175c8261173f565b9050919050565b61176c81611751565b82525050565b60006020820190506117876000830184611763565b92915050565b6000611798826116f3565b9050919050565b6117a88161178d565b82525050565b60006020820190506117c3600083018461179f565b92915050565b60008115159050919050565b6117de816117c9565b82525050565b60006020820190506117f960008301846117d5565b92915050565b600061180a8261173f565b9050919050565b61181a816117ff565b82525050565b60006020820190506118356000830184611811565b92915050565b6000604051905090565b600080fd5b6118538161162d565b811461185e57600080fd5b50565b6000813590506118708161184a565b92915050565b60006020828403121561188c5761188b611845565b5b600061189a84828501611861565b91505092915050565b6118ac8161162d565b82525050565b6118bb8161178d565b82525050565b6118ca816117c9565b82525050565b60e0820160008201516118e660008501826118a3565b5060208201516118f960208501826118b2565b50604082015161190c60408501826118a3565b50606082015161191f60608501826118a3565b50608082015161193260808501826118a3565b5060a082015161194560a08501826118c1565b5060c082015161195860c08501826118c1565b50505050565b600060e08201905061197360008301846118d0565b92915050565b6000815190506119888161184a565b92915050565b6000602082840312156119a4576119a3611845565b5b60006119b284828501611979565b91505092915050565b7f4e487b7100000000000000000000000000000000000000000000000000000000600052601160045260246000fd5b60006119f58261162d565b9150611a008361162d565b9250828203905081811115611a1857611a176119bb565b5b92915050565b600080fd5b6000601f19601f8301169050919050565b7f4e487b7100000000000000000000000000000000000000000000000000000000600052604160045260246000fd5b611a6c82611a23565b810181811067ffffffffffffffff82111715611a8b57611a8a611a34565b5b80604052505050565b6000611a9e61183b565b9050611aaa8282611a63565b919050565b611ab88161178d565b8114611ac357600080fd5b50565b600081519050611ad581611aaf565b92915050565b611ae4816117c9565b8114611aef57600080fd5b50565b600081519050611b0181611adb565b92915050565b600060e08284031215611b1d57611b1c611a1e565b5b611b2760e0611a94565b90506000611b3784828501611979565b6000830152506020611b4b84828501611ac6565b6020830152506040611b5f84828501611979565b6040830152506060611b7384828501611979565b6060830152506080611b8784828501611979565b60808301525060a0611b9b84828501611af2565b60a08301525060c0611baf84828501611af2565b60c08301525092915050565b600060e08284031215611bd157611bd0611845565b5b6000611bdf84828501611b07565b91505092915050565b600082825260208201905092915050565b7f4e6f20726566756e6420617661696c61626c6500000000000000000000000000600082015250565b6000611c2f601383611be8565b9150611c3a82611bf9565b602082019050919050565b60006020820190508181036000830152611c5e81611c22565b9050919050565b6000819050919050565b6000611c8a611c85611c8084611c65565b611713565b61162d565b9050919050565b611c9a81611c6f565b82525050565b6000604082019050611cb56000830185611637565b611cc26020830184611c91565b9392505050565b600081905092915050565b50565b6000611ce4600083611cc9565b9150611cef82611cd4565b600082019050919050565b6000611d0582611cd7565b9150819050919050565b7f526566756e64207472616e73666572206661696c656400000000000000000000600082015250565b6000611d45601683611be8565b9150611d5082611d0f565b602082019050919050565b60006020820190508181036000830152611d7481611d38565b9050919050565b7f4e6f7420746865206f776e657200000000000000000000000000000000000000600082015250565b6000611db1600d83611be8565b9150611dbc82611d7b565b602082019050919050565b60006020820190508181036000830152611de081611da4565b9050919050565b7f41756374696f6e206973206e6f7420636c6f7365640000000000000000000000600082015250565b6000611e1d601583611be8565b9150611e2882611de7565b602082019050919050565b60006020820190508181036000830152611e4c81611e10565b9050919050565b7f41756374696f6e206973206e6f74207061757365640000000000000000000000600082015250565b6000611e89601583611be8565b9150611e9482611e53565b602082019050919050565b60006020820190508181036000830152611eb881611e7c565b9050919050565b7f41756374696f6e20616c72656164792073746172746564206f7220706175736560008201527f6400000000000000000000000000000000000000000000000000000000000000602082015250565b6000611f1b602183611be8565b9150611f2682611ebf565b604082019050919050565b60006020820190508181036000830152611f4a81611f0e565b9050919050565b6000608082019050611f666000830187611637565b611f736020830186611637565b611f806040830185611637565b611f8d6060830184611637565b95945050505050565b7f41756374696f6e206973206e6f74206f70656e00000000000000000000000000600082015250565b6000611fcc601383611be8565b9150611fd782611f96565b602082019050919050565b60006020820190508181036000830152611ffb81611fbf565b9050919050565b600061200d8261162d565b91506120188361162d565b92508282019050808211156120305761202f6119bb565b5b92915050565b7f4e487b7100000000000000000000000000000000000000000000000000000000600052601260045260246000fd5b60006120708261162d565b915061207b8361162d565b92508261208b5761208a612036565b5b828204905092915050565b60006120a18261162d565b91506120ac8361162d565b92508282026120ba8161162d565b915082820484148315176120d1576120d06119bb565b5b5092915050565b7f4e6f7420656e6f75676820746f6b656e73206c65667400000000000000000000600082015250565b600061210e601683611be8565b9150612119826120d8565b602082019050919050565b6000602082019050818103600083015261213d81612101565b9050919050565b6000604082019050612159600083018561179f565b6121666020830184611637565b9392505050565b60006040820190506121826000830185611637565b61218f6020830184611637565b9392505050565b6000602082840312156121ac576121ab611845565b5b60006121ba84828501611af2565b9150509291505056fea26469706673582212203b835e6d812569963d2d6990ff013bbc57ffc675188fef8df5dfc98fa846a7ae64736f6c634300081b0033",
  "linkReferences": {},
  "deployedLinkReferences": {}
}