{
  "_format": "hh-sol-artifact-1",
  "contractName": "Dutch_Auction",
  "sourceName": "contracts/Dutch_Auction.sol",
  "abi": [
    {
      "inputs": [
        {
          "internalType": "uint256",
          "name": "_reservePrice",
          "type": "uint256"
        },
        {
          "internalType": "uint256",
          "name": "_startPrice",
          "type": "uint256"
        }
      ],
      "stateMutability": "nonpayable",
      "type": "constructor"
    },
    {
      "inputs": [],
      "name": "Dutch_Auction__IsOwner",
      "type": "error"
    },
    {
      "inputs": [],
      "name": "Dutch_Auction__NotOpen",
      "type": "error"
    },
    {
      "inputs": [],
      "name": "Dutch_Auction__NotOwner",
      "type": "error"
    },
    {
      "inputs": [],
      "name": "Dutch_Auction__Open",
      "type": "error"
    },
    {
      "inputs": [],
      "name": "ReentrancyGuardReentrantCall",
      "type": "error"
    },
    {
      "anonymous": false,
      "inputs": [
        {
          "indexed": false,
          "internalType": "address",
          "name": "bidderAddress",
          "type": "address"
        },
        {
          "indexed": false,
          "internalType": "uint256",
          "name": "TokensPurchased",
          "type": "uint256"
        },
        {
          "indexed": false,
          "internalType": "uint256",
          "name": "refundValue",
          "type": "uint256"
        }
      ],
      "name": "RefundEvent",
      "type": "event"
    },
    {
      "anonymous": false,
      "inputs": [
        {
          "indexed": false,
          "internalType": "uint256",
          "name": "bidderID",
          "type": "uint256"
        },
        {
          "indexed": false,
          "internalType": "address",
          "name": "walletAddress",
          "type": "address"
        },
        {
          "indexed": false,
          "internalType": "uint256",
          "name": "bidvalue",
          "type": "uint256"
        }
      ],
      "name": "addBidderEvent",
      "type": "event"
    },
    {
      "anonymous": false,
      "inputs": [
        {
          "indexed": false,
          "internalType": "address",
          "name": "bidderAddress",
          "type": "address"
        },
        {
          "indexed": false,
          "internalType": "uint256",
          "name": "TokensPurchased",
          "type": "uint256"
        },
        {
          "indexed": false,
          "internalType": "uint256",
          "name": "refundValue",
          "type": "uint256"
        }
      ],
      "name": "calculateEvent",
      "type": "event"
    },
    {
      "anonymous": false,
      "inputs": [
        {
          "indexed": false,
          "internalType": "uint256",
          "name": "totalBidders",
          "type": "uint256"
        },
        {
          "indexed": false,
          "internalType": "uint256",
          "name": "burntERC20",
          "type": "uint256"
        },
        {
          "indexed": false,
          "internalType": "uint256",
          "name": "totalETHEarned",
          "type": "uint256"
        }
      ],
      "name": "endAuctionEvent",
      "type": "event"
    },
    {
      "anonymous": false,
      "inputs": [
        {
          "indexed": false,
          "internalType": "address",
          "name": "bidderAddress",
          "type": "address"
        },
        {
          "indexed": false,
          "internalType": "uint256",
          "name": "tokensSent",
          "type": "uint256"
        }
      ],
      "name": "sendTokenEvent",
      "type": "event"
    },
    {
      "anonymous": false,
      "inputs": [
        {
          "indexed": false,
          "internalType": "uint256",
          "name": "startTime",
          "type": "uint256"
        },
        {
          "indexed": false,
          "internalType": "address",
          "name": "ERC20Address",
          "type": "address"
        },
        {
          "indexed": false,
          "internalType": "uint256",
          "name": "totalAlgosAvailable",
          "type": "uint256"
        },
        {
          "indexed": false,
          "internalType": "uint256",
          "name": "changePerMin",
          "type": "uint256"
        }
      ],
      "name": "startAuctionEvent",
      "type": "event"
    },
    {
      "anonymous": false,
      "inputs": [
        {
          "indexed": false,
          "internalType": "uint256",
          "name": "timeElapsed",
          "type": "uint256"
        },
        {
          "indexed": false,
          "internalType": "uint256",
          "name": "currentprice",
          "type": "uint256"
        }
      ],
      "name": "updateCurrentPriceEvent",
      "type": "event"
    },
    {
      "stateMutability": "payable",
      "type": "fallback"
    },
    {
      "inputs": [],
      "name": "addBidder",
      "outputs": [],
      "stateMutability": "payable",
      "type": "function"
    },
    {
      "inputs": [
        {
          "internalType": "uint256",
          "name": "bidder",
          "type": "uint256"
        }
      ],
      "name": "balanceOfBidder",
      "outputs": [
        {
          "internalType": "uint256",
          "name": "",
          "type": "uint256"
        }
      ],
      "stateMutability": "view",
      "type": "function"
    },
    {
      "inputs": [
        {
          "internalType": "uint256",
          "name": "",
          "type": "uint256"
        }
      ],
      "name": "biddersList",
      "outputs": [
        {
          "internalType": "uint256",
          "name": "bidderID",
          "type": "uint256"
        },
        {
          "internalType": "address",
          "name": "walletAddress",
          "type": "address"
        },
        {
          "internalType": "uint256",
          "name": "bidValue",
          "type": "uint256"
        },
        {
          "internalType": "uint256",
          "name": "totalAlgosPurchased",
          "type": "uint256"
        },
        {
          "internalType": "uint256",
          "name": "refundEth",
          "type": "uint256"
        },
        {
          "internalType": "bool",
          "name": "isExist",
          "type": "bool"
        },
        {
          "internalType": "bool",
          "name": "tokenSent",
          "type": "bool"
        },
        {
          "internalType": "bool",
          "name": "ethRefunded",
          "type": "bool"
        }
      ],
      "stateMutability": "view",
      "type": "function"
    },
    {
      "inputs": [],
      "name": "calculate",
      "outputs": [],
      "stateMutability": "nonpayable",
      "type": "function"
    },
    {
      "inputs": [],
      "name": "endAuction",
      "outputs": [],
      "stateMutability": "nonpayable",
      "type": "function"
    },
    {
      "inputs": [],
      "name": "getAuctionState",
      "outputs": [
        {
          "internalType": "enum Dutch_Auction.AuctionState",
          "name": "",
          "type": "uint8"
        }
      ],
      "stateMutability": "view",
      "type": "function"
    },
    {
      "inputs": [
        {
          "internalType": "uint256",
          "name": "bidder",
          "type": "uint256"
        }
      ],
      "name": "getRefundState",
      "outputs": [
        {
          "internalType": "bool",
          "name": "",
          "type": "bool"
        }
      ],
      "stateMutability": "view",
      "type": "function"
    },
    {
      "inputs": [],
      "name": "getUnsoldAlgos",
      "outputs": [
        {
          "internalType": "uint256",
          "name": "",
          "type": "uint256"
        }
      ],
      "stateMutability": "view",
      "type": "function"
    },
    {
      "inputs": [],
      "name": "refundETH",
      "outputs": [],
      "stateMutability": "nonpayable",
      "type": "function"
    },
    {
      "inputs": [],
      "name": "retreiveContractER20Tokens",
      "outputs": [
        {
          "internalType": "uint256",
          "name": "",
          "type": "uint256"
        }
      ],
      "stateMutability": "view",
      "type": "function"
    },
    {
      "inputs": [
        {
          "internalType": "uint256",
          "name": "bidder",
          "type": "uint256"
        }
      ],
      "name": "retrieveBidderAlgos",
      "outputs": [
        {
          "internalType": "uint256",
          "name": "",
          "type": "uint256"
        }
      ],
      "stateMutability": "view",
      "type": "function"
    },
    {
      "inputs": [
        {
          "internalType": "uint256",
          "name": "bidder",
          "type": "uint256"
        }
      ],
      "name": "retrieveBidderBidValue",
      "outputs": [
        {
          "internalType": "uint256",
          "name": "",
          "type": "uint256"
        }
      ],
      "stateMutability": "view",
      "type": "function"
    },
    {
      "inputs": [],
      "name": "retrieveContractBalance",
      "outputs": [
        {
          "internalType": "uint256",
          "name": "",
          "type": "uint256"
        }
      ],
      "stateMutability": "view",
      "type": "function"
    },
    {
      "inputs": [],
      "name": "retrieveContractOwner",
      "outputs": [
        {
          "internalType": "address",
          "name": "",
          "type": "address"
        }
      ],
      "stateMutability": "view",
      "type": "function"
    },
    {
      "inputs": [],
      "name": "retrieveCurrentPrice",
      "outputs": [
        {
          "internalType": "int256",
          "name": "",
          "type": "int256"
        }
      ],
      "stateMutability": "view",
      "type": "function"
    },
    {
      "inputs": [
        {
          "internalType": "uint256",
          "name": "bidder",
          "type": "uint256"
        }
      ],
      "name": "retrieveRefund",
      "outputs": [
        {
          "internalType": "uint256",
          "name": "",
          "type": "uint256"
        }
      ],
      "stateMutability": "view",
      "type": "function"
    },
    {
      "inputs": [],
      "name": "retrieveReservePrice",
      "outputs": [
        {
          "internalType": "uint256",
          "name": "",
          "type": "uint256"
        }
      ],
      "stateMutability": "view",
      "type": "function"
    },
    {
      "inputs": [],
      "name": "retrieveTimeElapsed",
      "outputs": [
        {
          "internalType": "uint256",
          "name": "",
          "type": "uint256"
        }
      ],
      "stateMutability": "view",
      "type": "function"
    },
    {
      "inputs": [],
      "name": "retrieveTotalAlgos",
      "outputs": [
        {
          "internalType": "uint256",
          "name": "",
          "type": "uint256"
        }
      ],
      "stateMutability": "view",
      "type": "function"
    },
    {
      "inputs": [],
      "name": "retrieveTotalBidder",
      "outputs": [
        {
          "internalType": "uint256",
          "name": "",
          "type": "uint256"
        }
      ],
      "stateMutability": "view",
      "type": "function"
    },
    {
      "inputs": [],
      "name": "sendTokens",
      "outputs": [],
      "stateMutability": "nonpayable",
      "type": "function"
    },
    {
      "inputs": [
        {
          "internalType": "uint256",
          "name": "_totalAlgosAvailable",
          "type": "uint256"
        },
        {
          "internalType": "uint256",
          "name": "_changePerMin",
          "type": "uint256"
        }
      ],
      "name": "startAuction",
      "outputs": [],
      "stateMutability": "nonpayable",
      "type": "function"
    },
    {
      "inputs": [],
      "name": "updateCurrentPrice",
      "outputs": [],
      "stateMutability": "nonpayable",
      "type": "function"
    },
    {
      "stateMutability": "payable",
      "type": "receive"
    }
  ],
  "bytecode": "0x60e060405260006002556000600760006101000a81548160ff0219169083151502179055506000600760016101000a81548160ff0219169083151502179055506000600760026101000a81548160ff02191690831515021790555034801561006657600080fd5b50604051614bbf380380614bbf83398181016040528101906100889190610192565b60016000819055508082106100d2576040517f08c379a00000000000000000000000000000000000000000000000000000000081526004016100c990610255565b60405180910390fd5b3373ffffffffffffffffffffffffffffffffffffffff1660c08173ffffffffffffffffffffffffffffffffffffffff16815250508160a0818152505080600181905550806080818152505060006004819055506001600a60006101000a81548160ff0219169083600181111561014b5761014a610275565b5b021790555050506102a4565b600080fd5b6000819050919050565b61016f8161015c565b811461017a57600080fd5b50565b60008151905061018c81610166565b92915050565b600080604083850312156101a9576101a8610157565b5b60006101b78582860161017d565b92505060206101c88582860161017d565b9150509250929050565b600082825260208201905092915050565b7f7265736572766520707269636520697320686967686572207468616e2063757260008201527f72656e7420707269636500000000000000000000000000000000000000000000602082015250565b600061023f602a836101d2565b915061024a826101e3565b604082019050919050565b6000602082019050818103600083015261026e81610232565b9050919050565b7f4e487b7100000000000000000000000000000000000000000000000000000000600052602160045260246000fd5b60805160a05160c05161488361033c60003960008181610533015281816108c60152818161097301528181610a160152818161102a015281816112d80152818161136501528181611414015281816116740152818161195b015281816119ea01528181611a770152611e6301526000818161094b015281816115d301526115ff015260008181611155015261159501526148836000f3fe6080604052600436106101445760003560e01c806388a38ce9116100b6578063ca77ab651161006f578063ca77ab6514610438578063d5e7a54b1461044f578063df3853061461048c578063e4655bca146104b7578063e47112bd146104e2578063fe67a54b146104f957610145565b806388a38ce914610338578063a45b4abb14610363578063aa5cd178146103a0578063aa9d9bd6146103cb578063ac5ece6d146103e2578063c891607b1461040d57610145565b80631f8cdb04116101085780631f8cdb041461021c5780632d21a3ed146102265780633fa8578d146102635780634fee13fc146102a75780637ded653f146102d057806383634e1c146102fb57610145565b806308bfc300146101475780630b3248081461017257806312210e8a1461019d57806314df33ac146101b45780631f732088146101df57610145565b5b005b34801561015357600080fd5b5061015c610510565b604051610169919061208b565b60405180910390f35b34801561017e57600080fd5b50610187610527565b60405161019491906120bf565b60405180910390f35b3480156101a957600080fd5b506101b2610531565b005b3480156101c057600080fd5b506101c96108c2565b6040516101d691906120f3565b60405180910390f35b3480156101eb57600080fd5b506102066004803603810190610201919061213f565b61096f565b60405161021391906120f3565b60405180910390f35b610224610a14565b005b34801561023257600080fd5b5061024d6004803603810190610248919061213f565b610ebe565b60405161025a91906120f3565b60405180910390f35b34801561026f57600080fd5b5061028a6004803603810190610285919061213f565b610f99565b60405161029e9897969594939291906121c8565b60405180910390f35b3480156102b357600080fd5b506102ce60048036038101906102c99190612246565b611028565b005b3480156102dc57600080fd5b506102e56112d4565b6040516102f291906120f3565b60405180910390f35b34801561030757600080fd5b50610322600480360381019061031d919061213f565b611361565b60405161032f91906120f3565b60405180910390f35b34801561034457600080fd5b5061034d611406565b60405161035a91906120f3565b60405180910390f35b34801561036f57600080fd5b5061038a6004803603810190610385919061213f565b611410565b60405161039791906120f3565b60405180910390f35b3480156103ac57600080fd5b506103b56114b5565b6040516103c291906120f3565b60405180910390f35b3480156103d757600080fd5b506103e0611558565b005b3480156103ee57600080fd5b506103f7611670565b6040516104049190612286565b60405180910390f35b34801561041957600080fd5b50610422611698565b60405161042f91906120f3565b60405180910390f35b34801561044457600080fd5b5061044d6116cd565b005b34801561045b57600080fd5b506104766004803603810190610471919061213f565b61192a565b60405161048391906122a1565b60405180910390f35b34801561049857600080fd5b506104a1611957565b6040516104ae91906120f3565b60405180910390f35b3480156104c357600080fd5b506104cc6119e6565b6040516104d991906120f3565b60405180910390f35b3480156104ee57600080fd5b506104f7611a75565b005b34801561050557600080fd5b5061050e611e61565b005b6000600a60009054906101000a900460ff16905090565b6000600154905090565b7f000000000000000000000000000000000000000000000000000000000000000073ffffffffffffffffffffffffffffffffffffffff163373ffffffffffffffffffffffffffffffffffffffff16146105b6576040517fae4a21bc00000000000000000000000000000000000000000000000000000000815260040160405180910390fd5b600a60009054906101000a900460ff1660018111156105d8576105d7612014565b5b600060018111156105ec576105eb612014565b5b03610623576040517f6668065e00000000000000000000000000000000000000000000000000000000815260040160405180910390fd5b600760019054906101000a900460ff1615610673576040517f08c379a000000000000000000000000000000000000000000000000000000000815260040161066a90612319565b60405180910390fd5b6001600760016101000a81548160ff02191690831515021790555060005b6002548110156108a457600060096000838152602001908152602001600020600401541180156106d65750600960008281526020019081526020016000206004015447115b15610897576000600960008381526020019081526020016000206004015490506000600960008481526020019081526020016000206004018190555060008111801561072157508047115b1561080a5760006009600084815260200190815260200160002060010160009054906101000a900473ffffffffffffffffffffffffffffffffffffffff1673ffffffffffffffffffffffffffffffffffffffff16826040516107829061236a565b60006040518083038185875af1925050503d80600081146107bf576040519150601f19603f3d011682016040523d82523d6000602084013e6107c4565b606091505b5050905080610808576040517f08c379a00000000000000000000000000000000000000000000000000000000081526004016107ff906123cb565b60405180910390fd5b505b7fb24b09fd2e8e4d8904c3c26f3e935824e032891520ffda419dec9f086b0e1eea6009600084815260200190815260200160002060010160009054906101000a900473ffffffffffffffffffffffffffffffffffffffff16600960008581526020019081526020016000206003015483604051610889939291906123eb565b60405180910390a160009050505b8080600101915050610691565b506000600760016101000a81548160ff021916908315150217905550565b60007f000000000000000000000000000000000000000000000000000000000000000073ffffffffffffffffffffffffffffffffffffffff163373ffffffffffffffffffffffffffffffffffffffff1614610949576040517fae4a21bc00000000000000000000000000000000000000000000000000000000815260040160405180910390fd5b7f0000000000000000000000000000000000000000000000000000000000000000905090565b60007f000000000000000000000000000000000000000000000000000000000000000073ffffffffffffffffffffffffffffffffffffffff163373ffffffffffffffffffffffffffffffffffffffff16146109f6576040517fae4a21bc00000000000000000000000000000000000000000000000000000000815260040160405180910390fd5b60096000838152602001908152602001600020600201549050919050565b7f000000000000000000000000000000000000000000000000000000000000000073ffffffffffffffffffffffffffffffffffffffff163373ffffffffffffffffffffffffffffffffffffffff1603610a99576040517fc3fdc7c100000000000000000000000000000000000000000000000000000000815260040160405180910390fd5b600a60009054906101000a900460ff166001811115610abb57610aba612014565b5b600180811115610ace57610acd612014565b5b03610b05576040517f5de7a96600000000000000000000000000000000000000000000000000000000815260040160405180910390fd5b60003411610b48576040517f08c379a0000000000000000000000000000000000000000000000000000000008152600401610b3f9061246e565b60405180910390fd5b610b506116cd565b6001543411610b94576040517f08c379a0000000000000000000000000000000000000000000000000000000008152600401610b8b906124da565b60405180910390fd5b6104b060045442610ba59190612529565b10610be5576040517f08c379a0000000000000000000000000000000000000000000000000000000008152600401610bdc906125a9565b60405180910390fd5b600060055411610c2a576040517f08c379a0000000000000000000000000000000000000000000000000000000008152600401610c2190612615565b60405180910390fd5b600060096000600254815260200190815260200160002090506002548160000181905550338160010160006101000a81548173ffffffffffffffffffffffffffffffffffffffff021916908373ffffffffffffffffffffffffffffffffffffffff16021790555034816002018190555060018160050160006101000a81548160ff021916908315150217905550600081600301819055506000816004018190555060008160050160016101000a81548160ff02191690831515021790555060008160050160026101000a81548160ff02191690831515021790555080600960006002548152602001908152602001600020600082015481600001556001820160009054906101000a900473ffffffffffffffffffffffffffffffffffffffff168160010160006101000a81548173ffffffffffffffffffffffffffffffffffffffff021916908373ffffffffffffffffffffffffffffffffffffffff1602179055506002820154816002015560038201548160030155600482015481600401556005820160009054906101000a900460ff168160050160006101000a81548160ff0219169083151502179055506005820160019054906101000a900460ff168160050160016101000a81548160ff0219169083151502179055506005820160029054906101000a900460ff168160050160026101000a81548160ff0219169083151502179055509050507f6559452b5cf88e12990371c9441273d2dbb464fb7dd9cc4030551b86df924b6281600001548260010160009054906101000a900473ffffffffffffffffffffffffffffffffffffffff168360020154604051610e9393929190612635565b60405180910390a160026000815480929190610eae9061266c565b9190505550610ebb6116cd565b50565b6000600760039054906101000a900473ffffffffffffffffffffffffffffffffffffffff1673ffffffffffffffffffffffffffffffffffffffff166370a082316009600085815260200190815260200160002060010160009054906101000a900473ffffffffffffffffffffffffffffffffffffffff166040518263ffffffff1660e01b8152600401610f519190612286565b602060405180830381865afa158015610f6e573d6000803e3d6000fd5b505050506040513d601f19601f82011682018060405250810190610f9291906126c9565b9050919050565b60096020528060005260406000206000915090508060000154908060010160009054906101000a900473ffffffffffffffffffffffffffffffffffffffff16908060020154908060030154908060040154908060050160009054906101000a900460ff16908060050160019054906101000a900460ff16908060050160029054906101000a900460ff16905088565b7f000000000000000000000000000000000000000000000000000000000000000073ffffffffffffffffffffffffffffffffffffffff163373ffffffffffffffffffffffffffffffffffffffff16146110ad576040517fae4a21bc00000000000000000000000000000000000000000000000000000000815260040160405180910390fd5b600a60009054906101000a900460ff1660018111156110cf576110ce612014565b5b600060018111156110e3576110e2612014565b5b0361111a576040517f6668065e00000000000000000000000000000000000000000000000000000000815260040160405180910390fd5b6000600a60006101000a81548160ff021916908360018111156111405761113f612014565b5b021790555081600381905550806006819055507f000000000000000000000000000000000000000000000000000000000000000060018190555081600581905550600060028190555042600481905550600354306040516111a090612007565b6111ab9291906126f6565b604051809103906000f0801580156111c7573d6000803e3d6000fd5b50600760036101000a81548173ffffffffffffffffffffffffffffffffffffffff021916908373ffffffffffffffffffffffffffffffffffffffff160217905550600760039054906101000a900473ffffffffffffffffffffffffffffffffffffffff16600860006101000a81548173ffffffffffffffffffffffffffffffffffffffff021916908373ffffffffffffffffffffffffffffffffffffffff1602179055507f0f0eb7cc9cde5623ecdc8f18c7fe6bacab47ab80468f73b4d9b3d08ec7284af5600454600860009054906101000a900473ffffffffffffffffffffffffffffffffffffffff166003546006546040516112c8949392919061271f565b60405180910390a15050565b60007f000000000000000000000000000000000000000000000000000000000000000073ffffffffffffffffffffffffffffffffffffffff163373ffffffffffffffffffffffffffffffffffffffff161461135b576040517fae4a21bc00000000000000000000000000000000000000000000000000000000815260040160405180910390fd5b47905090565b60007f000000000000000000000000000000000000000000000000000000000000000073ffffffffffffffffffffffffffffffffffffffff163373ffffffffffffffffffffffffffffffffffffffff16146113e8576040517fae4a21bc00000000000000000000000000000000000000000000000000000000815260040160405180910390fd5b60096000838152602001908152602001600020600301549050919050565b6000600554905090565b60007f000000000000000000000000000000000000000000000000000000000000000073ffffffffffffffffffffffffffffffffffffffff163373ffffffffffffffffffffffffffffffffffffffff1614611497576040517fae4a21bc00000000000000000000000000000000000000000000000000000000815260040160405180910390fd5b60096000838152602001908152602001600020600401549050919050565b6000600760039054906101000a900473ffffffffffffffffffffffffffffffffffffffff1673ffffffffffffffffffffffffffffffffffffffff166370a08231306040518263ffffffff1660e01b81526004016115129190612286565b602060405180830381865afa15801561152f573d6000803e3d6000fd5b505050506040513d601f19601f8201168201806040525081019061155391906126c9565b905090565b600760009054906101000a900460ff1661166e57600654603c6004544261157f9190612529565b6115899190612793565b61159391906127c4565b7f00000000000000000000000000000000000000000000000000000000000000006115be919061283c565b60018190555060006001541315806115f857507f000000000000000000000000000000000000000000000000000000000000000060015413155b15611625577f00000000000000000000000000000000000000000000000000000000000000006001819055505b7f7cda8554820ef0a356899263aefa9db86ab6966b7b823eda047b78c3afdfeb8e600454426116549190612529565b60015460405161166592919061287f565b60405180910390a15b565b60007f0000000000000000000000000000000000000000000000000000000000000000905090565b60008060045411156116c557603c600454426116b49190612529565b6116be9190612793565b90506116ca565b600090505b90565b6116d5611558565b6000600354905060005b6002548110156118c257600154600960008381526020019081526020016000206002015461170d9190612793565b82106117a35760015460096000838152602001908152602001600020600201546117379190612793565b600960008381526020019081526020016000206003018190555060015460096000838152602001908152602001600020600201546117759190612793565b826117809190612529565b9150600060096000838152602001908152602001600020600401819055506118b5565b6000821180156117d5575060015460096000838152602001908152602001600020600201546117d29190612793565b82105b1561185d5781600960008381526020019081526020016000206003018190555060009150600154600960008381526020019081526020016000206003015461181d91906128a8565b600960008381526020019081526020016000206002015461183e9190612529565b60096000838152602001908152602001600020600401819055506118b4565b600082116118b35760006009600083815260200190815260200160002060030181905550600960008281526020019081526020016000206002015460096000838152602001908152602001600020600401819055505b5b5b80806001019150506116df565b5060008111156118d85780600581905550611927565b6001600a60006101000a81548160ff021916908360018111156118fe576118fd612014565b5b021790555060006005819055506001600760006101000a81548160ff0219169083151502179055505b50565b60006009600083815260200190815260200160002060050160029054906101000a900460ff169050919050565b60007f000000000000000000000000000000000000000000000000000000000000000073ffffffffffffffffffffffffffffffffffffffff163373ffffffffffffffffffffffffffffffffffffffff16146119de576040517fae4a21bc00000000000000000000000000000000000000000000000000000000815260040160405180910390fd5b600354905090565b60007f000000000000000000000000000000000000000000000000000000000000000073ffffffffffffffffffffffffffffffffffffffff163373ffffffffffffffffffffffffffffffffffffffff1614611a6d576040517fae4a21bc00000000000000000000000000000000000000000000000000000000815260040160405180910390fd5b600254905090565b7f000000000000000000000000000000000000000000000000000000000000000073ffffffffffffffffffffffffffffffffffffffff163373ffffffffffffffffffffffffffffffffffffffff1614611afa576040517fae4a21bc00000000000000000000000000000000000000000000000000000000815260040160405180910390fd5b600a60009054906101000a900460ff166001811115611b1c57611b1b612014565b5b60006001811115611b3057611b2f612014565b5b03611b67576040517f6668065e00000000000000000000000000000000000000000000000000000000815260040160405180910390fd5b60005b600254811015611e5e5760006009600083815260200190815260200160002060030154118015611bbb57506009600082815260200190815260200160002060050160019054906101000a900460ff16155b15611e5157600060096000838152602001908152602001600020600301549050600760039054906101000a900473ffffffffffffffffffffffffffffffffffffffff1673ffffffffffffffffffffffffffffffffffffffff1663095ea7b36009600085815260200190815260200160002060010160009054906101000a900473ffffffffffffffffffffffffffffffffffffffff16670de0b6b3a764000084611c6491906128a8565b6040518363ffffffff1660e01b8152600401611c819291906128ea565b6020604051808303816000875af1158015611ca0573d6000803e3d6000fd5b505050506040513d601f19601f82011682018060405250810190611cc4919061293f565b50600760039054906101000a900473ffffffffffffffffffffffffffffffffffffffff1673ffffffffffffffffffffffffffffffffffffffff166323b872dd306009600086815260200190815260200160002060010160009054906101000a900473ffffffffffffffffffffffffffffffffffffffff16670de0b6b3a764000085611d4f91906128a8565b6040518463ffffffff1660e01b8152600401611d6d9392919061296c565b6020604051808303816000875af1158015611d8c573d6000803e3d6000fd5b505050506040513d601f19601f82011682018060405250810190611db0919061293f565b507f039b13884cbcea684931b2bcff6faab7170693e1bc173e651e14168c890c70806009600084815260200190815260200160002060010160009054906101000a900473ffffffffffffffffffffffffffffffffffffffff1682604051611e189291906128ea565b60405180910390a160016009600084815260200190815260200160002060050160016101000a81548160ff021916908315150217905550505b8080600101915050611b6a565b50565b7f000000000000000000000000000000000000000000000000000000000000000073ffffffffffffffffffffffffffffffffffffffff163373ffffffffffffffffffffffffffffffffffffffff1614611ee6576040517fae4a21bc00000000000000000000000000000000000000000000000000000000815260040160405180910390fd5b6001600a60006101000a81548160ff02191690836001811115611f0c57611f0b612014565b5b0217905550611f196116cd565b611f21611a75565b611f29610531565b60006005541115611fc657600760039054906101000a900473ffffffffffffffffffffffffffffffffffffffff1673ffffffffffffffffffffffffffffffffffffffff16639dc29fac306005546040518363ffffffff1660e01b8152600401611f939291906128ea565b600060405180830381600087803b158015611fad57600080fd5b505af1158015611fc1573d6000803e3d6000fd5b505050505b7f99d9aed25b1415a4a35a1890d2ee6aa1db28f98ba8eff1de3d494a6af9dca77260025460055447604051611ffd939291906129a3565b60405180910390a1565b611e73806129db83390190565b7f4e487b7100000000000000000000000000000000000000000000000000000000600052602160045260246000fd5b6002811061205457612053612014565b5b50565b600081905061206582612043565b919050565b600061207582612057565b9050919050565b6120858161206a565b82525050565b60006020820190506120a0600083018461207c565b92915050565b6000819050919050565b6120b9816120a6565b82525050565b60006020820190506120d460008301846120b0565b92915050565b6000819050919050565b6120ed816120da565b82525050565b600060208201905061210860008301846120e4565b92915050565b600080fd5b61211c816120da565b811461212757600080fd5b50565b60008135905061213981612113565b92915050565b6000602082840312156121555761215461210e565b5b60006121638482850161212a565b91505092915050565b600073ffffffffffffffffffffffffffffffffffffffff82169050919050565b60006121978261216c565b9050919050565b6121a78161218c565b82525050565b60008115159050919050565b6121c2816121ad565b82525050565b6000610100820190506121de600083018b6120e4565b6121eb602083018a61219e565b6121f860408301896120e4565b61220560608301886120e4565b61221260808301876120e4565b61221f60a08301866121b9565b61222c60c08301856121b9565b61223960e08301846121b9565b9998505050505050505050565b6000806040838503121561225d5761225c61210e565b5b600061226b8582860161212a565b925050602061227c8582860161212a565b9150509250929050565b600060208201905061229b600083018461219e565b92915050565b60006020820190506122b660008301846121b9565b92915050565b600082825260208201905092915050565b7f4c6f636b2069732068656c642062792074686520636f6e747261637400000000600082015250565b6000612303601c836122bc565b915061230e826122cd565b602082019050919050565b60006020820190508181036000830152612332816122f6565b9050919050565b600081905092915050565b50565b6000612354600083612339565b915061235f82612344565b600082019050919050565b600061237582612347565b9150819050919050565b7f4661696c656420746f2073656e64206574686572000000000000000000000000600082015250565b60006123b56014836122bc565b91506123c08261237f565b602082019050919050565b600060208201905081810360008301526123e4816123a8565b9050919050565b6000606082019050612400600083018661219e565b61240d60208301856120e4565b61241a60408301846120e4565b949350505050565b7f62696456616c7565206c657373207468616e2030000000000000000000000000600082015250565b60006124586014836122bc565b915061246382612422565b602082019050919050565b600060208201905081810360008301526124878161244b565b9050919050565b7f62696456616c7565206c657373207468616e2063757272656e74207072696365600082015250565b60006124c46020836122bc565b91506124cf8261248e565b602082019050919050565b600060208201905081810360008301526124f3816124b7565b9050919050565b7f4e487b7100000000000000000000000000000000000000000000000000000000600052601160045260246000fd5b6000612534826120da565b915061253f836120da565b9250828203905081811115612557576125566124fa565b5b92915050565b7f74696d6520697320757000000000000000000000000000000000000000000000600082015250565b6000612593600a836122bc565b915061259e8261255d565b602082019050919050565b600060208201905081810360008301526125c281612586565b9050919050565b7f5468657265206973206e6f206d6f726520616c676f73206c6566740000000000600082015250565b60006125ff601b836122bc565b915061260a826125c9565b602082019050919050565b6000602082019050818103600083015261262e816125f2565b9050919050565b600060608201905061264a60008301866120e4565b612657602083018561219e565b61266460408301846120e4565b949350505050565b6000612677826120da565b91507fffffffffffffffffffffffffffffffffffffffffffffffffffffffffffffffff82036126a9576126a86124fa565b5b600182019050919050565b6000815190506126c381612113565b92915050565b6000602082840312156126df576126de61210e565b5b60006126ed848285016126b4565b91505092915050565b600060408201905061270b60008301856120e4565b612718602083018461219e565b9392505050565b600060808201905061273460008301876120e4565b612741602083018661219e565b61274e60408301856120e4565b61275b60608301846120e4565b95945050505050565b7f4e487b7100000000000000000000000000000000000000000000000000000000600052601260045260246000fd5b600061279e826120da565b91506127a9836120da565b9250826127b9576127b8612764565b5b828204905092915050565b60006127cf826120a6565b91506127da836120a6565b92508282026127e8816120a6565b91507f800000000000000000000000000000000000000000000000000000000000000084146000841216156128205761281f6124fa565b5b8282058414831517612835576128346124fa565b5b5092915050565b6000612847826120a6565b9150612852836120a6565b9250828203905081811260008412168282136000851215161715612879576128786124fa565b5b92915050565b600060408201905061289460008301856120e4565b6128a160208301846120e4565b9392505050565b60006128b3826120da565b91506128be836120da565b92508282026128cc816120da565b915082820484148315176128e3576128e26124fa565b5b5092915050565b60006040820190506128ff600083018561219e565b61290c60208301846120e4565b9392505050565b61291c816121ad565b811461292757600080fd5b50565b60008151905061293981612913565b92915050565b6000602082840312156129555761295461210e565b5b60006129638482850161292a565b91505092915050565b6000606082019050612981600083018661219e565b61298e602083018561219e565b61299b60408301846120e4565b949350505050565b60006060820190506129b860008301866120e4565b6129c560208301856120e4565b6129d260408301846120e4565b94935050505056fe608060405234801561001057600080fd5b50604051611e73380380611e738339818101604052810190610032919061078c565b336040518060400160405280600a81526020017f4552433230546f6b656e000000000000000000000000000000000000000000008152506040518060400160405280600281526020017f455400000000000000000000000000000000000000000000000000000000000081525081600390816100ae9190610a12565b5080600490816100be9190610a12565b505050600073ffffffffffffffffffffffffffffffffffffffff168173ffffffffffffffffffffffffffffffffffffffff16036101335760006040517f1e4fbdf700000000000000000000000000000000000000000000000000000000815260040161012a9190610af3565b60405180910390fd5b6101428161019160201b60201c565b5061016633670de0b6b3a76400008461015b9190610b3d565b61025760201b60201c565b61018a3382670de0b6b3a76400008561017f9190610b3d565b6102df60201b60201c565b5050610c14565b6000600560009054906101000a900473ffffffffffffffffffffffffffffffffffffffff16905081600560006101000a81548173ffffffffffffffffffffffffffffffffffffffff021916908373ffffffffffffffffffffffffffffffffffffffff1602179055508173ffffffffffffffffffffffffffffffffffffffff168173ffffffffffffffffffffffffffffffffffffffff167f8be0079c531659141344cd1fd0a4f28419497f9722a3daafe3b4186f6b6457e060405160405180910390a35050565b600073ffffffffffffffffffffffffffffffffffffffff168273ffffffffffffffffffffffffffffffffffffffff16036102c95760006040517fec442f050000000000000000000000000000000000000000000000000000000081526004016102c09190610af3565b60405180910390fd5b6102db600083836102f760201b60201c565b5050565b6102f2838383600161051c60201b60201c565b505050565b600073ffffffffffffffffffffffffffffffffffffffff168373ffffffffffffffffffffffffffffffffffffffff160361034957806002600082825461033d9190610b7f565b9250508190555061041c565b60008060008573ffffffffffffffffffffffffffffffffffffffff1673ffffffffffffffffffffffffffffffffffffffff168152602001908152602001600020549050818110156103d5578381836040517fe450d38c0000000000000000000000000000000000000000000000000000000081526004016103cc93929190610bc2565b60405180910390fd5b8181036000808673ffffffffffffffffffffffffffffffffffffffff1673ffffffffffffffffffffffffffffffffffffffff16815260200190815260200160002081905550505b600073ffffffffffffffffffffffffffffffffffffffff168273ffffffffffffffffffffffffffffffffffffffff160361046557806002600082825403925050819055506104b2565b806000808473ffffffffffffffffffffffffffffffffffffffff1673ffffffffffffffffffffffffffffffffffffffff168152602001908152602001600020600082825401925050819055505b8173ffffffffffffffffffffffffffffffffffffffff168373ffffffffffffffffffffffffffffffffffffffff167fddf252ad1be2c89b69c2b068fc378daa952ba7f163c4a11628f55a4df523b3ef8360405161050f9190610bf9565b60405180910390a3505050565b600073ffffffffffffffffffffffffffffffffffffffff168473ffffffffffffffffffffffffffffffffffffffff160361058e5760006040517fe602df050000000000000000000000000000000000000000000000000000000081526004016105859190610af3565b60405180910390fd5b600073ffffffffffffffffffffffffffffffffffffffff168373ffffffffffffffffffffffffffffffffffffffff16036106005760006040517f94280d620000000000000000000000000000000000000000000000000000000081526004016105f79190610af3565b60405180910390fd5b81600160008673ffffffffffffffffffffffffffffffffffffffff1673ffffffffffffffffffffffffffffffffffffffff16815260200190815260200160002060008573ffffffffffffffffffffffffffffffffffffffff1673ffffffffffffffffffffffffffffffffffffffff1681526020019081526020016000208190555080156106ed578273ffffffffffffffffffffffffffffffffffffffff168473ffffffffffffffffffffffffffffffffffffffff167f8c5be1e5ebec7d5bd14f71427d1e84f3dd0314c0f7b2291e5b200ac8c7c3b925846040516106e49190610bf9565b60405180910390a35b50505050565b600080fd5b6000819050919050565b61070b816106f8565b811461071657600080fd5b50565b60008151905061072881610702565b92915050565b600073ffffffffffffffffffffffffffffffffffffffff82169050919050565b60006107598261072e565b9050919050565b6107698161074e565b811461077457600080fd5b50565b60008151905061078681610760565b92915050565b600080604083850312156107a3576107a26106f3565b5b60006107b185828601610719565b92505060206107c285828601610777565b9150509250929050565b600081519050919050565b7f4e487b7100000000000000000000000000000000000000000000000000000000600052604160045260246000fd5b7f4e487b7100000000000000000000000000000000000000000000000000000000600052602260045260246000fd5b6000600282049050600182168061084d57607f821691505b6020821081036108605761085f610806565b5b50919050565b60008190508160005260206000209050919050565b60006020601f8301049050919050565b600082821b905092915050565b6000600883026108c87fffffffffffffffffffffffffffffffffffffffffffffffffffffffffffffffff8261088b565b6108d2868361088b565b95508019841693508086168417925050509392505050565b6000819050919050565b600061090f61090a610905846106f8565b6108ea565b6106f8565b9050919050565b6000819050919050565b610929836108f4565b61093d61093582610916565b848454610898565b825550505050565b600090565b610952610945565b61095d818484610920565b505050565b5b818110156109815761097660008261094a565b600181019050610963565b5050565b601f8211156109c65761099781610866565b6109a08461087b565b810160208510156109af578190505b6109c36109bb8561087b565b830182610962565b50505b505050565b600082821c905092915050565b60006109e9600019846008026109cb565b1980831691505092915050565b6000610a0283836109d8565b9150826002028217905092915050565b610a1b826107cc565b67ffffffffffffffff811115610a3457610a336107d7565b5b610a3e8254610835565b610a49828285610985565b600060209050601f831160018114610a7c5760008415610a6a578287015190505b610a7485826109f6565b865550610adc565b601f198416610a8a86610866565b60005b82811015610ab257848901518255600182019150602085019450602081019050610a8d565b86831015610acf5784890151610acb601f8916826109d8565b8355505b6001600288020188555050505b505050505050565b610aed8161074e565b82525050565b6000602082019050610b086000830184610ae4565b92915050565b7f4e487b7100000000000000000000000000000000000000000000000000000000600052601160045260246000fd5b6000610b48826106f8565b9150610b53836106f8565b9250828202610b61816106f8565b91508282048414831517610b7857610b77610b0e565b5b5092915050565b6000610b8a826106f8565b9150610b95836106f8565b9250828201905080821115610bad57610bac610b0e565b5b92915050565b610bbc816106f8565b82525050565b6000606082019050610bd76000830186610ae4565b610be46020830185610bb3565b610bf16040830184610bb3565b949350505050565b6000602082019050610c0e6000830184610bb3565b92915050565b61125080610c236000396000f3fe608060405234801561001057600080fd5b50600436106100ea5760003560e01c8063715018a61161008c5780639dc29fac116100665780639dc29fac1461023b578063a9059cbb14610257578063dd62ed3e14610287578063f2fde38b146102b7576100ea565b8063715018a6146101f55780638da5cb5b146101ff57806395d89b411461021d576100ea565b806323b872dd116100c857806323b872dd1461015b578063313ce5671461018b5780635e65aff8146101a957806370a08231146101c5576100ea565b806306fdde03146100ef578063095ea7b31461010d57806318160ddd1461013d575b600080fd5b6100f76102d3565b6040516101049190610e62565b60405180910390f35b61012760048036038101906101229190610f1d565b610365565b6040516101349190610f78565b60405180910390f35b610145610388565b6040516101529190610fa2565b60405180910390f35b61017560048036038101906101709190610fbd565b610392565b6040516101829190610f78565b60405180910390f35b6101936103c1565b6040516101a0919061102c565b60405180910390f35b6101c360048036038101906101be9190610f1d565b6103ca565b005b6101df60048036038101906101da9190611047565b6103f4565b6040516101ec9190610fa2565b60405180910390f35b6101fd61043c565b005b610207610450565b6040516102149190611083565b60405180910390f35b61022561047a565b6040516102329190610e62565b60405180910390f35b61025560048036038101906102509190610f1d565b61050c565b005b610271600480360381019061026c9190610f1d565b610535565b60405161027e9190610f78565b60405180910390f35b6102a1600480360381019061029c919061109e565b610558565b6040516102ae9190610fa2565b60405180910390f35b6102d160048036038101906102cc9190611047565b6105df565b005b6060600380546102e29061110d565b80601f016020809104026020016040519081016040528092919081815260200182805461030e9061110d565b801561035b5780601f106103305761010080835404028352916020019161035b565b820191906000526020600020905b81548152906001019060200180831161033e57829003601f168201915b5050505050905090565b600080610370610665565b905061037d81858561066d565b600191505092915050565b6000600254905090565b60008061039d610665565b90506103aa85828561067f565b6103b5858585610713565b60019150509392505050565b60006012905090565b6103d2610807565b6103f03383670de0b6b3a7640000846103eb919061116d565b61066d565b5050565b60008060008373ffffffffffffffffffffffffffffffffffffffff1673ffffffffffffffffffffffffffffffffffffffff168152602001908152602001600020549050919050565b610444610807565b61044e600061088e565b565b6000600560009054906101000a900473ffffffffffffffffffffffffffffffffffffffff16905090565b6060600480546104899061110d565b80601f01602080910402602001604051908101604052809291908181526020018280546104b59061110d565b80156105025780601f106104d757610100808354040283529160200191610502565b820191906000526020600020905b8154815290600101906020018083116104e557829003601f168201915b5050505050905090565b610514610807565b61053182670de0b6b3a76400008361052c919061116d565b610954565b5050565b600080610540610665565b905061054d818585610713565b600191505092915050565b6000600160008473ffffffffffffffffffffffffffffffffffffffff1673ffffffffffffffffffffffffffffffffffffffff16815260200190815260200160002060008373ffffffffffffffffffffffffffffffffffffffff1673ffffffffffffffffffffffffffffffffffffffff16815260200190815260200160002054905092915050565b6105e7610807565b600073ffffffffffffffffffffffffffffffffffffffff168173ffffffffffffffffffffffffffffffffffffffff16036106595760006040517f1e4fbdf70000000000000000000000000000000000000000000000000000000081526004016106509190611083565b60405180910390fd5b6106628161088e565b50565b600033905090565b61067a83838360016109d6565b505050565b600061068b8484610558565b90507fffffffffffffffffffffffffffffffffffffffffffffffffffffffffffffffff811461070d57818110156106fd578281836040517ffb8f41b20000000000000000000000000000000000000000000000000000000081526004016106f4939291906111af565b60405180910390fd5b61070c848484840360006109d6565b5b50505050565b600073ffffffffffffffffffffffffffffffffffffffff168373ffffffffffffffffffffffffffffffffffffffff16036107855760006040517f96c6fd1e00000000000000000000000000000000000000000000000000000000815260040161077c9190611083565b60405180910390fd5b600073ffffffffffffffffffffffffffffffffffffffff168273ffffffffffffffffffffffffffffffffffffffff16036107f75760006040517fec442f050000000000000000000000000000000000000000000000000000000081526004016107ee9190611083565b60405180910390fd5b610802838383610bad565b505050565b61080f610665565b73ffffffffffffffffffffffffffffffffffffffff1661082d610450565b73ffffffffffffffffffffffffffffffffffffffff161461088c57610850610665565b6040517f118cdaa70000000000000000000000000000000000000000000000000000000081526004016108839190611083565b60405180910390fd5b565b6000600560009054906101000a900473ffffffffffffffffffffffffffffffffffffffff16905081600560006101000a81548173ffffffffffffffffffffffffffffffffffffffff021916908373ffffffffffffffffffffffffffffffffffffffff1602179055508173ffffffffffffffffffffffffffffffffffffffff168173ffffffffffffffffffffffffffffffffffffffff167f8be0079c531659141344cd1fd0a4f28419497f9722a3daafe3b4186f6b6457e060405160405180910390a35050565b600073ffffffffffffffffffffffffffffffffffffffff168273ffffffffffffffffffffffffffffffffffffffff16036109c65760006040517f96c6fd1e0000000000000000000000000000000000000000000000000000000081526004016109bd9190611083565b60405180910390fd5b6109d282600083610bad565b5050565b600073ffffffffffffffffffffffffffffffffffffffff168473ffffffffffffffffffffffffffffffffffffffff1603610a485760006040517fe602df05000000000000000000000000000000000000000000000000000000008152600401610a3f9190611083565b60405180910390fd5b600073ffffffffffffffffffffffffffffffffffffffff168373ffffffffffffffffffffffffffffffffffffffff1603610aba5760006040517f94280d62000000000000000000000000000000000000000000000000000000008152600401610ab19190611083565b60405180910390fd5b81600160008673ffffffffffffffffffffffffffffffffffffffff1673ffffffffffffffffffffffffffffffffffffffff16815260200190815260200160002060008573ffffffffffffffffffffffffffffffffffffffff1673ffffffffffffffffffffffffffffffffffffffff168152602001908152602001600020819055508015610ba7578273ffffffffffffffffffffffffffffffffffffffff168473ffffffffffffffffffffffffffffffffffffffff167f8c5be1e5ebec7d5bd14f71427d1e84f3dd0314c0f7b2291e5b200ac8c7c3b92584604051610b9e9190610fa2565b60405180910390a35b50505050565b600073ffffffffffffffffffffffffffffffffffffffff168373ffffffffffffffffffffffffffffffffffffffff1603610bff578060026000828254610bf391906111e6565b92505081905550610cd2565b60008060008573ffffffffffffffffffffffffffffffffffffffff1673ffffffffffffffffffffffffffffffffffffffff16815260200190815260200160002054905081811015610c8b578381836040517fe450d38c000000000000000000000000000000000000000000000000000000008152600401610c82939291906111af565b60405180910390fd5b8181036000808673ffffffffffffffffffffffffffffffffffffffff1673ffffffffffffffffffffffffffffffffffffffff16815260200190815260200160002081905550505b600073ffffffffffffffffffffffffffffffffffffffff168273ffffffffffffffffffffffffffffffffffffffff1603610d1b5780600260008282540392505081905550610d68565b806000808473ffffffffffffffffffffffffffffffffffffffff1673ffffffffffffffffffffffffffffffffffffffff168152602001908152602001600020600082825401925050819055505b8173ffffffffffffffffffffffffffffffffffffffff168373ffffffffffffffffffffffffffffffffffffffff167fddf252ad1be2c89b69c2b068fc378daa952ba7f163c4a11628f55a4df523b3ef83604051610dc59190610fa2565b60405180910390a3505050565b600081519050919050565b600082825260208201905092915050565b60005b83811015610e0c578082015181840152602081019050610df1565b60008484015250505050565b6000601f19601f8301169050919050565b6000610e3482610dd2565b610e3e8185610ddd565b9350610e4e818560208601610dee565b610e5781610e18565b840191505092915050565b60006020820190508181036000830152610e7c8184610e29565b905092915050565b600080fd5b600073ffffffffffffffffffffffffffffffffffffffff82169050919050565b6000610eb482610e89565b9050919050565b610ec481610ea9565b8114610ecf57600080fd5b50565b600081359050610ee181610ebb565b92915050565b6000819050919050565b610efa81610ee7565b8114610f0557600080fd5b50565b600081359050610f1781610ef1565b92915050565b60008060408385031215610f3457610f33610e84565b5b6000610f4285828601610ed2565b9250506020610f5385828601610f08565b9150509250929050565b60008115159050919050565b610f7281610f5d565b82525050565b6000602082019050610f8d6000830184610f69565b92915050565b610f9c81610ee7565b82525050565b6000602082019050610fb76000830184610f93565b92915050565b600080600060608486031215610fd657610fd5610e84565b5b6000610fe486828701610ed2565b9350506020610ff586828701610ed2565b925050604061100686828701610f08565b9150509250925092565b600060ff82169050919050565b61102681611010565b82525050565b6000602082019050611041600083018461101d565b92915050565b60006020828403121561105d5761105c610e84565b5b600061106b84828501610ed2565b91505092915050565b61107d81610ea9565b82525050565b60006020820190506110986000830184611074565b92915050565b600080604083850312156110b5576110b4610e84565b5b60006110c385828601610ed2565b92505060206110d485828601610ed2565b9150509250929050565b7f4e487b7100000000000000000000000000000000000000000000000000000000600052602260045260246000fd5b6000600282049050600182168061112557607f821691505b602082108103611138576111376110de565b5b50919050565b7f4e487b7100000000000000000000000000000000000000000000000000000000600052601160045260246000fd5b600061117882610ee7565b915061118383610ee7565b925082820261119181610ee7565b915082820484148315176111a8576111a761113e565b5b5092915050565b60006060820190506111c46000830186611074565b6111d16020830185610f93565b6111de6040830184610f93565b949350505050565b60006111f182610ee7565b91506111fc83610ee7565b92508282019050808211156112145761121361113e565b5b9291505056fea26469706673582212207adf9560a46e325b60a689ef8d959e0683a4ab2c6567e69903e0407ea9c7092964736f6c634300081b0033a2646970667358221220bf050c9b5f98fefd10c1aa0ca278b2f878af3239e18f403389a6a7eec544b8db64736f6c634300081b0033",
  "linkReferences": {},
  "deployedLinkReferences": {}
}