{
  "_format": "hh-sol-artifact-1",
  "contractName": "DutchAuction",
  "sourceName": "contracts/Auction.sol",
  "abi": [
    {
      "inputs": [
        {
          "internalType": "address",
          "name": "_token",
          "type": "address"
        },
        {
          "internalType": "address",
          "name": "_bidderContract",
          "type": "address"
        },
        {
          "internalType": "uint256",
          "name": "_startPrice",
          "type": "uint256"
        },
        {
          "internalType": "uint256",
          "name": "_reservePrice",
          "type": "uint256"
        },
        {
          "internalType": "uint256",
          "name": "_auctionDuration",
          "type": "uint256"
        },
        {
          "internalType": "uint256",
          "name": "_totalTokens",
          "type": "uint256"
        },
        {
          "internalType": "uint256",
          "name": "_priceDecrement",
          "type": "uint256"
        }
      ],
      "stateMutability": "nonpayable",
      "type": "constructor"
    },
    {
      "inputs": [],
      "name": "ReentrancyGuardReentrantCall",
      "type": "error"
    },
    {
      "anonymous": false,
      "inputs": [
        {
          "indexed": false,
          "internalType": "uint256",
          "name": "totalFundsRaised",
          "type": "uint256"
        },
        {
          "indexed": false,
          "internalType": "uint256",
          "name": "unsoldTokens",
          "type": "uint256"
        }
      ],
      "name": "AuctionEnded",
      "type": "event"
    },
    {
      "anonymous": false,
      "inputs": [],
      "name": "AuctionPaused",
      "type": "event"
    },
    {
      "anonymous": false,
      "inputs": [],
      "name": "AuctionResumed",
      "type": "event"
    },
    {
      "anonymous": false,
      "inputs": [
        {
          "indexed": false,
          "internalType": "uint256",
          "name": "startTime",
          "type": "uint256"
        },
        {
          "indexed": false,
          "internalType": "uint256",
          "name": "startPrice",
          "type": "uint256"
        },
        {
          "indexed": false,
          "internalType": "uint256",
          "name": "reservePrice",
          "type": "uint256"
        },
        {
          "indexed": false,
          "internalType": "uint256",
          "name": "totalTokens",
          "type": "uint256"
        }
      ],
      "name": "AuctionStarted",
      "type": "event"
    },
    {
      "anonymous": false,
      "inputs": [
        {
          "indexed": true,
          "internalType": "address",
          "name": "bidder",
          "type": "address"
        },
        {
          "indexed": false,
          "internalType": "uint256",
          "name": "bidAmount",
          "type": "uint256"
        },
        {
          "indexed": false,
          "internalType": "uint256",
          "name": "tokensAllocated",
          "type": "uint256"
        }
      ],
      "name": "BidPlaced",
      "type": "event"
    },
    {
      "inputs": [],
      "name": "auctionDuration",
      "outputs": [
        {
          "internalType": "uint256",
          "name": "",
          "type": "uint256"
        }
      ],
      "stateMutability": "view",
      "type": "function"
    },
    {
      "inputs": [],
      "name": "auctionStarted",
      "outputs": [
        {
          "internalType": "bool",
          "name": "",
          "type": "bool"
        }
      ],
      "stateMutability": "view",
      "type": "function"
    },
    {
      "inputs": [],
      "name": "auctionState",
      "outputs": [
        {
          "internalType": "enum DutchAuction.AuctionState",
          "name": "",
          "type": "uint8"
        }
      ],
      "stateMutability": "view",
      "type": "function"
    },
    {
      "inputs": [],
      "name": "bidderContract",
      "outputs": [
        {
          "internalType": "contract Bidder",
          "name": "",
          "type": "address"
        }
      ],
      "stateMutability": "view",
      "type": "function"
    },
    {
      "inputs": [],
      "name": "getAuctionStartTime",
      "outputs": [
        {
          "internalType": "uint256",
          "name": "",
          "type": "uint256"
        }
      ],
      "stateMutability": "view",
      "type": "function"
    },
    {
      "inputs": [],
      "name": "getAuctionStatus",
      "outputs": [
        {
          "internalType": "enum DutchAuction.AuctionState",
          "name": "",
          "type": "uint8"
        }
      ],
      "stateMutability": "view",
      "type": "function"
    },
    {
      "inputs": [
        {
          "internalType": "uint256",
          "name": "bidderID",
          "type": "uint256"
        }
      ],
      "name": "getBidderInfo",
      "outputs": [
        {
          "components": [
            {
              "internalType": "uint256",
              "name": "bidderID",
              "type": "uint256"
            },
            {
              "internalType": "address",
              "name": "walletAddress",
              "type": "address"
            },
            {
              "internalType": "uint256",
              "name": "bidValue",
              "type": "uint256"
            },
            {
              "internalType": "uint256",
              "name": "tokensPurchased",
              "type": "uint256"
            },
            {
              "internalType": "uint256",
              "name": "refundEth",
              "type": "uint256"
            },
            {
              "internalType": "bool",
              "name": "tokenSent",
              "type": "bool"
            },
            {
              "internalType": "bool",
              "name": "ethRefunded",
              "type": "bool"
            }
          ],
          "internalType": "struct Bidder.BidderInfo",
          "name": "",
          "type": "tuple"
        }
      ],
      "stateMutability": "view",
      "type": "function"
    },
    {
      "inputs": [],
      "name": "getCurrentPrice",
      "outputs": [
        {
          "internalType": "uint256",
          "name": "",
          "type": "uint256"
        }
      ],
      "stateMutability": "view",
      "type": "function"
    },
    {
      "inputs": [],
      "name": "getRemainingTokens",
      "outputs": [
        {
          "internalType": "uint256",
          "name": "",
          "type": "uint256"
        }
      ],
      "stateMutability": "view",
      "type": "function"
    },
    {
      "inputs": [],
      "name": "getTimeRemaining",
      "outputs": [
        {
          "internalType": "uint256",
          "name": "",
          "type": "uint256"
        }
      ],
      "stateMutability": "view",
      "type": "function"
    },
    {
      "inputs": [],
      "name": "getTotalFundsRaised",
      "outputs": [
        {
          "internalType": "uint256",
          "name": "",
          "type": "uint256"
        }
      ],
      "stateMutability": "view",
      "type": "function"
    },
    {
      "inputs": [],
      "name": "owner",
      "outputs": [
        {
          "internalType": "address",
          "name": "",
          "type": "address"
        }
      ],
      "stateMutability": "view",
      "type": "function"
    },
    {
      "inputs": [],
      "name": "pauseAuction",
      "outputs": [],
      "stateMutability": "nonpayable",
      "type": "function"
    },
    {
      "inputs": [],
      "name": "placeBid",
      "outputs": [],
      "stateMutability": "payable",
      "type": "function"
    },
    {
      "inputs": [],
      "name": "priceDecrement",
      "outputs": [
        {
          "internalType": "uint256",
          "name": "",
          "type": "uint256"
        }
      ],
      "stateMutability": "view",
      "type": "function"
    },
    {
      "inputs": [],
      "name": "reservePrice",
      "outputs": [
        {
          "internalType": "uint256",
          "name": "",
          "type": "uint256"
        }
      ],
      "stateMutability": "view",
      "type": "function"
    },
    {
      "inputs": [],
      "name": "resumeAuction",
      "outputs": [],
      "stateMutability": "nonpayable",
      "type": "function"
    },
    {
      "inputs": [],
      "name": "startAuction",
      "outputs": [],
      "stateMutability": "nonpayable",
      "type": "function"
    },
    {
      "inputs": [],
      "name": "startPrice",
      "outputs": [
        {
          "internalType": "uint256",
          "name": "",
          "type": "uint256"
        }
      ],
      "stateMutability": "view",
      "type": "function"
    },
    {
      "inputs": [],
      "name": "startTime",
      "outputs": [
        {
          "internalType": "uint256",
          "name": "",
          "type": "uint256"
        }
      ],
      "stateMutability": "view",
      "type": "function"
    },
    {
      "inputs": [],
      "name": "token",
      "outputs": [
        {
          "internalType": "contract IERC20",
          "name": "",
          "type": "address"
        }
      ],
      "stateMutability": "view",
      "type": "function"
    },
    {
      "inputs": [],
      "name": "totalFundsRaised",
      "outputs": [
        {
          "internalType": "uint256",
          "name": "",
          "type": "uint256"
        }
      ],
      "stateMutability": "view",
      "type": "function"
    },
    {
      "inputs": [],
      "name": "totalTokensAvailable",
      "outputs": [
        {
          "internalType": "uint256",
          "name": "",
          "type": "uint256"
        }
      ],
      "stateMutability": "view",
      "type": "function"
    },
    {
      "inputs": [],
      "name": "withdrawFunds",
      "outputs": [],
      "stateMutability": "nonpayable",
      "type": "function"
    },
    {
      "inputs": [],
      "name": "withdrawRefund",
      "outputs": [],
      "stateMutability": "nonpayable",
      "type": "function"
    }
  ],
  "bytecode": "0x608060405234801561001057600080fd5b506040516125c83803806125c8833981810160405281019061003291906101f0565b600160008190555033600160006101000a81548173ffffffffffffffffffffffffffffffffffffffff021916908373ffffffffffffffffffffffffffffffffffffffff16021790555086600260006101000a81548173ffffffffffffffffffffffffffffffffffffffff021916908373ffffffffffffffffffffffffffffffffffffffff16021790555085600360006101000a81548173ffffffffffffffffffffffffffffffffffffffff021916908373ffffffffffffffffffffffffffffffffffffffff16021790555084600481905550836005819055508260068190555081600881905550806009819055506002600b60016101000a81548160ff0219169083600281111561014657610145610292565b5b0217905550505050505050506102c1565b600080fd5b600073ffffffffffffffffffffffffffffffffffffffff82169050919050565b60006101878261015c565b9050919050565b6101978161017c565b81146101a257600080fd5b50565b6000815190506101b48161018e565b92915050565b6000819050919050565b6101cd816101ba565b81146101d857600080fd5b50565b6000815190506101ea816101c4565b92915050565b600080600080600080600060e0888a03121561020f5761020e610157565b5b600061021d8a828b016101a5565b975050602061022e8a828b016101a5565b965050604061023f8a828b016101db565b95505060606102508a828b016101db565b94505060806102618a828b016101db565b93505060a06102728a828b016101db565b92505060c06102838a828b016101db565b91505092959891949750929550565b7f4e487b7100000000000000000000000000000000000000000000000000000000600052602160045260246000fd5b6122f8806102d06000396000f3fe6080604052600436106101665760003560e01c80637fb45099116100d1578063db2e1eed1161008a578063ee2679bc11610064578063ee2679bc1461046d578063f1a9af8914610498578063fc0c546a146104c3578063ff6a6d65146104ee57610166565b8063db2e1eed1461040d578063eb91d37e14610438578063ecfc7ecc1461046357610166565b80637fb450991461031f5780638da5cb5b1461034a578063af35ae2714610375578063b0431000146103a0578063b9ae7364146103cb578063dac6270d146103e257610166565b806332353fbd1161012357806332353fbd14610245578063427c0c7f1461025c578063621de3c4146102875780636b64c769146102b25780636dd2cbe5146102c957806378e97925146102f457610166565b80630c3e2d2d1461016b5780630cbf54c814610196578063110f8874146101c157806324600fc3146101d857806326cddbfb146101ef5780632e93be301461021a575b600080fd5b34801561017757600080fd5b5061018061052b565b60405161018d91906116d9565b60405180910390f35b3480156101a257600080fd5b506101ab610535565b6040516101b891906116d9565b60405180910390f35b3480156101cd57600080fd5b506101d661053b565b005b3480156101e457600080fd5b506101ed6108aa565b005b3480156101fb57600080fd5b50610204610a1c565b60405161021191906116d9565b60405180910390f35b34801561022657600080fd5b5061022f610a22565b60405161023c919061176b565b60405180910390f35b34801561025157600080fd5b5061025a610a39565b005b34801561026857600080fd5b50610271610b98565b60405161027e91906116d9565b60405180910390f35b34801561029357600080fd5b5061029c610b9e565b6040516102a99190611805565b60405180910390f35b3480156102be57600080fd5b506102c7610bc4565b005b3480156102d557600080fd5b506102de610d5d565b6040516102eb91906116d9565b60405180910390f35b34801561030057600080fd5b50610309610d63565b60405161031691906116d9565b60405180910390f35b34801561032b57600080fd5b50610334610d69565b604051610341919061176b565b60405180910390f35b34801561035657600080fd5b5061035f610d7c565b60405161036c9190611841565b60405180910390f35b34801561038157600080fd5b5061038a610da2565b60405161039791906116d9565b60405180910390f35b3480156103ac57600080fd5b506103b5610dac565b6040516103c291906116d9565b60405180910390f35b3480156103d757600080fd5b506103e0610db6565b005b3480156103ee57600080fd5b506103f7610f15565b60405161040491906116d9565b60405180910390f35b34801561041957600080fd5b50610422610f6f565b60405161042f91906116d9565b60405180910390f35b34801561044457600080fd5b5061044d610f75565b60405161045a91906116d9565b60405180910390f35b61046b610fef565b005b34801561047957600080fd5b50610482611387565b60405161048f9190611877565b60405180910390f35b3480156104a457600080fd5b506104ad61139a565b6040516104ba91906116d9565b60405180910390f35b3480156104cf57600080fd5b506104d86113a0565b6040516104e591906118b3565b60405180910390f35b3480156104fa57600080fd5b5061051560048036038101906105109190611909565b6113c6565b60405161052291906119f1565b60405180910390f35b6000600a54905090565b60065481565b610543611471565b6000600360009054906101000a900473ffffffffffffffffffffffffffffffffffffffff1673ffffffffffffffffffffffffffffffffffffffff1663ff6a6d656001600360009054906101000a900473ffffffffffffffffffffffffffffffffffffffff1673ffffffffffffffffffffffffffffffffffffffff1663de71bf076040518163ffffffff1660e01b8152600401602060405180830381865afa1580156105f2573d6000803e3d6000fd5b505050506040513d601f19601f820116820180604052508101906106169190611a21565b6106209190611a7d565b6040518263ffffffff1660e01b815260040161063c91906116d9565b60e060405180830381865afa158015610659573d6000803e3d6000fd5b505050506040513d601f19601f8201168201806040525081019061067d9190611c4e565b608001519050600081116106c6576040517f08c379a00000000000000000000000000000000000000000000000000000000081526004016106bd90611cd8565b60405180910390fd5b600360009054906101000a900473ffffffffffffffffffffffffffffffffffffffff1673ffffffffffffffffffffffffffffffffffffffff1663bbca9fd56001600360009054906101000a900473ffffffffffffffffffffffffffffffffffffffff1673ffffffffffffffffffffffffffffffffffffffff1663de71bf076040518163ffffffff1660e01b8152600401602060405180830381865afa158015610773573d6000803e3d6000fd5b505050506040513d601f19601f820116820180604052508101906107979190611a21565b6107a19190611a7d565b60006040518363ffffffff1660e01b81526004016107c0929190611d33565b600060405180830381600087803b1580156107da57600080fd5b505af11580156107ee573d6000803e3d6000fd5b5050505060003373ffffffffffffffffffffffffffffffffffffffff168260405161081890611d8d565b60006040518083038185875af1925050503d8060008114610855576040519150601f19603f3d011682016040523d82523d6000602084013e61085a565b606091505b505090508061089e576040517f08c379a000000000000000000000000000000000000000000000000000000000815260040161089590611dee565b60405180910390fd5b50506108a86114b7565b565b600160009054906101000a900473ffffffffffffffffffffffffffffffffffffffff1673ffffffffffffffffffffffffffffffffffffffff163373ffffffffffffffffffffffffffffffffffffffff161461093a576040517f08c379a000000000000000000000000000000000000000000000000000000000815260040161093190611e5a565b60405180910390fd5b60028081111561094d5761094c6116f4565b5b600b60019054906101000a900460ff16600281111561096f5761096e6116f4565b5b146109af576040517f08c379a00000000000000000000000000000000000000000000000000000000081526004016109a690611ec6565b60405180910390fd5b600160009054906101000a900473ffffffffffffffffffffffffffffffffffffffff1673ffffffffffffffffffffffffffffffffffffffff166108fc600a549081150290604051600060405180830381858888f19350505050158015610a19573d6000803e3d6000fd5b50565b60095481565b6000600b60019054906101000a900460ff16905090565b600160009054906101000a900473ffffffffffffffffffffffffffffffffffffffff1673ffffffffffffffffffffffffffffffffffffffff163373ffffffffffffffffffffffffffffffffffffffff1614610ac9576040517f08c379a0000000000000000000000000000000000000000000000000000000008152600401610ac090611e5a565b60405180910390fd5b60016002811115610add57610adc6116f4565b5b600b60019054906101000a900460ff166002811115610aff57610afe6116f4565b5b14610b3f576040517f08c379a0000000000000000000000000000000000000000000000000000000008152600401610b3690611f32565b60405180910390fd5b6000600b60016101000a81548160ff02191690836002811115610b6557610b646116f4565b5b02179055507f979e0f22222b399f6e77f2614325775244291877598c6174fd7caf44b4bdfcc560405160405180910390a1565b600a5481565b600360009054906101000a900473ffffffffffffffffffffffffffffffffffffffff1681565b600160009054906101000a900473ffffffffffffffffffffffffffffffffffffffff1673ffffffffffffffffffffffffffffffffffffffff163373ffffffffffffffffffffffffffffffffffffffff1614610c54576040517f08c379a0000000000000000000000000000000000000000000000000000000008152600401610c4b90611e5a565b60405180910390fd5b600280811115610c6757610c666116f4565b5b600b60019054906101000a900460ff166002811115610c8957610c886116f4565b5b14610cc9576040517f08c379a0000000000000000000000000000000000000000000000000000000008152600401610cc090611fc4565b60405180910390fd5b426007819055506000600b60016101000a81548160ff02191690836002811115610cf657610cf56116f4565b5b02179055506001600b60006101000a81548160ff0219169083151502179055507fa832766a05f1bd0298b0268308621777cfe1e4eea23afe7c06beea79bc6ddd2d600754600454600554600854604051610d539493929190611fe4565b60405180910390a1565b60085481565b60075481565b600b60019054906101000a900460ff1681565b600160009054906101000a900473ffffffffffffffffffffffffffffffffffffffff1681565b6000600854905090565b6000600754905090565b600160009054906101000a900473ffffffffffffffffffffffffffffffffffffffff1673ffffffffffffffffffffffffffffffffffffffff163373ffffffffffffffffffffffffffffffffffffffff1614610e46576040517f08c379a0000000000000000000000000000000000000000000000000000000008152600401610e3d90611e5a565b60405180910390fd5b60006002811115610e5a57610e596116f4565b5b600b60019054906101000a900460ff166002811115610e7c57610e7b6116f4565b5b14610ebc576040517f08c379a0000000000000000000000000000000000000000000000000000000008152600401610eb390612075565b60405180910390fd5b6001600b60016101000a81548160ff02191690836002811115610ee257610ee16116f4565b5b02179055507f749d6d79623c8cbd2345906702c70ae75d4254a6c409047c16d52fa5a37ef69860405160405180910390a1565b6000600b60009054906101000a900460ff16610f35576006549050610f6c565b600060075442610f459190611a7d565b90506006548110610f5a576000915050610f6c565b80600654610f689190611a7d565b9150505b90565b60055481565b6000600654600754610f879190612095565b4210610f97576005549050610fec565b6000603c60075442610fa99190611a7d565b610fb391906120f8565b9050600060095482610fc59190612129565b90508060045411610fd857600554610fe7565b80600454610fe69190611a7d565b5b925050505b90565b610ff7611471565b6000600281111561100b5761100a6116f4565b5b600b60019054906101000a900460ff16600281111561102d5761102c6116f4565b5b1461106d576040517f08c379a000000000000000000000000000000000000000000000000000000000815260040161106490612075565b60405180910390fd5b6000611077610f75565b9050803410156110bc576040517f08c379a00000000000000000000000000000000000000000000000000000000081526004016110b3906121b7565b60405180910390fd5b600081346110ca91906120f8565b9050600854811115611111576040517f08c379a000000000000000000000000000000000000000000000000000000000815260040161110890612223565b60405180910390fd5b80600860008282546111239190611a7d565b9250508190555034600a600082825461113c9190612095565b92505081905550600360009054906101000a900473ffffffffffffffffffffffffffffffffffffffff1673ffffffffffffffffffffffffffffffffffffffff166330840a3e33346040518363ffffffff1660e01b81526004016111a0929190612243565b600060405180830381600087803b1580156111ba57600080fd5b505af11580156111ce573d6000803e3d6000fd5b50505050600360009054906101000a900473ffffffffffffffffffffffffffffffffffffffff1673ffffffffffffffffffffffffffffffffffffffff1663743f62636001600360009054906101000a900473ffffffffffffffffffffffffffffffffffffffff1673ffffffffffffffffffffffffffffffffffffffff1663de71bf076040518163ffffffff1660e01b8152600401602060405180830381865afa15801561127f573d6000803e3d6000fd5b505050506040513d601f19601f820116820180604052508101906112a39190611a21565b6112ad9190611a7d565b836040518363ffffffff1660e01b81526004016112cb92919061226c565b600060405180830381600087803b1580156112e557600080fd5b505af11580156112f9573d6000803e3d6000fd5b505050503373ffffffffffffffffffffffffffffffffffffffff167fdf8644c0a4c21ed214ce69f395675b3a5fcd1039083daea5058898de40ea3149348360405161134592919061226c565b60405180910390a26000600854148061136d57506006546007546113699190612095565b4210155b1561137b5761137a6114c1565b5b50506113856114b7565b565b600b60009054906101000a900460ff1681565b60045481565b600260009054906101000a900473ffffffffffffffffffffffffffffffffffffffff1681565b6113ce611669565b600360009054906101000a900473ffffffffffffffffffffffffffffffffffffffff1673ffffffffffffffffffffffffffffffffffffffff1663ff6a6d65836040518263ffffffff1660e01b815260040161142991906116d9565b60e060405180830381865afa158015611446573d6000803e3d6000fd5b505050506040513d601f19601f8201168201806040525081019061146a9190611c4e565b9050919050565b6002600054036114ad576040517f3ee5aeb500000000000000000000000000000000000000000000000000000000815260040160405180910390fd5b6002600081905550565b6001600081905550565b6002600b60016101000a81548160ff021916908360028111156114e7576114e66116f4565b5b021790555060006008549050600160009054906101000a900473ffffffffffffffffffffffffffffffffffffffff1673ffffffffffffffffffffffffffffffffffffffff166108fc600a549081150290604051600060405180830381858888f1935050505015801561155d573d6000803e3d6000fd5b50600081111561162b57600260009054906101000a900473ffffffffffffffffffffffffffffffffffffffff1673ffffffffffffffffffffffffffffffffffffffff1663a9059cbb600160009054906101000a900473ffffffffffffffffffffffffffffffffffffffff16836040518363ffffffff1660e01b81526004016115e6929190612243565b6020604051808303816000875af1158015611605573d6000803e3d6000fd5b505050506040513d601f19601f820116820180604052508101906116299190612295565b505b7fe536ac546f86787f3ea4069f79235c6b5a681e87d051300a3ed19a6ebb0db71c600a548260405161165e92919061226c565b60405180910390a150565b6040518060e0016040528060008152602001600073ffffffffffffffffffffffffffffffffffffffff1681526020016000815260200160008152602001600081526020016000151581526020016000151581525090565b6000819050919050565b6116d3816116c0565b82525050565b60006020820190506116ee60008301846116ca565b92915050565b7f4e487b7100000000000000000000000000000000000000000000000000000000600052602160045260246000fd5b60038110611734576117336116f4565b5b50565b600081905061174582611723565b919050565b600061175582611737565b9050919050565b6117658161174a565b82525050565b6000602082019050611780600083018461175c565b92915050565b600073ffffffffffffffffffffffffffffffffffffffff82169050919050565b6000819050919050565b60006117cb6117c66117c184611786565b6117a6565b611786565b9050919050565b60006117dd826117b0565b9050919050565b60006117ef826117d2565b9050919050565b6117ff816117e4565b82525050565b600060208201905061181a60008301846117f6565b92915050565b600061182b82611786565b9050919050565b61183b81611820565b82525050565b60006020820190506118566000830184611832565b92915050565b60008115159050919050565b6118718161185c565b82525050565b600060208201905061188c6000830184611868565b92915050565b600061189d826117d2565b9050919050565b6118ad81611892565b82525050565b60006020820190506118c860008301846118a4565b92915050565b6000604051905090565b600080fd5b6118e6816116c0565b81146118f157600080fd5b50565b600081359050611903816118dd565b92915050565b60006020828403121561191f5761191e6118d8565b5b600061192d848285016118f4565b91505092915050565b61193f816116c0565b82525050565b61194e81611820565b82525050565b61195d8161185c565b82525050565b60e0820160008201516119796000850182611936565b50602082015161198c6020850182611945565b50604082015161199f6040850182611936565b5060608201516119b26060850182611936565b5060808201516119c56080850182611936565b5060a08201516119d860a0850182611954565b5060c08201516119eb60c0850182611954565b50505050565b600060e082019050611a066000830184611963565b92915050565b600081519050611a1b816118dd565b92915050565b600060208284031215611a3757611a366118d8565b5b6000611a4584828501611a0c565b91505092915050565b7f4e487b7100000000000000000000000000000000000000000000000000000000600052601160045260246000fd5b6000611a88826116c0565b9150611a93836116c0565b9250828203905081811115611aab57611aaa611a4e565b5b92915050565b600080fd5b6000601f19601f8301169050919050565b7f4e487b7100000000000000000000000000000000000000000000000000000000600052604160045260246000fd5b611aff82611ab6565b810181811067ffffffffffffffff82111715611b1e57611b1d611ac7565b5b80604052505050565b6000611b316118ce565b9050611b3d8282611af6565b919050565b611b4b81611820565b8114611b5657600080fd5b50565b600081519050611b6881611b42565b92915050565b611b778161185c565b8114611b8257600080fd5b50565b600081519050611b9481611b6e565b92915050565b600060e08284031215611bb057611baf611ab1565b5b611bba60e0611b27565b90506000611bca84828501611a0c565b6000830152506020611bde84828501611b59565b6020830152506040611bf284828501611a0c565b6040830152506060611c0684828501611a0c565b6060830152506080611c1a84828501611a0c565b60808301525060a0611c2e84828501611b85565b60a08301525060c0611c4284828501611b85565b60c08301525092915050565b600060e08284031215611c6457611c636118d8565b5b6000611c7284828501611b9a565b91505092915050565b600082825260208201905092915050565b7f4e6f20726566756e6420617661696c61626c6500000000000000000000000000600082015250565b6000611cc2601383611c7b565b9150611ccd82611c8c565b602082019050919050565b60006020820190508181036000830152611cf181611cb5565b9050919050565b6000819050919050565b6000611d1d611d18611d1384611cf8565b6117a6565b6116c0565b9050919050565b611d2d81611d02565b82525050565b6000604082019050611d4860008301856116ca565b611d556020830184611d24565b9392505050565b600081905092915050565b50565b6000611d77600083611d5c565b9150611d8282611d67565b600082019050919050565b6000611d9882611d6a565b9150819050919050565b7f526566756e64207472616e73666572206661696c656400000000000000000000600082015250565b6000611dd8601683611c7b565b9150611de382611da2565b602082019050919050565b60006020820190508181036000830152611e0781611dcb565b9050919050565b7f4e6f7420746865206f776e657200000000000000000000000000000000000000600082015250565b6000611e44600d83611c7b565b9150611e4f82611e0e565b602082019050919050565b60006020820190508181036000830152611e7381611e37565b9050919050565b7f41756374696f6e206973206e6f7420636c6f7365640000000000000000000000600082015250565b6000611eb0601583611c7b565b9150611ebb82611e7a565b602082019050919050565b60006020820190508181036000830152611edf81611ea3565b9050919050565b7f41756374696f6e206973206e6f74207061757365640000000000000000000000600082015250565b6000611f1c601583611c7b565b9150611f2782611ee6565b602082019050919050565b60006020820190508181036000830152611f4b81611f0f565b9050919050565b7f41756374696f6e20616c72656164792073746172746564206f7220706175736560008201527f6400000000000000000000000000000000000000000000000000000000000000602082015250565b6000611fae602183611c7b565b9150611fb982611f52565b604082019050919050565b60006020820190508181036000830152611fdd81611fa1565b9050919050565b6000608082019050611ff960008301876116ca565b61200660208301866116ca565b61201360408301856116ca565b61202060608301846116ca565b95945050505050565b7f41756374696f6e206973206e6f74206f70656e00000000000000000000000000600082015250565b600061205f601383611c7b565b915061206a82612029565b602082019050919050565b6000602082019050818103600083015261208e81612052565b9050919050565b60006120a0826116c0565b91506120ab836116c0565b92508282019050808211156120c3576120c2611a4e565b5b92915050565b7f4e487b7100000000000000000000000000000000000000000000000000000000600052601260045260246000fd5b6000612103826116c0565b915061210e836116c0565b92508261211e5761211d6120c9565b5b828204905092915050565b6000612134826116c0565b915061213f836116c0565b925082820261214d816116c0565b9150828204841483151761216457612163611a4e565b5b5092915050565b7f4269642062656c6f772063757272656e74207072696365000000000000000000600082015250565b60006121a1601783611c7b565b91506121ac8261216b565b602082019050919050565b600060208201905081810360008301526121d081612194565b9050919050565b7f4e6f7420656e6f75676820746f6b656e73206c65667400000000000000000000600082015250565b600061220d601683611c7b565b9150612218826121d7565b602082019050919050565b6000602082019050818103600083015261223c81612200565b9050919050565b60006040820190506122586000830185611832565b61226560208301846116ca565b9392505050565b600060408201905061228160008301856116ca565b61228e60208301846116ca565b9392505050565b6000602082840312156122ab576122aa6118d8565b5b60006122b984828501611b85565b9150509291505056fea2646970667358221220d97dd4170fac2800b8b4e0e64272233d18883dc8b889f3ae4524d9e4de386d7564736f6c634300081b0033",
  "linkReferences": {},
  "deployedLinkReferences": {}
}