{
  "_format": "hh-sol-artifact-1",
  "contractName": "DutchAuction",
  "sourceName": "contracts/Auction.sol",
  "abi": [
    {
      "inputs": [
        {
          "internalType": "address",
          "name": "_token",
          "type": "address"
        },
        {
          "internalType": "address",
          "name": "_bidderContract",
          "type": "address"
        },
        {
          "internalType": "uint256",
          "name": "_startPrice",
          "type": "uint256"
        },
        {
          "internalType": "uint256",
          "name": "_reservePrice",
          "type": "uint256"
        },
        {
          "internalType": "uint256",
          "name": "_auctionDuration",
          "type": "uint256"
        },
        {
          "internalType": "uint256",
          "name": "_totalTokens",
          "type": "uint256"
        },
        {
          "internalType": "uint256",
          "name": "_priceDecrement",
          "type": "uint256"
        }
      ],
      "stateMutability": "nonpayable",
      "type": "constructor"
    },
    {
      "inputs": [],
      "name": "ReentrancyGuardReentrantCall",
      "type": "error"
    },
    {
      "anonymous": false,
      "inputs": [
        {
          "indexed": false,
          "internalType": "uint256",
          "name": "totalFundsRaised",
          "type": "uint256"
        },
        {
          "indexed": false,
          "internalType": "uint256",
          "name": "unsoldTokens",
          "type": "uint256"
        }
      ],
      "name": "AuctionEnded",
      "type": "event"
    },
    {
      "anonymous": false,
      "inputs": [],
      "name": "AuctionPaused",
      "type": "event"
    },
    {
      "anonymous": false,
      "inputs": [],
      "name": "AuctionResumed",
      "type": "event"
    },
    {
      "anonymous": false,
      "inputs": [
        {
          "indexed": false,
          "internalType": "uint256",
          "name": "startTime",
          "type": "uint256"
        },
        {
          "indexed": false,
          "internalType": "uint256",
          "name": "startPrice",
          "type": "uint256"
        },
        {
          "indexed": false,
          "internalType": "uint256",
          "name": "reservePrice",
          "type": "uint256"
        },
        {
          "indexed": false,
          "internalType": "uint256",
          "name": "totalTokens",
          "type": "uint256"
        }
      ],
      "name": "AuctionStarted",
      "type": "event"
    },
    {
      "anonymous": false,
      "inputs": [
        {
          "indexed": true,
          "internalType": "address",
          "name": "bidder",
          "type": "address"
        },
        {
          "indexed": false,
          "internalType": "uint256",
          "name": "bidAmount",
          "type": "uint256"
        },
        {
          "indexed": false,
          "internalType": "uint256",
          "name": "tokensAllocated",
          "type": "uint256"
        }
      ],
      "name": "BidPlaced",
      "type": "event"
    },
    {
      "anonymous": false,
      "inputs": [
        {
          "indexed": false,
          "internalType": "string",
          "name": "message",
          "type": "string"
        },
        {
          "indexed": false,
          "internalType": "uint256",
          "name": "value",
          "type": "uint256"
        }
      ],
      "name": "Debug",
      "type": "event"
    },
    {
      "anonymous": false,
      "inputs": [
        {
          "indexed": true,
          "internalType": "uint256",
          "name": "bidderID",
          "type": "uint256"
        },
        {
          "indexed": true,
          "internalType": "address",
          "name": "bidder",
          "type": "address"
        },
        {
          "indexed": false,
          "internalType": "uint256",
          "name": "amount",
          "type": "uint256"
        }
      ],
      "name": "TokensClaimed",
      "type": "event"
    },
    {
      "inputs": [],
      "name": "auctionDuration",
      "outputs": [
        {
          "internalType": "uint256",
          "name": "",
          "type": "uint256"
        }
      ],
      "stateMutability": "view",
      "type": "function"
    },
    {
      "inputs": [],
      "name": "auctionStarted",
      "outputs": [
        {
          "internalType": "bool",
          "name": "",
          "type": "bool"
        }
      ],
      "stateMutability": "view",
      "type": "function"
    },
    {
      "inputs": [],
      "name": "auctionState",
      "outputs": [
        {
          "internalType": "enum DutchAuction.AuctionState",
          "name": "",
          "type": "uint8"
        }
      ],
      "stateMutability": "view",
      "type": "function"
    },
    {
      "inputs": [],
      "name": "bidderContract",
      "outputs": [
        {
          "internalType": "contract Bidder",
          "name": "",
          "type": "address"
        }
      ],
      "stateMutability": "view",
      "type": "function"
    },
    {
      "inputs": [],
      "name": "checkAndEndAuction",
      "outputs": [],
      "stateMutability": "nonpayable",
      "type": "function"
    },
    {
      "inputs": [],
      "name": "getAuctionStatus",
      "outputs": [
        {
          "internalType": "enum DutchAuction.AuctionState",
          "name": "",
          "type": "uint8"
        }
      ],
      "stateMutability": "view",
      "type": "function"
    },
    {
      "inputs": [
        {
          "internalType": "uint256",
          "name": "bidderID",
          "type": "uint256"
        }
      ],
      "name": "getBidderInfo",
      "outputs": [
        {
          "components": [
            {
              "internalType": "uint256",
              "name": "bidderID",
              "type": "uint256"
            },
            {
              "internalType": "address",
              "name": "walletAddress",
              "type": "address"
            },
            {
              "internalType": "uint256",
              "name": "bidValue",
              "type": "uint256"
            },
            {
              "internalType": "uint256",
              "name": "tokensPurchased",
              "type": "uint256"
            },
            {
              "internalType": "uint256",
              "name": "refundEth",
              "type": "uint256"
            },
            {
              "internalType": "bool",
              "name": "tokenSent",
              "type": "bool"
            },
            {
              "internalType": "bool",
              "name": "ethRefunded",
              "type": "bool"
            }
          ],
          "internalType": "struct Bidder.BidderInfo",
          "name": "",
          "type": "tuple"
        }
      ],
      "stateMutability": "view",
      "type": "function"
    },
    {
      "inputs": [],
      "name": "getCurrentPrice",
      "outputs": [
        {
          "internalType": "uint256",
          "name": "",
          "type": "uint256"
        }
      ],
      "stateMutability": "view",
      "type": "function"
    },
    {
      "inputs": [],
      "name": "getRemainingTokens",
      "outputs": [
        {
          "internalType": "uint256",
          "name": "",
          "type": "uint256"
        }
      ],
      "stateMutability": "view",
      "type": "function"
    },
    {
      "inputs": [],
      "name": "getTimeRemaining",
      "outputs": [
        {
          "internalType": "uint256",
          "name": "",
          "type": "uint256"
        }
      ],
      "stateMutability": "view",
      "type": "function"
    },
    {
      "inputs": [],
      "name": "getTotalFundsRaised",
      "outputs": [
        {
          "internalType": "uint256",
          "name": "",
          "type": "uint256"
        }
      ],
      "stateMutability": "view",
      "type": "function"
    },
    {
      "inputs": [
        {
          "internalType": "uint256",
          "name": "secondsToAdd",
          "type": "uint256"
        }
      ],
      "name": "incrementTime",
      "outputs": [],
      "stateMutability": "nonpayable",
      "type": "function"
    },
    {
      "inputs": [],
      "name": "owner",
      "outputs": [
        {
          "internalType": "address",
          "name": "",
          "type": "address"
        }
      ],
      "stateMutability": "view",
      "type": "function"
    },
    {
      "inputs": [],
      "name": "pauseAuction",
      "outputs": [],
      "stateMutability": "nonpayable",
      "type": "function"
    },
    {
      "inputs": [],
      "name": "placeBid",
      "outputs": [],
      "stateMutability": "payable",
      "type": "function"
    },
    {
      "inputs": [],
      "name": "priceDecrement",
      "outputs": [
        {
          "internalType": "uint256",
          "name": "",
          "type": "uint256"
        }
      ],
      "stateMutability": "view",
      "type": "function"
    },
    {
      "inputs": [],
      "name": "reservePrice",
      "outputs": [
        {
          "internalType": "uint256",
          "name": "",
          "type": "uint256"
        }
      ],
      "stateMutability": "view",
      "type": "function"
    },
    {
      "inputs": [],
      "name": "resumeAuction",
      "outputs": [],
      "stateMutability": "nonpayable",
      "type": "function"
    },
    {
      "inputs": [],
      "name": "sendTokens",
      "outputs": [],
      "stateMutability": "nonpayable",
      "type": "function"
    },
    {
      "inputs": [],
      "name": "startAuction",
      "outputs": [],
      "stateMutability": "nonpayable",
      "type": "function"
    },
    {
      "inputs": [],
      "name": "startPrice",
      "outputs": [
        {
          "internalType": "uint256",
          "name": "",
          "type": "uint256"
        }
      ],
      "stateMutability": "view",
      "type": "function"
    },
    {
      "inputs": [],
      "name": "startTime",
      "outputs": [
        {
          "internalType": "uint256",
          "name": "",
          "type": "uint256"
        }
      ],
      "stateMutability": "view",
      "type": "function"
    },
    {
      "inputs": [],
      "name": "timeElapsed",
      "outputs": [
        {
          "internalType": "uint256",
          "name": "",
          "type": "uint256"
        }
      ],
      "stateMutability": "view",
      "type": "function"
    },
    {
      "inputs": [],
      "name": "token",
      "outputs": [
        {
          "internalType": "contract IERC20",
          "name": "",
          "type": "address"
        }
      ],
      "stateMutability": "view",
      "type": "function"
    },
    {
      "inputs": [],
      "name": "totalFundsRaised",
      "outputs": [
        {
          "internalType": "uint256",
          "name": "",
          "type": "uint256"
        }
      ],
      "stateMutability": "view",
      "type": "function"
    },
    {
      "inputs": [],
      "name": "totalTokensAvailable",
      "outputs": [
        {
          "internalType": "uint256",
          "name": "",
          "type": "uint256"
        }
      ],
      "stateMutability": "view",
      "type": "function"
    },
    {
      "inputs": [],
      "name": "withdrawFunds",
      "outputs": [],
      "stateMutability": "nonpayable",
      "type": "function"
    },
    {
      "inputs": [
        {
          "internalType": "uint256",
          "name": "bidderID",
          "type": "uint256"
        }
      ],
      "name": "withdrawRefund",
      "outputs": [],
      "stateMutability": "nonpayable",
      "type": "function"
    }
  ],
  "bytecode": "0x608060405234801561001057600080fd5b50604051613735380380613735833981810160405281019061003291906101f0565b600160008190555033600160006101000a81548173ffffffffffffffffffffffffffffffffffffffff021916908373ffffffffffffffffffffffffffffffffffffffff16021790555086600260006101000a81548173ffffffffffffffffffffffffffffffffffffffff021916908373ffffffffffffffffffffffffffffffffffffffff16021790555085600360006101000a81548173ffffffffffffffffffffffffffffffffffffffff021916908373ffffffffffffffffffffffffffffffffffffffff16021790555084600481905550836005819055508260068190555081600881905550806009819055506002600c60016101000a81548160ff0219169083600281111561014657610145610292565b5b0217905550505050505050506102c1565b600080fd5b600073ffffffffffffffffffffffffffffffffffffffff82169050919050565b60006101878261015c565b9050919050565b6101978161017c565b81146101a257600080fd5b50565b6000815190506101b48161018e565b92915050565b6000819050919050565b6101cd816101ba565b81146101d857600080fd5b50565b6000815190506101ea816101c4565b92915050565b600080600080600080600060e0888a03121561020f5761020e610157565b5b600061021d8a828b016101a5565b975050602061022e8a828b016101a5565b965050604061023f8a828b016101db565b95505060606102508a828b016101db565b94505060806102618a828b016101db565b93505060a06102728a828b016101db565b92505060c06102838a828b016101db565b91505092959891949750929550565b7f4e487b7100000000000000000000000000000000000000000000000000000000600052602160045260246000fd5b613465806102d06000396000f3fe6080604052600436106101b75760003560e01c80638da5cb5b116100ec578063e47112bd1161008a578063ee2679bc11610064578063ee2679bc14610527578063f1a9af8914610552578063fc0c546a1461057d578063ff6a6d65146105a8576101b7565b8063e47112bd146104db578063eb91d37e146104f2578063ecfc7ecc1461051d576101b7565b8063b9ae7364116100c6578063b9ae736414610443578063dac6270d1461045a578063db2e1eed14610485578063dc2cf3f5146104b0576101b7565b80638da5cb5b146103c45780639d153495146103ef578063af35ae2714610418576101b7565b806351b5dbd9116101595780636b64c769116101335780636b64c7691461032c5780636dd2cbe51461034357806378e979251461036e5780637fb4509914610399576101b7565b806351b5dbd9146102c1578063621de3c4146102d8578063699ca55f14610303576101b7565b806326cddbfb1161019557806326cddbfb146102295780632e93be301461025457806332353fbd1461027f578063427c0c7f14610296576101b7565b80630c3e2d2d146101bc5780630cbf54c8146101e757806324600fc314610212575b600080fd5b3480156101c857600080fd5b506101d16105e5565b6040516101de9190611f40565b60405180910390f35b3480156101f357600080fd5b506101fc6105ef565b6040516102099190611f40565b60405180910390f35b34801561021e57600080fd5b506102276105f5565b005b34801561023557600080fd5b5061023e610767565b60405161024b9190611f40565b60405180910390f35b34801561026057600080fd5b5061026961076d565b6040516102769190611fd2565b60405180910390f35b34801561028b57600080fd5b50610294610784565b005b3480156102a257600080fd5b506102ab6108e3565b6040516102b89190611f40565b60405180910390f35b3480156102cd57600080fd5b506102d66108e9565b005b3480156102e457600080fd5b506102ed610a18565b6040516102fa919061206c565b60405180910390f35b34801561030f57600080fd5b5061032a600480360381019061032591906120c2565b610a3e565b005b34801561033857600080fd5b50610341610a5a565b005b34801561034f57600080fd5b50610358610c4b565b6040516103659190611f40565b60405180910390f35b34801561037a57600080fd5b50610383610c51565b6040516103909190611f40565b60405180910390f35b3480156103a557600080fd5b506103ae610c57565b6040516103bb9190611fd2565b60405180910390f35b3480156103d057600080fd5b506103d9610c6a565b6040516103e69190612110565b60405180910390f35b3480156103fb57600080fd5b50610416600480360381019061041191906120c2565b610c90565b005b34801561042457600080fd5b5061042d610ece565b60405161043a9190611f40565b60405180910390f35b34801561044f57600080fd5b50610458610ed8565b005b34801561046657600080fd5b5061046f611037565b60405161047c9190611f40565b60405180910390f35b34801561049157600080fd5b5061049a611091565b6040516104a79190611f40565b60405180910390f35b3480156104bc57600080fd5b506104c5611097565b6040516104d29190611f40565b60405180910390f35b3480156104e757600080fd5b506104f061109d565b005b3480156104fe57600080fd5b50610507611664565b6040516105149190611f40565b60405180910390f35b6105256116de565b005b34801561053357600080fd5b5061053c611a76565b6040516105499190612146565b60405180910390f35b34801561055e57600080fd5b50610567611a89565b6040516105749190611f40565b60405180910390f35b34801561058957600080fd5b50610592611a8f565b60405161059f9190612182565b60405180910390f35b3480156105b457600080fd5b506105cf60048036038101906105ca91906120c2565b611ab5565b6040516105dc9190612258565b60405180910390f35b6000600a54905090565b60065481565b600160009054906101000a900473ffffffffffffffffffffffffffffffffffffffff1673ffffffffffffffffffffffffffffffffffffffff163373ffffffffffffffffffffffffffffffffffffffff1614610685576040517f08c379a000000000000000000000000000000000000000000000000000000000815260040161067c906122d0565b60405180910390fd5b60028081111561069857610697611f5b565b5b600c60019054906101000a900460ff1660028111156106ba576106b9611f5b565b5b146106fa576040517f08c379a00000000000000000000000000000000000000000000000000000000081526004016106f19061233c565b60405180910390fd5b600160009054906101000a900473ffffffffffffffffffffffffffffffffffffffff1673ffffffffffffffffffffffffffffffffffffffff166108fc600a549081150290604051600060405180830381858888f19350505050158015610764573d6000803e3d6000fd5b50565b60095481565b6000600c60019054906101000a900460ff16905090565b600160009054906101000a900473ffffffffffffffffffffffffffffffffffffffff1673ffffffffffffffffffffffffffffffffffffffff163373ffffffffffffffffffffffffffffffffffffffff1614610814576040517f08c379a000000000000000000000000000000000000000000000000000000000815260040161080b906122d0565b60405180910390fd5b6001600281111561082857610827611f5b565b5b600c60019054906101000a900460ff16600281111561084a57610849611f5b565b5b1461088a576040517f08c379a0000000000000000000000000000000000000000000000000000000008152600401610881906123a8565b60405180910390fd5b6000600c60016101000a81548160ff021916908360028111156108b0576108af611f5b565b5b02179055507f979e0f22222b399f6e77f2614325775244291877598c6174fd7caf44b4bdfcc560405160405180910390a1565b600a5481565b600c60009054906101000a900460ff16610938576040517f08c379a000000000000000000000000000000000000000000000000000000000815260040161092f90612414565b60405180910390fd5b6000600754426109489190612463565b90507f3c5ad147104e56be34a9176a6692f7df8d2f4b29a5af06bc6b98970d329d65778160405161097991906124e3565b60405180910390a160065481106109d0577f3c5ad147104e56be34a9176a6692f7df8d2f4b29a5af06bc6b98970d329d65776006546040516109bb9190612583565b60405180910390a16109cb611b60565b610a15565b7f3c5ad147104e56be34a9176a6692f7df8d2f4b29a5af06bc6b98970d329d6577816006546109ff9190612463565b604051610a0c91906125fd565b60405180910390a15b50565b600360009054906101000a900473ffffffffffffffffffffffffffffffffffffffff1681565b80600b6000828254610a50919061262b565b9250508190555050565b600160009054906101000a900473ffffffffffffffffffffffffffffffffffffffff1673ffffffffffffffffffffffffffffffffffffffff163373ffffffffffffffffffffffffffffffffffffffff1614610aea576040517f08c379a0000000000000000000000000000000000000000000000000000000008152600401610ae1906122d0565b60405180910390fd5b600280811115610afd57610afc611f5b565b5b600c60019054906101000a900460ff166002811115610b1f57610b1e611f5b565b5b14610b5f576040517f08c379a0000000000000000000000000000000000000000000000000000000008152600401610b56906126d1565b60405180910390fd5b600c60009054906101000a900460ff1615610baf576040517f08c379a0000000000000000000000000000000000000000000000000000000008152600401610ba69061273d565b60405180910390fd5b426007819055506000600c60016101000a81548160ff02191690836002811115610bdc57610bdb611f5b565b5b02179055506001600c60006101000a81548160ff0219169083151502179055506000600b819055507fa832766a05f1bd0298b0268308621777cfe1e4eea23afe7c06beea79bc6ddd2d600754600454600554600854604051610c41949392919061275d565b60405180910390a1565b60085481565b60075481565b600c60019054906101000a900460ff1681565b600160009054906101000a900473ffffffffffffffffffffffffffffffffffffffff1681565b610c98611e80565b6000600360009054906101000a900473ffffffffffffffffffffffffffffffffffffffff1673ffffffffffffffffffffffffffffffffffffffff1663ff6a6d65836040518263ffffffff1660e01b8152600401610cf59190611f40565b60e060405180830381865afa158015610d12573d6000803e3d6000fd5b505050506040513d601f19601f82011682018060405250810190610d369190612954565b905060008160800151905060008111610d84576040517f08c379a0000000000000000000000000000000000000000000000000000000008152600401610d7b906129cd565b60405180910390fd5b600360009054906101000a900473ffffffffffffffffffffffffffffffffffffffff1673ffffffffffffffffffffffffffffffffffffffff1663bbca9fd58460006040518363ffffffff1660e01b8152600401610de2929190612a28565b600060405180830381600087803b158015610dfc57600080fd5b505af1158015610e10573d6000803e3d6000fd5b5050505060003373ffffffffffffffffffffffffffffffffffffffff1682604051610e3a90612a82565b60006040518083038185875af1925050503d8060008114610e77576040519150601f19603f3d011682016040523d82523d6000602084013e610e7c565b606091505b5050905080610ec0576040517f08c379a0000000000000000000000000000000000000000000000000000000008152600401610eb790612ae3565b60405180910390fd5b505050610ecb611ec6565b50565b6000600854905090565b600160009054906101000a900473ffffffffffffffffffffffffffffffffffffffff1673ffffffffffffffffffffffffffffffffffffffff163373ffffffffffffffffffffffffffffffffffffffff1614610f68576040517f08c379a0000000000000000000000000000000000000000000000000000000008152600401610f5f906122d0565b60405180910390fd5b60006002811115610f7c57610f7b611f5b565b5b600c60019054906101000a900460ff166002811115610f9e57610f9d611f5b565b5b14610fde576040517f08c379a0000000000000000000000000000000000000000000000000000000008152600401610fd590612b4f565b60405180910390fd5b6001600c60016101000a81548160ff0219169083600281111561100457611003611f5b565b5b02179055507f749d6d79623c8cbd2345906702c70ae75d4254a6c409047c16d52fa5a37ef69860405160405180910390a1565b6000600c60009054906101000a900460ff1661105757600654905061108e565b6000600754426110679190612463565b9050600654811061107c57600091505061108e565b8060065461108a9190612463565b9150505b90565b60055481565b600b5481565b600160009054906101000a900473ffffffffffffffffffffffffffffffffffffffff1673ffffffffffffffffffffffffffffffffffffffff163373ffffffffffffffffffffffffffffffffffffffff161461112d576040517f08c379a0000000000000000000000000000000000000000000000000000000008152600401611124906122d0565b60405180910390fd5b6002808111156111405761113f611f5b565b5b600c60019054906101000a900460ff16600281111561116257611161611f5b565b5b146111a2576040517f08c379a000000000000000000000000000000000000000000000000000000000815260040161119990612bbb565b60405180910390fd5b6000600360009054906101000a900473ffffffffffffffffffffffffffffffffffffffff1673ffffffffffffffffffffffffffffffffffffffff1663de71bf076040518163ffffffff1660e01b8152600401602060405180830381865afa158015611211573d6000803e3d6000fd5b505050506040513d601f19601f820116820180604052508101906112359190612bdb565b90507f3c5ad147104e56be34a9176a6692f7df8d2f4b29a5af06bc6b98970d329d6577816040516112669190612c54565b60405180910390a160005b81811015611660576000600360009054906101000a900473ffffffffffffffffffffffffffffffffffffffff1673ffffffffffffffffffffffffffffffffffffffff1663ff6a6d65836040518263ffffffff1660e01b81526004016112d69190611f40565b60e060405180830381865afa1580156112f3573d6000803e3d6000fd5b505050506040513d601f19601f820116820180604052508101906113179190612954565b90507f3c5ad147104e56be34a9176a6692f7df8d2f4b29a5af06bc6b98970d329d6577826040516113489190612cce565b60405180910390a16000816060015111801561136657508060a00151155b156115cb576000816060015190507f3c5ad147104e56be34a9176a6692f7df8d2f4b29a5af06bc6b98970d329d6577816040516113a39190612d48565b60405180910390a17f3c5ad147104e56be34a9176a6692f7df8d2f4b29a5af06bc6b98970d329d6577826020015173ffffffffffffffffffffffffffffffffffffffff166040516113f49190612dc2565b60405180910390a1600360009054906101000a900473ffffffffffffffffffffffffffffffffffffffff1673ffffffffffffffffffffffffffffffffffffffff1663edd6b438846040518263ffffffff1660e01b81526004016114579190611f40565b600060405180830381600087803b15801561147157600080fd5b505af1158015611485573d6000803e3d6000fd5b505050506000600260009054906101000a900473ffffffffffffffffffffffffffffffffffffffff1673ffffffffffffffffffffffffffffffffffffffff1663a9059cbb8460200151846040518363ffffffff1660e01b81526004016114ec929190612df0565b6020604051808303816000875af115801561150b573d6000803e3d6000fd5b505050506040513d601f19601f8201168201806040525081019061152f9190612e19565b905080611571576040517f08c379a000000000000000000000000000000000000000000000000000000000815260040161156890612e92565b60405180910390fd5b826020015173ffffffffffffffffffffffffffffffffffffffff16847f880f2ef2613b092f1a0a819f294155c98667eb294b7e6bf7a3810278142c1a1c846040516115bc9190611f40565b60405180910390a35050611652565b600081606001510361160f577f3c5ad147104e56be34a9176a6692f7df8d2f4b29a5af06bc6b98970d329d6577826040516116069190612efe565b60405180910390a15b8060a0015115611651577f3c5ad147104e56be34a9176a6692f7df8d2f4b29a5af06bc6b98970d329d6577826040516116489190612f78565b60405180910390a15b5b508080600101915050611271565b5050565b6000600654600754611676919061262b565b42106116865760055490506116db565b6000603c600754426116989190612463565b6116a29190612fd5565b90506000600954826116b49190613006565b905080600454116116c7576005546116d6565b806004546116d59190612463565b5b925050505b90565b6116e6611e80565b600060028111156116fa576116f9611f5b565b5b600c60019054906101000a900460ff16600281111561171c5761171b611f5b565b5b1461175c576040517f08c379a000000000000000000000000000000000000000000000000000000000815260040161175390612b4f565b60405180910390fd5b6000611766611664565b9050803410156117ab576040517f08c379a00000000000000000000000000000000000000000000000000000000081526004016117a290613094565b60405180910390fd5b600081346117b99190612fd5565b9050600854811115611800576040517f08c379a00000000000000000000000000000000000000000000000000000000081526004016117f790613100565b60405180910390fd5b80600860008282546118129190612463565b9250508190555034600a600082825461182b919061262b565b92505081905550600360009054906101000a900473ffffffffffffffffffffffffffffffffffffffff1673ffffffffffffffffffffffffffffffffffffffff166330840a3e33346040518363ffffffff1660e01b815260040161188f929190612df0565b600060405180830381600087803b1580156118a957600080fd5b505af11580156118bd573d6000803e3d6000fd5b50505050600360009054906101000a900473ffffffffffffffffffffffffffffffffffffffff1673ffffffffffffffffffffffffffffffffffffffff1663743f62636001600360009054906101000a900473ffffffffffffffffffffffffffffffffffffffff1673ffffffffffffffffffffffffffffffffffffffff1663de71bf076040518163ffffffff1660e01b8152600401602060405180830381865afa15801561196e573d6000803e3d6000fd5b505050506040513d601f19601f820116820180604052508101906119929190612bdb565b61199c9190612463565b836040518363ffffffff1660e01b81526004016119ba929190613120565b600060405180830381600087803b1580156119d457600080fd5b505af11580156119e8573d6000803e3d6000fd5b505050503373ffffffffffffffffffffffffffffffffffffffff167fdf8644c0a4c21ed214ce69f395675b3a5fcd1039083daea5058898de40ea31493483604051611a34929190613120565b60405180910390a260006008541480611a5c5750600654600754611a58919061262b565b4210155b15611a6a57611a69611b60565b5b5050611a74611ec6565b565b600c60009054906101000a900460ff1681565b60045481565b600260009054906101000a900473ffffffffffffffffffffffffffffffffffffffff1681565b611abd611ed0565b600360009054906101000a900473ffffffffffffffffffffffffffffffffffffffff1673ffffffffffffffffffffffffffffffffffffffff1663ff6a6d65836040518263ffffffff1660e01b8152600401611b189190611f40565b60e060405180830381865afa158015611b35573d6000803e3d6000fd5b505050506040513d601f19601f82011682018060405250810190611b599190612954565b9050919050565b7f3c5ad147104e56be34a9176a6692f7df8d2f4b29a5af06bc6b98970d329d6577600854604051611b919190613195565b60405180910390a16002600c60016101000a81548160ff02191690836002811115611bbf57611bbe611f5b565b5b0217905550600060085490507f3c5ad147104e56be34a9176a6692f7df8d2f4b29a5af06bc6b98970d329d6577600c60019054906101000a900460ff166002811115611c0e57611c0d611f5b565b5b604051611c1b919061320f565b60405180910390a16000600160009054906101000a900473ffffffffffffffffffffffffffffffffffffffff1673ffffffffffffffffffffffffffffffffffffffff166108fc600a549081150290604051600060405180830381858888f19350505050905080611cc0576040517f08c379a0000000000000000000000000000000000000000000000000000000008152600401611cb790613289565b60405180910390fd5b7f3c5ad147104e56be34a9176a6692f7df8d2f4b29a5af06bc6b98970d329d6577600a54604051611cf191906132f5565b60405180910390a16000821115611e41577f3c5ad147104e56be34a9176a6692f7df8d2f4b29a5af06bc6b98970d329d657782604051611d319190613395565b60405180910390a16000600260009054906101000a900473ffffffffffffffffffffffffffffffffffffffff1673ffffffffffffffffffffffffffffffffffffffff1663a9059cbb600160009054906101000a900473ffffffffffffffffffffffffffffffffffffffff16856040518363ffffffff1660e01b8152600401611dba929190612df0565b6020604051808303816000875af1158015611dd9573d6000803e3d6000fd5b505050506040513d601f19601f82011682018060405250810190611dfd9190612e19565b905080611e3f576040517f08c379a0000000000000000000000000000000000000000000000000000000008152600401611e369061340f565b60405180910390fd5b505b7fe536ac546f86787f3ea4069f79235c6b5a681e87d051300a3ed19a6ebb0db71c600a5483604051611e74929190613120565b60405180910390a15050565b600260005403611ebc576040517f3ee5aeb500000000000000000000000000000000000000000000000000000000815260040160405180910390fd5b6002600081905550565b6001600081905550565b6040518060e0016040528060008152602001600073ffffffffffffffffffffffffffffffffffffffff1681526020016000815260200160008152602001600081526020016000151581526020016000151581525090565b6000819050919050565b611f3a81611f27565b82525050565b6000602082019050611f556000830184611f31565b92915050565b7f4e487b7100000000000000000000000000000000000000000000000000000000600052602160045260246000fd5b60038110611f9b57611f9a611f5b565b5b50565b6000819050611fac82611f8a565b919050565b6000611fbc82611f9e565b9050919050565b611fcc81611fb1565b82525050565b6000602082019050611fe76000830184611fc3565b92915050565b600073ffffffffffffffffffffffffffffffffffffffff82169050919050565b6000819050919050565b600061203261202d61202884611fed565b61200d565b611fed565b9050919050565b600061204482612017565b9050919050565b600061205682612039565b9050919050565b6120668161204b565b82525050565b6000602082019050612081600083018461205d565b92915050565b6000604051905090565b600080fd5b61209f81611f27565b81146120aa57600080fd5b50565b6000813590506120bc81612096565b92915050565b6000602082840312156120d8576120d7612091565b5b60006120e6848285016120ad565b91505092915050565b60006120fa82611fed565b9050919050565b61210a816120ef565b82525050565b60006020820190506121256000830184612101565b92915050565b60008115159050919050565b6121408161212b565b82525050565b600060208201905061215b6000830184612137565b92915050565b600061216c82612039565b9050919050565b61217c81612161565b82525050565b60006020820190506121976000830184612173565b92915050565b6121a681611f27565b82525050565b6121b5816120ef565b82525050565b6121c48161212b565b82525050565b60e0820160008201516121e0600085018261219d565b5060208201516121f360208501826121ac565b506040820151612206604085018261219d565b506060820151612219606085018261219d565b50608082015161222c608085018261219d565b5060a082015161223f60a08501826121bb565b5060c082015161225260c08501826121bb565b50505050565b600060e08201905061226d60008301846121ca565b92915050565b600082825260208201905092915050565b7f4e6f7420746865206f776e657200000000000000000000000000000000000000600082015250565b60006122ba600d83612273565b91506122c582612284565b602082019050919050565b600060208201905081810360008301526122e9816122ad565b9050919050565b7f41756374696f6e206973206e6f7420636c6f7365640000000000000000000000600082015250565b6000612326601583612273565b9150612331826122f0565b602082019050919050565b6000602082019050818103600083015261235581612319565b9050919050565b7f41756374696f6e206973206e6f74207061757365640000000000000000000000600082015250565b6000612392601583612273565b915061239d8261235c565b602082019050919050565b600060208201905081810360008301526123c181612385565b9050919050565b7f41756374696f6e20686173206e6f742073746172746564000000000000000000600082015250565b60006123fe601783612273565b9150612409826123c8565b602082019050919050565b6000602082019050818103600083015261242d816123f1565b9050919050565b7f4e487b7100000000000000000000000000000000000000000000000000000000600052601160045260246000fd5b600061246e82611f27565b915061247983611f27565b925082820390508181111561249157612490612434565b5b92915050565b7f456c61707365642074696d650000000000000000000000000000000000000000600082015250565b60006124cd600c83612273565b91506124d882612497565b602082019050919050565b600060408201905081810360008301526124fc816124c0565b905061250b6020830184611f31565b92915050565b7f41756374696f6e206475726174696f6e206d65742e20456e64696e672061756360008201527f74696f6e2e000000000000000000000000000000000000000000000000000000602082015250565b600061256d602583612273565b915061257882612511565b604082019050919050565b6000604082019050818103600083015261259c81612560565b90506125ab6020830184611f31565b92915050565b7f41756374696f6e207374696c6c206f6e676f696e670000000000000000000000600082015250565b60006125e7601583612273565b91506125f2826125b1565b602082019050919050565b60006040820190508181036000830152612616816125da565b90506126256020830184611f31565b92915050565b600061263682611f27565b915061264183611f27565b925082820190508082111561265957612658612434565b5b92915050565b7f41756374696f6e20616c72656164792073746172746564206f7220706175736560008201527f6400000000000000000000000000000000000000000000000000000000000000602082015250565b60006126bb602183612273565b91506126c68261265f565b604082019050919050565b600060208201905081810360008301526126ea816126ae565b9050919050565b7f41756374696f6e20616c72656164792073746172746564000000000000000000600082015250565b6000612727601783612273565b9150612732826126f1565b602082019050919050565b600060208201905081810360008301526127568161271a565b9050919050565b60006080820190506127726000830187611f31565b61277f6020830186611f31565b61278c6040830185611f31565b6127996060830184611f31565b95945050505050565b600080fd5b6000601f19601f8301169050919050565b7f4e487b7100000000000000000000000000000000000000000000000000000000600052604160045260246000fd5b6127f0826127a7565b810181811067ffffffffffffffff8211171561280f5761280e6127b8565b5b80604052505050565b6000612822612087565b905061282e82826127e7565b919050565b60008151905061284281612096565b92915050565b612851816120ef565b811461285c57600080fd5b50565b60008151905061286e81612848565b92915050565b61287d8161212b565b811461288857600080fd5b50565b60008151905061289a81612874565b92915050565b600060e082840312156128b6576128b56127a2565b5b6128c060e0612818565b905060006128d084828501612833565b60008301525060206128e48482850161285f565b60208301525060406128f884828501612833565b604083015250606061290c84828501612833565b606083015250608061292084828501612833565b60808301525060a06129348482850161288b565b60a08301525060c06129488482850161288b565b60c08301525092915050565b600060e0828403121561296a57612969612091565b5b6000612978848285016128a0565b91505092915050565b7f4e6f20726566756e6420617661696c61626c6500000000000000000000000000600082015250565b60006129b7601383612273565b91506129c282612981565b602082019050919050565b600060208201905081810360008301526129e6816129aa565b9050919050565b6000819050919050565b6000612a12612a0d612a08846129ed565b61200d565b611f27565b9050919050565b612a22816129f7565b82525050565b6000604082019050612a3d6000830185611f31565b612a4a6020830184612a19565b9392505050565b600081905092915050565b50565b6000612a6c600083612a51565b9150612a7782612a5c565b600082019050919050565b6000612a8d82612a5f565b9150819050919050565b7f526566756e64207472616e73666572206661696c656400000000000000000000600082015250565b6000612acd601683612273565b9150612ad882612a97565b602082019050919050565b60006020820190508181036000830152612afc81612ac0565b9050919050565b7f41756374696f6e206973206e6f74206f70656e00000000000000000000000000600082015250565b6000612b39601383612273565b9150612b4482612b03565b602082019050919050565b60006020820190508181036000830152612b6881612b2c565b9050919050565b7f41756374696f6e20686173206e6f7420656e6465640000000000000000000000600082015250565b6000612ba5601583612273565b9150612bb082612b6f565b602082019050919050565b60006020820190508181036000830152612bd481612b98565b9050919050565b600060208284031215612bf157612bf0612091565b5b6000612bff84828501612833565b91505092915050565b7f546f74616c204269646465727300000000000000000000000000000000000000600082015250565b6000612c3e600d83612273565b9150612c4982612c08565b602082019050919050565b60006040820190508181036000830152612c6d81612c31565b9050612c7c6020830184611f31565b92915050565b7f50726f63657373696e6720426964646572000000000000000000000000000000600082015250565b6000612cb8601183612273565b9150612cc382612c82565b602082019050919050565b60006040820190508181036000830152612ce781612cab565b9050612cf66020830184611f31565b92915050565b7f546f6b656e7320746f2062652073656e74000000000000000000000000000000600082015250565b6000612d32601183612273565b9150612d3d82612cfc565b602082019050919050565b60006040820190508181036000830152612d6181612d25565b9050612d706020830184611f31565b92915050565b7f4269646465722077616c6c657420616464726573730000000000000000000000600082015250565b6000612dac601583612273565b9150612db782612d76565b602082019050919050565b60006040820190508181036000830152612ddb81612d9f565b9050612dea6020830184611f31565b92915050565b6000604082019050612e056000830185612101565b612e126020830184611f31565b9392505050565b600060208284031215612e2f57612e2e612091565b5b6000612e3d8482850161288b565b91505092915050565b7f546f6b656e207472616e73666572206661696c65640000000000000000000000600082015250565b6000612e7c601583612273565b9150612e8782612e46565b602082019050919050565b60006020820190508181036000830152612eab81612e6f565b9050919050565b7f4e6f20746f6b656e7320746f2062652073656e7420666f722042696464657200600082015250565b6000612ee8601f83612273565b9150612ef382612eb2565b602082019050919050565b60006040820190508181036000830152612f1781612edb565b9050612f266020830184611f31565b92915050565b7f546f6b656e7320616c72656164792073656e7420666f72204269646465720000600082015250565b6000612f62601e83612273565b9150612f6d82612f2c565b602082019050919050565b60006040820190508181036000830152612f9181612f55565b9050612fa06020830184611f31565b92915050565b7f4e487b7100000000000000000000000000000000000000000000000000000000600052601260045260246000fd5b6000612fe082611f27565b9150612feb83611f27565b925082612ffb57612ffa612fa6565b5b828204905092915050565b600061301182611f27565b915061301c83611f27565b925082820261302a81611f27565b9150828204841483151761304157613040612434565b5b5092915050565b7f4269642062656c6f772063757272656e74207072696365000000000000000000600082015250565b600061307e601783612273565b915061308982613048565b602082019050919050565b600060208201905081810360008301526130ad81613071565b9050919050565b7f4e6f7420656e6f75676820746f6b656e73206c65667400000000000000000000600082015250565b60006130ea601683612273565b91506130f5826130b4565b602082019050919050565b60006020820190508181036000830152613119816130dd565b9050919050565b60006040820190506131356000830185611f31565b6131426020830184611f31565b9392505050565b7f5374617274696e6720656e6441756374696f6e00000000000000000000000000600082015250565b600061317f601383612273565b915061318a82613149565b602082019050919050565b600060408201905081810360008301526131ae81613172565b90506131bd6020830184611f31565b92915050565b7f41756374696f6e2073746174652073657420746f20434c4f5345440000000000600082015250565b60006131f9601b83612273565b9150613204826131c3565b602082019050919050565b60006040820190508181036000830152613228816131ec565b90506132376020830184611f31565b92915050565b7f4f776e65722066756e64207472616e73666572206661696c6564000000000000600082015250565b6000613273601a83612273565b915061327e8261323d565b602082019050919050565b600060208201905081810360008301526132a281613266565b9050919050565b7f4f776e65722066756e6473207472616e73666572726564000000000000000000600082015250565b60006132df601783612273565b91506132ea826132a9565b602082019050919050565b6000604082019050818103600083015261330e816132d2565b905061331d6020830184611f31565b92915050565b7f5472616e7366657272696e6720756e736f6c6420746f6b656e7320746f206f7760008201527f6e65720000000000000000000000000000000000000000000000000000000000602082015250565b600061337f602383612273565b915061338a82613323565b604082019050919050565b600060408201905081810360008301526133ae81613372565b90506133bd6020830184611f31565b92915050565b7f546f6b656e207472616e7366657220746f206f776e6572206661696c65640000600082015250565b60006133f9601e83612273565b9150613404826133c3565b602082019050919050565b60006020820190508181036000830152613428816133ec565b905091905056fea26469706673582212201605accb9e65576b9b6e4f34da771467e6f68702621569b30d42c35b820cb52e64736f6c634300081b0033",
  "linkReferences": {},
  "deployedLinkReferences": {}
}