{
  "_format": "hh-sol-artifact-1",
  "contractName": "DutchAuction",
  "sourceName": "contracts/Auction.sol",
  "abi": [
    {
      "inputs": [
        {
          "internalType": "address",
          "name": "_token",
          "type": "address"
        },
        {
          "internalType": "address",
          "name": "_bidderContract",
          "type": "address"
        },
        {
          "internalType": "uint256",
          "name": "_startPrice",
          "type": "uint256"
        },
        {
          "internalType": "uint256",
          "name": "_reservePrice",
          "type": "uint256"
        },
        {
          "internalType": "uint256",
          "name": "_auctionDuration",
          "type": "uint256"
        },
        {
          "internalType": "uint256",
          "name": "_totalTokens",
          "type": "uint256"
        },
        {
          "internalType": "uint256",
          "name": "_priceDecrement",
          "type": "uint256"
        }
      ],
      "stateMutability": "nonpayable",
      "type": "constructor"
    },
    {
      "inputs": [],
      "name": "ReentrancyGuardReentrantCall",
      "type": "error"
    },
    {
      "anonymous": false,
      "inputs": [
        {
          "indexed": false,
          "internalType": "uint256",
          "name": "totalFundsRaised",
          "type": "uint256"
        },
        {
          "indexed": false,
          "internalType": "uint256",
          "name": "unsoldTokens",
          "type": "uint256"
        }
      ],
      "name": "AuctionEnded",
      "type": "event"
    },
    {
      "anonymous": false,
      "inputs": [],
      "name": "AuctionPaused",
      "type": "event"
    },
    {
      "anonymous": false,
      "inputs": [],
      "name": "AuctionResumed",
      "type": "event"
    },
    {
      "anonymous": false,
      "inputs": [
        {
          "indexed": false,
          "internalType": "uint256",
          "name": "startTime",
          "type": "uint256"
        },
        {
          "indexed": false,
          "internalType": "uint256",
          "name": "startPrice",
          "type": "uint256"
        },
        {
          "indexed": false,
          "internalType": "uint256",
          "name": "reservePrice",
          "type": "uint256"
        },
        {
          "indexed": false,
          "internalType": "uint256",
          "name": "totalTokens",
          "type": "uint256"
        }
      ],
      "name": "AuctionStarted",
      "type": "event"
    },
    {
      "anonymous": false,
      "inputs": [
        {
          "indexed": true,
          "internalType": "address",
          "name": "bidder",
          "type": "address"
        },
        {
          "indexed": false,
          "internalType": "uint256",
          "name": "bidAmount",
          "type": "uint256"
        },
        {
          "indexed": false,
          "internalType": "uint256",
          "name": "tokensAllocated",
          "type": "uint256"
        }
      ],
      "name": "BidPlaced",
      "type": "event"
    },
    {
      "anonymous": false,
      "inputs": [
        {
          "indexed": false,
          "internalType": "string",
          "name": "message",
          "type": "string"
        },
        {
          "indexed": false,
          "internalType": "uint256",
          "name": "value",
          "type": "uint256"
        }
      ],
      "name": "Debug",
      "type": "event"
    },
    {
      "anonymous": false,
      "inputs": [
        {
          "indexed": true,
          "internalType": "uint256",
          "name": "bidderID",
          "type": "uint256"
        },
        {
          "indexed": true,
          "internalType": "address",
          "name": "bidder",
          "type": "address"
        },
        {
          "indexed": false,
          "internalType": "uint256",
          "name": "amount",
          "type": "uint256"
        }
      ],
      "name": "TokensClaimed",
      "type": "event"
    },
    {
      "inputs": [],
      "name": "auctionDuration",
      "outputs": [
        {
          "internalType": "uint256",
          "name": "",
          "type": "uint256"
        }
      ],
      "stateMutability": "view",
      "type": "function"
    },
    {
      "inputs": [],
      "name": "auctionStarted",
      "outputs": [
        {
          "internalType": "bool",
          "name": "",
          "type": "bool"
        }
      ],
      "stateMutability": "view",
      "type": "function"
    },
    {
      "inputs": [],
      "name": "auctionState",
      "outputs": [
        {
          "internalType": "enum DutchAuction.AuctionState",
          "name": "",
          "type": "uint8"
        }
      ],
      "stateMutability": "view",
      "type": "function"
    },
    {
      "inputs": [],
      "name": "bidderContract",
      "outputs": [
        {
          "internalType": "contract Bidder",
          "name": "",
          "type": "address"
        }
      ],
      "stateMutability": "view",
      "type": "function"
    },
    {
      "inputs": [],
      "name": "checkAndEndAuction",
      "outputs": [],
      "stateMutability": "nonpayable",
      "type": "function"
    },
    {
      "inputs": [
        {
          "internalType": "uint256",
          "name": "bidderID",
          "type": "uint256"
        }
      ],
      "name": "claimTokens",
      "outputs": [],
      "stateMutability": "nonpayable",
      "type": "function"
    },
    {
      "inputs": [],
      "name": "getAuctionStatus",
      "outputs": [
        {
          "internalType": "enum DutchAuction.AuctionState",
          "name": "",
          "type": "uint8"
        }
      ],
      "stateMutability": "view",
      "type": "function"
    },
    {
      "inputs": [
        {
          "internalType": "uint256",
          "name": "bidderID",
          "type": "uint256"
        }
      ],
      "name": "getBidderInfo",
      "outputs": [
        {
          "components": [
            {
              "internalType": "uint256",
              "name": "bidderID",
              "type": "uint256"
            },
            {
              "internalType": "address",
              "name": "walletAddress",
              "type": "address"
            },
            {
              "internalType": "uint256",
              "name": "bidValue",
              "type": "uint256"
            },
            {
              "internalType": "uint256",
              "name": "tokensPurchased",
              "type": "uint256"
            },
            {
              "internalType": "uint256",
              "name": "refundEth",
              "type": "uint256"
            },
            {
              "internalType": "bool",
              "name": "tokenSent",
              "type": "bool"
            },
            {
              "internalType": "bool",
              "name": "ethRefunded",
              "type": "bool"
            }
          ],
          "internalType": "struct Bidder.BidderInfo",
          "name": "",
          "type": "tuple"
        }
      ],
      "stateMutability": "view",
      "type": "function"
    },
    {
      "inputs": [],
      "name": "getCurrentPrice",
      "outputs": [
        {
          "internalType": "uint256",
          "name": "",
          "type": "uint256"
        }
      ],
      "stateMutability": "view",
      "type": "function"
    },
    {
      "inputs": [],
      "name": "getRemainingTokens",
      "outputs": [
        {
          "internalType": "uint256",
          "name": "",
          "type": "uint256"
        }
      ],
      "stateMutability": "view",
      "type": "function"
    },
    {
      "inputs": [],
      "name": "getTimeRemaining",
      "outputs": [
        {
          "internalType": "uint256",
          "name": "",
          "type": "uint256"
        }
      ],
      "stateMutability": "view",
      "type": "function"
    },
    {
      "inputs": [],
      "name": "getTotalFundsRaised",
      "outputs": [
        {
          "internalType": "uint256",
          "name": "",
          "type": "uint256"
        }
      ],
      "stateMutability": "view",
      "type": "function"
    },
    {
      "inputs": [
        {
          "internalType": "uint256",
          "name": "secondsToAdd",
          "type": "uint256"
        }
      ],
      "name": "incrementTime",
      "outputs": [],
      "stateMutability": "nonpayable",
      "type": "function"
    },
    {
      "inputs": [],
      "name": "owner",
      "outputs": [
        {
          "internalType": "address",
          "name": "",
          "type": "address"
        }
      ],
      "stateMutability": "view",
      "type": "function"
    },
    {
      "inputs": [],
      "name": "pauseAuction",
      "outputs": [],
      "stateMutability": "nonpayable",
      "type": "function"
    },
    {
      "inputs": [],
      "name": "placeBid",
      "outputs": [],
      "stateMutability": "payable",
      "type": "function"
    },
    {
      "inputs": [],
      "name": "priceDecrement",
      "outputs": [
        {
          "internalType": "uint256",
          "name": "",
          "type": "uint256"
        }
      ],
      "stateMutability": "view",
      "type": "function"
    },
    {
      "inputs": [],
      "name": "reservePrice",
      "outputs": [
        {
          "internalType": "uint256",
          "name": "",
          "type": "uint256"
        }
      ],
      "stateMutability": "view",
      "type": "function"
    },
    {
      "inputs": [],
      "name": "resumeAuction",
      "outputs": [],
      "stateMutability": "nonpayable",
      "type": "function"
    },
    {
      "inputs": [],
      "name": "startAuction",
      "outputs": [],
      "stateMutability": "nonpayable",
      "type": "function"
    },
    {
      "inputs": [],
      "name": "startPrice",
      "outputs": [
        {
          "internalType": "uint256",
          "name": "",
          "type": "uint256"
        }
      ],
      "stateMutability": "view",
      "type": "function"
    },
    {
      "inputs": [],
      "name": "startTime",
      "outputs": [
        {
          "internalType": "uint256",
          "name": "",
          "type": "uint256"
        }
      ],
      "stateMutability": "view",
      "type": "function"
    },
    {
      "inputs": [],
      "name": "timeElapsed",
      "outputs": [
        {
          "internalType": "uint256",
          "name": "",
          "type": "uint256"
        }
      ],
      "stateMutability": "view",
      "type": "function"
    },
    {
      "inputs": [],
      "name": "token",
      "outputs": [
        {
          "internalType": "contract IERC20",
          "name": "",
          "type": "address"
        }
      ],
      "stateMutability": "view",
      "type": "function"
    },
    {
      "inputs": [],
      "name": "totalFundsRaised",
      "outputs": [
        {
          "internalType": "uint256",
          "name": "",
          "type": "uint256"
        }
      ],
      "stateMutability": "view",
      "type": "function"
    },
    {
      "inputs": [],
      "name": "totalTokensAvailable",
      "outputs": [
        {
          "internalType": "uint256",
          "name": "",
          "type": "uint256"
        }
      ],
      "stateMutability": "view",
      "type": "function"
    },
    {
      "inputs": [],
      "name": "withdrawFunds",
      "outputs": [],
      "stateMutability": "nonpayable",
      "type": "function"
    },
    {
      "inputs": [
        {
          "internalType": "uint256",
          "name": "bidderID",
          "type": "uint256"
        }
      ],
      "name": "withdrawRefund",
      "outputs": [],
      "stateMutability": "nonpayable",
      "type": "function"
    }
  ],
  "bytecode": "0x608060405234801561001057600080fd5b50604051612f66380380612f66833981810160405281019061003291906101f0565b600160008190555033600160006101000a81548173ffffffffffffffffffffffffffffffffffffffff021916908373ffffffffffffffffffffffffffffffffffffffff16021790555086600260006101000a81548173ffffffffffffffffffffffffffffffffffffffff021916908373ffffffffffffffffffffffffffffffffffffffff16021790555085600360006101000a81548173ffffffffffffffffffffffffffffffffffffffff021916908373ffffffffffffffffffffffffffffffffffffffff16021790555084600481905550836005819055508260068190555081600881905550806009819055506002600c60016101000a81548160ff0219169083600281111561014657610145610292565b5b0217905550505050505050506102c1565b600080fd5b600073ffffffffffffffffffffffffffffffffffffffff82169050919050565b60006101878261015c565b9050919050565b6101978161017c565b81146101a257600080fd5b50565b6000815190506101b48161018e565b92915050565b6000819050919050565b6101cd816101ba565b81146101d857600080fd5b50565b6000815190506101ea816101c4565b92915050565b600080600080600080600060e0888a03121561020f5761020e610157565b5b600061021d8a828b016101a5565b975050602061022e8a828b016101a5565b965050604061023f8a828b016101db565b95505060606102508a828b016101db565b94505060806102618a828b016101db565b93505060a06102728a828b016101db565b92505060c06102838a828b016101db565b91505092959891949750929550565b7f4e487b7100000000000000000000000000000000000000000000000000000000600052602160045260246000fd5b612c96806102d06000396000f3fe6080604052600436106101b75760003560e01c80637fb45099116100ec578063dc2cf3f51161008a578063ee2679bc11610064578063ee2679bc14610539578063f1a9af8914610564578063fc0c546a1461058f578063ff6a6d65146105ba576101b7565b8063dc2cf3f5146104d9578063eb91d37e14610504578063ecfc7ecc1461052f576101b7565b8063af35ae27116100c6578063af35ae2714610441578063b9ae73641461046c578063dac6270d14610483578063db2e1eed146104ae576101b7565b80637fb45099146103c25780638da5cb5b146103ed5780639d15349514610418576101b7565b806346e04a2f11610159578063699ca55f11610133578063699ca55f1461032c5780636b64c769146103555780636dd2cbe51461036c57806378e9792514610397576101b7565b806346e04a2f146102c157806351b5dbd9146102ea578063621de3c414610301576101b7565b806326cddbfb1161019557806326cddbfb146102295780632e93be301461025457806332353fbd1461027f578063427c0c7f14610296576101b7565b80630c3e2d2d146101bc5780630cbf54c8146101e757806324600fc314610212575b600080fd5b3480156101c857600080fd5b506101d16105f7565b6040516101de9190611bef565b60405180910390f35b3480156101f357600080fd5b506101fc610601565b6040516102099190611bef565b60405180910390f35b34801561021e57600080fd5b50610227610607565b005b34801561023557600080fd5b5061023e610779565b60405161024b9190611bef565b60405180910390f35b34801561026057600080fd5b5061026961077f565b6040516102769190611c81565b60405180910390f35b34801561028b57600080fd5b50610294610796565b005b3480156102a257600080fd5b506102ab6108f5565b6040516102b89190611bef565b60405180910390f35b3480156102cd57600080fd5b506102e860048036038101906102e39190611cd7565b6108fb565b005b3480156102f657600080fd5b506102ff610cd7565b005b34801561030d57600080fd5b50610316610e06565b6040516103239190611d83565b60405180910390f35b34801561033857600080fd5b50610353600480360381019061034e9190611cd7565b610e2c565b005b34801561036157600080fd5b5061036a610e48565b005b34801561037857600080fd5b50610381611039565b60405161038e9190611bef565b60405180910390f35b3480156103a357600080fd5b506103ac61103f565b6040516103b99190611bef565b60405180910390f35b3480156103ce57600080fd5b506103d7611045565b6040516103e49190611c81565b60405180910390f35b3480156103f957600080fd5b50610402611058565b60405161040f9190611dbf565b60405180910390f35b34801561042457600080fd5b5061043f600480360381019061043a9190611cd7565b61107e565b005b34801561044d57600080fd5b506104566112bc565b6040516104639190611bef565b60405180910390f35b34801561047857600080fd5b506104816112c6565b005b34801561048f57600080fd5b50610498611425565b6040516104a59190611bef565b60405180910390f35b3480156104ba57600080fd5b506104c361147f565b6040516104d09190611bef565b60405180910390f35b3480156104e557600080fd5b506104ee611485565b6040516104fb9190611bef565b60405180910390f35b34801561051057600080fd5b5061051961148b565b6040516105269190611bef565b60405180910390f35b610537611505565b005b34801561054557600080fd5b5061054e61189d565b60405161055b9190611df5565b60405180910390f35b34801561057057600080fd5b506105796118b0565b6040516105869190611bef565b60405180910390f35b34801561059b57600080fd5b506105a46118b6565b6040516105b19190611e31565b60405180910390f35b3480156105c657600080fd5b506105e160048036038101906105dc9190611cd7565b6118dc565b6040516105ee9190611f07565b60405180910390f35b6000600a54905090565b60065481565b600160009054906101000a900473ffffffffffffffffffffffffffffffffffffffff1673ffffffffffffffffffffffffffffffffffffffff163373ffffffffffffffffffffffffffffffffffffffff1614610697576040517f08c379a000000000000000000000000000000000000000000000000000000000815260040161068e90611f7f565b60405180910390fd5b6002808111156106aa576106a9611c0a565b5b600c60019054906101000a900460ff1660028111156106cc576106cb611c0a565b5b1461070c576040517f08c379a000000000000000000000000000000000000000000000000000000000815260040161070390611feb565b60405180910390fd5b600160009054906101000a900473ffffffffffffffffffffffffffffffffffffffff1673ffffffffffffffffffffffffffffffffffffffff166108fc600a549081150290604051600060405180830381858888f19350505050158015610776573d6000803e3d6000fd5b50565b60095481565b6000600c60019054906101000a900460ff16905090565b600160009054906101000a900473ffffffffffffffffffffffffffffffffffffffff1673ffffffffffffffffffffffffffffffffffffffff163373ffffffffffffffffffffffffffffffffffffffff1614610826576040517f08c379a000000000000000000000000000000000000000000000000000000000815260040161081d90611f7f565b60405180910390fd5b6001600281111561083a57610839611c0a565b5b600c60019054906101000a900460ff16600281111561085c5761085b611c0a565b5b1461089c576040517f08c379a000000000000000000000000000000000000000000000000000000000815260040161089390612057565b60405180910390fd5b6000600c60016101000a81548160ff021916908360028111156108c2576108c1611c0a565b5b02179055507f979e0f22222b399f6e77f2614325775244291877598c6174fd7caf44b4bdfcc560405160405180910390a1565b600a5481565b60028081111561090e5761090d611c0a565b5b600c60019054906101000a900460ff1660028111156109305761092f611c0a565b5b14610970576040517f08c379a0000000000000000000000000000000000000000000000000000000008152600401610967906120c3565b60405180910390fd5b6000600360009054906101000a900473ffffffffffffffffffffffffffffffffffffffff1673ffffffffffffffffffffffffffffffffffffffff1663ff6a6d65836040518263ffffffff1660e01b81526004016109cd9190611bef565b60e060405180830381865afa1580156109ea573d6000803e3d6000fd5b505050506040513d601f19601f82011682018060405250810190610a0e9190612295565b90503373ffffffffffffffffffffffffffffffffffffffff16816020015173ffffffffffffffffffffffffffffffffffffffff1614610a82576040517f08c379a0000000000000000000000000000000000000000000000000000000008152600401610a799061230e565b60405180910390fd5b6000816060015111610ac9576040517f08c379a0000000000000000000000000000000000000000000000000000000008152600401610ac09061237a565b60405180910390fd5b8060a0015115610b0e576040517f08c379a0000000000000000000000000000000000000000000000000000000008152600401610b05906123e6565b60405180910390fd5b600081606001519050600360009054906101000a900473ffffffffffffffffffffffffffffffffffffffff1673ffffffffffffffffffffffffffffffffffffffff1663edd6b438846040518263ffffffff1660e01b8152600401610b729190611bef565b600060405180830381600087803b158015610b8c57600080fd5b505af1158015610ba0573d6000803e3d6000fd5b50505050600260009054906101000a900473ffffffffffffffffffffffffffffffffffffffff1673ffffffffffffffffffffffffffffffffffffffff1663a9059cbb33836040518363ffffffff1660e01b8152600401610c01929190612406565b6020604051808303816000875af1158015610c20573d6000803e3d6000fd5b505050506040513d601f19601f82011682018060405250810190610c44919061242f565b610c83576040517f08c379a0000000000000000000000000000000000000000000000000000000008152600401610c7a906124a8565b60405180910390fd5b3373ffffffffffffffffffffffffffffffffffffffff16837f880f2ef2613b092f1a0a819f294155c98667eb294b7e6bf7a3810278142c1a1c83604051610cca9190611bef565b60405180910390a3505050565b600c60009054906101000a900460ff16610d26576040517f08c379a0000000000000000000000000000000000000000000000000000000008152600401610d1d90612514565b60405180910390fd5b600060075442610d369190612563565b90507f3c5ad147104e56be34a9176a6692f7df8d2f4b29a5af06bc6b98970d329d657781604051610d6791906125e3565b60405180910390a16006548110610dbe577f3c5ad147104e56be34a9176a6692f7df8d2f4b29a5af06bc6b98970d329d6577600654604051610da99190612683565b60405180910390a1610db9611987565b610e03565b7f3c5ad147104e56be34a9176a6692f7df8d2f4b29a5af06bc6b98970d329d657781600654610ded9190612563565b604051610dfa91906126fd565b60405180910390a15b50565b600360009054906101000a900473ffffffffffffffffffffffffffffffffffffffff1681565b80600b6000828254610e3e919061272b565b9250508190555050565b600160009054906101000a900473ffffffffffffffffffffffffffffffffffffffff1673ffffffffffffffffffffffffffffffffffffffff163373ffffffffffffffffffffffffffffffffffffffff1614610ed8576040517f08c379a0000000000000000000000000000000000000000000000000000000008152600401610ecf90611f7f565b60405180910390fd5b600280811115610eeb57610eea611c0a565b5b600c60019054906101000a900460ff166002811115610f0d57610f0c611c0a565b5b14610f4d576040517f08c379a0000000000000000000000000000000000000000000000000000000008152600401610f44906127d1565b60405180910390fd5b600c60009054906101000a900460ff1615610f9d576040517f08c379a0000000000000000000000000000000000000000000000000000000008152600401610f949061283d565b60405180910390fd5b426007819055506000600c60016101000a81548160ff02191690836002811115610fca57610fc9611c0a565b5b02179055506001600c60006101000a81548160ff0219169083151502179055506000600b819055507fa832766a05f1bd0298b0268308621777cfe1e4eea23afe7c06beea79bc6ddd2d60075460045460055460085460405161102f949392919061285d565b60405180910390a1565b60085481565b60075481565b600c60019054906101000a900460ff1681565b600160009054906101000a900473ffffffffffffffffffffffffffffffffffffffff1681565b611086611b2f565b6000600360009054906101000a900473ffffffffffffffffffffffffffffffffffffffff1673ffffffffffffffffffffffffffffffffffffffff1663ff6a6d65836040518263ffffffff1660e01b81526004016110e39190611bef565b60e060405180830381865afa158015611100573d6000803e3d6000fd5b505050506040513d601f19601f820116820180604052508101906111249190612295565b905060008160800151905060008111611172576040517f08c379a0000000000000000000000000000000000000000000000000000000008152600401611169906128ee565b60405180910390fd5b600360009054906101000a900473ffffffffffffffffffffffffffffffffffffffff1673ffffffffffffffffffffffffffffffffffffffff1663bbca9fd58460006040518363ffffffff1660e01b81526004016111d0929190612949565b600060405180830381600087803b1580156111ea57600080fd5b505af11580156111fe573d6000803e3d6000fd5b5050505060003373ffffffffffffffffffffffffffffffffffffffff1682604051611228906129a3565b60006040518083038185875af1925050503d8060008114611265576040519150601f19603f3d011682016040523d82523d6000602084013e61126a565b606091505b50509050806112ae576040517f08c379a00000000000000000000000000000000000000000000000000000000081526004016112a590612a04565b60405180910390fd5b5050506112b9611b75565b50565b6000600854905090565b600160009054906101000a900473ffffffffffffffffffffffffffffffffffffffff1673ffffffffffffffffffffffffffffffffffffffff163373ffffffffffffffffffffffffffffffffffffffff1614611356576040517f08c379a000000000000000000000000000000000000000000000000000000000815260040161134d90611f7f565b60405180910390fd5b6000600281111561136a57611369611c0a565b5b600c60019054906101000a900460ff16600281111561138c5761138b611c0a565b5b146113cc576040517f08c379a00000000000000000000000000000000000000000000000000000000081526004016113c390612a70565b60405180910390fd5b6001600c60016101000a81548160ff021916908360028111156113f2576113f1611c0a565b5b02179055507f749d6d79623c8cbd2345906702c70ae75d4254a6c409047c16d52fa5a37ef69860405160405180910390a1565b6000600c60009054906101000a900460ff1661144557600654905061147c565b6000600754426114559190612563565b9050600654811061146a57600091505061147c565b806006546114789190612563565b9150505b90565b60055481565b600b5481565b600060065460075461149d919061272b565b42106114ad576005549050611502565b6000603c600754426114bf9190612563565b6114c99190612abf565b90506000600954826114db9190612af0565b905080600454116114ee576005546114fd565b806004546114fc9190612563565b5b925050505b90565b61150d611b2f565b6000600281111561152157611520611c0a565b5b600c60019054906101000a900460ff16600281111561154357611542611c0a565b5b14611583576040517f08c379a000000000000000000000000000000000000000000000000000000000815260040161157a90612a70565b60405180910390fd5b600061158d61148b565b9050803410156115d2576040517f08c379a00000000000000000000000000000000000000000000000000000000081526004016115c990612b7e565b60405180910390fd5b600081346115e09190612abf565b9050600854811115611627576040517f08c379a000000000000000000000000000000000000000000000000000000000815260040161161e90612bea565b60405180910390fd5b80600860008282546116399190612563565b9250508190555034600a6000828254611652919061272b565b92505081905550600360009054906101000a900473ffffffffffffffffffffffffffffffffffffffff1673ffffffffffffffffffffffffffffffffffffffff166330840a3e33346040518363ffffffff1660e01b81526004016116b6929190612406565b600060405180830381600087803b1580156116d057600080fd5b505af11580156116e4573d6000803e3d6000fd5b50505050600360009054906101000a900473ffffffffffffffffffffffffffffffffffffffff1673ffffffffffffffffffffffffffffffffffffffff1663743f62636001600360009054906101000a900473ffffffffffffffffffffffffffffffffffffffff1673ffffffffffffffffffffffffffffffffffffffff1663de71bf076040518163ffffffff1660e01b8152600401602060405180830381865afa158015611795573d6000803e3d6000fd5b505050506040513d601f19601f820116820180604052508101906117b99190612c0a565b6117c39190612563565b836040518363ffffffff1660e01b81526004016117e1929190612c37565b600060405180830381600087803b1580156117fb57600080fd5b505af115801561180f573d6000803e3d6000fd5b505050503373ffffffffffffffffffffffffffffffffffffffff167fdf8644c0a4c21ed214ce69f395675b3a5fcd1039083daea5058898de40ea3149348360405161185b929190612c37565b60405180910390a260006008541480611883575060065460075461187f919061272b565b4210155b1561189157611890611987565b5b505061189b611b75565b565b600c60009054906101000a900460ff1681565b60045481565b600260009054906101000a900473ffffffffffffffffffffffffffffffffffffffff1681565b6118e4611b7f565b600360009054906101000a900473ffffffffffffffffffffffffffffffffffffffff1673ffffffffffffffffffffffffffffffffffffffff1663ff6a6d65836040518263ffffffff1660e01b815260040161193f9190611bef565b60e060405180830381865afa15801561195c573d6000803e3d6000fd5b505050506040513d601f19601f820116820180604052508101906119809190612295565b9050919050565b6002600c60016101000a81548160ff021916908360028111156119ad576119ac611c0a565b5b021790555060006008549050600160009054906101000a900473ffffffffffffffffffffffffffffffffffffffff1673ffffffffffffffffffffffffffffffffffffffff166108fc600a549081150290604051600060405180830381858888f19350505050158015611a23573d6000803e3d6000fd5b506000811115611af157600260009054906101000a900473ffffffffffffffffffffffffffffffffffffffff1673ffffffffffffffffffffffffffffffffffffffff1663a9059cbb600160009054906101000a900473ffffffffffffffffffffffffffffffffffffffff16836040518363ffffffff1660e01b8152600401611aac929190612406565b6020604051808303816000875af1158015611acb573d6000803e3d6000fd5b505050506040513d601f19601f82011682018060405250810190611aef919061242f565b505b7fe536ac546f86787f3ea4069f79235c6b5a681e87d051300a3ed19a6ebb0db71c600a5482604051611b24929190612c37565b60405180910390a150565b600260005403611b6b576040517f3ee5aeb500000000000000000000000000000000000000000000000000000000815260040160405180910390fd5b6002600081905550565b6001600081905550565b6040518060e0016040528060008152602001600073ffffffffffffffffffffffffffffffffffffffff1681526020016000815260200160008152602001600081526020016000151581526020016000151581525090565b6000819050919050565b611be981611bd6565b82525050565b6000602082019050611c046000830184611be0565b92915050565b7f4e487b7100000000000000000000000000000000000000000000000000000000600052602160045260246000fd5b60038110611c4a57611c49611c0a565b5b50565b6000819050611c5b82611c39565b919050565b6000611c6b82611c4d565b9050919050565b611c7b81611c60565b82525050565b6000602082019050611c966000830184611c72565b92915050565b6000604051905090565b600080fd5b611cb481611bd6565b8114611cbf57600080fd5b50565b600081359050611cd181611cab565b92915050565b600060208284031215611ced57611cec611ca6565b5b6000611cfb84828501611cc2565b91505092915050565b600073ffffffffffffffffffffffffffffffffffffffff82169050919050565b6000819050919050565b6000611d49611d44611d3f84611d04565b611d24565b611d04565b9050919050565b6000611d5b82611d2e565b9050919050565b6000611d6d82611d50565b9050919050565b611d7d81611d62565b82525050565b6000602082019050611d986000830184611d74565b92915050565b6000611da982611d04565b9050919050565b611db981611d9e565b82525050565b6000602082019050611dd46000830184611db0565b92915050565b60008115159050919050565b611def81611dda565b82525050565b6000602082019050611e0a6000830184611de6565b92915050565b6000611e1b82611d50565b9050919050565b611e2b81611e10565b82525050565b6000602082019050611e466000830184611e22565b92915050565b611e5581611bd6565b82525050565b611e6481611d9e565b82525050565b611e7381611dda565b82525050565b60e082016000820151611e8f6000850182611e4c565b506020820151611ea26020850182611e5b565b506040820151611eb56040850182611e4c565b506060820151611ec86060850182611e4c565b506080820151611edb6080850182611e4c565b5060a0820151611eee60a0850182611e6a565b5060c0820151611f0160c0850182611e6a565b50505050565b600060e082019050611f1c6000830184611e79565b92915050565b600082825260208201905092915050565b7f4e6f7420746865206f776e657200000000000000000000000000000000000000600082015250565b6000611f69600d83611f22565b9150611f7482611f33565b602082019050919050565b60006020820190508181036000830152611f9881611f5c565b9050919050565b7f41756374696f6e206973206e6f7420636c6f7365640000000000000000000000600082015250565b6000611fd5601583611f22565b9150611fe082611f9f565b602082019050919050565b6000602082019050818103600083015261200481611fc8565b9050919050565b7f41756374696f6e206973206e6f74207061757365640000000000000000000000600082015250565b6000612041601583611f22565b915061204c8261200b565b602082019050919050565b6000602082019050818103600083015261207081612034565b9050919050565b7f41756374696f6e20686173206e6f7420656e6465640000000000000000000000600082015250565b60006120ad601583611f22565b91506120b882612077565b602082019050919050565b600060208201905081810360008301526120dc816120a0565b9050919050565b600080fd5b6000601f19601f8301169050919050565b7f4e487b7100000000000000000000000000000000000000000000000000000000600052604160045260246000fd5b612131826120e8565b810181811067ffffffffffffffff821117156121505761214f6120f9565b5b80604052505050565b6000612163611c9c565b905061216f8282612128565b919050565b60008151905061218381611cab565b92915050565b61219281611d9e565b811461219d57600080fd5b50565b6000815190506121af81612189565b92915050565b6121be81611dda565b81146121c957600080fd5b50565b6000815190506121db816121b5565b92915050565b600060e082840312156121f7576121f66120e3565b5b61220160e0612159565b9050600061221184828501612174565b6000830152506020612225848285016121a0565b602083015250604061223984828501612174565b604083015250606061224d84828501612174565b606083015250608061226184828501612174565b60808301525060a0612275848285016121cc565b60a08301525060c0612289848285016121cc565b60c08301525092915050565b600060e082840312156122ab576122aa611ca6565b5b60006122b9848285016121e1565b91505092915050565b7f4e6f7420617574686f72697a6564000000000000000000000000000000000000600082015250565b60006122f8600e83611f22565b9150612303826122c2565b602082019050919050565b60006020820190508181036000830152612327816122eb565b9050919050565b7f4e6f20746f6b656e7320746f20636c61696d0000000000000000000000000000600082015250565b6000612364601283611f22565b915061236f8261232e565b602082019050919050565b6000602082019050818103600083015261239381612357565b9050919050565b7f546f6b656e7320616c726561647920636c61696d656400000000000000000000600082015250565b60006123d0601683611f22565b91506123db8261239a565b602082019050919050565b600060208201905081810360008301526123ff816123c3565b9050919050565b600060408201905061241b6000830185611db0565b6124286020830184611be0565b9392505050565b60006020828403121561244557612444611ca6565b5b6000612453848285016121cc565b91505092915050565b7f546f6b656e207472616e73666572206661696c65640000000000000000000000600082015250565b6000612492601583611f22565b915061249d8261245c565b602082019050919050565b600060208201905081810360008301526124c181612485565b9050919050565b7f41756374696f6e20686173206e6f742073746172746564000000000000000000600082015250565b60006124fe601783611f22565b9150612509826124c8565b602082019050919050565b6000602082019050818103600083015261252d816124f1565b9050919050565b7f4e487b7100000000000000000000000000000000000000000000000000000000600052601160045260246000fd5b600061256e82611bd6565b915061257983611bd6565b925082820390508181111561259157612590612534565b5b92915050565b7f456c61707365642074696d650000000000000000000000000000000000000000600082015250565b60006125cd600c83611f22565b91506125d882612597565b602082019050919050565b600060408201905081810360008301526125fc816125c0565b905061260b6020830184611be0565b92915050565b7f41756374696f6e206475726174696f6e206d65742e20456e64696e672061756360008201527f74696f6e2e000000000000000000000000000000000000000000000000000000602082015250565b600061266d602583611f22565b915061267882612611565b604082019050919050565b6000604082019050818103600083015261269c81612660565b90506126ab6020830184611be0565b92915050565b7f41756374696f6e207374696c6c206f6e676f696e670000000000000000000000600082015250565b60006126e7601583611f22565b91506126f2826126b1565b602082019050919050565b60006040820190508181036000830152612716816126da565b90506127256020830184611be0565b92915050565b600061273682611bd6565b915061274183611bd6565b925082820190508082111561275957612758612534565b5b92915050565b7f41756374696f6e20616c72656164792073746172746564206f7220706175736560008201527f6400000000000000000000000000000000000000000000000000000000000000602082015250565b60006127bb602183611f22565b91506127c68261275f565b604082019050919050565b600060208201905081810360008301526127ea816127ae565b9050919050565b7f41756374696f6e20616c72656164792073746172746564000000000000000000600082015250565b6000612827601783611f22565b9150612832826127f1565b602082019050919050565b600060208201905081810360008301526128568161281a565b9050919050565b60006080820190506128726000830187611be0565b61287f6020830186611be0565b61288c6040830185611be0565b6128996060830184611be0565b95945050505050565b7f4e6f20726566756e6420617661696c61626c6500000000000000000000000000600082015250565b60006128d8601383611f22565b91506128e3826128a2565b602082019050919050565b60006020820190508181036000830152612907816128cb565b9050919050565b6000819050919050565b600061293361292e6129298461290e565b611d24565b611bd6565b9050919050565b61294381612918565b82525050565b600060408201905061295e6000830185611be0565b61296b602083018461293a565b9392505050565b600081905092915050565b50565b600061298d600083612972565b91506129988261297d565b600082019050919050565b60006129ae82612980565b9150819050919050565b7f526566756e64207472616e73666572206661696c656400000000000000000000600082015250565b60006129ee601683611f22565b91506129f9826129b8565b602082019050919050565b60006020820190508181036000830152612a1d816129e1565b9050919050565b7f41756374696f6e206973206e6f74206f70656e00000000000000000000000000600082015250565b6000612a5a601383611f22565b9150612a6582612a24565b602082019050919050565b60006020820190508181036000830152612a8981612a4d565b9050919050565b7f4e487b7100000000000000000000000000000000000000000000000000000000600052601260045260246000fd5b6000612aca82611bd6565b9150612ad583611bd6565b925082612ae557612ae4612a90565b5b828204905092915050565b6000612afb82611bd6565b9150612b0683611bd6565b9250828202612b1481611bd6565b91508282048414831517612b2b57612b2a612534565b5b5092915050565b7f4269642062656c6f772063757272656e74207072696365000000000000000000600082015250565b6000612b68601783611f22565b9150612b7382612b32565b602082019050919050565b60006020820190508181036000830152612b9781612b5b565b9050919050565b7f4e6f7420656e6f75676820746f6b656e73206c65667400000000000000000000600082015250565b6000612bd4601683611f22565b9150612bdf82612b9e565b602082019050919050565b60006020820190508181036000830152612c0381612bc7565b9050919050565b600060208284031215612c2057612c1f611ca6565b5b6000612c2e84828501612174565b91505092915050565b6000604082019050612c4c6000830185611be0565b612c596020830184611be0565b939250505056fea2646970667358221220f56cf0cac8be85486dada749813f7b9fd3155837382c9f87e1dfc830713286e564736f6c634300081b0033",
  "linkReferences": {},
  "deployedLinkReferences": {}
}