{
  "_format": "hh-sol-artifact-1",
  "contractName": "DutchAuction",
  "sourceName": "contracts/Auction.sol",
  "abi": [
    {
      "inputs": [
        {
          "internalType": "address",
          "name": "_token",
          "type": "address"
        },
        {
          "internalType": "address",
          "name": "_bidderContract",
          "type": "address"
        },
        {
          "internalType": "uint256",
          "name": "_startPrice",
          "type": "uint256"
        },
        {
          "internalType": "uint256",
          "name": "_reservePrice",
          "type": "uint256"
        },
        {
          "internalType": "uint256",
          "name": "_auctionDuration",
          "type": "uint256"
        },
        {
          "internalType": "uint256",
          "name": "_totalTokens",
          "type": "uint256"
        },
        {
          "internalType": "uint256",
          "name": "_priceDecrement",
          "type": "uint256"
        }
      ],
      "stateMutability": "nonpayable",
      "type": "constructor"
    },
    {
      "inputs": [],
      "name": "ReentrancyGuardReentrantCall",
      "type": "error"
    },
    {
      "anonymous": false,
      "inputs": [
        {
          "indexed": false,
          "internalType": "uint256",
          "name": "totalFundsRaised",
          "type": "uint256"
        },
        {
          "indexed": false,
          "internalType": "uint256",
          "name": "unsoldTokens",
          "type": "uint256"
        }
      ],
      "name": "AuctionEnded",
      "type": "event"
    },
    {
      "anonymous": false,
      "inputs": [],
      "name": "AuctionPaused",
      "type": "event"
    },
    {
      "anonymous": false,
      "inputs": [],
      "name": "AuctionResumed",
      "type": "event"
    },
    {
      "anonymous": false,
      "inputs": [
        {
          "indexed": false,
          "internalType": "uint256",
          "name": "startTime",
          "type": "uint256"
        },
        {
          "indexed": false,
          "internalType": "uint256",
          "name": "startPrice",
          "type": "uint256"
        },
        {
          "indexed": false,
          "internalType": "uint256",
          "name": "reservePrice",
          "type": "uint256"
        },
        {
          "indexed": false,
          "internalType": "uint256",
          "name": "totalTokens",
          "type": "uint256"
        }
      ],
      "name": "AuctionStarted",
      "type": "event"
    },
    {
      "anonymous": false,
      "inputs": [
        {
          "indexed": true,
          "internalType": "address",
          "name": "bidder",
          "type": "address"
        },
        {
          "indexed": false,
          "internalType": "uint256",
          "name": "bidAmount",
          "type": "uint256"
        },
        {
          "indexed": false,
          "internalType": "uint256",
          "name": "tokensAllocated",
          "type": "uint256"
        }
      ],
      "name": "BidPlaced",
      "type": "event"
    },
    {
      "inputs": [],
      "name": "auctionDuration",
      "outputs": [
        {
          "internalType": "uint256",
          "name": "",
          "type": "uint256"
        }
      ],
      "stateMutability": "view",
      "type": "function"
    },
    {
      "inputs": [],
      "name": "auctionStarted",
      "outputs": [
        {
          "internalType": "bool",
          "name": "",
          "type": "bool"
        }
      ],
      "stateMutability": "view",
      "type": "function"
    },
    {
      "inputs": [],
      "name": "auctionState",
      "outputs": [
        {
          "internalType": "enum DutchAuction.AuctionState",
          "name": "",
          "type": "uint8"
        }
      ],
      "stateMutability": "view",
      "type": "function"
    },
    {
      "inputs": [],
      "name": "bidderContract",
      "outputs": [
        {
          "internalType": "contract Bidder",
          "name": "",
          "type": "address"
        }
      ],
      "stateMutability": "view",
      "type": "function"
    },
    {
      "inputs": [],
      "name": "getAuctionStatus",
      "outputs": [
        {
          "internalType": "enum DutchAuction.AuctionState",
          "name": "",
          "type": "uint8"
        }
      ],
      "stateMutability": "view",
      "type": "function"
    },
    {
      "inputs": [
        {
          "internalType": "uint256",
          "name": "bidderID",
          "type": "uint256"
        }
      ],
      "name": "getBidderInfo",
      "outputs": [
        {
          "components": [
            {
              "internalType": "uint256",
              "name": "bidderID",
              "type": "uint256"
            },
            {
              "internalType": "address",
              "name": "walletAddress",
              "type": "address"
            },
            {
              "internalType": "uint256",
              "name": "bidValue",
              "type": "uint256"
            },
            {
              "internalType": "uint256",
              "name": "tokensPurchased",
              "type": "uint256"
            },
            {
              "internalType": "uint256",
              "name": "refundEth",
              "type": "uint256"
            },
            {
              "internalType": "bool",
              "name": "tokenSent",
              "type": "bool"
            },
            {
              "internalType": "bool",
              "name": "ethRefunded",
              "type": "bool"
            }
          ],
          "internalType": "struct Bidder.BidderInfo",
          "name": "",
          "type": "tuple"
        }
      ],
      "stateMutability": "view",
      "type": "function"
    },
    {
      "inputs": [],
      "name": "getCurrentPrice",
      "outputs": [
        {
          "internalType": "uint256",
          "name": "",
          "type": "uint256"
        }
      ],
      "stateMutability": "view",
      "type": "function"
    },
    {
      "inputs": [],
      "name": "getRemainingTokens",
      "outputs": [
        {
          "internalType": "uint256",
          "name": "",
          "type": "uint256"
        }
      ],
      "stateMutability": "view",
      "type": "function"
    },
    {
      "inputs": [],
      "name": "getTimeRemaining",
      "outputs": [
        {
          "internalType": "uint256",
          "name": "",
          "type": "uint256"
        }
      ],
      "stateMutability": "view",
      "type": "function"
    },
    {
      "inputs": [],
      "name": "getTotalFundsRaised",
      "outputs": [
        {
          "internalType": "uint256",
          "name": "",
          "type": "uint256"
        }
      ],
      "stateMutability": "view",
      "type": "function"
    },
    {
      "inputs": [],
      "name": "owner",
      "outputs": [
        {
          "internalType": "address",
          "name": "",
          "type": "address"
        }
      ],
      "stateMutability": "view",
      "type": "function"
    },
    {
      "inputs": [],
      "name": "pauseAuction",
      "outputs": [],
      "stateMutability": "nonpayable",
      "type": "function"
    },
    {
      "inputs": [],
      "name": "placeBid",
      "outputs": [],
      "stateMutability": "payable",
      "type": "function"
    },
    {
      "inputs": [],
      "name": "priceDecrement",
      "outputs": [
        {
          "internalType": "uint256",
          "name": "",
          "type": "uint256"
        }
      ],
      "stateMutability": "view",
      "type": "function"
    },
    {
      "inputs": [],
      "name": "reservePrice",
      "outputs": [
        {
          "internalType": "uint256",
          "name": "",
          "type": "uint256"
        }
      ],
      "stateMutability": "view",
      "type": "function"
    },
    {
      "inputs": [],
      "name": "resumeAuction",
      "outputs": [],
      "stateMutability": "nonpayable",
      "type": "function"
    },
    {
      "inputs": [],
      "name": "startAuction",
      "outputs": [],
      "stateMutability": "nonpayable",
      "type": "function"
    },
    {
      "inputs": [],
      "name": "startPrice",
      "outputs": [
        {
          "internalType": "uint256",
          "name": "",
          "type": "uint256"
        }
      ],
      "stateMutability": "view",
      "type": "function"
    },
    {
      "inputs": [],
      "name": "startTime",
      "outputs": [
        {
          "internalType": "uint256",
          "name": "",
          "type": "uint256"
        }
      ],
      "stateMutability": "view",
      "type": "function"
    },
    {
      "inputs": [],
      "name": "token",
      "outputs": [
        {
          "internalType": "contract IERC20",
          "name": "",
          "type": "address"
        }
      ],
      "stateMutability": "view",
      "type": "function"
    },
    {
      "inputs": [],
      "name": "totalFundsRaised",
      "outputs": [
        {
          "internalType": "uint256",
          "name": "",
          "type": "uint256"
        }
      ],
      "stateMutability": "view",
      "type": "function"
    },
    {
      "inputs": [],
      "name": "totalTokensAvailable",
      "outputs": [
        {
          "internalType": "uint256",
          "name": "",
          "type": "uint256"
        }
      ],
      "stateMutability": "view",
      "type": "function"
    },
    {
      "inputs": [],
      "name": "withdrawFunds",
      "outputs": [],
      "stateMutability": "nonpayable",
      "type": "function"
    },
    {
      "inputs": [],
      "name": "withdrawRefund",
      "outputs": [],
      "stateMutability": "nonpayable",
      "type": "function"
    }
  ],
  "bytecode": "0x608060405234801561001057600080fd5b50604051612578380380612578833981810160405281019061003291906101f0565b600160008190555033600160006101000a81548173ffffffffffffffffffffffffffffffffffffffff021916908373ffffffffffffffffffffffffffffffffffffffff16021790555086600260006101000a81548173ffffffffffffffffffffffffffffffffffffffff021916908373ffffffffffffffffffffffffffffffffffffffff16021790555085600360006101000a81548173ffffffffffffffffffffffffffffffffffffffff021916908373ffffffffffffffffffffffffffffffffffffffff16021790555084600481905550836005819055508260068190555081600881905550806009819055506002600b60016101000a81548160ff0219169083600281111561014657610145610292565b5b0217905550505050505050506102c1565b600080fd5b600073ffffffffffffffffffffffffffffffffffffffff82169050919050565b60006101878261015c565b9050919050565b6101978161017c565b81146101a257600080fd5b50565b6000815190506101b48161018e565b92915050565b6000819050919050565b6101cd816101ba565b81146101d857600080fd5b50565b6000815190506101ea816101c4565b92915050565b600080600080600080600060e0888a03121561020f5761020e610157565b5b600061021d8a828b016101a5565b975050602061022e8a828b016101a5565b965050604061023f8a828b016101db565b95505060606102508a828b016101db565b94505060806102618a828b016101db565b93505060a06102728a828b016101db565b92505060c06102838a828b016101db565b91505092959891949750929550565b7f4e487b7100000000000000000000000000000000000000000000000000000000600052602160045260246000fd5b6122a8806102d06000396000f3fe60806040526004361061014b5760003560e01c80637fb45099116100b6578063eb91d37e1161006f578063eb91d37e146103f2578063ecfc7ecc1461041d578063ee2679bc14610427578063f1a9af8914610452578063fc0c546a1461047d578063ff6a6d65146104a85761014b565b80637fb45099146103045780638da5cb5b1461032f578063af35ae271461035a578063b9ae736414610385578063dac6270d1461039c578063db2e1eed146103c75761014b565b806332353fbd1161010857806332353fbd1461022a578063427c0c7f14610241578063621de3c41461026c5780636b64c769146102975780636dd2cbe5146102ae57806378e97925146102d95761014b565b80630c3e2d2d146101505780630cbf54c81461017b578063110f8874146101a657806324600fc3146101bd57806326cddbfb146101d45780632e93be30146101ff575b600080fd5b34801561015c57600080fd5b506101656104e5565b6040516101729190611689565b60405180910390f35b34801561018757600080fd5b506101906104ef565b60405161019d9190611689565b60405180910390f35b3480156101b257600080fd5b506101bb6104f5565b005b3480156101c957600080fd5b506101d2610864565b005b3480156101e057600080fd5b506101e96109d6565b6040516101f69190611689565b60405180910390f35b34801561020b57600080fd5b506102146109dc565b604051610221919061171b565b60405180910390f35b34801561023657600080fd5b5061023f6109f3565b005b34801561024d57600080fd5b50610256610b52565b6040516102639190611689565b60405180910390f35b34801561027857600080fd5b50610281610b58565b60405161028e91906117b5565b60405180910390f35b3480156102a357600080fd5b506102ac610b7e565b005b3480156102ba57600080fd5b506102c3610d17565b6040516102d09190611689565b60405180910390f35b3480156102e557600080fd5b506102ee610d1d565b6040516102fb9190611689565b60405180910390f35b34801561031057600080fd5b50610319610d23565b604051610326919061171b565b60405180910390f35b34801561033b57600080fd5b50610344610d36565b60405161035191906117f1565b60405180910390f35b34801561036657600080fd5b5061036f610d5c565b60405161037c9190611689565b60405180910390f35b34801561039157600080fd5b5061039a610d66565b005b3480156103a857600080fd5b506103b1610ec5565b6040516103be9190611689565b60405180910390f35b3480156103d357600080fd5b506103dc610f1f565b6040516103e99190611689565b60405180910390f35b3480156103fe57600080fd5b50610407610f25565b6040516104149190611689565b60405180910390f35b610425610f9f565b005b34801561043357600080fd5b5061043c611337565b6040516104499190611827565b60405180910390f35b34801561045e57600080fd5b5061046761134a565b6040516104749190611689565b60405180910390f35b34801561048957600080fd5b50610492611350565b60405161049f9190611863565b60405180910390f35b3480156104b457600080fd5b506104cf60048036038101906104ca91906118b9565b611376565b6040516104dc91906119a1565b60405180910390f35b6000600a54905090565b60065481565b6104fd611421565b6000600360009054906101000a900473ffffffffffffffffffffffffffffffffffffffff1673ffffffffffffffffffffffffffffffffffffffff1663ff6a6d656001600360009054906101000a900473ffffffffffffffffffffffffffffffffffffffff1673ffffffffffffffffffffffffffffffffffffffff1663de71bf076040518163ffffffff1660e01b8152600401602060405180830381865afa1580156105ac573d6000803e3d6000fd5b505050506040513d601f19601f820116820180604052508101906105d091906119d1565b6105da9190611a2d565b6040518263ffffffff1660e01b81526004016105f69190611689565b60e060405180830381865afa158015610613573d6000803e3d6000fd5b505050506040513d601f19601f820116820180604052508101906106379190611bfe565b60800151905060008111610680576040517f08c379a000000000000000000000000000000000000000000000000000000000815260040161067790611c88565b60405180910390fd5b600360009054906101000a900473ffffffffffffffffffffffffffffffffffffffff1673ffffffffffffffffffffffffffffffffffffffff1663bbca9fd56001600360009054906101000a900473ffffffffffffffffffffffffffffffffffffffff1673ffffffffffffffffffffffffffffffffffffffff1663de71bf076040518163ffffffff1660e01b8152600401602060405180830381865afa15801561072d573d6000803e3d6000fd5b505050506040513d601f19601f8201168201806040525081019061075191906119d1565b61075b9190611a2d565b60006040518363ffffffff1660e01b815260040161077a929190611ce3565b600060405180830381600087803b15801561079457600080fd5b505af11580156107a8573d6000803e3d6000fd5b5050505060003373ffffffffffffffffffffffffffffffffffffffff16826040516107d290611d3d565b60006040518083038185875af1925050503d806000811461080f576040519150601f19603f3d011682016040523d82523d6000602084013e610814565b606091505b5050905080610858576040517f08c379a000000000000000000000000000000000000000000000000000000000815260040161084f90611d9e565b60405180910390fd5b5050610862611467565b565b600160009054906101000a900473ffffffffffffffffffffffffffffffffffffffff1673ffffffffffffffffffffffffffffffffffffffff163373ffffffffffffffffffffffffffffffffffffffff16146108f4576040517f08c379a00000000000000000000000000000000000000000000000000000000081526004016108eb90611e0a565b60405180910390fd5b600280811115610907576109066116a4565b5b600b60019054906101000a900460ff166002811115610929576109286116a4565b5b14610969576040517f08c379a000000000000000000000000000000000000000000000000000000000815260040161096090611e76565b60405180910390fd5b600160009054906101000a900473ffffffffffffffffffffffffffffffffffffffff1673ffffffffffffffffffffffffffffffffffffffff166108fc600a549081150290604051600060405180830381858888f193505050501580156109d3573d6000803e3d6000fd5b50565b60095481565b6000600b60019054906101000a900460ff16905090565b600160009054906101000a900473ffffffffffffffffffffffffffffffffffffffff1673ffffffffffffffffffffffffffffffffffffffff163373ffffffffffffffffffffffffffffffffffffffff1614610a83576040517f08c379a0000000000000000000000000000000000000000000000000000000008152600401610a7a90611e0a565b60405180910390fd5b60016002811115610a9757610a966116a4565b5b600b60019054906101000a900460ff166002811115610ab957610ab86116a4565b5b14610af9576040517f08c379a0000000000000000000000000000000000000000000000000000000008152600401610af090611ee2565b60405180910390fd5b6000600b60016101000a81548160ff02191690836002811115610b1f57610b1e6116a4565b5b02179055507f979e0f22222b399f6e77f2614325775244291877598c6174fd7caf44b4bdfcc560405160405180910390a1565b600a5481565b600360009054906101000a900473ffffffffffffffffffffffffffffffffffffffff1681565b600160009054906101000a900473ffffffffffffffffffffffffffffffffffffffff1673ffffffffffffffffffffffffffffffffffffffff163373ffffffffffffffffffffffffffffffffffffffff1614610c0e576040517f08c379a0000000000000000000000000000000000000000000000000000000008152600401610c0590611e0a565b60405180910390fd5b600280811115610c2157610c206116a4565b5b600b60019054906101000a900460ff166002811115610c4357610c426116a4565b5b14610c83576040517f08c379a0000000000000000000000000000000000000000000000000000000008152600401610c7a90611f74565b60405180910390fd5b426007819055506000600b60016101000a81548160ff02191690836002811115610cb057610caf6116a4565b5b02179055506001600b60006101000a81548160ff0219169083151502179055507fa832766a05f1bd0298b0268308621777cfe1e4eea23afe7c06beea79bc6ddd2d600754600454600554600854604051610d0d9493929190611f94565b60405180910390a1565b60085481565b60075481565b600b60019054906101000a900460ff1681565b600160009054906101000a900473ffffffffffffffffffffffffffffffffffffffff1681565b6000600854905090565b600160009054906101000a900473ffffffffffffffffffffffffffffffffffffffff1673ffffffffffffffffffffffffffffffffffffffff163373ffffffffffffffffffffffffffffffffffffffff1614610df6576040517f08c379a0000000000000000000000000000000000000000000000000000000008152600401610ded90611e0a565b60405180910390fd5b60006002811115610e0a57610e096116a4565b5b600b60019054906101000a900460ff166002811115610e2c57610e2b6116a4565b5b14610e6c576040517f08c379a0000000000000000000000000000000000000000000000000000000008152600401610e6390612025565b60405180910390fd5b6001600b60016101000a81548160ff02191690836002811115610e9257610e916116a4565b5b02179055507f749d6d79623c8cbd2345906702c70ae75d4254a6c409047c16d52fa5a37ef69860405160405180910390a1565b6000600b60009054906101000a900460ff16610ee5576006549050610f1c565b600060075442610ef59190611a2d565b90506006548110610f0a576000915050610f1c565b80600654610f189190611a2d565b9150505b90565b60055481565b6000600654600754610f379190612045565b4210610f47576005549050610f9c565b6000603c60075442610f599190611a2d565b610f6391906120a8565b9050600060095482610f7591906120d9565b90508060045411610f8857600554610f97565b80600454610f969190611a2d565b5b925050505b90565b610fa7611421565b60006002811115610fbb57610fba6116a4565b5b600b60019054906101000a900460ff166002811115610fdd57610fdc6116a4565b5b1461101d576040517f08c379a000000000000000000000000000000000000000000000000000000000815260040161101490612025565b60405180910390fd5b6000611027610f25565b90508034101561106c576040517f08c379a000000000000000000000000000000000000000000000000000000000815260040161106390612167565b60405180910390fd5b6000813461107a91906120a8565b90506008548111156110c1576040517f08c379a00000000000000000000000000000000000000000000000000000000081526004016110b8906121d3565b60405180910390fd5b80600860008282546110d39190611a2d565b9250508190555034600a60008282546110ec9190612045565b92505081905550600360009054906101000a900473ffffffffffffffffffffffffffffffffffffffff1673ffffffffffffffffffffffffffffffffffffffff166330840a3e33346040518363ffffffff1660e01b81526004016111509291906121f3565b600060405180830381600087803b15801561116a57600080fd5b505af115801561117e573d6000803e3d6000fd5b50505050600360009054906101000a900473ffffffffffffffffffffffffffffffffffffffff1673ffffffffffffffffffffffffffffffffffffffff1663743f62636001600360009054906101000a900473ffffffffffffffffffffffffffffffffffffffff1673ffffffffffffffffffffffffffffffffffffffff1663de71bf076040518163ffffffff1660e01b8152600401602060405180830381865afa15801561122f573d6000803e3d6000fd5b505050506040513d601f19601f8201168201806040525081019061125391906119d1565b61125d9190611a2d565b836040518363ffffffff1660e01b815260040161127b92919061221c565b600060405180830381600087803b15801561129557600080fd5b505af11580156112a9573d6000803e3d6000fd5b505050503373ffffffffffffffffffffffffffffffffffffffff167fdf8644c0a4c21ed214ce69f395675b3a5fcd1039083daea5058898de40ea314934836040516112f592919061221c565b60405180910390a26000600854148061131d57506006546007546113199190612045565b4210155b1561132b5761132a611471565b5b5050611335611467565b565b600b60009054906101000a900460ff1681565b60045481565b600260009054906101000a900473ffffffffffffffffffffffffffffffffffffffff1681565b61137e611619565b600360009054906101000a900473ffffffffffffffffffffffffffffffffffffffff1673ffffffffffffffffffffffffffffffffffffffff1663ff6a6d65836040518263ffffffff1660e01b81526004016113d99190611689565b60e060405180830381865afa1580156113f6573d6000803e3d6000fd5b505050506040513d601f19601f8201168201806040525081019061141a9190611bfe565b9050919050565b60026000540361145d576040517f3ee5aeb500000000000000000000000000000000000000000000000000000000815260040160405180910390fd5b6002600081905550565b6001600081905550565b6002600b60016101000a81548160ff02191690836002811115611497576114966116a4565b5b021790555060006008549050600160009054906101000a900473ffffffffffffffffffffffffffffffffffffffff1673ffffffffffffffffffffffffffffffffffffffff166108fc600a549081150290604051600060405180830381858888f1935050505015801561150d573d6000803e3d6000fd5b5060008111156115db57600260009054906101000a900473ffffffffffffffffffffffffffffffffffffffff1673ffffffffffffffffffffffffffffffffffffffff1663a9059cbb600160009054906101000a900473ffffffffffffffffffffffffffffffffffffffff16836040518363ffffffff1660e01b81526004016115969291906121f3565b6020604051808303816000875af11580156115b5573d6000803e3d6000fd5b505050506040513d601f19601f820116820180604052508101906115d99190612245565b505b7fe536ac546f86787f3ea4069f79235c6b5a681e87d051300a3ed19a6ebb0db71c600a548260405161160e92919061221c565b60405180910390a150565b6040518060e0016040528060008152602001600073ffffffffffffffffffffffffffffffffffffffff1681526020016000815260200160008152602001600081526020016000151581526020016000151581525090565b6000819050919050565b61168381611670565b82525050565b600060208201905061169e600083018461167a565b92915050565b7f4e487b7100000000000000000000000000000000000000000000000000000000600052602160045260246000fd5b600381106116e4576116e36116a4565b5b50565b60008190506116f5826116d3565b919050565b6000611705826116e7565b9050919050565b611715816116fa565b82525050565b6000602082019050611730600083018461170c565b92915050565b600073ffffffffffffffffffffffffffffffffffffffff82169050919050565b6000819050919050565b600061177b61177661177184611736565b611756565b611736565b9050919050565b600061178d82611760565b9050919050565b600061179f82611782565b9050919050565b6117af81611794565b82525050565b60006020820190506117ca60008301846117a6565b92915050565b60006117db82611736565b9050919050565b6117eb816117d0565b82525050565b600060208201905061180660008301846117e2565b92915050565b60008115159050919050565b6118218161180c565b82525050565b600060208201905061183c6000830184611818565b92915050565b600061184d82611782565b9050919050565b61185d81611842565b82525050565b60006020820190506118786000830184611854565b92915050565b6000604051905090565b600080fd5b61189681611670565b81146118a157600080fd5b50565b6000813590506118b38161188d565b92915050565b6000602082840312156118cf576118ce611888565b5b60006118dd848285016118a4565b91505092915050565b6118ef81611670565b82525050565b6118fe816117d0565b82525050565b61190d8161180c565b82525050565b60e08201600082015161192960008501826118e6565b50602082015161193c60208501826118f5565b50604082015161194f60408501826118e6565b50606082015161196260608501826118e6565b50608082015161197560808501826118e6565b5060a082015161198860a0850182611904565b5060c082015161199b60c0850182611904565b50505050565b600060e0820190506119b66000830184611913565b92915050565b6000815190506119cb8161188d565b92915050565b6000602082840312156119e7576119e6611888565b5b60006119f5848285016119bc565b91505092915050565b7f4e487b7100000000000000000000000000000000000000000000000000000000600052601160045260246000fd5b6000611a3882611670565b9150611a4383611670565b9250828203905081811115611a5b57611a5a6119fe565b5b92915050565b600080fd5b6000601f19601f8301169050919050565b7f4e487b7100000000000000000000000000000000000000000000000000000000600052604160045260246000fd5b611aaf82611a66565b810181811067ffffffffffffffff82111715611ace57611acd611a77565b5b80604052505050565b6000611ae161187e565b9050611aed8282611aa6565b919050565b611afb816117d0565b8114611b0657600080fd5b50565b600081519050611b1881611af2565b92915050565b611b278161180c565b8114611b3257600080fd5b50565b600081519050611b4481611b1e565b92915050565b600060e08284031215611b6057611b5f611a61565b5b611b6a60e0611ad7565b90506000611b7a848285016119bc565b6000830152506020611b8e84828501611b09565b6020830152506040611ba2848285016119bc565b6040830152506060611bb6848285016119bc565b6060830152506080611bca848285016119bc565b60808301525060a0611bde84828501611b35565b60a08301525060c0611bf284828501611b35565b60c08301525092915050565b600060e08284031215611c1457611c13611888565b5b6000611c2284828501611b4a565b91505092915050565b600082825260208201905092915050565b7f4e6f20726566756e6420617661696c61626c6500000000000000000000000000600082015250565b6000611c72601383611c2b565b9150611c7d82611c3c565b602082019050919050565b60006020820190508181036000830152611ca181611c65565b9050919050565b6000819050919050565b6000611ccd611cc8611cc384611ca8565b611756565b611670565b9050919050565b611cdd81611cb2565b82525050565b6000604082019050611cf8600083018561167a565b611d056020830184611cd4565b9392505050565b600081905092915050565b50565b6000611d27600083611d0c565b9150611d3282611d17565b600082019050919050565b6000611d4882611d1a565b9150819050919050565b7f526566756e64207472616e73666572206661696c656400000000000000000000600082015250565b6000611d88601683611c2b565b9150611d9382611d52565b602082019050919050565b60006020820190508181036000830152611db781611d7b565b9050919050565b7f4e6f7420746865206f776e657200000000000000000000000000000000000000600082015250565b6000611df4600d83611c2b565b9150611dff82611dbe565b602082019050919050565b60006020820190508181036000830152611e2381611de7565b9050919050565b7f41756374696f6e206973206e6f7420636c6f7365640000000000000000000000600082015250565b6000611e60601583611c2b565b9150611e6b82611e2a565b602082019050919050565b60006020820190508181036000830152611e8f81611e53565b9050919050565b7f41756374696f6e206973206e6f74207061757365640000000000000000000000600082015250565b6000611ecc601583611c2b565b9150611ed782611e96565b602082019050919050565b60006020820190508181036000830152611efb81611ebf565b9050919050565b7f41756374696f6e20616c72656164792073746172746564206f7220706175736560008201527f6400000000000000000000000000000000000000000000000000000000000000602082015250565b6000611f5e602183611c2b565b9150611f6982611f02565b604082019050919050565b60006020820190508181036000830152611f8d81611f51565b9050919050565b6000608082019050611fa9600083018761167a565b611fb6602083018661167a565b611fc3604083018561167a565b611fd0606083018461167a565b95945050505050565b7f41756374696f6e206973206e6f74206f70656e00000000000000000000000000600082015250565b600061200f601383611c2b565b915061201a82611fd9565b602082019050919050565b6000602082019050818103600083015261203e81612002565b9050919050565b600061205082611670565b915061205b83611670565b9250828201905080821115612073576120726119fe565b5b92915050565b7f4e487b7100000000000000000000000000000000000000000000000000000000600052601260045260246000fd5b60006120b382611670565b91506120be83611670565b9250826120ce576120cd612079565b5b828204905092915050565b60006120e482611670565b91506120ef83611670565b92508282026120fd81611670565b91508282048414831517612114576121136119fe565b5b5092915050565b7f4269642062656c6f772063757272656e74207072696365000000000000000000600082015250565b6000612151601783611c2b565b915061215c8261211b565b602082019050919050565b6000602082019050818103600083015261218081612144565b9050919050565b7f4e6f7420656e6f75676820746f6b656e73206c65667400000000000000000000600082015250565b60006121bd601683611c2b565b91506121c882612187565b602082019050919050565b600060208201905081810360008301526121ec816121b0565b9050919050565b600060408201905061220860008301856117e2565b612215602083018461167a565b9392505050565b6000604082019050612231600083018561167a565b61223e602083018461167a565b9392505050565b60006020828403121561225b5761225a611888565b5b600061226984828501611b35565b9150509291505056fea2646970667358221220580aa0a1793807ad9148636519f1fabd1022470769bc69eb250acfabd0f368ad64736f6c634300081b0033",
  "linkReferences": {},
  "deployedLinkReferences": {}
}