{
  "_format": "hh-sol-artifact-1",
  "contractName": "DutchAuction",
  "sourceName": "contracts/Auction.sol",
  "abi": [
    {
      "inputs": [
        {
          "internalType": "address",
          "name": "_token",
          "type": "address"
        },
        {
          "internalType": "address",
          "name": "_bidderContract",
          "type": "address"
        },
        {
          "internalType": "uint256",
          "name": "_startPrice",
          "type": "uint256"
        },
        {
          "internalType": "uint256",
          "name": "_reservePrice",
          "type": "uint256"
        },
        {
          "internalType": "uint256",
          "name": "_auctionDuration",
          "type": "uint256"
        },
        {
          "internalType": "uint256",
          "name": "_totalTokens",
          "type": "uint256"
        },
        {
          "internalType": "uint256",
          "name": "_priceDecrement",
          "type": "uint256"
        }
      ],
      "stateMutability": "nonpayable",
      "type": "constructor"
    },
    {
      "inputs": [],
      "name": "ReentrancyGuardReentrantCall",
      "type": "error"
    },
    {
      "anonymous": false,
      "inputs": [
        {
          "indexed": false,
          "internalType": "uint256",
          "name": "totalFundsRaised",
          "type": "uint256"
        },
        {
          "indexed": false,
          "internalType": "uint256",
          "name": "unsoldTokens",
          "type": "uint256"
        }
      ],
      "name": "AuctionEnded",
      "type": "event"
    },
    {
      "anonymous": false,
      "inputs": [],
      "name": "AuctionPaused",
      "type": "event"
    },
    {
      "anonymous": false,
      "inputs": [],
      "name": "AuctionResumed",
      "type": "event"
    },
    {
      "anonymous": false,
      "inputs": [
        {
          "indexed": false,
          "internalType": "uint256",
          "name": "startTime",
          "type": "uint256"
        },
        {
          "indexed": false,
          "internalType": "uint256",
          "name": "startPrice",
          "type": "uint256"
        },
        {
          "indexed": false,
          "internalType": "uint256",
          "name": "reservePrice",
          "type": "uint256"
        },
        {
          "indexed": false,
          "internalType": "uint256",
          "name": "totalTokens",
          "type": "uint256"
        }
      ],
      "name": "AuctionStarted",
      "type": "event"
    },
    {
      "anonymous": false,
      "inputs": [
        {
          "indexed": true,
          "internalType": "address",
          "name": "bidder",
          "type": "address"
        },
        {
          "indexed": false,
          "internalType": "uint256",
          "name": "bidAmount",
          "type": "uint256"
        },
        {
          "indexed": false,
          "internalType": "uint256",
          "name": "tokensAllocated",
          "type": "uint256"
        }
      ],
      "name": "BidPlaced",
      "type": "event"
    },
    {
      "anonymous": false,
      "inputs": [
        {
          "indexed": false,
          "internalType": "string",
          "name": "message",
          "type": "string"
        },
        {
          "indexed": false,
          "internalType": "uint256",
          "name": "value",
          "type": "uint256"
        }
      ],
      "name": "Debug",
      "type": "event"
    },
    {
      "anonymous": false,
      "inputs": [
        {
          "indexed": true,
          "internalType": "uint256",
          "name": "bidderID",
          "type": "uint256"
        },
        {
          "indexed": true,
          "internalType": "address",
          "name": "bidder",
          "type": "address"
        },
        {
          "indexed": false,
          "internalType": "uint256",
          "name": "amount",
          "type": "uint256"
        }
      ],
      "name": "TokensClaimed",
      "type": "event"
    },
    {
      "inputs": [],
      "name": "auctionDuration",
      "outputs": [
        {
          "internalType": "uint256",
          "name": "",
          "type": "uint256"
        }
      ],
      "stateMutability": "view",
      "type": "function"
    },
    {
      "inputs": [],
      "name": "auctionStarted",
      "outputs": [
        {
          "internalType": "bool",
          "name": "",
          "type": "bool"
        }
      ],
      "stateMutability": "view",
      "type": "function"
    },
    {
      "inputs": [],
      "name": "auctionState",
      "outputs": [
        {
          "internalType": "enum DutchAuction.AuctionState",
          "name": "",
          "type": "uint8"
        }
      ],
      "stateMutability": "view",
      "type": "function"
    },
    {
      "inputs": [],
      "name": "bidderContract",
      "outputs": [
        {
          "internalType": "contract Bidder",
          "name": "",
          "type": "address"
        }
      ],
      "stateMutability": "view",
      "type": "function"
    },
    {
      "inputs": [],
      "name": "checkAndEndAuction",
      "outputs": [],
      "stateMutability": "nonpayable",
      "type": "function"
    },
    {
      "inputs": [
        {
          "internalType": "uint256",
          "name": "bidderID",
          "type": "uint256"
        }
      ],
      "name": "claimTokens",
      "outputs": [],
      "stateMutability": "nonpayable",
      "type": "function"
    },
    {
      "inputs": [],
      "name": "getAuctionStatus",
      "outputs": [
        {
          "internalType": "enum DutchAuction.AuctionState",
          "name": "",
          "type": "uint8"
        }
      ],
      "stateMutability": "view",
      "type": "function"
    },
    {
      "inputs": [
        {
          "internalType": "address",
          "name": "bidderAddress",
          "type": "address"
        }
      ],
      "name": "getBidderID",
      "outputs": [
        {
          "internalType": "uint256",
          "name": "",
          "type": "uint256"
        }
      ],
      "stateMutability": "view",
      "type": "function"
    },
    {
      "inputs": [
        {
          "internalType": "uint256",
          "name": "bidderID",
          "type": "uint256"
        }
      ],
      "name": "getBidderInfo",
      "outputs": [
        {
          "components": [
            {
              "internalType": "uint256",
              "name": "bidderID",
              "type": "uint256"
            },
            {
              "internalType": "address",
              "name": "walletAddress",
              "type": "address"
            },
            {
              "internalType": "uint256",
              "name": "bidValue",
              "type": "uint256"
            },
            {
              "internalType": "uint256",
              "name": "tokensPurchased",
              "type": "uint256"
            },
            {
              "internalType": "uint256",
              "name": "refundEth",
              "type": "uint256"
            },
            {
              "internalType": "bool",
              "name": "tokenSent",
              "type": "bool"
            },
            {
              "internalType": "bool",
              "name": "ethRefunded",
              "type": "bool"
            }
          ],
          "internalType": "struct Bidder.BidderInfo",
          "name": "",
          "type": "tuple"
        }
      ],
      "stateMutability": "view",
      "type": "function"
    },
    {
      "inputs": [],
      "name": "getCurrentPrice",
      "outputs": [
        {
          "internalType": "uint256",
          "name": "",
          "type": "uint256"
        }
      ],
      "stateMutability": "view",
      "type": "function"
    },
    {
      "inputs": [],
      "name": "getRemainingTokens",
      "outputs": [
        {
          "internalType": "uint256",
          "name": "",
          "type": "uint256"
        }
      ],
      "stateMutability": "view",
      "type": "function"
    },
    {
      "inputs": [],
      "name": "getStartTime",
      "outputs": [
        {
          "internalType": "uint256",
          "name": "",
          "type": "uint256"
        }
      ],
      "stateMutability": "view",
      "type": "function"
    },
    {
      "inputs": [],
      "name": "getTimeRemaining",
      "outputs": [
        {
          "internalType": "uint256",
          "name": "",
          "type": "uint256"
        }
      ],
      "stateMutability": "view",
      "type": "function"
    },
    {
      "inputs": [],
      "name": "getTotalFundsRaised",
      "outputs": [
        {
          "internalType": "uint256",
          "name": "",
          "type": "uint256"
        }
      ],
      "stateMutability": "view",
      "type": "function"
    },
    {
      "inputs": [
        {
          "internalType": "uint256",
          "name": "secondsToAdd",
          "type": "uint256"
        }
      ],
      "name": "incrementTime",
      "outputs": [],
      "stateMutability": "nonpayable",
      "type": "function"
    },
    {
      "inputs": [],
      "name": "owner",
      "outputs": [
        {
          "internalType": "address",
          "name": "",
          "type": "address"
        }
      ],
      "stateMutability": "view",
      "type": "function"
    },
    {
      "inputs": [],
      "name": "pauseAuction",
      "outputs": [],
      "stateMutability": "nonpayable",
      "type": "function"
    },
    {
      "inputs": [],
      "name": "placeBid",
      "outputs": [],
      "stateMutability": "payable",
      "type": "function"
    },
    {
      "inputs": [],
      "name": "priceDecrement",
      "outputs": [
        {
          "internalType": "uint256",
          "name": "",
          "type": "uint256"
        }
      ],
      "stateMutability": "view",
      "type": "function"
    },
    {
      "inputs": [],
      "name": "reservePrice",
      "outputs": [
        {
          "internalType": "uint256",
          "name": "",
          "type": "uint256"
        }
      ],
      "stateMutability": "view",
      "type": "function"
    },
    {
      "inputs": [],
      "name": "resumeAuction",
      "outputs": [],
      "stateMutability": "nonpayable",
      "type": "function"
    },
    {
      "inputs": [],
      "name": "sendTokens",
      "outputs": [],
      "stateMutability": "nonpayable",
      "type": "function"
    },
    {
      "inputs": [],
      "name": "startAuction",
      "outputs": [],
      "stateMutability": "nonpayable",
      "type": "function"
    },
    {
      "inputs": [],
      "name": "startPrice",
      "outputs": [
        {
          "internalType": "uint256",
          "name": "",
          "type": "uint256"
        }
      ],
      "stateMutability": "view",
      "type": "function"
    },
    {
      "inputs": [],
      "name": "startTime",
      "outputs": [
        {
          "internalType": "uint256",
          "name": "",
          "type": "uint256"
        }
      ],
      "stateMutability": "view",
      "type": "function"
    },
    {
      "inputs": [],
      "name": "timeElapsed",
      "outputs": [
        {
          "internalType": "uint256",
          "name": "",
          "type": "uint256"
        }
      ],
      "stateMutability": "view",
      "type": "function"
    },
    {
      "inputs": [],
      "name": "token",
      "outputs": [
        {
          "internalType": "contract IERC20",
          "name": "",
          "type": "address"
        }
      ],
      "stateMutability": "view",
      "type": "function"
    },
    {
      "inputs": [],
      "name": "totalFundsRaised",
      "outputs": [
        {
          "internalType": "uint256",
          "name": "",
          "type": "uint256"
        }
      ],
      "stateMutability": "view",
      "type": "function"
    },
    {
      "inputs": [],
      "name": "totalTokensAvailable",
      "outputs": [
        {
          "internalType": "uint256",
          "name": "",
          "type": "uint256"
        }
      ],
      "stateMutability": "view",
      "type": "function"
    },
    {
      "inputs": [],
      "name": "withdrawFunds",
      "outputs": [],
      "stateMutability": "nonpayable",
      "type": "function"
    },
    {
      "inputs": [
        {
          "internalType": "uint256",
          "name": "bidderID",
          "type": "uint256"
        }
      ],
      "name": "withdrawRefund",
      "outputs": [],
      "stateMutability": "nonpayable",
      "type": "function"
    }
  ],
  "bytecode": "0x608060405234801561001057600080fd5b50604051613f15380380613f15833981810160405281019061003291906101f0565b600160008190555033600160006101000a81548173ffffffffffffffffffffffffffffffffffffffff021916908373ffffffffffffffffffffffffffffffffffffffff16021790555086600260006101000a81548173ffffffffffffffffffffffffffffffffffffffff021916908373ffffffffffffffffffffffffffffffffffffffff16021790555085600360006101000a81548173ffffffffffffffffffffffffffffffffffffffff021916908373ffffffffffffffffffffffffffffffffffffffff16021790555084600481905550836005819055508260068190555081600881905550806009819055506002600c60016101000a81548160ff0219169083600281111561014657610145610292565b5b0217905550505050505050506102c1565b600080fd5b600073ffffffffffffffffffffffffffffffffffffffff82169050919050565b60006101878261015c565b9050919050565b6101978161017c565b81146101a257600080fd5b50565b6000815190506101b48161018e565b92915050565b6000819050919050565b6101cd816101ba565b81146101d857600080fd5b50565b6000815190506101ea816101c4565b92915050565b600080600080600080600060e0888a03121561020f5761020e610157565b5b600061021d8a828b016101a5565b975050602061022e8a828b016101a5565b965050604061023f8a828b016101db565b95505060606102508a828b016101db565b94505060806102618a828b016101db565b93505060a06102728a828b016101db565b92505060c06102838a828b016101db565b91505092959891949750929550565b7f4e487b7100000000000000000000000000000000000000000000000000000000600052602160045260246000fd5b613c45806102d06000396000f3fe6080604052600436106101d85760003560e01c80637fb4509911610102578063dc2cf3f511610095578063ee2679bc11610064578063ee2679bc146105d9578063f1a9af8914610604578063fc0c546a1461062f578063ff6a6d651461065a576101d8565b8063dc2cf3f514610562578063e47112bd1461058d578063eb91d37e146105a4578063ecfc7ecc146105cf576101d8565b8063b9ae7364116100d1578063b9ae7364146104ca578063c828371e146104e1578063dac6270d1461050c578063db2e1eed14610537576101d8565b80637fb45099146104205780638da5cb5b1461044b5780639d15349514610476578063af35ae271461049f576101d8565b806346e04a2f1161017a5780636b64c769116101495780636b64c769146103765780636dd2cbe51461038d57806378e97925146103b85780637fa6d63f146103e3576101d8565b806346e04a2f146102e257806351b5dbd91461030b578063621de3c414610322578063699ca55f1461034d576101d8565b806326cddbfb116101b657806326cddbfb1461024a5780632e93be301461027557806332353fbd146102a0578063427c0c7f146102b7576101d8565b80630c3e2d2d146101dd5780630cbf54c81461020857806324600fc314610233575b600080fd5b3480156101e957600080fd5b506101f2610697565b6040516101ff919061252e565b60405180910390f35b34801561021457600080fd5b5061021d6106a1565b60405161022a919061252e565b60405180910390f35b34801561023f57600080fd5b506102486106a7565b005b34801561025657600080fd5b5061025f610819565b60405161026c919061252e565b60405180910390f35b34801561028157600080fd5b5061028a61081f565b60405161029791906125c0565b60405180910390f35b3480156102ac57600080fd5b506102b5610836565b005b3480156102c357600080fd5b506102cc610995565b6040516102d9919061252e565b60405180910390f35b3480156102ee57600080fd5b5061030960048036038101906103049190612616565b61099b565b005b34801561031757600080fd5b50610320610d8b565b005b34801561032e57600080fd5b50610337610eba565b60405161034491906126c2565b60405180910390f35b34801561035957600080fd5b50610374600480360381019061036f9190612616565b610ee0565b005b34801561038257600080fd5b5061038b610efc565b005b34801561039957600080fd5b506103a26110ed565b6040516103af919061252e565b60405180910390f35b3480156103c457600080fd5b506103cd6110f3565b6040516103da919061252e565b60405180910390f35b3480156103ef57600080fd5b5061040a6004803603810190610405919061271b565b6110f9565b604051610417919061252e565b60405180910390f35b34801561042c57600080fd5b506104356112cb565b60405161044291906125c0565b60405180910390f35b34801561045757600080fd5b506104606112de565b60405161046d9190612757565b60405180910390f35b34801561048257600080fd5b5061049d60048036038101906104989190612616565b611304565b005b3480156104ab57600080fd5b506104b4611542565b6040516104c1919061252e565b60405180910390f35b3480156104d657600080fd5b506104df61154c565b005b3480156104ed57600080fd5b506104f66116ab565b604051610503919061252e565b60405180910390f35b34801561051857600080fd5b506105216116b5565b60405161052e919061252e565b60405180910390f35b34801561054357600080fd5b5061054c61170f565b604051610559919061252e565b60405180910390f35b34801561056e57600080fd5b50610577611715565b604051610584919061252e565b60405180910390f35b34801561059957600080fd5b506105a261171b565b005b3480156105b057600080fd5b506105b9611c52565b6040516105c6919061252e565b60405180910390f35b6105d7611ccc565b005b3480156105e557600080fd5b506105ee612064565b6040516105fb919061278d565b60405180910390f35b34801561061057600080fd5b50610619612077565b604051610626919061252e565b60405180910390f35b34801561063b57600080fd5b5061064461207d565b60405161065191906127c9565b60405180910390f35b34801561066657600080fd5b50610681600480360381019061067c9190612616565b6120a3565b60405161068e919061289f565b60405180910390f35b6000600a54905090565b60065481565b600160009054906101000a900473ffffffffffffffffffffffffffffffffffffffff1673ffffffffffffffffffffffffffffffffffffffff163373ffffffffffffffffffffffffffffffffffffffff1614610737576040517f08c379a000000000000000000000000000000000000000000000000000000000815260040161072e90612917565b60405180910390fd5b60028081111561074a57610749612549565b5b600c60019054906101000a900460ff16600281111561076c5761076b612549565b5b146107ac576040517f08c379a00000000000000000000000000000000000000000000000000000000081526004016107a390612983565b60405180910390fd5b600160009054906101000a900473ffffffffffffffffffffffffffffffffffffffff1673ffffffffffffffffffffffffffffffffffffffff166108fc600a549081150290604051600060405180830381858888f19350505050158015610816573d6000803e3d6000fd5b50565b60095481565b6000600c60019054906101000a900460ff16905090565b600160009054906101000a900473ffffffffffffffffffffffffffffffffffffffff1673ffffffffffffffffffffffffffffffffffffffff163373ffffffffffffffffffffffffffffffffffffffff16146108c6576040517f08c379a00000000000000000000000000000000000000000000000000000000081526004016108bd90612917565b60405180910390fd5b600160028111156108da576108d9612549565b5b600c60019054906101000a900460ff1660028111156108fc576108fb612549565b5b1461093c576040517f08c379a0000000000000000000000000000000000000000000000000000000008152600401610933906129ef565b60405180910390fd5b6000600c60016101000a81548160ff0219169083600281111561096257610961612549565b5b02179055507f979e0f22222b399f6e77f2614325775244291877598c6174fd7caf44b4bdfcc560405160405180910390a1565b600a5481565b6109a361214e565b6002808111156109b6576109b5612549565b5b600c60019054906101000a900460ff1660028111156109d8576109d7612549565b5b14610a18576040517f08c379a0000000000000000000000000000000000000000000000000000000008152600401610a0f90612983565b60405180910390fd5b6000600360009054906101000a900473ffffffffffffffffffffffffffffffffffffffff1673ffffffffffffffffffffffffffffffffffffffff1663ff6a6d65836040518263ffffffff1660e01b8152600401610a75919061252e565b60e060405180830381865afa158015610a92573d6000803e3d6000fd5b505050506040513d601f19601f82011682018060405250810190610ab69190612baa565b9050806020015173ffffffffffffffffffffffffffffffffffffffff163373ffffffffffffffffffffffffffffffffffffffff1614610b2a576040517f08c379a0000000000000000000000000000000000000000000000000000000008152600401610b2190612c23565b60405180910390fd5b8060a0015115610b6f576040517f08c379a0000000000000000000000000000000000000000000000000000000008152600401610b6690612c8f565b60405180910390fd5b6000816060015111610bb6576040517f08c379a0000000000000000000000000000000000000000000000000000000008152600401610bad90612cfb565b60405180910390fd5b600360009054906101000a900473ffffffffffffffffffffffffffffffffffffffff1673ffffffffffffffffffffffffffffffffffffffff1663edd6b438836040518263ffffffff1660e01b8152600401610c11919061252e565b600060405180830381600087803b158015610c2b57600080fd5b505af1158015610c3f573d6000803e3d6000fd5b505050506000600260009054906101000a900473ffffffffffffffffffffffffffffffffffffffff1673ffffffffffffffffffffffffffffffffffffffff1663a9059cbb3384606001516040518363ffffffff1660e01b8152600401610ca6929190612d1b565b6020604051808303816000875af1158015610cc5573d6000803e3d6000fd5b505050506040513d601f19601f82011682018060405250810190610ce99190612d44565b905080610d2b576040517f08c379a0000000000000000000000000000000000000000000000000000000008152600401610d2290612dbd565b60405180910390fd5b3373ffffffffffffffffffffffffffffffffffffffff16837f880f2ef2613b092f1a0a819f294155c98667eb294b7e6bf7a3810278142c1a1c8460600151604051610d76919061252e565b60405180910390a35050610d88612194565b50565b600c60009054906101000a900460ff16610dda576040517f08c379a0000000000000000000000000000000000000000000000000000000008152600401610dd190612e29565b60405180910390fd5b600060075442610dea9190612e78565b90507f3c5ad147104e56be34a9176a6692f7df8d2f4b29a5af06bc6b98970d329d657781604051610e1b9190612ef8565b60405180910390a16006548110610e72577f3c5ad147104e56be34a9176a6692f7df8d2f4b29a5af06bc6b98970d329d6577600654604051610e5d9190612f98565b60405180910390a1610e6d61219e565b610eb7565b7f3c5ad147104e56be34a9176a6692f7df8d2f4b29a5af06bc6b98970d329d657781600654610ea19190612e78565b604051610eae9190613012565b60405180910390a15b50565b600360009054906101000a900473ffffffffffffffffffffffffffffffffffffffff1681565b80600b6000828254610ef29190613040565b9250508190555050565b600160009054906101000a900473ffffffffffffffffffffffffffffffffffffffff1673ffffffffffffffffffffffffffffffffffffffff163373ffffffffffffffffffffffffffffffffffffffff1614610f8c576040517f08c379a0000000000000000000000000000000000000000000000000000000008152600401610f8390612917565b60405180910390fd5b600280811115610f9f57610f9e612549565b5b600c60019054906101000a900460ff166002811115610fc157610fc0612549565b5b14611001576040517f08c379a0000000000000000000000000000000000000000000000000000000008152600401610ff8906130e6565b60405180910390fd5b600c60009054906101000a900460ff1615611051576040517f08c379a000000000000000000000000000000000000000000000000000000000815260040161104890613152565b60405180910390fd5b426007819055506000600c60016101000a81548160ff0219169083600281111561107e5761107d612549565b5b02179055506001600c60006101000a81548160ff0219169083151502179055506000600b819055507fa832766a05f1bd0298b0268308621777cfe1e4eea23afe7c06beea79bc6ddd2d6007546004546005546008546040516110e39493929190613172565b60405180910390a1565b60085481565b60075481565b600080600360009054906101000a900473ffffffffffffffffffffffffffffffffffffffff1673ffffffffffffffffffffffffffffffffffffffff1663de71bf076040518163ffffffff1660e01b8152600401602060405180830381865afa158015611169573d6000803e3d6000fd5b505050506040513d601f19601f8201168201806040525081019061118d91906131b7565b905060005b8181101561128a576000600360009054906101000a900473ffffffffffffffffffffffffffffffffffffffff1673ffffffffffffffffffffffffffffffffffffffff1663ff6a6d65836040518263ffffffff1660e01b81526004016111f7919061252e565b60e060405180830381865afa158015611214573d6000803e3d6000fd5b505050506040513d601f19601f820116820180604052508101906112389190612baa565b90508473ffffffffffffffffffffffffffffffffffffffff16816020015173ffffffffffffffffffffffffffffffffffffffff160361127c578193505050506112c6565b508080600101915050611192565b506040517f08c379a00000000000000000000000000000000000000000000000000000000081526004016112bd90613230565b60405180910390fd5b919050565b600c60019054906101000a900460ff1681565b600160009054906101000a900473ffffffffffffffffffffffffffffffffffffffff1681565b61130c61214e565b6000600360009054906101000a900473ffffffffffffffffffffffffffffffffffffffff1673ffffffffffffffffffffffffffffffffffffffff1663ff6a6d65836040518263ffffffff1660e01b8152600401611369919061252e565b60e060405180830381865afa158015611386573d6000803e3d6000fd5b505050506040513d601f19601f820116820180604052508101906113aa9190612baa565b9050600081608001519050600081116113f8576040517f08c379a00000000000000000000000000000000000000000000000000000000081526004016113ef9061329c565b60405180910390fd5b600360009054906101000a900473ffffffffffffffffffffffffffffffffffffffff1673ffffffffffffffffffffffffffffffffffffffff1663bbca9fd58460006040518363ffffffff1660e01b81526004016114569291906132f7565b600060405180830381600087803b15801561147057600080fd5b505af1158015611484573d6000803e3d6000fd5b5050505060003373ffffffffffffffffffffffffffffffffffffffff16826040516114ae90613351565b60006040518083038185875af1925050503d80600081146114eb576040519150601f19603f3d011682016040523d82523d6000602084013e6114f0565b606091505b5050905080611534576040517f08c379a000000000000000000000000000000000000000000000000000000000815260040161152b906133b2565b60405180910390fd5b50505061153f612194565b50565b6000600854905090565b600160009054906101000a900473ffffffffffffffffffffffffffffffffffffffff1673ffffffffffffffffffffffffffffffffffffffff163373ffffffffffffffffffffffffffffffffffffffff16146115dc576040517f08c379a00000000000000000000000000000000000000000000000000000000081526004016115d390612917565b60405180910390fd5b600060028111156115f0576115ef612549565b5b600c60019054906101000a900460ff16600281111561161257611611612549565b5b14611652576040517f08c379a00000000000000000000000000000000000000000000000000000000081526004016116499061341e565b60405180910390fd5b6001600c60016101000a81548160ff0219169083600281111561167857611677612549565b5b02179055507f749d6d79623c8cbd2345906702c70ae75d4254a6c409047c16d52fa5a37ef69860405160405180910390a1565b6000600754905090565b6000600c60009054906101000a900460ff166116d557600654905061170c565b6000600754426116e59190612e78565b905060065481106116fa57600091505061170c565b806006546117089190612e78565b9150505b90565b60055481565b600b5481565b60028081111561172e5761172d612549565b5b600c60019054906101000a900460ff1660028111156117505761174f612549565b5b14611790576040517f08c379a00000000000000000000000000000000000000000000000000000000081526004016117879061348a565b60405180910390fd5b6000600360009054906101000a900473ffffffffffffffffffffffffffffffffffffffff1673ffffffffffffffffffffffffffffffffffffffff1663de71bf076040518163ffffffff1660e01b8152600401602060405180830381865afa1580156117ff573d6000803e3d6000fd5b505050506040513d601f19601f8201168201806040525081019061182391906131b7565b90507f3c5ad147104e56be34a9176a6692f7df8d2f4b29a5af06bc6b98970d329d65778160405161185491906134f6565b60405180910390a160005b81811015611c4e576000600360009054906101000a900473ffffffffffffffffffffffffffffffffffffffff1673ffffffffffffffffffffffffffffffffffffffff1663ff6a6d65836040518263ffffffff1660e01b81526004016118c4919061252e565b60e060405180830381865afa1580156118e1573d6000803e3d6000fd5b505050506040513d601f19601f820116820180604052508101906119059190612baa565b90507f3c5ad147104e56be34a9176a6692f7df8d2f4b29a5af06bc6b98970d329d6577826040516119369190613570565b60405180910390a16000816060015111801561195457508060a00151155b15611bb9576000816060015190507f3c5ad147104e56be34a9176a6692f7df8d2f4b29a5af06bc6b98970d329d65778160405161199191906135ea565b60405180910390a17f3c5ad147104e56be34a9176a6692f7df8d2f4b29a5af06bc6b98970d329d6577826020015173ffffffffffffffffffffffffffffffffffffffff166040516119e29190613664565b60405180910390a1600360009054906101000a900473ffffffffffffffffffffffffffffffffffffffff1673ffffffffffffffffffffffffffffffffffffffff1663edd6b438846040518263ffffffff1660e01b8152600401611a45919061252e565b600060405180830381600087803b158015611a5f57600080fd5b505af1158015611a73573d6000803e3d6000fd5b505050506000600260009054906101000a900473ffffffffffffffffffffffffffffffffffffffff1673ffffffffffffffffffffffffffffffffffffffff1663a9059cbb8460200151846040518363ffffffff1660e01b8152600401611ada929190612d1b565b6020604051808303816000875af1158015611af9573d6000803e3d6000fd5b505050506040513d601f19601f82011682018060405250810190611b1d9190612d44565b905080611b5f576040517f08c379a0000000000000000000000000000000000000000000000000000000008152600401611b5690612dbd565b60405180910390fd5b826020015173ffffffffffffffffffffffffffffffffffffffff16847f880f2ef2613b092f1a0a819f294155c98667eb294b7e6bf7a3810278142c1a1c84604051611baa919061252e565b60405180910390a35050611c40565b6000816060015103611bfd577f3c5ad147104e56be34a9176a6692f7df8d2f4b29a5af06bc6b98970d329d657782604051611bf491906136de565b60405180910390a15b8060a0015115611c3f577f3c5ad147104e56be34a9176a6692f7df8d2f4b29a5af06bc6b98970d329d657782604051611c369190613758565b60405180910390a15b5b50808060010191505061185f565b5050565b6000600654600754611c649190613040565b4210611c74576005549050611cc9565b6000603c60075442611c869190612e78565b611c9091906137b5565b9050600060095482611ca291906137e6565b90508060045411611cb557600554611cc4565b80600454611cc39190612e78565b5b925050505b90565b611cd461214e565b60006002811115611ce857611ce7612549565b5b600c60019054906101000a900460ff166002811115611d0a57611d09612549565b5b14611d4a576040517f08c379a0000000000000000000000000000000000000000000000000000000008152600401611d419061341e565b60405180910390fd5b6000611d54611c52565b905080341015611d99576040517f08c379a0000000000000000000000000000000000000000000000000000000008152600401611d9090613874565b60405180910390fd5b60008134611da791906137b5565b9050600854811115611dee576040517f08c379a0000000000000000000000000000000000000000000000000000000008152600401611de5906138e0565b60405180910390fd5b8060086000828254611e009190612e78565b9250508190555034600a6000828254611e199190613040565b92505081905550600360009054906101000a900473ffffffffffffffffffffffffffffffffffffffff1673ffffffffffffffffffffffffffffffffffffffff166330840a3e33346040518363ffffffff1660e01b8152600401611e7d929190612d1b565b600060405180830381600087803b158015611e9757600080fd5b505af1158015611eab573d6000803e3d6000fd5b50505050600360009054906101000a900473ffffffffffffffffffffffffffffffffffffffff1673ffffffffffffffffffffffffffffffffffffffff1663743f62636001600360009054906101000a900473ffffffffffffffffffffffffffffffffffffffff1673ffffffffffffffffffffffffffffffffffffffff1663de71bf076040518163ffffffff1660e01b8152600401602060405180830381865afa158015611f5c573d6000803e3d6000fd5b505050506040513d601f19601f82011682018060405250810190611f8091906131b7565b611f8a9190612e78565b836040518363ffffffff1660e01b8152600401611fa8929190613900565b600060405180830381600087803b158015611fc257600080fd5b505af1158015611fd6573d6000803e3d6000fd5b505050503373ffffffffffffffffffffffffffffffffffffffff167fdf8644c0a4c21ed214ce69f395675b3a5fcd1039083daea5058898de40ea31493483604051612022929190613900565b60405180910390a26000600854148061204a57506006546007546120469190613040565b4210155b156120585761205761219e565b5b5050612062612194565b565b600c60009054906101000a900460ff1681565b60045481565b600260009054906101000a900473ffffffffffffffffffffffffffffffffffffffff1681565b6120ab6124be565b600360009054906101000a900473ffffffffffffffffffffffffffffffffffffffff1673ffffffffffffffffffffffffffffffffffffffff1663ff6a6d65836040518263ffffffff1660e01b8152600401612106919061252e565b60e060405180830381865afa158015612123573d6000803e3d6000fd5b505050506040513d601f19601f820116820180604052508101906121479190612baa565b9050919050565b60026000540361218a576040517f3ee5aeb500000000000000000000000000000000000000000000000000000000815260040160405180910390fd5b6002600081905550565b6001600081905550565b7f3c5ad147104e56be34a9176a6692f7df8d2f4b29a5af06bc6b98970d329d65776008546040516121cf9190613975565b60405180910390a16002600c60016101000a81548160ff021916908360028111156121fd576121fc612549565b5b0217905550600060085490507f3c5ad147104e56be34a9176a6692f7df8d2f4b29a5af06bc6b98970d329d6577600c60019054906101000a900460ff16600281111561224c5761224b612549565b5b60405161225991906139ef565b60405180910390a16000600160009054906101000a900473ffffffffffffffffffffffffffffffffffffffff1673ffffffffffffffffffffffffffffffffffffffff166108fc600a549081150290604051600060405180830381858888f193505050509050806122fe576040517f08c379a00000000000000000000000000000000000000000000000000000000081526004016122f590613a69565b60405180910390fd5b7f3c5ad147104e56be34a9176a6692f7df8d2f4b29a5af06bc6b98970d329d6577600a5460405161232f9190613ad5565b60405180910390a1600082111561247f577f3c5ad147104e56be34a9176a6692f7df8d2f4b29a5af06bc6b98970d329d65778260405161236f9190613b75565b60405180910390a16000600260009054906101000a900473ffffffffffffffffffffffffffffffffffffffff1673ffffffffffffffffffffffffffffffffffffffff1663a9059cbb600160009054906101000a900473ffffffffffffffffffffffffffffffffffffffff16856040518363ffffffff1660e01b81526004016123f8929190612d1b565b6020604051808303816000875af1158015612417573d6000803e3d6000fd5b505050506040513d601f19601f8201168201806040525081019061243b9190612d44565b90508061247d576040517f08c379a000000000000000000000000000000000000000000000000000000000815260040161247490613bef565b60405180910390fd5b505b7fe536ac546f86787f3ea4069f79235c6b5a681e87d051300a3ed19a6ebb0db71c600a54836040516124b2929190613900565b60405180910390a15050565b6040518060e0016040528060008152602001600073ffffffffffffffffffffffffffffffffffffffff1681526020016000815260200160008152602001600081526020016000151581526020016000151581525090565b6000819050919050565b61252881612515565b82525050565b6000602082019050612543600083018461251f565b92915050565b7f4e487b7100000000000000000000000000000000000000000000000000000000600052602160045260246000fd5b6003811061258957612588612549565b5b50565b600081905061259a82612578565b919050565b60006125aa8261258c565b9050919050565b6125ba8161259f565b82525050565b60006020820190506125d560008301846125b1565b92915050565b6000604051905090565b600080fd5b6125f381612515565b81146125fe57600080fd5b50565b600081359050612610816125ea565b92915050565b60006020828403121561262c5761262b6125e5565b5b600061263a84828501612601565b91505092915050565b600073ffffffffffffffffffffffffffffffffffffffff82169050919050565b6000819050919050565b600061268861268361267e84612643565b612663565b612643565b9050919050565b600061269a8261266d565b9050919050565b60006126ac8261268f565b9050919050565b6126bc816126a1565b82525050565b60006020820190506126d760008301846126b3565b92915050565b60006126e882612643565b9050919050565b6126f8816126dd565b811461270357600080fd5b50565b600081359050612715816126ef565b92915050565b600060208284031215612731576127306125e5565b5b600061273f84828501612706565b91505092915050565b612751816126dd565b82525050565b600060208201905061276c6000830184612748565b92915050565b60008115159050919050565b61278781612772565b82525050565b60006020820190506127a2600083018461277e565b92915050565b60006127b38261268f565b9050919050565b6127c3816127a8565b82525050565b60006020820190506127de60008301846127ba565b92915050565b6127ed81612515565b82525050565b6127fc816126dd565b82525050565b61280b81612772565b82525050565b60e08201600082015161282760008501826127e4565b50602082015161283a60208501826127f3565b50604082015161284d60408501826127e4565b50606082015161286060608501826127e4565b50608082015161287360808501826127e4565b5060a082015161288660a0850182612802565b5060c082015161289960c0850182612802565b50505050565b600060e0820190506128b46000830184612811565b92915050565b600082825260208201905092915050565b7f4e6f7420746865206f776e657200000000000000000000000000000000000000600082015250565b6000612901600d836128ba565b915061290c826128cb565b602082019050919050565b60006020820190508181036000830152612930816128f4565b9050919050565b7f41756374696f6e206973206e6f7420636c6f7365640000000000000000000000600082015250565b600061296d6015836128ba565b915061297882612937565b602082019050919050565b6000602082019050818103600083015261299c81612960565b9050919050565b7f41756374696f6e206973206e6f74207061757365640000000000000000000000600082015250565b60006129d96015836128ba565b91506129e4826129a3565b602082019050919050565b60006020820190508181036000830152612a08816129cc565b9050919050565b600080fd5b6000601f19601f8301169050919050565b7f4e487b7100000000000000000000000000000000000000000000000000000000600052604160045260246000fd5b612a5d82612a14565b810181811067ffffffffffffffff82111715612a7c57612a7b612a25565b5b80604052505050565b6000612a8f6125db565b9050612a9b8282612a54565b919050565b600081519050612aaf816125ea565b92915050565b600081519050612ac4816126ef565b92915050565b612ad381612772565b8114612ade57600080fd5b50565b600081519050612af081612aca565b92915050565b600060e08284031215612b0c57612b0b612a0f565b5b612b1660e0612a85565b90506000612b2684828501612aa0565b6000830152506020612b3a84828501612ab5565b6020830152506040612b4e84828501612aa0565b6040830152506060612b6284828501612aa0565b6060830152506080612b7684828501612aa0565b60808301525060a0612b8a84828501612ae1565b60a08301525060c0612b9e84828501612ae1565b60c08301525092915050565b600060e08284031215612bc057612bbf6125e5565b5b6000612bce84828501612af6565b91505092915050565b7f4e6f742074686520626964646572000000000000000000000000000000000000600082015250565b6000612c0d600e836128ba565b9150612c1882612bd7565b602082019050919050565b60006020820190508181036000830152612c3c81612c00565b9050919050565b7f546f6b656e7320616c726561647920636c61696d656400000000000000000000600082015250565b6000612c796016836128ba565b9150612c8482612c43565b602082019050919050565b60006020820190508181036000830152612ca881612c6c565b9050919050565b7f4e6f20746f6b656e7320746f20636c61696d0000000000000000000000000000600082015250565b6000612ce56012836128ba565b9150612cf082612caf565b602082019050919050565b60006020820190508181036000830152612d1481612cd8565b9050919050565b6000604082019050612d306000830185612748565b612d3d602083018461251f565b9392505050565b600060208284031215612d5a57612d596125e5565b5b6000612d6884828501612ae1565b91505092915050565b7f546f6b656e207472616e73666572206661696c65640000000000000000000000600082015250565b6000612da76015836128ba565b9150612db282612d71565b602082019050919050565b60006020820190508181036000830152612dd681612d9a565b9050919050565b7f41756374696f6e20686173206e6f742073746172746564000000000000000000600082015250565b6000612e136017836128ba565b9150612e1e82612ddd565b602082019050919050565b60006020820190508181036000830152612e4281612e06565b9050919050565b7f4e487b7100000000000000000000000000000000000000000000000000000000600052601160045260246000fd5b6000612e8382612515565b9150612e8e83612515565b9250828203905081811115612ea657612ea5612e49565b5b92915050565b7f456c61707365642074696d650000000000000000000000000000000000000000600082015250565b6000612ee2600c836128ba565b9150612eed82612eac565b602082019050919050565b60006040820190508181036000830152612f1181612ed5565b9050612f20602083018461251f565b92915050565b7f41756374696f6e206475726174696f6e206d65742e20456e64696e672061756360008201527f74696f6e2e000000000000000000000000000000000000000000000000000000602082015250565b6000612f826025836128ba565b9150612f8d82612f26565b604082019050919050565b60006040820190508181036000830152612fb181612f75565b9050612fc0602083018461251f565b92915050565b7f41756374696f6e207374696c6c206f6e676f696e670000000000000000000000600082015250565b6000612ffc6015836128ba565b915061300782612fc6565b602082019050919050565b6000604082019050818103600083015261302b81612fef565b905061303a602083018461251f565b92915050565b600061304b82612515565b915061305683612515565b925082820190508082111561306e5761306d612e49565b5b92915050565b7f41756374696f6e20616c72656164792073746172746564206f7220706175736560008201527f6400000000000000000000000000000000000000000000000000000000000000602082015250565b60006130d06021836128ba565b91506130db82613074565b604082019050919050565b600060208201905081810360008301526130ff816130c3565b9050919050565b7f41756374696f6e20616c72656164792073746172746564000000000000000000600082015250565b600061313c6017836128ba565b915061314782613106565b602082019050919050565b6000602082019050818103600083015261316b8161312f565b9050919050565b6000608082019050613187600083018761251f565b613194602083018661251f565b6131a1604083018561251f565b6131ae606083018461251f565b95945050505050565b6000602082840312156131cd576131cc6125e5565b5b60006131db84828501612aa0565b91505092915050565b7f426964646572206e6f7420666f756e6400000000000000000000000000000000600082015250565b600061321a6010836128ba565b9150613225826131e4565b602082019050919050565b600060208201905081810360008301526132498161320d565b9050919050565b7f4e6f20726566756e6420617661696c61626c6500000000000000000000000000600082015250565b60006132866013836128ba565b915061329182613250565b602082019050919050565b600060208201905081810360008301526132b581613279565b9050919050565b6000819050919050565b60006132e16132dc6132d7846132bc565b612663565b612515565b9050919050565b6132f1816132c6565b82525050565b600060408201905061330c600083018561251f565b61331960208301846132e8565b9392505050565b600081905092915050565b50565b600061333b600083613320565b91506133468261332b565b600082019050919050565b600061335c8261332e565b9150819050919050565b7f526566756e64207472616e73666572206661696c656400000000000000000000600082015250565b600061339c6016836128ba565b91506133a782613366565b602082019050919050565b600060208201905081810360008301526133cb8161338f565b9050919050565b7f41756374696f6e206973206e6f74206f70656e00000000000000000000000000600082015250565b60006134086013836128ba565b9150613413826133d2565b602082019050919050565b60006020820190508181036000830152613437816133fb565b9050919050565b7f41756374696f6e20686173206e6f7420656e6465640000000000000000000000600082015250565b60006134746015836128ba565b915061347f8261343e565b602082019050919050565b600060208201905081810360008301526134a381613467565b9050919050565b7f546f74616c204269646465727300000000000000000000000000000000000000600082015250565b60006134e0600d836128ba565b91506134eb826134aa565b602082019050919050565b6000604082019050818103600083015261350f816134d3565b905061351e602083018461251f565b92915050565b7f50726f63657373696e6720426964646572000000000000000000000000000000600082015250565b600061355a6011836128ba565b915061356582613524565b602082019050919050565b600060408201905081810360008301526135898161354d565b9050613598602083018461251f565b92915050565b7f546f6b656e7320746f2062652073656e74000000000000000000000000000000600082015250565b60006135d46011836128ba565b91506135df8261359e565b602082019050919050565b60006040820190508181036000830152613603816135c7565b9050613612602083018461251f565b92915050565b7f4269646465722077616c6c657420616464726573730000000000000000000000600082015250565b600061364e6015836128ba565b915061365982613618565b602082019050919050565b6000604082019050818103600083015261367d81613641565b905061368c602083018461251f565b92915050565b7f4e6f20746f6b656e7320746f2062652073656e7420666f722042696464657200600082015250565b60006136c8601f836128ba565b91506136d382613692565b602082019050919050565b600060408201905081810360008301526136f7816136bb565b9050613706602083018461251f565b92915050565b7f546f6b656e7320616c72656164792073656e7420666f72204269646465720000600082015250565b6000613742601e836128ba565b915061374d8261370c565b602082019050919050565b6000604082019050818103600083015261377181613735565b9050613780602083018461251f565b92915050565b7f4e487b7100000000000000000000000000000000000000000000000000000000600052601260045260246000fd5b60006137c082612515565b91506137cb83612515565b9250826137db576137da613786565b5b828204905092915050565b60006137f182612515565b91506137fc83612515565b925082820261380a81612515565b9150828204841483151761382157613820612e49565b5b5092915050565b7f4269642062656c6f772063757272656e74207072696365000000000000000000600082015250565b600061385e6017836128ba565b915061386982613828565b602082019050919050565b6000602082019050818103600083015261388d81613851565b9050919050565b7f4e6f7420656e6f75676820746f6b656e73206c65667400000000000000000000600082015250565b60006138ca6016836128ba565b91506138d582613894565b602082019050919050565b600060208201905081810360008301526138f9816138bd565b9050919050565b6000604082019050613915600083018561251f565b613922602083018461251f565b9392505050565b7f5374617274696e6720656e6441756374696f6e00000000000000000000000000600082015250565b600061395f6013836128ba565b915061396a82613929565b602082019050919050565b6000604082019050818103600083015261398e81613952565b905061399d602083018461251f565b92915050565b7f41756374696f6e2073746174652073657420746f20434c4f5345440000000000600082015250565b60006139d9601b836128ba565b91506139e4826139a3565b602082019050919050565b60006040820190508181036000830152613a08816139cc565b9050613a17602083018461251f565b92915050565b7f4f776e65722066756e64207472616e73666572206661696c6564000000000000600082015250565b6000613a53601a836128ba565b9150613a5e82613a1d565b602082019050919050565b60006020820190508181036000830152613a8281613a46565b9050919050565b7f4f776e65722066756e6473207472616e73666572726564000000000000000000600082015250565b6000613abf6017836128ba565b9150613aca82613a89565b602082019050919050565b60006040820190508181036000830152613aee81613ab2565b9050613afd602083018461251f565b92915050565b7f5472616e7366657272696e6720756e736f6c6420746f6b656e7320746f206f7760008201527f6e65720000000000000000000000000000000000000000000000000000000000602082015250565b6000613b5f6023836128ba565b9150613b6a82613b03565b604082019050919050565b60006040820190508181036000830152613b8e81613b52565b9050613b9d602083018461251f565b92915050565b7f546f6b656e207472616e7366657220746f206f776e6572206661696c65640000600082015250565b6000613bd9601e836128ba565b9150613be482613ba3565b602082019050919050565b60006020820190508181036000830152613c0881613bcc565b905091905056fea264697066735822122047817d4b86496e7e3363d4e101ab30c904766a8f6de7e674e2ad5afc4800d8a564736f6c634300081b0033",
  "linkReferences": {},
  "deployedLinkReferences": {}
}