{
  "_format": "hh-sol-artifact-1",
  "contractName": "DutchAuction",
  "sourceName": "contracts/Auction.sol",
  "abi": [
    {
      "inputs": [
        {
          "internalType": "address",
          "name": "_token",
          "type": "address"
        },
        {
          "internalType": "address",
          "name": "_bidderContract",
          "type": "address"
        },
        {
          "internalType": "uint256",
          "name": "_startPrice",
          "type": "uint256"
        },
        {
          "internalType": "uint256",
          "name": "_reservePrice",
          "type": "uint256"
        },
        {
          "internalType": "uint256",
          "name": "_auctionDuration",
          "type": "uint256"
        },
        {
          "internalType": "uint256",
          "name": "_totalTokens",
          "type": "uint256"
        },
        {
          "internalType": "uint256",
          "name": "_priceDecrement",
          "type": "uint256"
        }
      ],
      "stateMutability": "nonpayable",
      "type": "constructor"
    },
    {
      "inputs": [],
      "name": "ReentrancyGuardReentrantCall",
      "type": "error"
    },
    {
      "anonymous": false,
      "inputs": [
        {
          "indexed": false,
          "internalType": "uint256",
          "name": "totalFundsRaised",
          "type": "uint256"
        },
        {
          "indexed": false,
          "internalType": "uint256",
          "name": "unsoldTokens",
          "type": "uint256"
        }
      ],
      "name": "AuctionEnded",
      "type": "event"
    },
    {
      "anonymous": false,
      "inputs": [],
      "name": "AuctionPaused",
      "type": "event"
    },
    {
      "anonymous": false,
      "inputs": [],
      "name": "AuctionResumed",
      "type": "event"
    },
    {
      "anonymous": false,
      "inputs": [
        {
          "indexed": false,
          "internalType": "uint256",
          "name": "startTime",
          "type": "uint256"
        },
        {
          "indexed": false,
          "internalType": "uint256",
          "name": "startPrice",
          "type": "uint256"
        },
        {
          "indexed": false,
          "internalType": "uint256",
          "name": "reservePrice",
          "type": "uint256"
        },
        {
          "indexed": false,
          "internalType": "uint256",
          "name": "totalTokens",
          "type": "uint256"
        }
      ],
      "name": "AuctionStarted",
      "type": "event"
    },
    {
      "anonymous": false,
      "inputs": [
        {
          "indexed": true,
          "internalType": "address",
          "name": "bidder",
          "type": "address"
        },
        {
          "indexed": false,
          "internalType": "uint256",
          "name": "bidAmount",
          "type": "uint256"
        },
        {
          "indexed": false,
          "internalType": "uint256",
          "name": "tokensAllocated",
          "type": "uint256"
        }
      ],
      "name": "BidPlaced",
      "type": "event"
    },
    {
      "anonymous": false,
      "inputs": [
        {
          "indexed": false,
          "internalType": "string",
          "name": "message",
          "type": "string"
        },
        {
          "indexed": false,
          "internalType": "uint256",
          "name": "value",
          "type": "uint256"
        }
      ],
      "name": "Debug",
      "type": "event"
    },
    {
      "anonymous": false,
      "inputs": [
        {
          "indexed": true,
          "internalType": "uint256",
          "name": "bidderID",
          "type": "uint256"
        },
        {
          "indexed": true,
          "internalType": "address",
          "name": "bidder",
          "type": "address"
        },
        {
          "indexed": false,
          "internalType": "uint256",
          "name": "amount",
          "type": "uint256"
        }
      ],
      "name": "TokensClaimed",
      "type": "event"
    },
    {
      "anonymous": false,
      "inputs": [
        {
          "indexed": false,
          "internalType": "uint256",
          "name": "previousAmount",
          "type": "uint256"
        },
        {
          "indexed": false,
          "internalType": "uint256",
          "name": "newAmount",
          "type": "uint256"
        }
      ],
      "name": "TokensUpdated",
      "type": "event"
    },
    {
      "inputs": [],
      "name": "auctionDuration",
      "outputs": [
        {
          "internalType": "uint256",
          "name": "",
          "type": "uint256"
        }
      ],
      "stateMutability": "view",
      "type": "function"
    },
    {
      "inputs": [],
      "name": "auctionStarted",
      "outputs": [
        {
          "internalType": "bool",
          "name": "",
          "type": "bool"
        }
      ],
      "stateMutability": "view",
      "type": "function"
    },
    {
      "inputs": [],
      "name": "auctionState",
      "outputs": [
        {
          "internalType": "enum DutchAuction.AuctionState",
          "name": "",
          "type": "uint8"
        }
      ],
      "stateMutability": "view",
      "type": "function"
    },
    {
      "inputs": [],
      "name": "bidderContract",
      "outputs": [
        {
          "internalType": "contract Bidder",
          "name": "",
          "type": "address"
        }
      ],
      "stateMutability": "view",
      "type": "function"
    },
    {
      "inputs": [],
      "name": "checkAndEndAuction",
      "outputs": [],
      "stateMutability": "nonpayable",
      "type": "function"
    },
    {
      "inputs": [
        {
          "internalType": "uint256",
          "name": "bidderID",
          "type": "uint256"
        }
      ],
      "name": "claimTokens",
      "outputs": [],
      "stateMutability": "nonpayable",
      "type": "function"
    },
    {
      "inputs": [],
      "name": "getAuctionStatus",
      "outputs": [
        {
          "internalType": "enum DutchAuction.AuctionState",
          "name": "",
          "type": "uint8"
        }
      ],
      "stateMutability": "view",
      "type": "function"
    },
    {
      "inputs": [
        {
          "internalType": "address",
          "name": "bidderAddress",
          "type": "address"
        }
      ],
      "name": "getBidderID",
      "outputs": [
        {
          "internalType": "uint256",
          "name": "",
          "type": "uint256"
        }
      ],
      "stateMutability": "view",
      "type": "function"
    },
    {
      "inputs": [
        {
          "internalType": "uint256",
          "name": "bidderID",
          "type": "uint256"
        }
      ],
      "name": "getBidderInfo",
      "outputs": [
        {
          "components": [
            {
              "internalType": "uint256",
              "name": "bidderID",
              "type": "uint256"
            },
            {
              "internalType": "address",
              "name": "walletAddress",
              "type": "address"
            },
            {
              "internalType": "uint256",
              "name": "bidValue",
              "type": "uint256"
            },
            {
              "internalType": "uint256",
              "name": "tokensPurchased",
              "type": "uint256"
            },
            {
              "internalType": "uint256",
              "name": "refundEth",
              "type": "uint256"
            },
            {
              "internalType": "bool",
              "name": "tokenSent",
              "type": "bool"
            },
            {
              "internalType": "bool",
              "name": "ethRefunded",
              "type": "bool"
            }
          ],
          "internalType": "struct Bidder.BidderInfo",
          "name": "",
          "type": "tuple"
        }
      ],
      "stateMutability": "view",
      "type": "function"
    },
    {
      "inputs": [],
      "name": "getCurrentPrice",
      "outputs": [
        {
          "internalType": "uint256",
          "name": "",
          "type": "uint256"
        }
      ],
      "stateMutability": "view",
      "type": "function"
    },
    {
      "inputs": [],
      "name": "getRemainingTokens",
      "outputs": [
        {
          "internalType": "uint256",
          "name": "",
          "type": "uint256"
        }
      ],
      "stateMutability": "view",
      "type": "function"
    },
    {
      "inputs": [],
      "name": "getStartTime",
      "outputs": [
        {
          "internalType": "uint256",
          "name": "",
          "type": "uint256"
        }
      ],
      "stateMutability": "view",
      "type": "function"
    },
    {
      "inputs": [],
      "name": "getTimeRemaining",
      "outputs": [
        {
          "internalType": "uint256",
          "name": "",
          "type": "uint256"
        }
      ],
      "stateMutability": "view",
      "type": "function"
    },
    {
      "inputs": [],
      "name": "getTotalFundsRaised",
      "outputs": [
        {
          "internalType": "uint256",
          "name": "",
          "type": "uint256"
        }
      ],
      "stateMutability": "view",
      "type": "function"
    },
    {
      "inputs": [
        {
          "internalType": "uint256",
          "name": "secondsToAdd",
          "type": "uint256"
        }
      ],
      "name": "incrementTime",
      "outputs": [],
      "stateMutability": "nonpayable",
      "type": "function"
    },
    {
      "inputs": [],
      "name": "owner",
      "outputs": [
        {
          "internalType": "address",
          "name": "",
          "type": "address"
        }
      ],
      "stateMutability": "view",
      "type": "function"
    },
    {
      "inputs": [],
      "name": "pauseAuction",
      "outputs": [],
      "stateMutability": "nonpayable",
      "type": "function"
    },
    {
      "inputs": [],
      "name": "placeBid",
      "outputs": [],
      "stateMutability": "payable",
      "type": "function"
    },
    {
      "inputs": [],
      "name": "priceDecrement",
      "outputs": [
        {
          "internalType": "uint256",
          "name": "",
          "type": "uint256"
        }
      ],
      "stateMutability": "view",
      "type": "function"
    },
    {
      "inputs": [],
      "name": "reservePrice",
      "outputs": [
        {
          "internalType": "uint256",
          "name": "",
          "type": "uint256"
        }
      ],
      "stateMutability": "view",
      "type": "function"
    },
    {
      "inputs": [],
      "name": "resumeAuction",
      "outputs": [],
      "stateMutability": "nonpayable",
      "type": "function"
    },
    {
      "inputs": [],
      "name": "sendTokens",
      "outputs": [],
      "stateMutability": "nonpayable",
      "type": "function"
    },
    {
      "inputs": [],
      "name": "startAuction",
      "outputs": [],
      "stateMutability": "nonpayable",
      "type": "function"
    },
    {
      "inputs": [],
      "name": "startPrice",
      "outputs": [
        {
          "internalType": "uint256",
          "name": "",
          "type": "uint256"
        }
      ],
      "stateMutability": "view",
      "type": "function"
    },
    {
      "inputs": [],
      "name": "startTime",
      "outputs": [
        {
          "internalType": "uint256",
          "name": "",
          "type": "uint256"
        }
      ],
      "stateMutability": "view",
      "type": "function"
    },
    {
      "inputs": [],
      "name": "timeElapsed",
      "outputs": [
        {
          "internalType": "uint256",
          "name": "",
          "type": "uint256"
        }
      ],
      "stateMutability": "view",
      "type": "function"
    },
    {
      "inputs": [],
      "name": "token",
      "outputs": [
        {
          "internalType": "contract ERC20Token",
          "name": "",
          "type": "address"
        }
      ],
      "stateMutability": "view",
      "type": "function"
    },
    {
      "inputs": [],
      "name": "totalFundsRaised",
      "outputs": [
        {
          "internalType": "uint256",
          "name": "",
          "type": "uint256"
        }
      ],
      "stateMutability": "view",
      "type": "function"
    },
    {
      "inputs": [],
      "name": "totalTokensAvailable",
      "outputs": [
        {
          "internalType": "uint256",
          "name": "",
          "type": "uint256"
        }
      ],
      "stateMutability": "view",
      "type": "function"
    },
    {
      "inputs": [],
      "name": "withdrawFunds",
      "outputs": [],
      "stateMutability": "nonpayable",
      "type": "function"
    },
    {
      "inputs": [
        {
          "internalType": "uint256",
          "name": "bidderID",
          "type": "uint256"
        }
      ],
      "name": "withdrawRefund",
      "outputs": [],
      "stateMutability": "nonpayable",
      "type": "function"
    }
  ],
  "bytecode": "0x608060405234801561001057600080fd5b50604051613d3f380380613d3f833981810160405281019061003291906101f0565b600160008190555033600160006101000a81548173ffffffffffffffffffffffffffffffffffffffff021916908373ffffffffffffffffffffffffffffffffffffffff16021790555086600260006101000a81548173ffffffffffffffffffffffffffffffffffffffff021916908373ffffffffffffffffffffffffffffffffffffffff16021790555085600360006101000a81548173ffffffffffffffffffffffffffffffffffffffff021916908373ffffffffffffffffffffffffffffffffffffffff16021790555084600481905550836005819055508260068190555081600881905550806009819055506002600c60016101000a81548160ff0219169083600281111561014657610145610292565b5b0217905550505050505050506102c1565b600080fd5b600073ffffffffffffffffffffffffffffffffffffffff82169050919050565b60006101878261015c565b9050919050565b6101978161017c565b81146101a257600080fd5b50565b6000815190506101b48161018e565b92915050565b6000819050919050565b6101cd816101ba565b81146101d857600080fd5b50565b6000815190506101ea816101c4565b92915050565b600080600080600080600060e0888a03121561020f5761020e610157565b5b600061021d8a828b016101a5565b975050602061022e8a828b016101a5565b965050604061023f8a828b016101db565b95505060606102508a828b016101db565b94505060806102618a828b016101db565b93505060a06102728a828b016101db565b92505060c06102838a828b016101db565b91505092959891949750929550565b7f4e487b7100000000000000000000000000000000000000000000000000000000600052602160045260246000fd5b613a6f806102d06000396000f3fe6080604052600436106101d85760003560e01c80637fb4509911610102578063dc2cf3f511610095578063ee2679bc11610064578063ee2679bc146105d9578063f1a9af8914610604578063fc0c546a1461062f578063ff6a6d651461065a576101d8565b8063dc2cf3f514610562578063e47112bd1461058d578063eb91d37e146105a4578063ecfc7ecc146105cf576101d8565b8063b9ae7364116100d1578063b9ae7364146104ca578063c828371e146104e1578063dac6270d1461050c578063db2e1eed14610537576101d8565b80637fb45099146104205780638da5cb5b1461044b5780639d15349514610476578063af35ae271461049f576101d8565b806346e04a2f1161017a5780636b64c769116101495780636b64c769146103765780636dd2cbe51461038d57806378e97925146103b85780637fa6d63f146103e3576101d8565b806346e04a2f146102e257806351b5dbd91461030b578063621de3c414610322578063699ca55f1461034d576101d8565b806326cddbfb116101b657806326cddbfb1461024a5780632e93be301461027557806332353fbd146102a0578063427c0c7f146102b7576101d8565b80630c3e2d2d146101dd5780630cbf54c81461020857806324600fc314610233575b600080fd5b3480156101e957600080fd5b506101f2610697565b6040516101ff9190612456565b60405180910390f35b34801561021457600080fd5b5061021d6106a1565b60405161022a9190612456565b60405180910390f35b34801561023f57600080fd5b506102486106a7565b005b34801561025657600080fd5b5061025f610819565b60405161026c9190612456565b60405180910390f35b34801561028157600080fd5b5061028a61081f565b60405161029791906124e8565b60405180910390f35b3480156102ac57600080fd5b506102b5610836565b005b3480156102c357600080fd5b506102cc610995565b6040516102d99190612456565b60405180910390f35b3480156102ee57600080fd5b506103096004803603810190610304919061253e565b61099b565b005b34801561031757600080fd5b50610320610d8b565b005b34801561032e57600080fd5b50610337610eba565b60405161034491906125ea565b60405180910390f35b34801561035957600080fd5b50610374600480360381019061036f919061253e565b610ee0565b005b34801561038257600080fd5b5061038b610efc565b005b34801561039957600080fd5b506103a26110ed565b6040516103af9190612456565b60405180910390f35b3480156103c457600080fd5b506103cd6110f3565b6040516103da9190612456565b60405180910390f35b3480156103ef57600080fd5b5061040a60048036038101906104059190612643565b6110f9565b6040516104179190612456565b60405180910390f35b34801561042c57600080fd5b506104356112cb565b60405161044291906124e8565b60405180910390f35b34801561045757600080fd5b506104606112de565b60405161046d919061267f565b60405180910390f35b34801561048257600080fd5b5061049d6004803603810190610498919061253e565b611304565b005b3480156104ab57600080fd5b506104b4611542565b6040516104c19190612456565b60405180910390f35b3480156104d657600080fd5b506104df61154c565b005b3480156104ed57600080fd5b506104f66116ab565b6040516105039190612456565b60405180910390f35b34801561051857600080fd5b506105216116b5565b60405161052e9190612456565b60405180910390f35b34801561054357600080fd5b5061054c61170f565b6040516105599190612456565b60405180910390f35b34801561056e57600080fd5b50610577611715565b6040516105849190612456565b60405180910390f35b34801561059957600080fd5b506105a261171b565b005b3480156105b057600080fd5b506105b9611c52565b6040516105c69190612456565b60405180910390f35b6105d7611ccc565b005b3480156105e557600080fd5b506105ee612004565b6040516105fb91906126b5565b60405180910390f35b34801561061057600080fd5b50610619612017565b6040516106269190612456565b60405180910390f35b34801561063b57600080fd5b5061064461201d565b60405161065191906126f1565b60405180910390f35b34801561066657600080fd5b50610681600480360381019061067c919061253e565b612043565b60405161068e91906127c7565b60405180910390f35b6000600a54905090565b60065481565b600160009054906101000a900473ffffffffffffffffffffffffffffffffffffffff1673ffffffffffffffffffffffffffffffffffffffff163373ffffffffffffffffffffffffffffffffffffffff1614610737576040517f08c379a000000000000000000000000000000000000000000000000000000000815260040161072e9061283f565b60405180910390fd5b60028081111561074a57610749612471565b5b600c60019054906101000a900460ff16600281111561076c5761076b612471565b5b146107ac576040517f08c379a00000000000000000000000000000000000000000000000000000000081526004016107a3906128ab565b60405180910390fd5b600160009054906101000a900473ffffffffffffffffffffffffffffffffffffffff1673ffffffffffffffffffffffffffffffffffffffff166108fc600a549081150290604051600060405180830381858888f19350505050158015610816573d6000803e3d6000fd5b50565b60095481565b6000600c60019054906101000a900460ff16905090565b600160009054906101000a900473ffffffffffffffffffffffffffffffffffffffff1673ffffffffffffffffffffffffffffffffffffffff163373ffffffffffffffffffffffffffffffffffffffff16146108c6576040517f08c379a00000000000000000000000000000000000000000000000000000000081526004016108bd9061283f565b60405180910390fd5b600160028111156108da576108d9612471565b5b600c60019054906101000a900460ff1660028111156108fc576108fb612471565b5b1461093c576040517f08c379a000000000000000000000000000000000000000000000000000000000815260040161093390612917565b60405180910390fd5b6000600c60016101000a81548160ff0219169083600281111561096257610961612471565b5b02179055507f979e0f22222b399f6e77f2614325775244291877598c6174fd7caf44b4bdfcc560405160405180910390a1565b600a5481565b6109a36120ee565b6002808111156109b6576109b5612471565b5b600c60019054906101000a900460ff1660028111156109d8576109d7612471565b5b14610a18576040517f08c379a0000000000000000000000000000000000000000000000000000000008152600401610a0f906128ab565b60405180910390fd5b6000600360009054906101000a900473ffffffffffffffffffffffffffffffffffffffff1673ffffffffffffffffffffffffffffffffffffffff1663ff6a6d65836040518263ffffffff1660e01b8152600401610a759190612456565b60e060405180830381865afa158015610a92573d6000803e3d6000fd5b505050506040513d601f19601f82011682018060405250810190610ab69190612ad2565b9050806020015173ffffffffffffffffffffffffffffffffffffffff163373ffffffffffffffffffffffffffffffffffffffff1614610b2a576040517f08c379a0000000000000000000000000000000000000000000000000000000008152600401610b2190612b4b565b60405180910390fd5b8060a0015115610b6f576040517f08c379a0000000000000000000000000000000000000000000000000000000008152600401610b6690612bb7565b60405180910390fd5b6000816060015111610bb6576040517f08c379a0000000000000000000000000000000000000000000000000000000008152600401610bad90612c23565b60405180910390fd5b600360009054906101000a900473ffffffffffffffffffffffffffffffffffffffff1673ffffffffffffffffffffffffffffffffffffffff1663edd6b438836040518263ffffffff1660e01b8152600401610c119190612456565b600060405180830381600087803b158015610c2b57600080fd5b505af1158015610c3f573d6000803e3d6000fd5b505050506000600260009054906101000a900473ffffffffffffffffffffffffffffffffffffffff1673ffffffffffffffffffffffffffffffffffffffff1663a9059cbb3384606001516040518363ffffffff1660e01b8152600401610ca6929190612c43565b6020604051808303816000875af1158015610cc5573d6000803e3d6000fd5b505050506040513d601f19601f82011682018060405250810190610ce99190612c6c565b905080610d2b576040517f08c379a0000000000000000000000000000000000000000000000000000000008152600401610d2290612ce5565b60405180910390fd5b3373ffffffffffffffffffffffffffffffffffffffff16837f880f2ef2613b092f1a0a819f294155c98667eb294b7e6bf7a3810278142c1a1c8460600151604051610d769190612456565b60405180910390a35050610d88612134565b50565b600c60009054906101000a900460ff16610dda576040517f08c379a0000000000000000000000000000000000000000000000000000000008152600401610dd190612d51565b60405180910390fd5b600060075442610dea9190612da0565b90507f3c5ad147104e56be34a9176a6692f7df8d2f4b29a5af06bc6b98970d329d657781604051610e1b9190612e20565b60405180910390a16006548110610e72577f3c5ad147104e56be34a9176a6692f7df8d2f4b29a5af06bc6b98970d329d6577600654604051610e5d9190612ec0565b60405180910390a1610e6d61213e565b610eb7565b7f3c5ad147104e56be34a9176a6692f7df8d2f4b29a5af06bc6b98970d329d657781600654610ea19190612da0565b604051610eae9190612f3a565b60405180910390a15b50565b600360009054906101000a900473ffffffffffffffffffffffffffffffffffffffff1681565b80600b6000828254610ef29190612f68565b9250508190555050565b600160009054906101000a900473ffffffffffffffffffffffffffffffffffffffff1673ffffffffffffffffffffffffffffffffffffffff163373ffffffffffffffffffffffffffffffffffffffff1614610f8c576040517f08c379a0000000000000000000000000000000000000000000000000000000008152600401610f839061283f565b60405180910390fd5b600280811115610f9f57610f9e612471565b5b600c60019054906101000a900460ff166002811115610fc157610fc0612471565b5b14611001576040517f08c379a0000000000000000000000000000000000000000000000000000000008152600401610ff89061300e565b60405180910390fd5b600c60009054906101000a900460ff1615611051576040517f08c379a00000000000000000000000000000000000000000000000000000000081526004016110489061307a565b60405180910390fd5b426007819055506000600c60016101000a81548160ff0219169083600281111561107e5761107d612471565b5b02179055506001600c60006101000a81548160ff0219169083151502179055506000600b819055507fa832766a05f1bd0298b0268308621777cfe1e4eea23afe7c06beea79bc6ddd2d6007546004546005546008546040516110e3949392919061309a565b60405180910390a1565b60085481565b60075481565b600080600360009054906101000a900473ffffffffffffffffffffffffffffffffffffffff1673ffffffffffffffffffffffffffffffffffffffff1663de71bf076040518163ffffffff1660e01b8152600401602060405180830381865afa158015611169573d6000803e3d6000fd5b505050506040513d601f19601f8201168201806040525081019061118d91906130df565b905060005b8181101561128a576000600360009054906101000a900473ffffffffffffffffffffffffffffffffffffffff1673ffffffffffffffffffffffffffffffffffffffff1663ff6a6d65836040518263ffffffff1660e01b81526004016111f79190612456565b60e060405180830381865afa158015611214573d6000803e3d6000fd5b505050506040513d601f19601f820116820180604052508101906112389190612ad2565b90508473ffffffffffffffffffffffffffffffffffffffff16816020015173ffffffffffffffffffffffffffffffffffffffff160361127c578193505050506112c6565b508080600101915050611192565b506040517f08c379a00000000000000000000000000000000000000000000000000000000081526004016112bd90613158565b60405180910390fd5b919050565b600c60019054906101000a900460ff1681565b600160009054906101000a900473ffffffffffffffffffffffffffffffffffffffff1681565b61130c6120ee565b6000600360009054906101000a900473ffffffffffffffffffffffffffffffffffffffff1673ffffffffffffffffffffffffffffffffffffffff1663ff6a6d65836040518263ffffffff1660e01b81526004016113699190612456565b60e060405180830381865afa158015611386573d6000803e3d6000fd5b505050506040513d601f19601f820116820180604052508101906113aa9190612ad2565b9050600081608001519050600081116113f8576040517f08c379a00000000000000000000000000000000000000000000000000000000081526004016113ef906131c4565b60405180910390fd5b600360009054906101000a900473ffffffffffffffffffffffffffffffffffffffff1673ffffffffffffffffffffffffffffffffffffffff1663bbca9fd58460006040518363ffffffff1660e01b815260040161145692919061321f565b600060405180830381600087803b15801561147057600080fd5b505af1158015611484573d6000803e3d6000fd5b5050505060003373ffffffffffffffffffffffffffffffffffffffff16826040516114ae90613279565b60006040518083038185875af1925050503d80600081146114eb576040519150601f19603f3d011682016040523d82523d6000602084013e6114f0565b606091505b5050905080611534576040517f08c379a000000000000000000000000000000000000000000000000000000000815260040161152b906132da565b60405180910390fd5b50505061153f612134565b50565b6000600854905090565b600160009054906101000a900473ffffffffffffffffffffffffffffffffffffffff1673ffffffffffffffffffffffffffffffffffffffff163373ffffffffffffffffffffffffffffffffffffffff16146115dc576040517f08c379a00000000000000000000000000000000000000000000000000000000081526004016115d39061283f565b60405180910390fd5b600060028111156115f0576115ef612471565b5b600c60019054906101000a900460ff16600281111561161257611611612471565b5b14611652576040517f08c379a000000000000000000000000000000000000000000000000000000000815260040161164990613346565b60405180910390fd5b6001600c60016101000a81548160ff0219169083600281111561167857611677612471565b5b02179055507f749d6d79623c8cbd2345906702c70ae75d4254a6c409047c16d52fa5a37ef69860405160405180910390a1565b6000600754905090565b6000600c60009054906101000a900460ff166116d557600654905061170c565b6000600754426116e59190612da0565b905060065481106116fa57600091505061170c565b806006546117089190612da0565b9150505b90565b60055481565b600b5481565b60028081111561172e5761172d612471565b5b600c60019054906101000a900460ff1660028111156117505761174f612471565b5b14611790576040517f08c379a0000000000000000000000000000000000000000000000000000000008152600401611787906133b2565b60405180910390fd5b6000600360009054906101000a900473ffffffffffffffffffffffffffffffffffffffff1673ffffffffffffffffffffffffffffffffffffffff1663de71bf076040518163ffffffff1660e01b8152600401602060405180830381865afa1580156117ff573d6000803e3d6000fd5b505050506040513d601f19601f8201168201806040525081019061182391906130df565b90507f3c5ad147104e56be34a9176a6692f7df8d2f4b29a5af06bc6b98970d329d657781604051611854919061341e565b60405180910390a160005b81811015611c4e576000600360009054906101000a900473ffffffffffffffffffffffffffffffffffffffff1673ffffffffffffffffffffffffffffffffffffffff1663ff6a6d65836040518263ffffffff1660e01b81526004016118c49190612456565b60e060405180830381865afa1580156118e1573d6000803e3d6000fd5b505050506040513d601f19601f820116820180604052508101906119059190612ad2565b90507f3c5ad147104e56be34a9176a6692f7df8d2f4b29a5af06bc6b98970d329d6577826040516119369190613498565b60405180910390a16000816060015111801561195457508060a00151155b15611bb9576000816060015190507f3c5ad147104e56be34a9176a6692f7df8d2f4b29a5af06bc6b98970d329d6577816040516119919190613512565b60405180910390a17f3c5ad147104e56be34a9176a6692f7df8d2f4b29a5af06bc6b98970d329d6577826020015173ffffffffffffffffffffffffffffffffffffffff166040516119e2919061358c565b60405180910390a1600360009054906101000a900473ffffffffffffffffffffffffffffffffffffffff1673ffffffffffffffffffffffffffffffffffffffff1663edd6b438846040518263ffffffff1660e01b8152600401611a459190612456565b600060405180830381600087803b158015611a5f57600080fd5b505af1158015611a73573d6000803e3d6000fd5b505050506000600260009054906101000a900473ffffffffffffffffffffffffffffffffffffffff1673ffffffffffffffffffffffffffffffffffffffff1663a9059cbb8460200151846040518363ffffffff1660e01b8152600401611ada929190612c43565b6020604051808303816000875af1158015611af9573d6000803e3d6000fd5b505050506040513d601f19601f82011682018060405250810190611b1d9190612c6c565b905080611b5f576040517f08c379a0000000000000000000000000000000000000000000000000000000008152600401611b5690612ce5565b60405180910390fd5b826020015173ffffffffffffffffffffffffffffffffffffffff16847f880f2ef2613b092f1a0a819f294155c98667eb294b7e6bf7a3810278142c1a1c84604051611baa9190612456565b60405180910390a35050611c40565b6000816060015103611bfd577f3c5ad147104e56be34a9176a6692f7df8d2f4b29a5af06bc6b98970d329d657782604051611bf49190613606565b60405180910390a15b8060a0015115611c3f577f3c5ad147104e56be34a9176a6692f7df8d2f4b29a5af06bc6b98970d329d657782604051611c369190613680565b60405180910390a15b5b50808060010191505061185f565b5050565b6000600654600754611c649190612f68565b4210611c74576005549050611cc9565b6000603c60075442611c869190612da0565b611c9091906136dd565b9050600060095482611ca2919061370e565b90508060045411611cb557600554611cc4565b80600454611cc39190612da0565b5b925050505b90565b611cd46120ee565b6000600854905060006002811115611cef57611cee612471565b5b600c60019054906101000a900460ff166002811115611d1157611d10612471565b5b14611d51576040517f08c379a0000000000000000000000000000000000000000000000000000000008152600401611d4890613346565b60405180910390fd5b6000611d5b611c52565b905080341015611da0576040517f08c379a0000000000000000000000000000000000000000000000000000000008152600401611d979061379c565b60405180910390fd5b600081670de0b6b3a764000034611db7919061370e565b611dc191906136dd565b9050600854811015611deb578060086000828254611ddf9190612da0565b92505081905550611df9565b600854905060006008819055505b34600a6000828254611e0b9190612f68565b92505081905550600360009054906101000a900473ffffffffffffffffffffffffffffffffffffffff1673ffffffffffffffffffffffffffffffffffffffff166330840a3e33346040518363ffffffff1660e01b8152600401611e6f929190612c43565b600060405180830381600087803b158015611e8957600080fd5b505af1158015611e9d573d6000803e3d6000fd5b505050506000611eac336110f9565b9050600360009054906101000a900473ffffffffffffffffffffffffffffffffffffffff1673ffffffffffffffffffffffffffffffffffffffff1663743f626382846040518363ffffffff1660e01b8152600401611f0b9291906137bc565b600060405180830381600087803b158015611f2557600080fd5b505af1158015611f39573d6000803e3d6000fd5b505050503373ffffffffffffffffffffffffffffffffffffffff167fdf8644c0a4c21ed214ce69f395675b3a5fcd1039083daea5058898de40ea31493484604051611f859291906137bc565b60405180910390a27ff105663ccf6d4827107bca7dc71ab43b4bfdb070b1dfe80c1bd87abdb229f9d484600854604051611fc09291906137bc565b60405180910390a160006008541480611fe85750600654600754611fe49190612f68565b4210155b15611ff657611ff561213e565b5b50505050612002612134565b565b600c60009054906101000a900460ff1681565b60045481565b600260009054906101000a900473ffffffffffffffffffffffffffffffffffffffff1681565b61204b6123e6565b600360009054906101000a900473ffffffffffffffffffffffffffffffffffffffff1673ffffffffffffffffffffffffffffffffffffffff1663ff6a6d65836040518263ffffffff1660e01b81526004016120a69190612456565b60e060405180830381865afa1580156120c3573d6000803e3d6000fd5b505050506040513d601f19601f820116820180604052508101906120e79190612ad2565b9050919050565b60026000540361212a576040517f3ee5aeb500000000000000000000000000000000000000000000000000000000815260040160405180910390fd5b6002600081905550565b6001600081905550565b7f3c5ad147104e56be34a9176a6692f7df8d2f4b29a5af06bc6b98970d329d657760085460405161216f9190613831565b60405180910390a16002600c60016101000a81548160ff0219169083600281111561219d5761219c612471565b5b0217905550600060085490507f3c5ad147104e56be34a9176a6692f7df8d2f4b29a5af06bc6b98970d329d6577600c60019054906101000a900460ff1660028111156121ec576121eb612471565b5b6040516121f991906138ab565b60405180910390a16000600160009054906101000a900473ffffffffffffffffffffffffffffffffffffffff1673ffffffffffffffffffffffffffffffffffffffff166108fc600a549081150290604051600060405180830381858888f1935050505090508061229e576040517f08c379a000000000000000000000000000000000000000000000000000000000815260040161229590613925565b60405180910390fd5b7f3c5ad147104e56be34a9176a6692f7df8d2f4b29a5af06bc6b98970d329d6577600a546040516122cf9190613991565b60405180910390a160008211156123a7577f3c5ad147104e56be34a9176a6692f7df8d2f4b29a5af06bc6b98970d329d65778260405161230f9190613a0b565b60405180910390a1600260009054906101000a900473ffffffffffffffffffffffffffffffffffffffff1673ffffffffffffffffffffffffffffffffffffffff16639dc29fac30846040518363ffffffff1660e01b8152600401612374929190612c43565b600060405180830381600087803b15801561238e57600080fd5b505af11580156123a2573d6000803e3d6000fd5b505050505b7fe536ac546f86787f3ea4069f79235c6b5a681e87d051300a3ed19a6ebb0db71c600a54836040516123da9291906137bc565b60405180910390a15050565b6040518060e0016040528060008152602001600073ffffffffffffffffffffffffffffffffffffffff1681526020016000815260200160008152602001600081526020016000151581526020016000151581525090565b6000819050919050565b6124508161243d565b82525050565b600060208201905061246b6000830184612447565b92915050565b7f4e487b7100000000000000000000000000000000000000000000000000000000600052602160045260246000fd5b600381106124b1576124b0612471565b5b50565b60008190506124c2826124a0565b919050565b60006124d2826124b4565b9050919050565b6124e2816124c7565b82525050565b60006020820190506124fd60008301846124d9565b92915050565b6000604051905090565b600080fd5b61251b8161243d565b811461252657600080fd5b50565b60008135905061253881612512565b92915050565b6000602082840312156125545761255361250d565b5b600061256284828501612529565b91505092915050565b600073ffffffffffffffffffffffffffffffffffffffff82169050919050565b6000819050919050565b60006125b06125ab6125a68461256b565b61258b565b61256b565b9050919050565b60006125c282612595565b9050919050565b60006125d4826125b7565b9050919050565b6125e4816125c9565b82525050565b60006020820190506125ff60008301846125db565b92915050565b60006126108261256b565b9050919050565b61262081612605565b811461262b57600080fd5b50565b60008135905061263d81612617565b92915050565b6000602082840312156126595761265861250d565b5b60006126678482850161262e565b91505092915050565b61267981612605565b82525050565b60006020820190506126946000830184612670565b92915050565b60008115159050919050565b6126af8161269a565b82525050565b60006020820190506126ca60008301846126a6565b92915050565b60006126db826125b7565b9050919050565b6126eb816126d0565b82525050565b600060208201905061270660008301846126e2565b92915050565b6127158161243d565b82525050565b61272481612605565b82525050565b6127338161269a565b82525050565b60e08201600082015161274f600085018261270c565b506020820151612762602085018261271b565b506040820151612775604085018261270c565b506060820151612788606085018261270c565b50608082015161279b608085018261270c565b5060a08201516127ae60a085018261272a565b5060c08201516127c160c085018261272a565b50505050565b600060e0820190506127dc6000830184612739565b92915050565b600082825260208201905092915050565b7f4e6f7420746865206f776e657200000000000000000000000000000000000000600082015250565b6000612829600d836127e2565b9150612834826127f3565b602082019050919050565b600060208201905081810360008301526128588161281c565b9050919050565b7f41756374696f6e206973206e6f7420636c6f7365640000000000000000000000600082015250565b60006128956015836127e2565b91506128a08261285f565b602082019050919050565b600060208201905081810360008301526128c481612888565b9050919050565b7f41756374696f6e206973206e6f74207061757365640000000000000000000000600082015250565b60006129016015836127e2565b915061290c826128cb565b602082019050919050565b60006020820190508181036000830152612930816128f4565b9050919050565b600080fd5b6000601f19601f8301169050919050565b7f4e487b7100000000000000000000000000000000000000000000000000000000600052604160045260246000fd5b6129858261293c565b810181811067ffffffffffffffff821117156129a4576129a361294d565b5b80604052505050565b60006129b7612503565b90506129c3828261297c565b919050565b6000815190506129d781612512565b92915050565b6000815190506129ec81612617565b92915050565b6129fb8161269a565b8114612a0657600080fd5b50565b600081519050612a18816129f2565b92915050565b600060e08284031215612a3457612a33612937565b5b612a3e60e06129ad565b90506000612a4e848285016129c8565b6000830152506020612a62848285016129dd565b6020830152506040612a76848285016129c8565b6040830152506060612a8a848285016129c8565b6060830152506080612a9e848285016129c8565b60808301525060a0612ab284828501612a09565b60a08301525060c0612ac684828501612a09565b60c08301525092915050565b600060e08284031215612ae857612ae761250d565b5b6000612af684828501612a1e565b91505092915050565b7f4e6f742074686520626964646572000000000000000000000000000000000000600082015250565b6000612b35600e836127e2565b9150612b4082612aff565b602082019050919050565b60006020820190508181036000830152612b6481612b28565b9050919050565b7f546f6b656e7320616c726561647920636c61696d656400000000000000000000600082015250565b6000612ba16016836127e2565b9150612bac82612b6b565b602082019050919050565b60006020820190508181036000830152612bd081612b94565b9050919050565b7f4e6f20746f6b656e7320746f20636c61696d0000000000000000000000000000600082015250565b6000612c0d6012836127e2565b9150612c1882612bd7565b602082019050919050565b60006020820190508181036000830152612c3c81612c00565b9050919050565b6000604082019050612c586000830185612670565b612c656020830184612447565b9392505050565b600060208284031215612c8257612c8161250d565b5b6000612c9084828501612a09565b91505092915050565b7f546f6b656e207472616e73666572206661696c65640000000000000000000000600082015250565b6000612ccf6015836127e2565b9150612cda82612c99565b602082019050919050565b60006020820190508181036000830152612cfe81612cc2565b9050919050565b7f41756374696f6e20686173206e6f742073746172746564000000000000000000600082015250565b6000612d3b6017836127e2565b9150612d4682612d05565b602082019050919050565b60006020820190508181036000830152612d6a81612d2e565b9050919050565b7f4e487b7100000000000000000000000000000000000000000000000000000000600052601160045260246000fd5b6000612dab8261243d565b9150612db68361243d565b9250828203905081811115612dce57612dcd612d71565b5b92915050565b7f456c61707365642074696d650000000000000000000000000000000000000000600082015250565b6000612e0a600c836127e2565b9150612e1582612dd4565b602082019050919050565b60006040820190508181036000830152612e3981612dfd565b9050612e486020830184612447565b92915050565b7f41756374696f6e206475726174696f6e206d65742e20456e64696e672061756360008201527f74696f6e2e000000000000000000000000000000000000000000000000000000602082015250565b6000612eaa6025836127e2565b9150612eb582612e4e565b604082019050919050565b60006040820190508181036000830152612ed981612e9d565b9050612ee86020830184612447565b92915050565b7f41756374696f6e207374696c6c206f6e676f696e670000000000000000000000600082015250565b6000612f246015836127e2565b9150612f2f82612eee565b602082019050919050565b60006040820190508181036000830152612f5381612f17565b9050612f626020830184612447565b92915050565b6000612f738261243d565b9150612f7e8361243d565b9250828201905080821115612f9657612f95612d71565b5b92915050565b7f41756374696f6e20616c72656164792073746172746564206f7220706175736560008201527f6400000000000000000000000000000000000000000000000000000000000000602082015250565b6000612ff86021836127e2565b915061300382612f9c565b604082019050919050565b6000602082019050818103600083015261302781612feb565b9050919050565b7f41756374696f6e20616c72656164792073746172746564000000000000000000600082015250565b60006130646017836127e2565b915061306f8261302e565b602082019050919050565b6000602082019050818103600083015261309381613057565b9050919050565b60006080820190506130af6000830187612447565b6130bc6020830186612447565b6130c96040830185612447565b6130d66060830184612447565b95945050505050565b6000602082840312156130f5576130f461250d565b5b6000613103848285016129c8565b91505092915050565b7f426964646572206e6f7420666f756e6400000000000000000000000000000000600082015250565b60006131426010836127e2565b915061314d8261310c565b602082019050919050565b6000602082019050818103600083015261317181613135565b9050919050565b7f4e6f20726566756e6420617661696c61626c6500000000000000000000000000600082015250565b60006131ae6013836127e2565b91506131b982613178565b602082019050919050565b600060208201905081810360008301526131dd816131a1565b9050919050565b6000819050919050565b60006132096132046131ff846131e4565b61258b565b61243d565b9050919050565b613219816131ee565b82525050565b60006040820190506132346000830185612447565b6132416020830184613210565b9392505050565b600081905092915050565b50565b6000613263600083613248565b915061326e82613253565b600082019050919050565b600061328482613256565b9150819050919050565b7f526566756e64207472616e73666572206661696c656400000000000000000000600082015250565b60006132c46016836127e2565b91506132cf8261328e565b602082019050919050565b600060208201905081810360008301526132f3816132b7565b9050919050565b7f41756374696f6e206973206e6f74206f70656e00000000000000000000000000600082015250565b60006133306013836127e2565b915061333b826132fa565b602082019050919050565b6000602082019050818103600083015261335f81613323565b9050919050565b7f41756374696f6e20686173206e6f7420656e6465640000000000000000000000600082015250565b600061339c6015836127e2565b91506133a782613366565b602082019050919050565b600060208201905081810360008301526133cb8161338f565b9050919050565b7f546f74616c204269646465727300000000000000000000000000000000000000600082015250565b6000613408600d836127e2565b9150613413826133d2565b602082019050919050565b60006040820190508181036000830152613437816133fb565b90506134466020830184612447565b92915050565b7f50726f63657373696e6720426964646572000000000000000000000000000000600082015250565b60006134826011836127e2565b915061348d8261344c565b602082019050919050565b600060408201905081810360008301526134b181613475565b90506134c06020830184612447565b92915050565b7f546f6b656e7320746f2062652073656e74000000000000000000000000000000600082015250565b60006134fc6011836127e2565b9150613507826134c6565b602082019050919050565b6000604082019050818103600083015261352b816134ef565b905061353a6020830184612447565b92915050565b7f4269646465722077616c6c657420616464726573730000000000000000000000600082015250565b60006135766015836127e2565b915061358182613540565b602082019050919050565b600060408201905081810360008301526135a581613569565b90506135b46020830184612447565b92915050565b7f4e6f20746f6b656e7320746f2062652073656e7420666f722042696464657200600082015250565b60006135f0601f836127e2565b91506135fb826135ba565b602082019050919050565b6000604082019050818103600083015261361f816135e3565b905061362e6020830184612447565b92915050565b7f546f6b656e7320616c72656164792073656e7420666f72204269646465720000600082015250565b600061366a601e836127e2565b915061367582613634565b602082019050919050565b600060408201905081810360008301526136998161365d565b90506136a86020830184612447565b92915050565b7f4e487b7100000000000000000000000000000000000000000000000000000000600052601260045260246000fd5b60006136e88261243d565b91506136f38361243d565b925082613703576137026136ae565b5b828204905092915050565b60006137198261243d565b91506137248361243d565b92508282026137328161243d565b9150828204841483151761374957613748612d71565b5b5092915050565b7f4269642062656c6f772063757272656e74207072696365000000000000000000600082015250565b60006137866017836127e2565b915061379182613750565b602082019050919050565b600060208201905081810360008301526137b581613779565b9050919050565b60006040820190506137d16000830185612447565b6137de6020830184612447565b9392505050565b7f5374617274696e6720656e6441756374696f6e00000000000000000000000000600082015250565b600061381b6013836127e2565b9150613826826137e5565b602082019050919050565b6000604082019050818103600083015261384a8161380e565b90506138596020830184612447565b92915050565b7f41756374696f6e2073746174652073657420746f20434c4f5345440000000000600082015250565b6000613895601b836127e2565b91506138a08261385f565b602082019050919050565b600060408201905081810360008301526138c481613888565b90506138d36020830184612447565b92915050565b7f4f776e65722066756e64207472616e73666572206661696c6564000000000000600082015250565b600061390f601a836127e2565b915061391a826138d9565b602082019050919050565b6000602082019050818103600083015261393e81613902565b9050919050565b7f4f776e65722066756e6473207472616e73666572726564000000000000000000600082015250565b600061397b6017836127e2565b915061398682613945565b602082019050919050565b600060408201905081810360008301526139aa8161396e565b90506139b96020830184612447565b92915050565b7f4275726e696e6720756e736f6c6420746f6b656e730000000000000000000000600082015250565b60006139f56015836127e2565b9150613a00826139bf565b602082019050919050565b60006040820190508181036000830152613a24816139e8565b9050613a336020830184612447565b9291505056fea2646970667358221220dff24644d2787b894c2d348594e6769b67abc35d3b6ba80cc2e2be7c0a3279d064736f6c634300081b0033",
  "linkReferences": {},
  "deployedLinkReferences": {}
}