{
  "_format": "hh-sol-artifact-1",
  "contractName": "ERC20Token",
  "sourceName": "contracts/ERC20Token.sol",
  "abi": [
    {
      "inputs": [
        {
          "internalType": "uint256",
          "name": "initialSupply",
          "type": "uint256"
        },
        {
          "internalType": "address",
          "name": "contractAddress",
          "type": "address"
        }
      ],
      "stateMutability": "nonpayable",
      "type": "constructor"
    },
    {
      "inputs": [
        {
          "internalType": "address",
          "name": "spender",
          "type": "address"
        },
        {
          "internalType": "uint256",
          "name": "allowance",
          "type": "uint256"
        },
        {
          "internalType": "uint256",
          "name": "needed",
          "type": "uint256"
        }
      ],
      "name": "ERC20InsufficientAllowance",
      "type": "error"
    },
    {
      "inputs": [
        {
          "internalType": "address",
          "name": "sender",
          "type": "address"
        },
        {
          "internalType": "uint256",
          "name": "balance",
          "type": "uint256"
        },
        {
          "internalType": "uint256",
          "name": "needed",
          "type": "uint256"
        }
      ],
      "name": "ERC20InsufficientBalance",
      "type": "error"
    },
    {
      "inputs": [
        {
          "internalType": "address",
          "name": "approver",
          "type": "address"
        }
      ],
      "name": "ERC20InvalidApprover",
      "type": "error"
    },
    {
      "inputs": [
        {
          "internalType": "address",
          "name": "receiver",
          "type": "address"
        }
      ],
      "name": "ERC20InvalidReceiver",
      "type": "error"
    },
    {
      "inputs": [
        {
          "internalType": "address",
          "name": "sender",
          "type": "address"
        }
      ],
      "name": "ERC20InvalidSender",
      "type": "error"
    },
    {
      "inputs": [
        {
          "internalType": "address",
          "name": "spender",
          "type": "address"
        }
      ],
      "name": "ERC20InvalidSpender",
      "type": "error"
    },
    {
      "inputs": [
        {
          "internalType": "address",
          "name": "owner",
          "type": "address"
        }
      ],
      "name": "OwnableInvalidOwner",
      "type": "error"
    },
    {
      "inputs": [
        {
          "internalType": "address",
          "name": "account",
          "type": "address"
        }
      ],
      "name": "OwnableUnauthorizedAccount",
      "type": "error"
    },
    {
      "anonymous": false,
      "inputs": [
        {
          "indexed": true,
          "internalType": "address",
          "name": "owner",
          "type": "address"
        },
        {
          "indexed": true,
          "internalType": "address",
          "name": "spender",
          "type": "address"
        },
        {
          "indexed": false,
          "internalType": "uint256",
          "name": "value",
          "type": "uint256"
        }
      ],
      "name": "Approval",
      "type": "event"
    },
    {
      "anonymous": false,
      "inputs": [
        {
          "indexed": true,
          "internalType": "address",
          "name": "previousOwner",
          "type": "address"
        },
        {
          "indexed": true,
          "internalType": "address",
          "name": "newOwner",
          "type": "address"
        }
      ],
      "name": "OwnershipTransferred",
      "type": "event"
    },
    {
      "anonymous": false,
      "inputs": [
        {
          "indexed": true,
          "internalType": "address",
          "name": "from",
          "type": "address"
        },
        {
          "indexed": true,
          "internalType": "address",
          "name": "to",
          "type": "address"
        },
        {
          "indexed": false,
          "internalType": "uint256",
          "name": "value",
          "type": "uint256"
        }
      ],
      "name": "Transfer",
      "type": "event"
    },
    {
      "inputs": [
        {
          "internalType": "address",
          "name": "owner",
          "type": "address"
        },
        {
          "internalType": "address",
          "name": "spender",
          "type": "address"
        }
      ],
      "name": "allowance",
      "outputs": [
        {
          "internalType": "uint256",
          "name": "",
          "type": "uint256"
        }
      ],
      "stateMutability": "view",
      "type": "function"
    },
    {
      "inputs": [
        {
          "internalType": "address",
          "name": "spender",
          "type": "address"
        },
        {
          "internalType": "uint256",
          "name": "value",
          "type": "uint256"
        }
      ],
      "name": "approve",
      "outputs": [
        {
          "internalType": "bool",
          "name": "",
          "type": "bool"
        }
      ],
      "stateMutability": "nonpayable",
      "type": "function"
    },
    {
      "inputs": [
        {
          "internalType": "address",
          "name": "contractAddress",
          "type": "address"
        },
        {
          "internalType": "uint256",
          "name": "amount",
          "type": "uint256"
        }
      ],
      "name": "approveContract",
      "outputs": [],
      "stateMutability": "nonpayable",
      "type": "function"
    },
    {
      "inputs": [
        {
          "internalType": "address",
          "name": "account",
          "type": "address"
        }
      ],
      "name": "balanceOf",
      "outputs": [
        {
          "internalType": "uint256",
          "name": "",
          "type": "uint256"
        }
      ],
      "stateMutability": "view",
      "type": "function"
    },
    {
      "inputs": [
        {
          "internalType": "address",
          "name": "i_owner",
          "type": "address"
        },
        {
          "internalType": "uint256",
          "name": "amount",
          "type": "uint256"
        }
      ],
      "name": "burn",
      "outputs": [],
      "stateMutability": "nonpayable",
      "type": "function"
    },
    {
      "inputs": [],
      "name": "decimals",
      "outputs": [
        {
          "internalType": "uint8",
          "name": "",
          "type": "uint8"
        }
      ],
      "stateMutability": "view",
      "type": "function"
    },
    {
      "inputs": [],
      "name": "name",
      "outputs": [
        {
          "internalType": "string",
          "name": "",
          "type": "string"
        }
      ],
      "stateMutability": "view",
      "type": "function"
    },
    {
      "inputs": [],
      "name": "owner",
      "outputs": [
        {
          "internalType": "address",
          "name": "",
          "type": "address"
        }
      ],
      "stateMutability": "view",
      "type": "function"
    },
    {
      "inputs": [],
      "name": "renounceOwnership",
      "outputs": [],
      "stateMutability": "nonpayable",
      "type": "function"
    },
    {
      "inputs": [],
      "name": "symbol",
      "outputs": [
        {
          "internalType": "string",
          "name": "",
          "type": "string"
        }
      ],
      "stateMutability": "view",
      "type": "function"
    },
    {
      "inputs": [],
      "name": "totalSupply",
      "outputs": [
        {
          "internalType": "uint256",
          "name": "",
          "type": "uint256"
        }
      ],
      "stateMutability": "view",
      "type": "function"
    },
    {
      "inputs": [
        {
          "internalType": "address",
          "name": "to",
          "type": "address"
        },
        {
          "internalType": "uint256",
          "name": "value",
          "type": "uint256"
        }
      ],
      "name": "transfer",
      "outputs": [
        {
          "internalType": "bool",
          "name": "",
          "type": "bool"
        }
      ],
      "stateMutability": "nonpayable",
      "type": "function"
    },
    {
      "inputs": [
        {
          "internalType": "address",
          "name": "from",
          "type": "address"
        },
        {
          "internalType": "address",
          "name": "to",
          "type": "address"
        },
        {
          "internalType": "uint256",
          "name": "value",
          "type": "uint256"
        }
      ],
      "name": "transferFrom",
      "outputs": [
        {
          "internalType": "bool",
          "name": "",
          "type": "bool"
        }
      ],
      "stateMutability": "nonpayable",
      "type": "function"
    },
    {
      "inputs": [
        {
          "internalType": "address",
          "name": "newOwner",
          "type": "address"
        }
      ],
      "name": "transferOwnership",
      "outputs": [],
      "stateMutability": "nonpayable",
      "type": "function"
    }
  ],
  "bytecode": "0x608060405234801561001057600080fd5b506040516121bd3803806121bd833981810160405281019061003291906107b7565b336040518060400160405280600a81526020017f4552433230546f6b656e000000000000000000000000000000000000000000008152506040518060400160405280600281526020017f455400000000000000000000000000000000000000000000000000000000000081525081600390816100ae9190610a3d565b5080600490816100be9190610a3d565b505050600073ffffffffffffffffffffffffffffffffffffffff168173ffffffffffffffffffffffffffffffffffffffff16036101335760006040517f1e4fbdf700000000000000000000000000000000000000000000000000000000815260040161012a9190610b1e565b60405180910390fd5b610142816101b360201b60201c565b506101773361015561027960201b60201c565b600a6101619190610ca8565b8461016c9190610cf3565b61028260201b60201c565b6101ac338261018a61027960201b60201c565b600a6101969190610ca8565b856101a19190610cf3565b61030a60201b60201c565b5050610dca565b6000600560009054906101000a900473ffffffffffffffffffffffffffffffffffffffff16905081600560006101000a81548173ffffffffffffffffffffffffffffffffffffffff021916908373ffffffffffffffffffffffffffffffffffffffff1602179055508173ffffffffffffffffffffffffffffffffffffffff168173ffffffffffffffffffffffffffffffffffffffff167f8be0079c531659141344cd1fd0a4f28419497f9722a3daafe3b4186f6b6457e060405160405180910390a35050565b60006012905090565b600073ffffffffffffffffffffffffffffffffffffffff168273ffffffffffffffffffffffffffffffffffffffff16036102f45760006040517fec442f050000000000000000000000000000000000000000000000000000000081526004016102eb9190610b1e565b60405180910390fd5b6103066000838361032260201b60201c565b5050565b61031d838383600161054760201b60201c565b505050565b600073ffffffffffffffffffffffffffffffffffffffff168373ffffffffffffffffffffffffffffffffffffffff16036103745780600260008282546103689190610d35565b92505081905550610447565b60008060008573ffffffffffffffffffffffffffffffffffffffff1673ffffffffffffffffffffffffffffffffffffffff16815260200190815260200160002054905081811015610400578381836040517fe450d38c0000000000000000000000000000000000000000000000000000000081526004016103f793929190610d78565b60405180910390fd5b8181036000808673ffffffffffffffffffffffffffffffffffffffff1673ffffffffffffffffffffffffffffffffffffffff16815260200190815260200160002081905550505b600073ffffffffffffffffffffffffffffffffffffffff168273ffffffffffffffffffffffffffffffffffffffff160361049057806002600082825403925050819055506104dd565b806000808473ffffffffffffffffffffffffffffffffffffffff1673ffffffffffffffffffffffffffffffffffffffff168152602001908152602001600020600082825401925050819055505b8173ffffffffffffffffffffffffffffffffffffffff168373ffffffffffffffffffffffffffffffffffffffff167fddf252ad1be2c89b69c2b068fc378daa952ba7f163c4a11628f55a4df523b3ef8360405161053a9190610daf565b60405180910390a3505050565b600073ffffffffffffffffffffffffffffffffffffffff168473ffffffffffffffffffffffffffffffffffffffff16036105b95760006040517fe602df050000000000000000000000000000000000000000000000000000000081526004016105b09190610b1e565b60405180910390fd5b600073ffffffffffffffffffffffffffffffffffffffff168373ffffffffffffffffffffffffffffffffffffffff160361062b5760006040517f94280d620000000000000000000000000000000000000000000000000000000081526004016106229190610b1e565b60405180910390fd5b81600160008673ffffffffffffffffffffffffffffffffffffffff1673ffffffffffffffffffffffffffffffffffffffff16815260200190815260200160002060008573ffffffffffffffffffffffffffffffffffffffff1673ffffffffffffffffffffffffffffffffffffffff168152602001908152602001600020819055508015610718578273ffffffffffffffffffffffffffffffffffffffff168473ffffffffffffffffffffffffffffffffffffffff167f8c5be1e5ebec7d5bd14f71427d1e84f3dd0314c0f7b2291e5b200ac8c7c3b9258460405161070f9190610daf565b60405180910390a35b50505050565b600080fd5b6000819050919050565b61073681610723565b811461074157600080fd5b50565b6000815190506107538161072d565b92915050565b600073ffffffffffffffffffffffffffffffffffffffff82169050919050565b600061078482610759565b9050919050565b61079481610779565b811461079f57600080fd5b50565b6000815190506107b18161078b565b92915050565b600080604083850312156107ce576107cd61071e565b5b60006107dc85828601610744565b92505060206107ed858286016107a2565b9150509250929050565b600081519050919050565b7f4e487b7100000000000000000000000000000000000000000000000000000000600052604160045260246000fd5b7f4e487b7100000000000000000000000000000000000000000000000000000000600052602260045260246000fd5b6000600282049050600182168061087857607f821691505b60208210810361088b5761088a610831565b5b50919050565b60008190508160005260206000209050919050565b60006020601f8301049050919050565b600082821b905092915050565b6000600883026108f37fffffffffffffffffffffffffffffffffffffffffffffffffffffffffffffffff826108b6565b6108fd86836108b6565b95508019841693508086168417925050509392505050565b6000819050919050565b600061093a61093561093084610723565b610915565b610723565b9050919050565b6000819050919050565b6109548361091f565b61096861096082610941565b8484546108c3565b825550505050565b600090565b61097d610970565b61098881848461094b565b505050565b5b818110156109ac576109a1600082610975565b60018101905061098e565b5050565b601f8211156109f1576109c281610891565b6109cb846108a6565b810160208510156109da578190505b6109ee6109e6856108a6565b83018261098d565b50505b505050565b600082821c905092915050565b6000610a14600019846008026109f6565b1980831691505092915050565b6000610a2d8383610a03565b9150826002028217905092915050565b610a46826107f7565b67ffffffffffffffff811115610a5f57610a5e610802565b5b610a698254610860565b610a748282856109b0565b600060209050601f831160018114610aa75760008415610a95578287015190505b610a9f8582610a21565b865550610b07565b601f198416610ab586610891565b60005b82811015610add57848901518255600182019150602085019450602081019050610ab8565b86831015610afa5784890151610af6601f891682610a03565b8355505b6001600288020188555050505b505050505050565b610b1881610779565b82525050565b6000602082019050610b336000830184610b0f565b92915050565b7f4e487b7100000000000000000000000000000000000000000000000000000000600052601160045260246000fd5b60008160011c9050919050565b6000808291508390505b6001851115610bbf57808604811115610b9b57610b9a610b39565b5b6001851615610baa5780820291505b8081029050610bb885610b68565b9450610b7f565b94509492505050565b600082610bd85760019050610c94565b81610be65760009050610c94565b8160018114610bfc5760028114610c0657610c35565b6001915050610c94565b60ff841115610c1857610c17610b39565b5b8360020a915084821115610c2f57610c2e610b39565b5b50610c94565b5060208310610133831016604e8410600b8410161715610c6a5782820a905083811115610c6557610c64610b39565b5b610c94565b610c778484846001610b75565b92509050818404811115610c8e57610c8d610b39565b5b81810290505b9392505050565b600060ff82169050919050565b6000610cb382610723565b9150610cbe83610c9b565b9250610ceb7fffffffffffffffffffffffffffffffffffffffffffffffffffffffffffffffff8484610bc8565b905092915050565b6000610cfe82610723565b9150610d0983610723565b9250828202610d1781610723565b91508282048414831517610d2e57610d2d610b39565b5b5092915050565b6000610d4082610723565b9150610d4b83610723565b9250828201905080821115610d6357610d62610b39565b5b92915050565b610d7281610723565b82525050565b6000606082019050610d8d6000830186610b0f565b610d9a6020830185610d69565b610da76040830184610d69565b949350505050565b6000602082019050610dc46000830184610d69565b92915050565b6113e480610dd96000396000f3fe608060405234801561001057600080fd5b50600436106100ea5760003560e01c8063715018a61161008c5780639dc29fac116100665780639dc29fac1461023b578063a9059cbb14610257578063dd62ed3e14610287578063f2fde38b146102b7576100ea565b8063715018a6146101f55780638da5cb5b146101ff57806395d89b411461021d576100ea565b806323b872dd116100c857806323b872dd1461015b578063313ce5671461018b5780635e65aff8146101a957806370a08231146101c5576100ea565b806306fdde03146100ef578063095ea7b31461010d57806318160ddd1461013d575b600080fd5b6100f76102d3565b6040516101049190610e78565b60405180910390f35b61012760048036038101906101229190610f33565b610365565b6040516101349190610f8e565b60405180910390f35b610145610388565b6040516101529190610fb8565b60405180910390f35b61017560048036038101906101709190610fd3565b610392565b6040516101829190610f8e565b60405180910390f35b6101936103c1565b6040516101a09190611042565b60405180910390f35b6101c360048036038101906101be9190610f33565b6103ca565b005b6101df60048036038101906101da919061105d565b6103ff565b6040516101ec9190610fb8565b60405180910390f35b6101fd610447565b005b61020761045b565b6040516102149190611099565b60405180910390f35b610225610485565b6040516102329190610e78565b60405180910390f35b61025560048036038101906102509190610f33565b610517565b005b610271600480360381019061026c9190610f33565b61054b565b60405161027e9190610f8e565b60405180910390f35b6102a1600480360381019061029c91906110b4565b61056e565b6040516102ae9190610fb8565b60405180910390f35b6102d160048036038101906102cc919061105d565b6105f5565b005b6060600380546102e290611123565b80601f016020809104026020016040519081016040528092919081815260200182805461030e90611123565b801561035b5780601f106103305761010080835404028352916020019161035b565b820191906000526020600020905b81548152906001019060200180831161033e57829003601f168201915b5050505050905090565b60008061037061067b565b905061037d818585610683565b600191505092915050565b6000600254905090565b60008061039d61067b565b90506103aa858285610695565b6103b5858585610729565b60019150509392505050565b60006012905090565b6103d261081d565b6103fb33836103df6103c1565b600a6103eb91906112b6565b846103f69190611301565b610683565b5050565b60008060008373ffffffffffffffffffffffffffffffffffffffff1673ffffffffffffffffffffffffffffffffffffffff168152602001908152602001600020549050919050565b61044f61081d565b61045960006108a4565b565b6000600560009054906101000a900473ffffffffffffffffffffffffffffffffffffffff16905090565b60606004805461049490611123565b80601f01602080910402602001604051908101604052809291908181526020018280546104c090611123565b801561050d5780601f106104e25761010080835404028352916020019161050d565b820191906000526020600020905b8154815290600101906020018083116104f057829003601f168201915b5050505050905090565b61051f61081d565b6105478261052b6103c1565b600a61053791906112b6565b836105429190611301565b61096a565b5050565b60008061055661067b565b9050610563818585610729565b600191505092915050565b6000600160008473ffffffffffffffffffffffffffffffffffffffff1673ffffffffffffffffffffffffffffffffffffffff16815260200190815260200160002060008373ffffffffffffffffffffffffffffffffffffffff1673ffffffffffffffffffffffffffffffffffffffff16815260200190815260200160002054905092915050565b6105fd61081d565b600073ffffffffffffffffffffffffffffffffffffffff168173ffffffffffffffffffffffffffffffffffffffff160361066f5760006040517f1e4fbdf70000000000000000000000000000000000000000000000000000000081526004016106669190611099565b60405180910390fd5b610678816108a4565b50565b600033905090565b61069083838360016109ec565b505050565b60006106a1848461056e565b90507fffffffffffffffffffffffffffffffffffffffffffffffffffffffffffffffff81146107235781811015610713578281836040517ffb8f41b200000000000000000000000000000000000000000000000000000000815260040161070a93929190611343565b60405180910390fd5b610722848484840360006109ec565b5b50505050565b600073ffffffffffffffffffffffffffffffffffffffff168373ffffffffffffffffffffffffffffffffffffffff160361079b5760006040517f96c6fd1e0000000000000000000000000000000000000000000000000000000081526004016107929190611099565b60405180910390fd5b600073ffffffffffffffffffffffffffffffffffffffff168273ffffffffffffffffffffffffffffffffffffffff160361080d5760006040517fec442f050000000000000000000000000000000000000000000000000000000081526004016108049190611099565b60405180910390fd5b610818838383610bc3565b505050565b61082561067b565b73ffffffffffffffffffffffffffffffffffffffff1661084361045b565b73ffffffffffffffffffffffffffffffffffffffff16146108a25761086661067b565b6040517f118cdaa70000000000000000000000000000000000000000000000000000000081526004016108999190611099565b60405180910390fd5b565b6000600560009054906101000a900473ffffffffffffffffffffffffffffffffffffffff16905081600560006101000a81548173ffffffffffffffffffffffffffffffffffffffff021916908373ffffffffffffffffffffffffffffffffffffffff1602179055508173ffffffffffffffffffffffffffffffffffffffff168173ffffffffffffffffffffffffffffffffffffffff167f8be0079c531659141344cd1fd0a4f28419497f9722a3daafe3b4186f6b6457e060405160405180910390a35050565b600073ffffffffffffffffffffffffffffffffffffffff168273ffffffffffffffffffffffffffffffffffffffff16036109dc5760006040517f96c6fd1e0000000000000000000000000000000000000000000000000000000081526004016109d39190611099565b60405180910390fd5b6109e882600083610bc3565b5050565b600073ffffffffffffffffffffffffffffffffffffffff168473ffffffffffffffffffffffffffffffffffffffff1603610a5e5760006040517fe602df05000000000000000000000000000000000000000000000000000000008152600401610a559190611099565b60405180910390fd5b600073ffffffffffffffffffffffffffffffffffffffff168373ffffffffffffffffffffffffffffffffffffffff1603610ad05760006040517f94280d62000000000000000000000000000000000000000000000000000000008152600401610ac79190611099565b60405180910390fd5b81600160008673ffffffffffffffffffffffffffffffffffffffff1673ffffffffffffffffffffffffffffffffffffffff16815260200190815260200160002060008573ffffffffffffffffffffffffffffffffffffffff1673ffffffffffffffffffffffffffffffffffffffff168152602001908152602001600020819055508015610bbd578273ffffffffffffffffffffffffffffffffffffffff168473ffffffffffffffffffffffffffffffffffffffff167f8c5be1e5ebec7d5bd14f71427d1e84f3dd0314c0f7b2291e5b200ac8c7c3b92584604051610bb49190610fb8565b60405180910390a35b50505050565b600073ffffffffffffffffffffffffffffffffffffffff168373ffffffffffffffffffffffffffffffffffffffff1603610c15578060026000828254610c09919061137a565b92505081905550610ce8565b60008060008573ffffffffffffffffffffffffffffffffffffffff1673ffffffffffffffffffffffffffffffffffffffff16815260200190815260200160002054905081811015610ca1578381836040517fe450d38c000000000000000000000000000000000000000000000000000000008152600401610c9893929190611343565b60405180910390fd5b8181036000808673ffffffffffffffffffffffffffffffffffffffff1673ffffffffffffffffffffffffffffffffffffffff16815260200190815260200160002081905550505b600073ffffffffffffffffffffffffffffffffffffffff168273ffffffffffffffffffffffffffffffffffffffff1603610d315780600260008282540392505081905550610d7e565b806000808473ffffffffffffffffffffffffffffffffffffffff1673ffffffffffffffffffffffffffffffffffffffff168152602001908152602001600020600082825401925050819055505b8173ffffffffffffffffffffffffffffffffffffffff168373ffffffffffffffffffffffffffffffffffffffff167fddf252ad1be2c89b69c2b068fc378daa952ba7f163c4a11628f55a4df523b3ef83604051610ddb9190610fb8565b60405180910390a3505050565b600081519050919050565b600082825260208201905092915050565b60005b83811015610e22578082015181840152602081019050610e07565b60008484015250505050565b6000601f19601f8301169050919050565b6000610e4a82610de8565b610e548185610df3565b9350610e64818560208601610e04565b610e6d81610e2e565b840191505092915050565b60006020820190508181036000830152610e928184610e3f565b905092915050565b600080fd5b600073ffffffffffffffffffffffffffffffffffffffff82169050919050565b6000610eca82610e9f565b9050919050565b610eda81610ebf565b8114610ee557600080fd5b50565b600081359050610ef781610ed1565b92915050565b6000819050919050565b610f1081610efd565b8114610f1b57600080fd5b50565b600081359050610f2d81610f07565b92915050565b60008060408385031215610f4a57610f49610e9a565b5b6000610f5885828601610ee8565b9250506020610f6985828601610f1e565b9150509250929050565b60008115159050919050565b610f8881610f73565b82525050565b6000602082019050610fa36000830184610f7f565b92915050565b610fb281610efd565b82525050565b6000602082019050610fcd6000830184610fa9565b92915050565b600080600060608486031215610fec57610feb610e9a565b5b6000610ffa86828701610ee8565b935050602061100b86828701610ee8565b925050604061101c86828701610f1e565b9150509250925092565b600060ff82169050919050565b61103c81611026565b82525050565b60006020820190506110576000830184611033565b92915050565b60006020828403121561107357611072610e9a565b5b600061108184828501610ee8565b91505092915050565b61109381610ebf565b82525050565b60006020820190506110ae600083018461108a565b92915050565b600080604083850312156110cb576110ca610e9a565b5b60006110d985828601610ee8565b92505060206110ea85828601610ee8565b9150509250929050565b7f4e487b7100000000000000000000000000000000000000000000000000000000600052602260045260246000fd5b6000600282049050600182168061113b57607f821691505b60208210810361114e5761114d6110f4565b5b50919050565b7f4e487b7100000000000000000000000000000000000000000000000000000000600052601160045260246000fd5b60008160011c9050919050565b6000808291508390505b60018511156111da578086048111156111b6576111b5611154565b5b60018516156111c55780820291505b80810290506111d385611183565b945061119a565b94509492505050565b6000826111f357600190506112af565b8161120157600090506112af565b8160018114611217576002811461122157611250565b60019150506112af565b60ff84111561123357611232611154565b5b8360020a91508482111561124a57611249611154565b5b506112af565b5060208310610133831016604e8410600b84101617156112855782820a9050838111156112805761127f611154565b5b6112af565b6112928484846001611190565b925090508184048111156112a9576112a8611154565b5b81810290505b9392505050565b60006112c182610efd565b91506112cc83611026565b92506112f97fffffffffffffffffffffffffffffffffffffffffffffffffffffffffffffffff84846111e3565b905092915050565b600061130c82610efd565b915061131783610efd565b925082820261132581610efd565b9150828204841483151761133c5761133b611154565b5b5092915050565b6000606082019050611358600083018661108a565b6113656020830185610fa9565b6113726040830184610fa9565b949350505050565b600061138582610efd565b915061139083610efd565b92508282019050808211156113a8576113a7611154565b5b9291505056fea26469706673582212208e16657b1f7cdbbdf693644c9d7441913f596ad9e36bfafac9cb374fb90e129764736f6c634300081b0033",
  "linkReferences": {},
  "deployedLinkReferences": {}
}