{
  "_format": "hh-sol-artifact-1",
  "contractName": "ERC20Token",
  "sourceName": "contracts/ERC20Token.sol",
  "abi": [
    {
      "inputs": [
        {
          "internalType": "uint256",
          "name": "initialSupply",
          "type": "uint256"
        },
        {
          "internalType": "address",
          "name": "contractAddress",
          "type": "address"
        }
      ],
      "stateMutability": "nonpayable",
      "type": "constructor"
    },
    {
      "inputs": [
        {
          "internalType": "address",
          "name": "spender",
          "type": "address"
        },
        {
          "internalType": "uint256",
          "name": "allowance",
          "type": "uint256"
        },
        {
          "internalType": "uint256",
          "name": "needed",
          "type": "uint256"
        }
      ],
      "name": "ERC20InsufficientAllowance",
      "type": "error"
    },
    {
      "inputs": [
        {
          "internalType": "address",
          "name": "sender",
          "type": "address"
        },
        {
          "internalType": "uint256",
          "name": "balance",
          "type": "uint256"
        },
        {
          "internalType": "uint256",
          "name": "needed",
          "type": "uint256"
        }
      ],
      "name": "ERC20InsufficientBalance",
      "type": "error"
    },
    {
      "inputs": [
        {
          "internalType": "address",
          "name": "approver",
          "type": "address"
        }
      ],
      "name": "ERC20InvalidApprover",
      "type": "error"
    },
    {
      "inputs": [
        {
          "internalType": "address",
          "name": "receiver",
          "type": "address"
        }
      ],
      "name": "ERC20InvalidReceiver",
      "type": "error"
    },
    {
      "inputs": [
        {
          "internalType": "address",
          "name": "sender",
          "type": "address"
        }
      ],
      "name": "ERC20InvalidSender",
      "type": "error"
    },
    {
      "inputs": [
        {
          "internalType": "address",
          "name": "spender",
          "type": "address"
        }
      ],
      "name": "ERC20InvalidSpender",
      "type": "error"
    },
    {
      "inputs": [
        {
          "internalType": "address",
          "name": "owner",
          "type": "address"
        }
      ],
      "name": "OwnableInvalidOwner",
      "type": "error"
    },
    {
      "inputs": [
        {
          "internalType": "address",
          "name": "account",
          "type": "address"
        }
      ],
      "name": "OwnableUnauthorizedAccount",
      "type": "error"
    },
    {
      "anonymous": false,
      "inputs": [
        {
          "indexed": true,
          "internalType": "address",
          "name": "owner",
          "type": "address"
        },
        {
          "indexed": true,
          "internalType": "address",
          "name": "spender",
          "type": "address"
        },
        {
          "indexed": false,
          "internalType": "uint256",
          "name": "value",
          "type": "uint256"
        }
      ],
      "name": "Approval",
      "type": "event"
    },
    {
      "anonymous": false,
      "inputs": [
        {
          "indexed": true,
          "internalType": "address",
          "name": "previousOwner",
          "type": "address"
        },
        {
          "indexed": true,
          "internalType": "address",
          "name": "newOwner",
          "type": "address"
        }
      ],
      "name": "OwnershipTransferred",
      "type": "event"
    },
    {
      "anonymous": false,
      "inputs": [
        {
          "indexed": true,
          "internalType": "address",
          "name": "from",
          "type": "address"
        },
        {
          "indexed": true,
          "internalType": "address",
          "name": "to",
          "type": "address"
        },
        {
          "indexed": false,
          "internalType": "uint256",
          "name": "value",
          "type": "uint256"
        }
      ],
      "name": "Transfer",
      "type": "event"
    },
    {
      "inputs": [
        {
          "internalType": "address",
          "name": "owner",
          "type": "address"
        },
        {
          "internalType": "address",
          "name": "spender",
          "type": "address"
        }
      ],
      "name": "allowance",
      "outputs": [
        {
          "internalType": "uint256",
          "name": "",
          "type": "uint256"
        }
      ],
      "stateMutability": "view",
      "type": "function"
    },
    {
      "inputs": [
        {
          "internalType": "address",
          "name": "spender",
          "type": "address"
        },
        {
          "internalType": "uint256",
          "name": "value",
          "type": "uint256"
        }
      ],
      "name": "approve",
      "outputs": [
        {
          "internalType": "bool",
          "name": "",
          "type": "bool"
        }
      ],
      "stateMutability": "nonpayable",
      "type": "function"
    },
    {
      "inputs": [
        {
          "internalType": "address",
          "name": "account",
          "type": "address"
        }
      ],
      "name": "balanceOf",
      "outputs": [
        {
          "internalType": "uint256",
          "name": "",
          "type": "uint256"
        }
      ],
      "stateMutability": "view",
      "type": "function"
    },
    {
      "inputs": [
        {
          "internalType": "address",
          "name": "i_owner",
          "type": "address"
        },
        {
          "internalType": "uint256",
          "name": "amount",
          "type": "uint256"
        }
      ],
      "name": "burn",
      "outputs": [],
      "stateMutability": "nonpayable",
      "type": "function"
    },
    {
      "inputs": [],
      "name": "decimals",
      "outputs": [
        {
          "internalType": "uint8",
          "name": "",
          "type": "uint8"
        }
      ],
      "stateMutability": "view",
      "type": "function"
    },
    {
      "inputs": [],
      "name": "name",
      "outputs": [
        {
          "internalType": "string",
          "name": "",
          "type": "string"
        }
      ],
      "stateMutability": "view",
      "type": "function"
    },
    {
      "inputs": [],
      "name": "owner",
      "outputs": [
        {
          "internalType": "address",
          "name": "",
          "type": "address"
        }
      ],
      "stateMutability": "view",
      "type": "function"
    },
    {
      "inputs": [],
      "name": "renounceOwnership",
      "outputs": [],
      "stateMutability": "nonpayable",
      "type": "function"
    },
    {
      "inputs": [],
      "name": "symbol",
      "outputs": [
        {
          "internalType": "string",
          "name": "",
          "type": "string"
        }
      ],
      "stateMutability": "view",
      "type": "function"
    },
    {
      "inputs": [],
      "name": "totalSupply",
      "outputs": [
        {
          "internalType": "uint256",
          "name": "",
          "type": "uint256"
        }
      ],
      "stateMutability": "view",
      "type": "function"
    },
    {
      "inputs": [
        {
          "internalType": "address",
          "name": "to",
          "type": "address"
        },
        {
          "internalType": "uint256",
          "name": "value",
          "type": "uint256"
        }
      ],
      "name": "transfer",
      "outputs": [
        {
          "internalType": "bool",
          "name": "",
          "type": "bool"
        }
      ],
      "stateMutability": "nonpayable",
      "type": "function"
    },
    {
      "inputs": [
        {
          "internalType": "address",
          "name": "from",
          "type": "address"
        },
        {
          "internalType": "address",
          "name": "to",
          "type": "address"
        },
        {
          "internalType": "uint256",
          "name": "value",
          "type": "uint256"
        }
      ],
      "name": "transferFrom",
      "outputs": [
        {
          "internalType": "bool",
          "name": "",
          "type": "bool"
        }
      ],
      "stateMutability": "nonpayable",
      "type": "function"
    },
    {
      "inputs": [
        {
          "internalType": "address",
          "name": "newOwner",
          "type": "address"
        }
      ],
      "name": "transferOwnership",
      "outputs": [],
      "stateMutability": "nonpayable",
      "type": "function"
    }
  ],
  "bytecode": "0x608060405234801561001057600080fd5b50604051611e49380380611e49833981810160405281019061003291906107c3565b336040518060400160405280600a81526020017f4552433230546f6b656e000000000000000000000000000000000000000000008152506040518060400160405280600281526020017f455400000000000000000000000000000000000000000000000000000000000081525081600390816100ae9190610a49565b5080600490816100be9190610a49565b505050600073ffffffffffffffffffffffffffffffffffffffff168173ffffffffffffffffffffffffffffffffffffffff16036101335760006040517f1e4fbdf700000000000000000000000000000000000000000000000000000000815260040161012a9190610b2a565b60405180910390fd5b6101428161019160201b60201c565b5061016633670de0b6b3a76400008461015b9190610b74565b61025760201b60201c565b61018981670de0b6b3a76400008461017e9190610b74565b6102df60201b60201c565b505050610c4b565b6000600560009054906101000a900473ffffffffffffffffffffffffffffffffffffffff16905081600560006101000a81548173ffffffffffffffffffffffffffffffffffffffff021916908373ffffffffffffffffffffffffffffffffffffffff1602179055508173ffffffffffffffffffffffffffffffffffffffff168173ffffffffffffffffffffffffffffffffffffffff167f8be0079c531659141344cd1fd0a4f28419497f9722a3daafe3b4186f6b6457e060405160405180910390a35050565b600073ffffffffffffffffffffffffffffffffffffffff168273ffffffffffffffffffffffffffffffffffffffff16036102c95760006040517fec442f050000000000000000000000000000000000000000000000000000000081526004016102c09190610b2a565b60405180910390fd5b6102db6000838361030e60201b60201c565b5050565b6000806102f061053360201b60201c565b905061030381858561053b60201b60201c565b600191505092915050565b600073ffffffffffffffffffffffffffffffffffffffff168373ffffffffffffffffffffffffffffffffffffffff16036103605780600260008282546103549190610bb6565b92505081905550610433565b60008060008573ffffffffffffffffffffffffffffffffffffffff1673ffffffffffffffffffffffffffffffffffffffff168152602001908152602001600020549050818110156103ec578381836040517fe450d38c0000000000000000000000000000000000000000000000000000000081526004016103e393929190610bf9565b60405180910390fd5b8181036000808673ffffffffffffffffffffffffffffffffffffffff1673ffffffffffffffffffffffffffffffffffffffff16815260200190815260200160002081905550505b600073ffffffffffffffffffffffffffffffffffffffff168273ffffffffffffffffffffffffffffffffffffffff160361047c57806002600082825403925050819055506104c9565b806000808473ffffffffffffffffffffffffffffffffffffffff1673ffffffffffffffffffffffffffffffffffffffff168152602001908152602001600020600082825401925050819055505b8173ffffffffffffffffffffffffffffffffffffffff168373ffffffffffffffffffffffffffffffffffffffff167fddf252ad1be2c89b69c2b068fc378daa952ba7f163c4a11628f55a4df523b3ef836040516105269190610c30565b60405180910390a3505050565b600033905090565b61054e838383600161055360201b60201c565b505050565b600073ffffffffffffffffffffffffffffffffffffffff168473ffffffffffffffffffffffffffffffffffffffff16036105c55760006040517fe602df050000000000000000000000000000000000000000000000000000000081526004016105bc9190610b2a565b60405180910390fd5b600073ffffffffffffffffffffffffffffffffffffffff168373ffffffffffffffffffffffffffffffffffffffff16036106375760006040517f94280d6200000000000000000000000000000000000000000000000000000000815260040161062e9190610b2a565b60405180910390fd5b81600160008673ffffffffffffffffffffffffffffffffffffffff1673ffffffffffffffffffffffffffffffffffffffff16815260200190815260200160002060008573ffffffffffffffffffffffffffffffffffffffff1673ffffffffffffffffffffffffffffffffffffffff168152602001908152602001600020819055508015610724578273ffffffffffffffffffffffffffffffffffffffff168473ffffffffffffffffffffffffffffffffffffffff167f8c5be1e5ebec7d5bd14f71427d1e84f3dd0314c0f7b2291e5b200ac8c7c3b9258460405161071b9190610c30565b60405180910390a35b50505050565b600080fd5b6000819050919050565b6107428161072f565b811461074d57600080fd5b50565b60008151905061075f81610739565b92915050565b600073ffffffffffffffffffffffffffffffffffffffff82169050919050565b600061079082610765565b9050919050565b6107a081610785565b81146107ab57600080fd5b50565b6000815190506107bd81610797565b92915050565b600080604083850312156107da576107d961072a565b5b60006107e885828601610750565b92505060206107f9858286016107ae565b9150509250929050565b600081519050919050565b7f4e487b7100000000000000000000000000000000000000000000000000000000600052604160045260246000fd5b7f4e487b7100000000000000000000000000000000000000000000000000000000600052602260045260246000fd5b6000600282049050600182168061088457607f821691505b6020821081036108975761089661083d565b5b50919050565b60008190508160005260206000209050919050565b60006020601f8301049050919050565b600082821b905092915050565b6000600883026108ff7fffffffffffffffffffffffffffffffffffffffffffffffffffffffffffffffff826108c2565b61090986836108c2565b95508019841693508086168417925050509392505050565b6000819050919050565b600061094661094161093c8461072f565b610921565b61072f565b9050919050565b6000819050919050565b6109608361092b565b61097461096c8261094d565b8484546108cf565b825550505050565b600090565b61098961097c565b610994818484610957565b505050565b5b818110156109b8576109ad600082610981565b60018101905061099a565b5050565b601f8211156109fd576109ce8161089d565b6109d7846108b2565b810160208510156109e6578190505b6109fa6109f2856108b2565b830182610999565b50505b505050565b600082821c905092915050565b6000610a2060001984600802610a02565b1980831691505092915050565b6000610a398383610a0f565b9150826002028217905092915050565b610a5282610803565b67ffffffffffffffff811115610a6b57610a6a61080e565b5b610a75825461086c565b610a808282856109bc565b600060209050601f831160018114610ab35760008415610aa1578287015190505b610aab8582610a2d565b865550610b13565b601f198416610ac18661089d565b60005b82811015610ae957848901518255600182019150602085019450602081019050610ac4565b86831015610b065784890151610b02601f891682610a0f565b8355505b6001600288020188555050505b505050505050565b610b2481610785565b82525050565b6000602082019050610b3f6000830184610b1b565b92915050565b7f4e487b7100000000000000000000000000000000000000000000000000000000600052601160045260246000fd5b6000610b7f8261072f565b9150610b8a8361072f565b9250828202610b988161072f565b91508282048414831517610baf57610bae610b45565b5b5092915050565b6000610bc18261072f565b9150610bcc8361072f565b9250828201905080821115610be457610be3610b45565b5b92915050565b610bf38161072f565b82525050565b6000606082019050610c0e6000830186610b1b565b610c1b6020830185610bea565b610c286040830184610bea565b949350505050565b6000602082019050610c456000830184610bea565b92915050565b6111ef80610c5a6000396000f3fe608060405234801561001057600080fd5b50600436106100cf5760003560e01c8063715018a61161008c5780639dc29fac116100665780639dc29fac14610204578063a9059cbb14610220578063dd62ed3e14610250578063f2fde38b14610280576100cf565b8063715018a6146101be5780638da5cb5b146101c857806395d89b41146101e6576100cf565b806306fdde03146100d4578063095ea7b3146100f257806318160ddd1461012257806323b872dd14610140578063313ce5671461017057806370a082311461018e575b600080fd5b6100dc61029c565b6040516100e99190610e01565b60405180910390f35b61010c60048036038101906101079190610ebc565b61032e565b6040516101199190610f17565b60405180910390f35b61012a610351565b6040516101379190610f41565b60405180910390f35b61015a60048036038101906101559190610f5c565b61035b565b6040516101679190610f17565b60405180910390f35b61017861038a565b6040516101859190610fcb565b60405180910390f35b6101a860048036038101906101a39190610fe6565b610393565b6040516101b59190610f41565b60405180910390f35b6101c66103db565b005b6101d06103ef565b6040516101dd9190611022565b60405180910390f35b6101ee610419565b6040516101fb9190610e01565b60405180910390f35b61021e60048036038101906102199190610ebc565b6104ab565b005b61023a60048036038101906102359190610ebc565b6104d4565b6040516102479190610f17565b60405180910390f35b61026a6004803603810190610265919061103d565b6104f7565b6040516102779190610f41565b60405180910390f35b61029a60048036038101906102959190610fe6565b61057e565b005b6060600380546102ab906110ac565b80601f01602080910402602001604051908101604052809291908181526020018280546102d7906110ac565b80156103245780601f106102f957610100808354040283529160200191610324565b820191906000526020600020905b81548152906001019060200180831161030757829003601f168201915b5050505050905090565b600080610339610604565b905061034681858561060c565b600191505092915050565b6000600254905090565b600080610366610604565b905061037385828561061e565b61037e8585856106b2565b60019150509392505050565b60006012905090565b60008060008373ffffffffffffffffffffffffffffffffffffffff1673ffffffffffffffffffffffffffffffffffffffff168152602001908152602001600020549050919050565b6103e36107a6565b6103ed600061082d565b565b6000600560009054906101000a900473ffffffffffffffffffffffffffffffffffffffff16905090565b606060048054610428906110ac565b80601f0160208091040260200160405190810160405280929190818152602001828054610454906110ac565b80156104a15780601f10610476576101008083540402835291602001916104a1565b820191906000526020600020905b81548152906001019060200180831161048457829003601f168201915b5050505050905090565b6104b36107a6565b6104d082670de0b6b3a7640000836104cb919061110c565b6108f3565b5050565b6000806104df610604565b90506104ec8185856106b2565b600191505092915050565b6000600160008473ffffffffffffffffffffffffffffffffffffffff1673ffffffffffffffffffffffffffffffffffffffff16815260200190815260200160002060008373ffffffffffffffffffffffffffffffffffffffff1673ffffffffffffffffffffffffffffffffffffffff16815260200190815260200160002054905092915050565b6105866107a6565b600073ffffffffffffffffffffffffffffffffffffffff168173ffffffffffffffffffffffffffffffffffffffff16036105f85760006040517f1e4fbdf70000000000000000000000000000000000000000000000000000000081526004016105ef9190611022565b60405180910390fd5b6106018161082d565b50565b600033905090565b6106198383836001610975565b505050565b600061062a84846104f7565b90507fffffffffffffffffffffffffffffffffffffffffffffffffffffffffffffffff81146106ac578181101561069c578281836040517ffb8f41b20000000000000000000000000000000000000000000000000000000081526004016106939392919061114e565b60405180910390fd5b6106ab84848484036000610975565b5b50505050565b600073ffffffffffffffffffffffffffffffffffffffff168373ffffffffffffffffffffffffffffffffffffffff16036107245760006040517f96c6fd1e00000000000000000000000000000000000000000000000000000000815260040161071b9190611022565b60405180910390fd5b600073ffffffffffffffffffffffffffffffffffffffff168273ffffffffffffffffffffffffffffffffffffffff16036107965760006040517fec442f0500000000000000000000000000000000000000000000000000000000815260040161078d9190611022565b60405180910390fd5b6107a1838383610b4c565b505050565b6107ae610604565b73ffffffffffffffffffffffffffffffffffffffff166107cc6103ef565b73ffffffffffffffffffffffffffffffffffffffff161461082b576107ef610604565b6040517f118cdaa70000000000000000000000000000000000000000000000000000000081526004016108229190611022565b60405180910390fd5b565b6000600560009054906101000a900473ffffffffffffffffffffffffffffffffffffffff16905081600560006101000a81548173ffffffffffffffffffffffffffffffffffffffff021916908373ffffffffffffffffffffffffffffffffffffffff1602179055508173ffffffffffffffffffffffffffffffffffffffff168173ffffffffffffffffffffffffffffffffffffffff167f8be0079c531659141344cd1fd0a4f28419497f9722a3daafe3b4186f6b6457e060405160405180910390a35050565b600073ffffffffffffffffffffffffffffffffffffffff168273ffffffffffffffffffffffffffffffffffffffff16036109655760006040517f96c6fd1e00000000000000000000000000000000000000000000000000000000815260040161095c9190611022565b60405180910390fd5b61097182600083610b4c565b5050565b600073ffffffffffffffffffffffffffffffffffffffff168473ffffffffffffffffffffffffffffffffffffffff16036109e75760006040517fe602df050000000000000000000000000000000000000000000000000000000081526004016109de9190611022565b60405180910390fd5b600073ffffffffffffffffffffffffffffffffffffffff168373ffffffffffffffffffffffffffffffffffffffff1603610a595760006040517f94280d62000000000000000000000000000000000000000000000000000000008152600401610a509190611022565b60405180910390fd5b81600160008673ffffffffffffffffffffffffffffffffffffffff1673ffffffffffffffffffffffffffffffffffffffff16815260200190815260200160002060008573ffffffffffffffffffffffffffffffffffffffff1673ffffffffffffffffffffffffffffffffffffffff168152602001908152602001600020819055508015610b46578273ffffffffffffffffffffffffffffffffffffffff168473ffffffffffffffffffffffffffffffffffffffff167f8c5be1e5ebec7d5bd14f71427d1e84f3dd0314c0f7b2291e5b200ac8c7c3b92584604051610b3d9190610f41565b60405180910390a35b50505050565b600073ffffffffffffffffffffffffffffffffffffffff168373ffffffffffffffffffffffffffffffffffffffff1603610b9e578060026000828254610b929190611185565b92505081905550610c71565b60008060008573ffffffffffffffffffffffffffffffffffffffff1673ffffffffffffffffffffffffffffffffffffffff16815260200190815260200160002054905081811015610c2a578381836040517fe450d38c000000000000000000000000000000000000000000000000000000008152600401610c219392919061114e565b60405180910390fd5b8181036000808673ffffffffffffffffffffffffffffffffffffffff1673ffffffffffffffffffffffffffffffffffffffff16815260200190815260200160002081905550505b600073ffffffffffffffffffffffffffffffffffffffff168273ffffffffffffffffffffffffffffffffffffffff1603610cba5780600260008282540392505081905550610d07565b806000808473ffffffffffffffffffffffffffffffffffffffff1673ffffffffffffffffffffffffffffffffffffffff168152602001908152602001600020600082825401925050819055505b8173ffffffffffffffffffffffffffffffffffffffff168373ffffffffffffffffffffffffffffffffffffffff167fddf252ad1be2c89b69c2b068fc378daa952ba7f163c4a11628f55a4df523b3ef83604051610d649190610f41565b60405180910390a3505050565b600081519050919050565b600082825260208201905092915050565b60005b83811015610dab578082015181840152602081019050610d90565b60008484015250505050565b6000601f19601f8301169050919050565b6000610dd382610d71565b610ddd8185610d7c565b9350610ded818560208601610d8d565b610df681610db7565b840191505092915050565b60006020820190508181036000830152610e1b8184610dc8565b905092915050565b600080fd5b600073ffffffffffffffffffffffffffffffffffffffff82169050919050565b6000610e5382610e28565b9050919050565b610e6381610e48565b8114610e6e57600080fd5b50565b600081359050610e8081610e5a565b92915050565b6000819050919050565b610e9981610e86565b8114610ea457600080fd5b50565b600081359050610eb681610e90565b92915050565b60008060408385031215610ed357610ed2610e23565b5b6000610ee185828601610e71565b9250506020610ef285828601610ea7565b9150509250929050565b60008115159050919050565b610f1181610efc565b82525050565b6000602082019050610f2c6000830184610f08565b92915050565b610f3b81610e86565b82525050565b6000602082019050610f566000830184610f32565b92915050565b600080600060608486031215610f7557610f74610e23565b5b6000610f8386828701610e71565b9350506020610f9486828701610e71565b9250506040610fa586828701610ea7565b9150509250925092565b600060ff82169050919050565b610fc581610faf565b82525050565b6000602082019050610fe06000830184610fbc565b92915050565b600060208284031215610ffc57610ffb610e23565b5b600061100a84828501610e71565b91505092915050565b61101c81610e48565b82525050565b60006020820190506110376000830184611013565b92915050565b6000806040838503121561105457611053610e23565b5b600061106285828601610e71565b925050602061107385828601610e71565b9150509250929050565b7f4e487b7100000000000000000000000000000000000000000000000000000000600052602260045260246000fd5b600060028204905060018216806110c457607f821691505b6020821081036110d7576110d661107d565b5b50919050565b7f4e487b7100000000000000000000000000000000000000000000000000000000600052601160045260246000fd5b600061111782610e86565b915061112283610e86565b925082820261113081610e86565b91508282048414831517611147576111466110dd565b5b5092915050565b60006060820190506111636000830186611013565b6111706020830185610f32565b61117d6040830184610f32565b949350505050565b600061119082610e86565b915061119b83610e86565b92508282019050808211156111b3576111b26110dd565b5b9291505056fea264697066735822122017804a692bd4b285623e4e4312237054ca3f4794b03a8bedbc1e7dc39544f3a764736f6c634300081b0033",
  "linkReferences": {},
  "deployedLinkReferences": {}
}