{
  "_format": "hh-sol-artifact-1",
  "contractName": "Bidder",
  "sourceName": "contracts/Bidder.sol",
  "abi": [
    {
      "anonymous": false,
      "inputs": [
        {
          "indexed": true,
          "internalType": "uint256",
          "name": "bidderID",
          "type": "uint256"
        },
        {
          "indexed": false,
          "internalType": "address",
          "name": "walletAddress",
          "type": "address"
        },
        {
          "indexed": false,
          "internalType": "uint256",
          "name": "bidValue",
          "type": "uint256"
        }
      ],
      "name": "BidderAdded",
      "type": "event"
    },
    {
      "anonymous": false,
      "inputs": [
        {
          "indexed": true,
          "internalType": "uint256",
          "name": "bidderID",
          "type": "uint256"
        },
        {
          "indexed": false,
          "internalType": "uint256",
          "name": "refundAmount",
          "type": "uint256"
        }
      ],
      "name": "RefundSet",
      "type": "event"
    },
    {
      "anonymous": false,
      "inputs": [
        {
          "indexed": true,
          "internalType": "uint256",
          "name": "bidderID",
          "type": "uint256"
        },
        {
          "indexed": false,
          "internalType": "uint256",
          "name": "tokensPurchased",
          "type": "uint256"
        }
      ],
      "name": "TokensAllocated",
      "type": "event"
    },
    {
      "inputs": [
        {
          "internalType": "address",
          "name": "_walletAddress",
          "type": "address"
        },
        {
          "internalType": "uint256",
          "name": "_bidValue",
          "type": "uint256"
        }
      ],
      "name": "addBidder",
      "outputs": [],
      "stateMutability": "nonpayable",
      "type": "function"
    },
    {
      "inputs": [
        {
          "internalType": "uint256",
          "name": "",
          "type": "uint256"
        }
      ],
      "name": "bidders",
      "outputs": [
        {
          "internalType": "uint256",
          "name": "bidderID",
          "type": "uint256"
        },
        {
          "internalType": "address",
          "name": "walletAddress",
          "type": "address"
        },
        {
          "internalType": "uint256",
          "name": "bidValue",
          "type": "uint256"
        },
        {
          "internalType": "uint256",
          "name": "tokensPurchased",
          "type": "uint256"
        },
        {
          "internalType": "uint256",
          "name": "refundEth",
          "type": "uint256"
        },
        {
          "internalType": "bool",
          "name": "tokenSent",
          "type": "bool"
        },
        {
          "internalType": "bool",
          "name": "ethRefunded",
          "type": "bool"
        }
      ],
      "stateMutability": "view",
      "type": "function"
    },
    {
      "inputs": [
        {
          "internalType": "uint256",
          "name": "_bidderID",
          "type": "uint256"
        }
      ],
      "name": "getBidderInfo",
      "outputs": [
        {
          "components": [
            {
              "internalType": "uint256",
              "name": "bidderID",
              "type": "uint256"
            },
            {
              "internalType": "address",
              "name": "walletAddress",
              "type": "address"
            },
            {
              "internalType": "uint256",
              "name": "bidValue",
              "type": "uint256"
            },
            {
              "internalType": "uint256",
              "name": "tokensPurchased",
              "type": "uint256"
            },
            {
              "internalType": "uint256",
              "name": "refundEth",
              "type": "uint256"
            },
            {
              "internalType": "bool",
              "name": "tokenSent",
              "type": "bool"
            },
            {
              "internalType": "bool",
              "name": "ethRefunded",
              "type": "bool"
            }
          ],
          "internalType": "struct Bidder.BidderInfo",
          "name": "",
          "type": "tuple"
        }
      ],
      "stateMutability": "view",
      "type": "function"
    },
    {
      "inputs": [
        {
          "internalType": "uint256",
          "name": "_bidderID",
          "type": "uint256"
        },
        {
          "internalType": "uint256",
          "name": "_refundAmount",
          "type": "uint256"
        }
      ],
      "name": "setRefund",
      "outputs": [],
      "stateMutability": "nonpayable",
      "type": "function"
    },
    {
      "inputs": [
        {
          "internalType": "uint256",
          "name": "_bidderID",
          "type": "uint256"
        },
        {
          "internalType": "uint256",
          "name": "_tokensPurchased",
          "type": "uint256"
        }
      ],
      "name": "setTokensPurchased",
      "outputs": [],
      "stateMutability": "nonpayable",
      "type": "function"
    },
    {
      "inputs": [],
      "name": "totalBidders",
      "outputs": [
        {
          "internalType": "uint256",
          "name": "",
          "type": "uint256"
        }
      ],
      "stateMutability": "view",
      "type": "function"
    }
  ],
  "bytecode": "0x6080604052348015600f57600080fd5b50610a158061001f6000396000f3fe608060405234801561001057600080fd5b50600436106100625760003560e01c806330840a3e14610067578063743f626314610083578063bbca9fd51461009f578063cff29dfd146100bb578063de71bf07146100f1578063ff6a6d651461010f575b600080fd5b610081600480360381019061007c919061067c565b61013f565b005b61009d600480360381019061009891906106bc565b6102b2565b005b6100b960048036038101906100b491906106bc565b61034c565b005b6100d560048036038101906100d091906106fc565b6103e6565b6040516100e89796959493929190610762565b60405180910390f35b6100f9610462565b60405161010691906107d1565b60405180910390f35b610129600480360381019061012491906106fc565b610468565b60405161013691906108a7565b60405180910390f35b600060015490506040518060e001604052808281526020018473ffffffffffffffffffffffffffffffffffffffff1681526020018381526020016000815260200160008152602001600015158152602001600015158152506000808381526020019081526020016000206000820151816000015560208201518160010160006101000a81548173ffffffffffffffffffffffffffffffffffffffff021916908373ffffffffffffffffffffffffffffffffffffffff16021790555060408201518160020155606082015181600301556080820151816004015560a08201518160050160006101000a81548160ff02191690831515021790555060c08201518160050160016101000a81548160ff021916908315150217905550905050807f26548a55603217b1dae1d10532937779f21b565c4f88aedf3d3d5b6b7b2c2f24848460405161028d9291906108c2565b60405180910390a2600160008154809291906102a89061091a565b9190505550505050565b60015482106102f6576040517f08c379a00000000000000000000000000000000000000000000000000000000081526004016102ed906109bf565b60405180910390fd5b8060008084815260200190815260200160002060030181905550817f0350e1165f0f548d4d7a9ae9e57f282526b8aa4a8cd51dda7aec17041fe8e2198260405161034091906107d1565b60405180910390a25050565b6001548210610390576040517f08c379a0000000000000000000000000000000000000000000000000000000008152600401610387906109bf565b60405180910390fd5b8060008084815260200190815260200160002060040181905550817f5b1907460c5f0400ff899d46abd5b8a1fac31c506d8190fde794dff9d00357f3826040516103da91906107d1565b60405180910390a25050565b60006020528060005260406000206000915090508060000154908060010160009054906101000a900473ffffffffffffffffffffffffffffffffffffffff16908060020154908060030154908060040154908060050160009054906101000a900460ff16908060050160019054906101000a900460ff16905087565b60015481565b61047061058c565b60015482106104b4576040517f08c379a00000000000000000000000000000000000000000000000000000000081526004016104ab906109bf565b60405180910390fd5b6000808381526020019081526020016000206040518060e0016040529081600082015481526020016001820160009054906101000a900473ffffffffffffffffffffffffffffffffffffffff1673ffffffffffffffffffffffffffffffffffffffff1673ffffffffffffffffffffffffffffffffffffffff1681526020016002820154815260200160038201548152602001600482015481526020016005820160009054906101000a900460ff161515151581526020016005820160019054906101000a900460ff1615151515815250509050919050565b6040518060e0016040528060008152602001600073ffffffffffffffffffffffffffffffffffffffff1681526020016000815260200160008152602001600081526020016000151581526020016000151581525090565b600080fd5b600073ffffffffffffffffffffffffffffffffffffffff82169050919050565b6000610613826105e8565b9050919050565b61062381610608565b811461062e57600080fd5b50565b6000813590506106408161061a565b92915050565b6000819050919050565b61065981610646565b811461066457600080fd5b50565b60008135905061067681610650565b92915050565b60008060408385031215610693576106926105e3565b5b60006106a185828601610631565b92505060206106b285828601610667565b9150509250929050565b600080604083850312156106d3576106d26105e3565b5b60006106e185828601610667565b92505060206106f285828601610667565b9150509250929050565b600060208284031215610712576107116105e3565b5b600061072084828501610667565b91505092915050565b61073281610646565b82525050565b61074181610608565b82525050565b60008115159050919050565b61075c81610747565b82525050565b600060e082019050610777600083018a610729565b6107846020830189610738565b6107916040830188610729565b61079e6060830187610729565b6107ab6080830186610729565b6107b860a0830185610753565b6107c560c0830184610753565b98975050505050505050565b60006020820190506107e66000830184610729565b92915050565b6107f581610646565b82525050565b61080481610608565b82525050565b61081381610747565b82525050565b60e08201600082015161082f60008501826107ec565b50602082015161084260208501826107fb565b50604082015161085560408501826107ec565b50606082015161086860608501826107ec565b50608082015161087b60808501826107ec565b5060a082015161088e60a085018261080a565b5060c08201516108a160c085018261080a565b50505050565b600060e0820190506108bc6000830184610819565b92915050565b60006040820190506108d76000830185610738565b6108e46020830184610729565b9392505050565b7f4e487b7100000000000000000000000000000000000000000000000000000000600052601160045260246000fd5b600061092582610646565b91507fffffffffffffffffffffffffffffffffffffffffffffffffffffffffffffffff8203610957576109566108eb565b5b600182019050919050565b600082825260208201905092915050565b7f496e76616c696420626964646572204944000000000000000000000000000000600082015250565b60006109a9601183610962565b91506109b482610973565b602082019050919050565b600060208201905081810360008301526109d88161099c565b905091905056fea264697066735822122033b5b4a69129140b082a972aa2e5fe50857338c667156e4a520d9ca2179c838864736f6c634300081b0033",
  "linkReferences": {},
  "deployedLinkReferences": {}
}