{
  "_format": "hh-sol-artifact-1",
  "contractName": "DutchAuction",
  "sourceName": "contracts/Auction.sol",
  "abi": [
    {
      "inputs": [
        {
          "internalType": "address",
          "name": "_token",
          "type": "address"
        },
        {
          "internalType": "address",
          "name": "_bidderContract",
          "type": "address"
        },
        {
          "internalType": "uint256",
          "name": "_startPrice",
          "type": "uint256"
        },
        {
          "internalType": "uint256",
          "name": "_reservePrice",
          "type": "uint256"
        },
        {
          "internalType": "uint256",
          "name": "_auctionDuration",
          "type": "uint256"
        },
        {
          "internalType": "uint256",
          "name": "_totalTokens",
          "type": "uint256"
        },
        {
          "internalType": "uint256",
          "name": "_priceDecrement",
          "type": "uint256"
        }
      ],
      "stateMutability": "nonpayable",
      "type": "constructor"
    },
    {
      "inputs": [],
      "name": "ReentrancyGuardReentrantCall",
      "type": "error"
    },
    {
      "anonymous": false,
      "inputs": [
        {
          "indexed": false,
          "internalType": "uint256",
          "name": "totalFundsRaised",
          "type": "uint256"
        },
        {
          "indexed": false,
          "internalType": "uint256",
          "name": "unsoldTokens",
          "type": "uint256"
        }
      ],
      "name": "AuctionEnded",
      "type": "event"
    },
    {
      "anonymous": false,
      "inputs": [],
      "name": "AuctionPaused",
      "type": "event"
    },
    {
      "anonymous": false,
      "inputs": [],
      "name": "AuctionResumed",
      "type": "event"
    },
    {
      "anonymous": false,
      "inputs": [
        {
          "indexed": false,
          "internalType": "uint256",
          "name": "startTime",
          "type": "uint256"
        },
        {
          "indexed": false,
          "internalType": "uint256",
          "name": "startPrice",
          "type": "uint256"
        },
        {
          "indexed": false,
          "internalType": "uint256",
          "name": "reservePrice",
          "type": "uint256"
        },
        {
          "indexed": false,
          "internalType": "uint256",
          "name": "totalTokens",
          "type": "uint256"
        }
      ],
      "name": "AuctionStarted",
      "type": "event"
    },
    {
      "anonymous": false,
      "inputs": [
        {
          "indexed": true,
          "internalType": "address",
          "name": "bidder",
          "type": "address"
        },
        {
          "indexed": false,
          "internalType": "uint256",
          "name": "bidAmount",
          "type": "uint256"
        },
        {
          "indexed": false,
          "internalType": "uint256",
          "name": "tokensAllocated",
          "type": "uint256"
        }
      ],
      "name": "BidPlaced",
      "type": "event"
    },
    {
      "inputs": [],
      "name": "auctionDuration",
      "outputs": [
        {
          "internalType": "uint256",
          "name": "",
          "type": "uint256"
        }
      ],
      "stateMutability": "view",
      "type": "function"
    },
    {
      "inputs": [],
      "name": "auctionState",
      "outputs": [
        {
          "internalType": "enum DutchAuction.AuctionState",
          "name": "",
          "type": "uint8"
        }
      ],
      "stateMutability": "view",
      "type": "function"
    },
    {
      "inputs": [],
      "name": "bidderContract",
      "outputs": [
        {
          "internalType": "contract Bidder",
          "name": "",
          "type": "address"
        }
      ],
      "stateMutability": "view",
      "type": "function"
    },
    {
      "inputs": [],
      "name": "getAuctionStatus",
      "outputs": [
        {
          "internalType": "enum DutchAuction.AuctionState",
          "name": "",
          "type": "uint8"
        }
      ],
      "stateMutability": "view",
      "type": "function"
    },
    {
      "inputs": [
        {
          "internalType": "uint256",
          "name": "bidderID",
          "type": "uint256"
        }
      ],
      "name": "getBidderInfo",
      "outputs": [
        {
          "components": [
            {
              "internalType": "uint256",
              "name": "bidderID",
              "type": "uint256"
            },
            {
              "internalType": "address",
              "name": "walletAddress",
              "type": "address"
            },
            {
              "internalType": "uint256",
              "name": "bidValue",
              "type": "uint256"
            },
            {
              "internalType": "uint256",
              "name": "tokensPurchased",
              "type": "uint256"
            },
            {
              "internalType": "uint256",
              "name": "refundEth",
              "type": "uint256"
            },
            {
              "internalType": "bool",
              "name": "tokenSent",
              "type": "bool"
            },
            {
              "internalType": "bool",
              "name": "ethRefunded",
              "type": "bool"
            }
          ],
          "internalType": "struct Bidder.BidderInfo",
          "name": "",
          "type": "tuple"
        }
      ],
      "stateMutability": "view",
      "type": "function"
    },
    {
      "inputs": [],
      "name": "getCurrentPrice",
      "outputs": [
        {
          "internalType": "uint256",
          "name": "",
          "type": "uint256"
        }
      ],
      "stateMutability": "view",
      "type": "function"
    },
    {
      "inputs": [],
      "name": "getRemainingTokens",
      "outputs": [
        {
          "internalType": "uint256",
          "name": "",
          "type": "uint256"
        }
      ],
      "stateMutability": "view",
      "type": "function"
    },
    {
      "inputs": [],
      "name": "getTotalFundsRaised",
      "outputs": [
        {
          "internalType": "uint256",
          "name": "",
          "type": "uint256"
        }
      ],
      "stateMutability": "view",
      "type": "function"
    },
    {
      "inputs": [],
      "name": "owner",
      "outputs": [
        {
          "internalType": "address",
          "name": "",
          "type": "address"
        }
      ],
      "stateMutability": "view",
      "type": "function"
    },
    {
      "inputs": [],
      "name": "pauseAuction",
      "outputs": [],
      "stateMutability": "nonpayable",
      "type": "function"
    },
    {
      "inputs": [],
      "name": "placeBid",
      "outputs": [],
      "stateMutability": "payable",
      "type": "function"
    },
    {
      "inputs": [],
      "name": "priceDecrement",
      "outputs": [
        {
          "internalType": "uint256",
          "name": "",
          "type": "uint256"
        }
      ],
      "stateMutability": "view",
      "type": "function"
    },
    {
      "inputs": [],
      "name": "reservePrice",
      "outputs": [
        {
          "internalType": "uint256",
          "name": "",
          "type": "uint256"
        }
      ],
      "stateMutability": "view",
      "type": "function"
    },
    {
      "inputs": [],
      "name": "resumeAuction",
      "outputs": [],
      "stateMutability": "nonpayable",
      "type": "function"
    },
    {
      "inputs": [],
      "name": "startAuction",
      "outputs": [],
      "stateMutability": "nonpayable",
      "type": "function"
    },
    {
      "inputs": [],
      "name": "startPrice",
      "outputs": [
        {
          "internalType": "uint256",
          "name": "",
          "type": "uint256"
        }
      ],
      "stateMutability": "view",
      "type": "function"
    },
    {
      "inputs": [],
      "name": "startTime",
      "outputs": [
        {
          "internalType": "uint256",
          "name": "",
          "type": "uint256"
        }
      ],
      "stateMutability": "view",
      "type": "function"
    },
    {
      "inputs": [],
      "name": "token",
      "outputs": [
        {
          "internalType": "contract IERC20",
          "name": "",
          "type": "address"
        }
      ],
      "stateMutability": "view",
      "type": "function"
    },
    {
      "inputs": [],
      "name": "totalFundsRaised",
      "outputs": [
        {
          "internalType": "uint256",
          "name": "",
          "type": "uint256"
        }
      ],
      "stateMutability": "view",
      "type": "function"
    },
    {
      "inputs": [],
      "name": "totalTokensAvailable",
      "outputs": [
        {
          "internalType": "uint256",
          "name": "",
          "type": "uint256"
        }
      ],
      "stateMutability": "view",
      "type": "function"
    },
    {
      "inputs": [],
      "name": "withdrawFunds",
      "outputs": [],
      "stateMutability": "nonpayable",
      "type": "function"
    },
    {
      "inputs": [],
      "name": "withdrawRefund",
      "outputs": [],
      "stateMutability": "nonpayable",
      "type": "function"
    }
  ],
  "bytecode": "0x608060405234801561001057600080fd5b5060405161245a38038061245a833981810160405281019061003291906101f0565b600160008190555033600160006101000a81548173ffffffffffffffffffffffffffffffffffffffff021916908373ffffffffffffffffffffffffffffffffffffffff16021790555086600260006101000a81548173ffffffffffffffffffffffffffffffffffffffff021916908373ffffffffffffffffffffffffffffffffffffffff16021790555085600360006101000a81548173ffffffffffffffffffffffffffffffffffffffff021916908373ffffffffffffffffffffffffffffffffffffffff16021790555084600481905550836005819055508260068190555081600881905550806009819055506002600b60006101000a81548160ff0219169083600281111561014657610145610292565b5b0217905550505050505050506102c1565b600080fd5b600073ffffffffffffffffffffffffffffffffffffffff82169050919050565b60006101878261015c565b9050919050565b6101978161017c565b81146101a257600080fd5b50565b6000815190506101b48161018e565b92915050565b6000819050919050565b6101cd816101ba565b81146101d857600080fd5b50565b6000815190506101ea816101c4565b92915050565b600080600080600080600060e0888a03121561020f5761020e610157565b5b600061021d8a828b016101a5565b975050602061022e8a828b016101a5565b965050604061023f8a828b016101db565b95505060606102508a828b016101db565b94505060806102618a828b016101db565b93505060a06102728a828b016101db565b92505060c06102838a828b016101db565b91505092959891949750929550565b7f4e487b7100000000000000000000000000000000000000000000000000000000600052602160045260246000fd5b61218a806102d06000396000f3fe6080604052600436106101355760003560e01c806378e97925116100ab578063db2e1eed1161006f578063db2e1eed14610386578063eb91d37e146103b1578063ecfc7ecc146103dc578063f1a9af89146103e6578063fc0c546a14610411578063ff6a6d651461043c57610135565b806378e97925146102c35780637fb45099146102ee5780638da5cb5b14610319578063af35ae2714610344578063b9ae73641461036f57610135565b80632e93be30116100fd5780632e93be30146101e957806332353fbd14610214578063427c0c7f1461022b578063621de3c4146102565780636b64c769146102815780636dd2cbe51461029857610135565b80630c3e2d2d1461013a5780630cbf54c814610165578063110f88741461019057806324600fc3146101a757806326cddbfb146101be575b600080fd5b34801561014657600080fd5b5061014f610479565b60405161015c9190611595565b60405180910390f35b34801561017157600080fd5b5061017a610483565b6040516101879190611595565b60405180910390f35b34801561019c57600080fd5b506101a5610489565b005b3480156101b357600080fd5b506101bc6107f8565b005b3480156101ca57600080fd5b506101d361096a565b6040516101e09190611595565b60405180910390f35b3480156101f557600080fd5b506101fe610970565b60405161020b9190611627565b60405180910390f35b34801561022057600080fd5b50610229610987565b005b34801561023757600080fd5b50610240610ae6565b60405161024d9190611595565b60405180910390f35b34801561026257600080fd5b5061026b610aec565b60405161027891906116c1565b60405180910390f35b34801561028d57600080fd5b50610296610b12565b005b3480156102a457600080fd5b506102ad610c90565b6040516102ba9190611595565b60405180910390f35b3480156102cf57600080fd5b506102d8610c96565b6040516102e59190611595565b60405180910390f35b3480156102fa57600080fd5b50610303610c9c565b6040516103109190611627565b60405180910390f35b34801561032557600080fd5b5061032e610caf565b60405161033b91906116fd565b60405180910390f35b34801561035057600080fd5b50610359610cd5565b6040516103669190611595565b60405180910390f35b34801561037b57600080fd5b50610384610cdf565b005b34801561039257600080fd5b5061039b610e3e565b6040516103a89190611595565b60405180910390f35b3480156103bd57600080fd5b506103c6610e44565b6040516103d39190611595565b60405180910390f35b6103e4610ebe565b005b3480156103f257600080fd5b506103fb611256565b6040516104089190611595565b60405180910390f35b34801561041d57600080fd5b5061042661125c565b6040516104339190611739565b60405180910390f35b34801561044857600080fd5b50610463600480360381019061045e919061178f565b611282565b6040516104709190611883565b60405180910390f35b6000600a54905090565b60065481565b61049161132d565b6000600360009054906101000a900473ffffffffffffffffffffffffffffffffffffffff1673ffffffffffffffffffffffffffffffffffffffff1663ff6a6d656001600360009054906101000a900473ffffffffffffffffffffffffffffffffffffffff1673ffffffffffffffffffffffffffffffffffffffff1663de71bf076040518163ffffffff1660e01b8152600401602060405180830381865afa158015610540573d6000803e3d6000fd5b505050506040513d601f19601f8201168201806040525081019061056491906118b3565b61056e919061190f565b6040518263ffffffff1660e01b815260040161058a9190611595565b60e060405180830381865afa1580156105a7573d6000803e3d6000fd5b505050506040513d601f19601f820116820180604052508101906105cb9190611ae0565b60800151905060008111610614576040517f08c379a000000000000000000000000000000000000000000000000000000000815260040161060b90611b6a565b60405180910390fd5b600360009054906101000a900473ffffffffffffffffffffffffffffffffffffffff1673ffffffffffffffffffffffffffffffffffffffff1663bbca9fd56001600360009054906101000a900473ffffffffffffffffffffffffffffffffffffffff1673ffffffffffffffffffffffffffffffffffffffff1663de71bf076040518163ffffffff1660e01b8152600401602060405180830381865afa1580156106c1573d6000803e3d6000fd5b505050506040513d601f19601f820116820180604052508101906106e591906118b3565b6106ef919061190f565b60006040518363ffffffff1660e01b815260040161070e929190611bc5565b600060405180830381600087803b15801561072857600080fd5b505af115801561073c573d6000803e3d6000fd5b5050505060003373ffffffffffffffffffffffffffffffffffffffff168260405161076690611c1f565b60006040518083038185875af1925050503d80600081146107a3576040519150601f19603f3d011682016040523d82523d6000602084013e6107a8565b606091505b50509050806107ec576040517f08c379a00000000000000000000000000000000000000000000000000000000081526004016107e390611c80565b60405180910390fd5b50506107f6611373565b565b600160009054906101000a900473ffffffffffffffffffffffffffffffffffffffff1673ffffffffffffffffffffffffffffffffffffffff163373ffffffffffffffffffffffffffffffffffffffff1614610888576040517f08c379a000000000000000000000000000000000000000000000000000000000815260040161087f90611cec565b60405180910390fd5b60028081111561089b5761089a6115b0565b5b600b60009054906101000a900460ff1660028111156108bd576108bc6115b0565b5b146108fd576040517f08c379a00000000000000000000000000000000000000000000000000000000081526004016108f490611d58565b60405180910390fd5b600160009054906101000a900473ffffffffffffffffffffffffffffffffffffffff1673ffffffffffffffffffffffffffffffffffffffff166108fc600a549081150290604051600060405180830381858888f19350505050158015610967573d6000803e3d6000fd5b50565b60095481565b6000600b60009054906101000a900460ff16905090565b600160009054906101000a900473ffffffffffffffffffffffffffffffffffffffff1673ffffffffffffffffffffffffffffffffffffffff163373ffffffffffffffffffffffffffffffffffffffff1614610a17576040517f08c379a0000000000000000000000000000000000000000000000000000000008152600401610a0e90611cec565b60405180910390fd5b60016002811115610a2b57610a2a6115b0565b5b600b60009054906101000a900460ff166002811115610a4d57610a4c6115b0565b5b14610a8d576040517f08c379a0000000000000000000000000000000000000000000000000000000008152600401610a8490611dc4565b60405180910390fd5b6000600b60006101000a81548160ff02191690836002811115610ab357610ab26115b0565b5b02179055507f979e0f22222b399f6e77f2614325775244291877598c6174fd7caf44b4bdfcc560405160405180910390a1565b600a5481565b600360009054906101000a900473ffffffffffffffffffffffffffffffffffffffff1681565b600160009054906101000a900473ffffffffffffffffffffffffffffffffffffffff1673ffffffffffffffffffffffffffffffffffffffff163373ffffffffffffffffffffffffffffffffffffffff1614610ba2576040517f08c379a0000000000000000000000000000000000000000000000000000000008152600401610b9990611cec565b60405180910390fd5b600280811115610bb557610bb46115b0565b5b600b60009054906101000a900460ff166002811115610bd757610bd66115b0565b5b14610c17576040517f08c379a0000000000000000000000000000000000000000000000000000000008152600401610c0e90611e56565b60405180910390fd5b426007819055506000600b60006101000a81548160ff02191690836002811115610c4457610c436115b0565b5b02179055507fa832766a05f1bd0298b0268308621777cfe1e4eea23afe7c06beea79bc6ddd2d600754600454600554600854604051610c869493929190611e76565b60405180910390a1565b60085481565b60075481565b600b60009054906101000a900460ff1681565b600160009054906101000a900473ffffffffffffffffffffffffffffffffffffffff1681565b6000600854905090565b600160009054906101000a900473ffffffffffffffffffffffffffffffffffffffff1673ffffffffffffffffffffffffffffffffffffffff163373ffffffffffffffffffffffffffffffffffffffff1614610d6f576040517f08c379a0000000000000000000000000000000000000000000000000000000008152600401610d6690611cec565b60405180910390fd5b60006002811115610d8357610d826115b0565b5b600b60009054906101000a900460ff166002811115610da557610da46115b0565b5b14610de5576040517f08c379a0000000000000000000000000000000000000000000000000000000008152600401610ddc90611f07565b60405180910390fd5b6001600b60006101000a81548160ff02191690836002811115610e0b57610e0a6115b0565b5b02179055507f749d6d79623c8cbd2345906702c70ae75d4254a6c409047c16d52fa5a37ef69860405160405180910390a1565b60055481565b6000600654600754610e569190611f27565b4210610e66576005549050610ebb565b6000603c60075442610e78919061190f565b610e829190611f8a565b9050600060095482610e949190611fbb565b90508060045411610ea757600554610eb6565b80600454610eb5919061190f565b5b925050505b90565b610ec661132d565b60006002811115610eda57610ed96115b0565b5b600b60009054906101000a900460ff166002811115610efc57610efb6115b0565b5b14610f3c576040517f08c379a0000000000000000000000000000000000000000000000000000000008152600401610f3390611f07565b60405180910390fd5b6000610f46610e44565b905080341015610f8b576040517f08c379a0000000000000000000000000000000000000000000000000000000008152600401610f8290612049565b60405180910390fd5b60008134610f999190611f8a565b9050600854811115610fe0576040517f08c379a0000000000000000000000000000000000000000000000000000000008152600401610fd7906120b5565b60405180910390fd5b8060086000828254610ff2919061190f565b9250508190555034600a600082825461100b9190611f27565b92505081905550600360009054906101000a900473ffffffffffffffffffffffffffffffffffffffff1673ffffffffffffffffffffffffffffffffffffffff166330840a3e33346040518363ffffffff1660e01b815260040161106f9291906120d5565b600060405180830381600087803b15801561108957600080fd5b505af115801561109d573d6000803e3d6000fd5b50505050600360009054906101000a900473ffffffffffffffffffffffffffffffffffffffff1673ffffffffffffffffffffffffffffffffffffffff1663743f62636001600360009054906101000a900473ffffffffffffffffffffffffffffffffffffffff1673ffffffffffffffffffffffffffffffffffffffff1663de71bf076040518163ffffffff1660e01b8152600401602060405180830381865afa15801561114e573d6000803e3d6000fd5b505050506040513d601f19601f8201168201806040525081019061117291906118b3565b61117c919061190f565b836040518363ffffffff1660e01b815260040161119a9291906120fe565b600060405180830381600087803b1580156111b457600080fd5b505af11580156111c8573d6000803e3d6000fd5b505050503373ffffffffffffffffffffffffffffffffffffffff167fdf8644c0a4c21ed214ce69f395675b3a5fcd1039083daea5058898de40ea314934836040516112149291906120fe565b60405180910390a26000600854148061123c57506006546007546112389190611f27565b4210155b1561124a5761124961137d565b5b5050611254611373565b565b60045481565b600260009054906101000a900473ffffffffffffffffffffffffffffffffffffffff1681565b61128a611525565b600360009054906101000a900473ffffffffffffffffffffffffffffffffffffffff1673ffffffffffffffffffffffffffffffffffffffff1663ff6a6d65836040518263ffffffff1660e01b81526004016112e59190611595565b60e060405180830381865afa158015611302573d6000803e3d6000fd5b505050506040513d601f19601f820116820180604052508101906113269190611ae0565b9050919050565b600260005403611369576040517f3ee5aeb500000000000000000000000000000000000000000000000000000000815260040160405180910390fd5b6002600081905550565b6001600081905550565b6002600b60006101000a81548160ff021916908360028111156113a3576113a26115b0565b5b021790555060006008549050600160009054906101000a900473ffffffffffffffffffffffffffffffffffffffff1673ffffffffffffffffffffffffffffffffffffffff166108fc600a549081150290604051600060405180830381858888f19350505050158015611419573d6000803e3d6000fd5b5060008111156114e757600260009054906101000a900473ffffffffffffffffffffffffffffffffffffffff1673ffffffffffffffffffffffffffffffffffffffff1663a9059cbb600160009054906101000a900473ffffffffffffffffffffffffffffffffffffffff16836040518363ffffffff1660e01b81526004016114a29291906120d5565b6020604051808303816000875af11580156114c1573d6000803e3d6000fd5b505050506040513d601f19601f820116820180604052508101906114e59190612127565b505b7fe536ac546f86787f3ea4069f79235c6b5a681e87d051300a3ed19a6ebb0db71c600a548260405161151a9291906120fe565b60405180910390a150565b6040518060e0016040528060008152602001600073ffffffffffffffffffffffffffffffffffffffff1681526020016000815260200160008152602001600081526020016000151581526020016000151581525090565b6000819050919050565b61158f8161157c565b82525050565b60006020820190506115aa6000830184611586565b92915050565b7f4e487b7100000000000000000000000000000000000000000000000000000000600052602160045260246000fd5b600381106115f0576115ef6115b0565b5b50565b6000819050611601826115df565b919050565b6000611611826115f3565b9050919050565b61162181611606565b82525050565b600060208201905061163c6000830184611618565b92915050565b600073ffffffffffffffffffffffffffffffffffffffff82169050919050565b6000819050919050565b600061168761168261167d84611642565b611662565b611642565b9050919050565b60006116998261166c565b9050919050565b60006116ab8261168e565b9050919050565b6116bb816116a0565b82525050565b60006020820190506116d660008301846116b2565b92915050565b60006116e782611642565b9050919050565b6116f7816116dc565b82525050565b600060208201905061171260008301846116ee565b92915050565b60006117238261168e565b9050919050565b61173381611718565b82525050565b600060208201905061174e600083018461172a565b92915050565b6000604051905090565b600080fd5b61176c8161157c565b811461177757600080fd5b50565b60008135905061178981611763565b92915050565b6000602082840312156117a5576117a461175e565b5b60006117b38482850161177a565b91505092915050565b6117c58161157c565b82525050565b6117d4816116dc565b82525050565b60008115159050919050565b6117ef816117da565b82525050565b60e08201600082015161180b60008501826117bc565b50602082015161181e60208501826117cb565b50604082015161183160408501826117bc565b50606082015161184460608501826117bc565b50608082015161185760808501826117bc565b5060a082015161186a60a08501826117e6565b5060c082015161187d60c08501826117e6565b50505050565b600060e08201905061189860008301846117f5565b92915050565b6000815190506118ad81611763565b92915050565b6000602082840312156118c9576118c861175e565b5b60006118d78482850161189e565b91505092915050565b7f4e487b7100000000000000000000000000000000000000000000000000000000600052601160045260246000fd5b600061191a8261157c565b91506119258361157c565b925082820390508181111561193d5761193c6118e0565b5b92915050565b600080fd5b6000601f19601f8301169050919050565b7f4e487b7100000000000000000000000000000000000000000000000000000000600052604160045260246000fd5b61199182611948565b810181811067ffffffffffffffff821117156119b0576119af611959565b5b80604052505050565b60006119c3611754565b90506119cf8282611988565b919050565b6119dd816116dc565b81146119e857600080fd5b50565b6000815190506119fa816119d4565b92915050565b611a09816117da565b8114611a1457600080fd5b50565b600081519050611a2681611a00565b92915050565b600060e08284031215611a4257611a41611943565b5b611a4c60e06119b9565b90506000611a5c8482850161189e565b6000830152506020611a70848285016119eb565b6020830152506040611a848482850161189e565b6040830152506060611a988482850161189e565b6060830152506080611aac8482850161189e565b60808301525060a0611ac084828501611a17565b60a08301525060c0611ad484828501611a17565b60c08301525092915050565b600060e08284031215611af657611af561175e565b5b6000611b0484828501611a2c565b91505092915050565b600082825260208201905092915050565b7f4e6f20726566756e6420617661696c61626c6500000000000000000000000000600082015250565b6000611b54601383611b0d565b9150611b5f82611b1e565b602082019050919050565b60006020820190508181036000830152611b8381611b47565b9050919050565b6000819050919050565b6000611baf611baa611ba584611b8a565b611662565b61157c565b9050919050565b611bbf81611b94565b82525050565b6000604082019050611bda6000830185611586565b611be76020830184611bb6565b9392505050565b600081905092915050565b50565b6000611c09600083611bee565b9150611c1482611bf9565b600082019050919050565b6000611c2a82611bfc565b9150819050919050565b7f526566756e64207472616e73666572206661696c656400000000000000000000600082015250565b6000611c6a601683611b0d565b9150611c7582611c34565b602082019050919050565b60006020820190508181036000830152611c9981611c5d565b9050919050565b7f4e6f7420746865206f776e657200000000000000000000000000000000000000600082015250565b6000611cd6600d83611b0d565b9150611ce182611ca0565b602082019050919050565b60006020820190508181036000830152611d0581611cc9565b9050919050565b7f41756374696f6e206973206e6f7420636c6f7365640000000000000000000000600082015250565b6000611d42601583611b0d565b9150611d4d82611d0c565b602082019050919050565b60006020820190508181036000830152611d7181611d35565b9050919050565b7f41756374696f6e206973206e6f74207061757365640000000000000000000000600082015250565b6000611dae601583611b0d565b9150611db982611d78565b602082019050919050565b60006020820190508181036000830152611ddd81611da1565b9050919050565b7f41756374696f6e20616c72656164792073746172746564206f7220706175736560008201527f6400000000000000000000000000000000000000000000000000000000000000602082015250565b6000611e40602183611b0d565b9150611e4b82611de4565b604082019050919050565b60006020820190508181036000830152611e6f81611e33565b9050919050565b6000608082019050611e8b6000830187611586565b611e986020830186611586565b611ea56040830185611586565b611eb26060830184611586565b95945050505050565b7f41756374696f6e206973206e6f74206f70656e00000000000000000000000000600082015250565b6000611ef1601383611b0d565b9150611efc82611ebb565b602082019050919050565b60006020820190508181036000830152611f2081611ee4565b9050919050565b6000611f328261157c565b9150611f3d8361157c565b9250828201905080821115611f5557611f546118e0565b5b92915050565b7f4e487b7100000000000000000000000000000000000000000000000000000000600052601260045260246000fd5b6000611f958261157c565b9150611fa08361157c565b925082611fb057611faf611f5b565b5b828204905092915050565b6000611fc68261157c565b9150611fd18361157c565b9250828202611fdf8161157c565b91508282048414831517611ff657611ff56118e0565b5b5092915050565b7f4269642062656c6f772063757272656e74207072696365000000000000000000600082015250565b6000612033601783611b0d565b915061203e82611ffd565b602082019050919050565b6000602082019050818103600083015261206281612026565b9050919050565b7f4e6f7420656e6f75676820746f6b656e73206c65667400000000000000000000600082015250565b600061209f601683611b0d565b91506120aa82612069565b602082019050919050565b600060208201905081810360008301526120ce81612092565b9050919050565b60006040820190506120ea60008301856116ee565b6120f76020830184611586565b9392505050565b60006040820190506121136000830185611586565b6121206020830184611586565b9392505050565b60006020828403121561213d5761213c61175e565b5b600061214b84828501611a17565b9150509291505056fea2646970667358221220633cd00cabfeacd31e71734f2532a05ea495e5d1531db8ad18d0b82741de715d64736f6c634300081b0033",
  "linkReferences": {},
  "deployedLinkReferences": {}
}