{
  "_format": "hh-sol-artifact-1",
  "contractName": "BidderFactory",
  "sourceName": "contracts/Bidder.sol",
  "abi": [
    {
      "inputs": [
        {
          "internalType": "address",
          "name": "_revealContract",
          "type": "address"
        }
      ],
      "stateMutability": "nonpayable",
      "type": "constructor"
    },
    {
      "anonymous": false,
      "inputs": [
        {
          "indexed": true,
          "internalType": "address",
          "name": "owner",
          "type": "address"
        },
        {
          "indexed": true,
          "internalType": "address",
          "name": "bidder",
          "type": "address"
        }
      ],
      "name": "BidderCreated",
      "type": "event"
    },
    {
      "inputs": [
        {
          "internalType": "address payable",
          "name": "_owner",
          "type": "address"
        },
        {
          "internalType": "uint256",
          "name": "_currentPrice",
          "type": "uint256"
        }
      ],
      "name": "createBidderContract",
      "outputs": [
        {
          "internalType": "address",
          "name": "",
          "type": "address"
        }
      ],
      "stateMutability": "nonpayable",
      "type": "function"
    },
    {
      "inputs": [],
      "name": "getBidderAddress",
      "outputs": [
        {
          "internalType": "address",
          "name": "",
          "type": "address"
        }
      ],
      "stateMutability": "view",
      "type": "function"
    },
    {
      "inputs": [],
      "name": "getRevealContractAddress",
      "outputs": [
        {
          "internalType": "address",
          "name": "",
          "type": "address"
        }
      ],
      "stateMutability": "view",
      "type": "function"
    }
  ],
  "bytecode": "0x608060405234801561001057600080fd5b506040516111e93803806111e9833981810160405281019061003291906100db565b806000806101000a81548173ffffffffffffffffffffffffffffffffffffffff021916908373ffffffffffffffffffffffffffffffffffffffff16021790555050610108565b600080fd5b600073ffffffffffffffffffffffffffffffffffffffff82169050919050565b60006100a88261007d565b9050919050565b6100b88161009d565b81146100c357600080fd5b50565b6000815190506100d5816100af565b92915050565b6000602082840312156100f1576100f0610078565b5b60006100ff848285016100c6565b91505092915050565b6110d2806101176000396000f3fe608060405234801561001057600080fd5b50600436106100415760003560e01c80632823a34a146100465780638dcf1e1a14610076578063a4f6eb5914610094575b600080fd5b610060600480360381019061005b9190610448565b6100b2565b60405161006d91906104a9565b60405180910390f35b61007e610312565b60405161008b91906104a9565b60405180910390f35b61009c610379565b6040516100a991906104a9565b60405180910390f35b600080604051806020016100c5906103a2565b6020820181038252601f19601f820116604052508460008054906101000a900473ffffffffffffffffffffffffffffffffffffffff1660405160200161010c9291906104d3565b60405160208183030381529060405260405160200161012c92919061056d565b60405160208183030381529060405280519060200120905060008460008054906101000a900473ffffffffffffffffffffffffffffffffffffffff1685604051610175906103a2565b610181939291906105a0565b604051809103906000f08015801561019d573d6000803e3d6000fd5b50905060008054906101000a900473ffffffffffffffffffffffffffffffffffffffff1673ffffffffffffffffffffffffffffffffffffffff16636a4224c98630856040518463ffffffff1660e01b81526004016101fd9392919061064f565b600060405180830381600087803b15801561021757600080fd5b505af115801561022b573d6000803e3d6000fd5b5050505080600160008773ffffffffffffffffffffffffffffffffffffffff1673ffffffffffffffffffffffffffffffffffffffff16815260200190815260200160002060006101000a81548173ffffffffffffffffffffffffffffffffffffffff021916908373ffffffffffffffffffffffffffffffffffffffff1602179055508073ffffffffffffffffffffffffffffffffffffffff168573ffffffffffffffffffffffffffffffffffffffff167f8421a61fb252d883b5ce0e399afc7760d85fdbb6d06a16df8407cc24f4f8a67160405160405180910390a3809250505092915050565b6000600160003373ffffffffffffffffffffffffffffffffffffffff1673ffffffffffffffffffffffffffffffffffffffff16815260200190815260200160002060009054906101000a900473ffffffffffffffffffffffffffffffffffffffff16905090565b60008060009054906101000a900473ffffffffffffffffffffffffffffffffffffffff16905090565b610a168061068783390190565b600080fd5b600073ffffffffffffffffffffffffffffffffffffffff82169050919050565b60006103df826103b4565b9050919050565b6103ef816103d4565b81146103fa57600080fd5b50565b60008135905061040c816103e6565b92915050565b6000819050919050565b61042581610412565b811461043057600080fd5b50565b6000813590506104428161041c565b92915050565b6000806040838503121561045f5761045e6103af565b5b600061046d858286016103fd565b925050602061047e85828601610433565b9150509250929050565b6000610493826103b4565b9050919050565b6104a381610488565b82525050565b60006020820190506104be600083018461049a565b92915050565b6104cd816103d4565b82525050565b60006040820190506104e860008301856104c4565b6104f5602083018461049a565b9392505050565b600081519050919050565b600081905092915050565b60005b83811015610530578082015181840152602081019050610515565b60008484015250505050565b6000610547826104fc565b6105518185610507565b9350610561818560208601610512565b80840191505092915050565b6000610579828561053c565b9150610585828461053c565b91508190509392505050565b61059a81610412565b82525050565b60006060820190506105b560008301866104c4565b6105c2602083018561049a565b6105cf6040830184610591565b949350505050565b6000819050919050565b60006105fc6105f76105f2846103b4565b6105d7565b6103b4565b9050919050565b600061060e826105e1565b9050919050565b600061062082610603565b9050919050565b61063081610615565b82525050565b6000819050919050565b61064981610636565b82525050565b60006060820190506106646000830186610627565b610671602083018561049a565b61067e6040830184610640565b94935050505056fe6080604052604051610a16380380610a1683398181016040528101906100259190610193565b826000806101000a81548173ffffffffffffffffffffffffffffffffffffffff021916908373ffffffffffffffffffffffffffffffffffffffff16021790555081600360006101000a81548173ffffffffffffffffffffffffffffffffffffffff021916908373ffffffffffffffffffffffffffffffffffffffff16021790555080600281905550426001819055505050506101e6565b600080fd5b600073ffffffffffffffffffffffffffffffffffffffff82169050919050565b60006100ec826100c1565b9050919050565b6100fc816100e1565b811461010757600080fd5b50565b600081519050610119816100f3565b92915050565b600061012a826100c1565b9050919050565b61013a8161011f565b811461014557600080fd5b50565b60008151905061015781610131565b92915050565b6000819050919050565b6101708161015d565b811461017b57600080fd5b50565b60008151905061018d81610167565b92915050565b6000806000606084860312156101ac576101ab6100bc565b5b60006101ba8682870161010a565b93505060206101cb86828701610148565b92505060406101dc8682870161017e565b9150509250925092565b610821806101f56000396000f3fe60806040526004361061008a5760003560e01c80638b30bb0d116100595780638b30bb0d146101375780638f5949f914610160578063b80777ea1461018b578063cb797836146101b6578063def18101146101df5761008b565b806312065fe01461008d57806322f3e2d4146100b857806343129de1146100e3578063893d20e81461010c5761008b565b5b005b34801561009957600080fd5b506100a261020a565b6040516100af9190610579565b60405180910390f35b3480156100c457600080fd5b506100cd610212565b6040516100da91906105af565b60405180910390f35b3480156100ef57600080fd5b5061010a600480360381019061010591906105fb565b610225565b005b34801561011857600080fd5b506101216102bd565b60405161012e9190610669565b60405180910390f35b34801561014357600080fd5b5061015e600480360381019061015991906106c2565b6102e6565b005b34801561016c57600080fd5b50610175610402565b60405161018291906105af565b60405180910390f35b34801561019757600080fd5b506101a0610419565b6040516101ad9190610579565b60405180910390f35b3480156101c257600080fd5b506101dd60048036038101906101d891906105fb565b61041f565b005b3480156101eb57600080fd5b506101f461055a565b6040516102019190610579565b60405180910390f35b600047905090565b600360149054906101000a900460ff1681565b60008054906101000a900473ffffffffffffffffffffffffffffffffffffffff1673ffffffffffffffffffffffffffffffffffffffff163373ffffffffffffffffffffffffffffffffffffffff16146102b3576040517f08c379a00000000000000000000000000000000000000000000000000000000081526004016102aa9061075f565b60405180910390fd5b8060028190555050565b60008060009054906101000a900473ffffffffffffffffffffffffffffffffffffffff16905090565b60008054906101000a900473ffffffffffffffffffffffffffffffffffffffff1673ffffffffffffffffffffffffffffffffffffffff163373ffffffffffffffffffffffffffffffffffffffff1614610374576040517f08c379a000000000000000000000000000000000000000000000000000000000815260040161036b9061075f565b60405180910390fd5b478111156103b7576040517f08c379a00000000000000000000000000000000000000000000000000000000081526004016103ae906107cb565b60405180910390fd5b8173ffffffffffffffffffffffffffffffffffffffff166108fc829081150290604051600060405180830381858888f193505050501580156103fd573d6000803e3d6000fd5b505050565b6000600360149054906101000a900460ff16905090565b60015481565b60008054906101000a900473ffffffffffffffffffffffffffffffffffffffff1673ffffffffffffffffffffffffffffffffffffffff163373ffffffffffffffffffffffffffffffffffffffff16146104ad576040517f08c379a00000000000000000000000000000000000000000000000000000000081526004016104a49061075f565b60405180910390fd5b478111156104f0576040517f08c379a00000000000000000000000000000000000000000000000000000000081526004016104e7906107cb565b60405180910390fd5b60008054906101000a900473ffffffffffffffffffffffffffffffffffffffff1673ffffffffffffffffffffffffffffffffffffffff166108fc829081150290604051600060405180830381858888f19350505050158015610556573d6000803e3d6000fd5b5050565b60025481565b6000819050919050565b61057381610560565b82525050565b600060208201905061058e600083018461056a565b92915050565b60008115159050919050565b6105a981610594565b82525050565b60006020820190506105c460008301846105a0565b92915050565b600080fd5b6105d881610560565b81146105e357600080fd5b50565b6000813590506105f5816105cf565b92915050565b600060208284031215610611576106106105ca565b5b600061061f848285016105e6565b91505092915050565b600073ffffffffffffffffffffffffffffffffffffffff82169050919050565b600061065382610628565b9050919050565b61066381610648565b82525050565b600060208201905061067e600083018461065a565b92915050565b600061068f82610628565b9050919050565b61069f81610684565b81146106aa57600080fd5b50565b6000813590506106bc81610696565b92915050565b600080604083850312156106d9576106d86105ca565b5b60006106e7858286016106ad565b92505060206106f8858286016105e6565b9150509250929050565b600082825260208201905092915050565b7f43616c6c6572206973206e6f7420746865206f776e6572000000000000000000600082015250565b6000610749601783610702565b915061075482610713565b602082019050919050565b600060208201905081810360008301526107788161073c565b9050919050565b7f4e6f7420656e6f7567682062616c616e63650000000000000000000000000000600082015250565b60006107b5601283610702565b91506107c08261077f565b602082019050919050565b600060208201905081810360008301526107e4816107a8565b905091905056fea2646970667358221220a16684f8781e5f73dce62a8b22bbc04e64f495b52987a1fc5f32cfc37b4f454a64736f6c634300081b0033a2646970667358221220f0576f04358f3843ec1b20a9dfccf87805a59730d05284225f048f99267c82b364736f6c634300081b0033",
  "linkReferences": {},
  "deployedLinkReferences": {}
}