{
  "_format": "hh-sol-artifact-1",
  "contractName": "DutchAuction",
  "sourceName": "contracts/Dutch_Auction.sol",
  "abi": [
    {
      "inputs": [
        {
          "internalType": "address",
          "name": "_seller",
          "type": "address"
        },
        {
          "internalType": "uint256",
          "name": "_startingPrice",
          "type": "uint256"
        },
        {
          "internalType": "uint256",
          "name": "_discountRate",
          "type": "uint256"
        },
        {
          "internalType": "address",
          "name": "_token",
          "type": "address"
        },
        {
          "internalType": "uint256",
          "name": "_tokenQty",
          "type": "uint256"
        },
        {
          "internalType": "uint256",
          "name": "_tokenId",
          "type": "uint256"
        }
      ],
      "stateMutability": "nonpayable",
      "type": "constructor"
    },
    {
      "anonymous": false,
      "inputs": [
        {
          "indexed": true,
          "internalType": "address",
          "name": "seller",
          "type": "address"
        },
        {
          "indexed": true,
          "internalType": "address",
          "name": "token",
          "type": "address"
        },
        {
          "indexed": false,
          "internalType": "uint256",
          "name": "qty",
          "type": "uint256"
        },
        {
          "indexed": false,
          "internalType": "uint256",
          "name": "startPrice",
          "type": "uint256"
        },
        {
          "indexed": false,
          "internalType": "uint256",
          "name": "discountRate",
          "type": "uint256"
        }
      ],
      "name": "AuctionCreated",
      "type": "event"
    },
    {
      "anonymous": false,
      "inputs": [
        {
          "indexed": true,
          "internalType": "address",
          "name": "from",
          "type": "address"
        },
        {
          "indexed": false,
          "internalType": "uint256",
          "name": "qty",
          "type": "uint256"
        }
      ],
      "name": "DepositTokens",
      "type": "event"
    },
    {
      "anonymous": false,
      "inputs": [],
      "name": "EndCommitStage",
      "type": "event"
    },
    {
      "anonymous": false,
      "inputs": [],
      "name": "EndDistributingStage",
      "type": "event"
    },
    {
      "anonymous": false,
      "inputs": [],
      "name": "EndRevealStage",
      "type": "event"
    },
    {
      "anonymous": false,
      "inputs": [
        {
          "indexed": true,
          "internalType": "address",
          "name": "from",
          "type": "address"
        },
        {
          "indexed": false,
          "internalType": "uint256",
          "name": "price",
          "type": "uint256"
        }
      ],
      "name": "LogBid",
      "type": "event"
    },
    {
      "anonymous": false,
      "inputs": [],
      "name": "StartOfAuction",
      "type": "event"
    },
    {
      "anonymous": false,
      "inputs": [
        {
          "indexed": true,
          "internalType": "address",
          "name": "bidder",
          "type": "address"
        },
        {
          "indexed": false,
          "internalType": "uint256",
          "name": "qtyAllocated",
          "type": "uint256"
        },
        {
          "indexed": false,
          "internalType": "uint256",
          "name": "refund",
          "type": "uint256"
        }
      ],
      "name": "SuccessfulBid",
      "type": "event"
    },
    {
      "inputs": [],
      "name": "AUCTION_DURATION",
      "outputs": [
        {
          "internalType": "uint256",
          "name": "",
          "type": "uint256"
        }
      ],
      "stateMutability": "view",
      "type": "function"
    },
    {
      "inputs": [],
      "name": "REVEAL_DURATION",
      "outputs": [
        {
          "internalType": "uint256",
          "name": "",
          "type": "uint256"
        }
      ],
      "stateMutability": "view",
      "type": "function"
    },
    {
      "inputs": [
        {
          "internalType": "address",
          "name": "_bidder",
          "type": "address"
        }
      ],
      "name": "addBidderToList",
      "outputs": [],
      "stateMutability": "nonpayable",
      "type": "function"
    },
    {
      "inputs": [
        {
          "internalType": "uint256",
          "name": "time_now",
          "type": "uint256"
        }
      ],
      "name": "auctionStatusPred",
      "outputs": [
        {
          "internalType": "enum DutchAuction.Status",
          "name": "",
          "type": "uint8"
        }
      ],
      "stateMutability": "view",
      "type": "function"
    },
    {
      "inputs": [],
      "name": "discountRate",
      "outputs": [
        {
          "internalType": "uint256",
          "name": "",
          "type": "uint256"
        }
      ],
      "stateMutability": "view",
      "type": "function"
    },
    {
      "inputs": [],
      "name": "distributeToken",
      "outputs": [],
      "stateMutability": "payable",
      "type": "function"
    },
    {
      "inputs": [],
      "name": "distributed",
      "outputs": [
        {
          "internalType": "bool",
          "name": "",
          "type": "bool"
        }
      ],
      "stateMutability": "view",
      "type": "function"
    },
    {
      "inputs": [],
      "name": "endAt",
      "outputs": [
        {
          "internalType": "uint256",
          "name": "",
          "type": "uint256"
        }
      ],
      "stateMutability": "view",
      "type": "function"
    },
    {
      "inputs": [],
      "name": "endCommitStage",
      "outputs": [],
      "stateMutability": "nonpayable",
      "type": "function"
    },
    {
      "inputs": [],
      "name": "endDistributingStage",
      "outputs": [],
      "stateMutability": "nonpayable",
      "type": "function"
    },
    {
      "inputs": [],
      "name": "endRevealStage",
      "outputs": [],
      "stateMutability": "nonpayable",
      "type": "function"
    },
    {
      "inputs": [],
      "name": "getBidderList",
      "outputs": [
        {
          "internalType": "address[]",
          "name": "",
          "type": "address[]"
        }
      ],
      "stateMutability": "view",
      "type": "function"
    },
    {
      "inputs": [
        {
          "internalType": "uint256",
          "name": "time_now",
          "type": "uint256"
        }
      ],
      "name": "getPrice",
      "outputs": [
        {
          "internalType": "uint256",
          "name": "",
          "type": "uint256"
        }
      ],
      "stateMutability": "view",
      "type": "function"
    },
    {
      "inputs": [],
      "name": "getReservePrice",
      "outputs": [
        {
          "internalType": "uint256",
          "name": "",
          "type": "uint256"
        }
      ],
      "stateMutability": "view",
      "type": "function"
    },
    {
      "inputs": [],
      "name": "revealAt",
      "outputs": [
        {
          "internalType": "uint256",
          "name": "",
          "type": "uint256"
        }
      ],
      "stateMutability": "view",
      "type": "function"
    },
    {
      "inputs": [],
      "name": "seller",
      "outputs": [
        {
          "internalType": "address payable",
          "name": "",
          "type": "address"
        }
      ],
      "stateMutability": "view",
      "type": "function"
    },
    {
      "inputs": [],
      "name": "startAt",
      "outputs": [
        {
          "internalType": "uint256",
          "name": "",
          "type": "uint256"
        }
      ],
      "stateMutability": "view",
      "type": "function"
    },
    {
      "inputs": [],
      "name": "startAuction",
      "outputs": [],
      "stateMutability": "nonpayable",
      "type": "function"
    },
    {
      "inputs": [],
      "name": "startingPrice",
      "outputs": [
        {
          "internalType": "uint256",
          "name": "",
          "type": "uint256"
        }
      ],
      "stateMutability": "view",
      "type": "function"
    },
    {
      "inputs": [],
      "name": "token",
      "outputs": [
        {
          "internalType": "contract IERC20",
          "name": "",
          "type": "address"
        }
      ],
      "stateMutability": "view",
      "type": "function"
    },
    {
      "inputs": [],
      "name": "tokenId",
      "outputs": [
        {
          "internalType": "uint256",
          "name": "",
          "type": "uint256"
        }
      ],
      "stateMutability": "view",
      "type": "function"
    },
    {
      "inputs": [],
      "name": "tokenQty",
      "outputs": [
        {
          "internalType": "uint256",
          "name": "",
          "type": "uint256"
        }
      ],
      "stateMutability": "view",
      "type": "function"
    }
  ],
  "bytecode": "0x61014060405234801561001157600080fd5b5060405161312538038061312583398181016040528101906100339190610279565b8573ffffffffffffffffffffffffffffffffffffffff1660e08173ffffffffffffffffffffffffffffffffffffffff16815250508461010081815250508361012081815250508273ffffffffffffffffffffffffffffffffffffffff1660808173ffffffffffffffffffffffffffffffffffffffff16815250508160a081815250508060c081815250506104b0846100cb9190610335565b85101561010d576040517f08c379a0000000000000000000000000000000000000000000000000000000008152600401610104906103d4565b60405180910390fd5b670de0b6b3a764000060a051610100516101279190610335565b6101319190610423565b6004819055506000600360016101000a81548160ff0219169083600481111561015d5761015c610454565b5b02179055508273ffffffffffffffffffffffffffffffffffffffff1660e05173ffffffffffffffffffffffffffffffffffffffff167f6c82b56e0466f1a0d6b6c611bae34f410cb39f39ed86e2e3ea2356719bf9ed5860a05161010051610120516040516101cd93929190610492565b60405180910390a35050505050506104c9565b600080fd5b600073ffffffffffffffffffffffffffffffffffffffff82169050919050565b6000610210826101e5565b9050919050565b61022081610205565b811461022b57600080fd5b50565b60008151905061023d81610217565b92915050565b6000819050919050565b61025681610243565b811461026157600080fd5b50565b6000815190506102738161024d565b92915050565b60008060008060008060c08789031215610296576102956101e0565b5b60006102a489828a0161022e565b96505060206102b589828a01610264565b95505060406102c689828a01610264565b94505060606102d789828a0161022e565b93505060806102e889828a01610264565b92505060a06102f989828a01610264565b9150509295509295509295565b7f4e487b7100000000000000000000000000000000000000000000000000000000600052601160045260246000fd5b600061034082610243565b915061034b83610243565b925082820261035981610243565b915082820484148315176103705761036f610306565b5b5092915050565b600082825260208201905092915050565b7f5374617274696e6720707269636520697320746f6f206c6f7700000000000000600082015250565b60006103be601983610377565b91506103c982610388565b602082019050919050565b600060208201905081810360008301526103ed816103b1565b9050919050565b7f4e487b7100000000000000000000000000000000000000000000000000000000600052601260045260246000fd5b600061042e82610243565b915061043983610243565b925082610449576104486103f4565b5b828204905092915050565b7f4e487b7100000000000000000000000000000000000000000000000000000000600052602160045260246000fd5b61048c81610243565b82525050565b60006060820190506104a76000830186610483565b6104b46020830185610483565b6104c16040830184610483565b949350505050565b60805160a05160c05160e0516101005161012051612b816105a460003960008181611ad101528181611bb70152611c1c0152600081816106d801528181611aad01528181611b3101528181611be50152611c4a01526000818161049f01528181611061015281816111be0152611e050152600061053f015260008181610563015281816108ef01528181610b2d0152818161136401528181611f470152612002015260008181610d6801528181610e8501528181610f2d01528181611121015281816112ca01528181611c8d0152611f090152612b816000f3fe6080604052600436106101355760003560e01c8063a6799c5a116100ab578063d6fbf2021161006f578063d6fbf20214610389578063e6c0e6d5146103b4578063e7572230146103df578063f07223221461041c578063f84b903e14610447578063fc0c546a1461047257610135565b8063a6799c5a146102c6578063b39773a6146102f1578063c74465651461031c578063c959e62614610347578063cb30fd921461035e57610135565b806334273637116100fd578063342736371461020f5780636b64c769146102195780637cc3ae8c146102305780638c7dca161461025b5780639621aecb14610284578063a271e5251461029b57610135565b806308551a531461013a5780630a080ca81461016557806317d70f7c146101a25780631eac0691146101cd578063221a86e7146101f8575b600080fd5b34801561014657600080fd5b5061014f61049d565b60405161015c91906120c9565b60405180910390f35b34801561017157600080fd5b5061018c6004803603810190610187919061211f565b6104c1565b60405161019991906121c3565b60405180910390f35b3480156101ae57600080fd5b506101b761053d565b6040516101c491906121ed565b60405180910390f35b3480156101d957600080fd5b506101e2610561565b6040516101ef91906121ed565b60405180910390f35b34801561020457600080fd5b5061020d610585565b005b610217610653565b005b34801561022557600080fd5b5061022e6111bc565b005b34801561023c57600080fd5b5061024561144f565b60405161025291906121ed565b60405180910390f35b34801561026757600080fd5b50610282600480360381019061027d9190612246565b611455565b005b34801561029057600080fd5b5061029961184c565b005b3480156102a757600080fd5b506102b061191b565b6040516102bd91906121ed565b60405180910390f35b3480156102d257600080fd5b506102db611921565b6040516102e89190612331565b60405180910390f35b3480156102fd57600080fd5b506103066119af565b60405161031391906121ed565b60405180910390f35b34801561032857600080fd5b506103316119b5565b60405161033e91906121ed565b60405180910390f35b34801561035357600080fd5b5061035c6119bb565b005b34801561036a57600080fd5b50610373611aa5565b60405161038091906121ed565b60405180910390f35b34801561039557600080fd5b5061039e611aab565b6040516103ab91906121ed565b60405180910390f35b3480156103c057600080fd5b506103c9611acf565b6040516103d691906121ed565b60405180910390f35b3480156103eb57600080fd5b506104066004803603810190610401919061211f565b611af3565b60405161041391906121ed565b60405180910390f35b34801561042857600080fd5b50610431611c18565b60405161043e91906121ed565b60405180910390f35b34801561045357600080fd5b5061045c611c78565b604051610469919061236e565b60405180910390f35b34801561047e57600080fd5b50610487611c8b565b60405161049491906123e8565b60405180910390f35b7f000000000000000000000000000000000000000000000000000000000000000081565b600080600054036104d55760009050610538565b60005482101580156104e8575060015482105b156104f65760019050610538565b6001548210158015610509575060025482105b156105175760029050610538565b600360009054906101000a900460ff16610532576003610535565b60045b90505b919050565b7f000000000000000000000000000000000000000000000000000000000000000081565b7f000000000000000000000000000000000000000000000000000000000000000081565b600260048111156105995761059861214c565b5b600360019054906101000a900460ff1660048111156105bb576105ba61214c565b5b146105fb576040517f08c379a00000000000000000000000000000000000000000000000000000000081526004016105f290612486565b60405180910390fd5b60038060016101000a81548160ff021916908360048111156106205761061f61214c565b5b02179055507fcc2a6fc74b6b223fcdb333e4f3b919ed7bfbb4ed926e0e7e3f433d13cc76b0a660405160405180910390a1565b600260048111156106675761066661214c565b5b600360019054906101000a900460ff1660048111156106895761068861214c565b5b146106c9576040517f08c379a00000000000000000000000000000000000000000000000000000000081526004016106c090612486565b60405180910390fd5b6106d1610585565b60008060007f000000000000000000000000000000000000000000000000000000000000000090506000805b600680549050811015610b28576000600682815481106107205761071f6124a6565b5b9060005260206000200160009054906101000a900473ffffffffffffffffffffffffffffffffffffffff16905060008173ffffffffffffffffffffffffffffffffffffffff1663893d20e86040518163ffffffff1660e01b8152600401602060405180830381865afa15801561079a573d6000803e3d6000fd5b505050506040513d601f19601f820116820180604052508101906107be91906124ea565b9050600760008273ffffffffffffffffffffffffffffffffffffffff1673ffffffffffffffffffffffffffffffffffffffff16815260200190815260200160002060009054906101000a900460ff1615610819575050610b1b565b6001600760008373ffffffffffffffffffffffffffffffffffffffff1673ffffffffffffffffffffffffffffffffffffffff16815260200190815260200160002060006101000a81548160ff02191690831515021790555060008273ffffffffffffffffffffffffffffffffffffffff166312065fe06040518163ffffffff1660e01b8152600401602060405180830381865afa1580156108be573d6000803e3d6000fd5b505050506040513d601f19601f820116820180604052508101906108e2919061252c565b9050670de0b6b3a76400007f00000000000000000000000000000000000000000000000000000000000000008473ffffffffffffffffffffffffffffffffffffffff16639d1b464a6040518163ffffffff1660e01b8152600401602060405180830381865afa158015610959573d6000803e3d6000fd5b505050506040513d601f19601f8201168201806040525081019061097d919061252c565b6109879190612588565b61099191906125f9565b9750808761099f919061262a565b965084610a1c578273ffffffffffffffffffffffffffffffffffffffff16639d1b464a6040518163ffffffff1660e01b8152600401602060405180830381865afa1580156109f1573d6000803e3d6000fd5b505050506040513d601f19601f82011682018060405250810190610a15919061252c565b9550610a8f565b8273ffffffffffffffffffffffffffffffffffffffff1663cb797836826040518263ffffffff1660e01b8152600401610a5591906121ed565b600060405180830381600087803b158015610a6f57600080fd5b505af1158015610a83573d6000803e3d6000fd5b50505050505050610b1b565b878710610b175760008888610aa4919061265e565b90508373ffffffffffffffffffffffffffffffffffffffff1663cb797836826040518263ffffffff1660e01b8152600401610adf91906121ed565b600060405180830381600087803b158015610af957600080fd5b505af1158015610b0d573d6000803e3d6000fd5b5050505060019550505b5050505b80806001019150506106fd565b5060007f0000000000000000000000000000000000000000000000000000000000000000905060005b60068054905081101561111557600082111561111557600060068281548110610b7d57610b7c6124a6565b5b9060005260206000200160009054906101000a900473ffffffffffffffffffffffffffffffffffffffff16905060008173ffffffffffffffffffffffffffffffffffffffff166312065fe06040518163ffffffff1660e01b8152600401602060405180830381865afa158015610bf7573d6000803e3d6000fd5b505050506040513d601f19601f82011682018060405250810190610c1b919061252c565b9050600086670de0b6b3a764000083610c349190612588565b610c3e91906125f9565b9050610c7f6040518060400160405280600b81526020017f717479206c65667420257300000000000000000000000000000000000000000081525086611caf565b610d2d6040518060400160405280601181526020017f7472616e7366657220257320746f202573000000000000000000000000000000815250828573ffffffffffffffffffffffffffffffffffffffff1663893d20e86040518163ffffffff1660e01b8152600401602060405180830381865afa158015610d04573d6000803e3d6000fd5b505050506040513d601f19601f82011682018060405250810190610d2891906124ea565b611d4b565b610e056040518060400160405280601281526020017f6163636f756e742062616c616e636520257300000000000000000000000000008152507f000000000000000000000000000000000000000000000000000000000000000073ffffffffffffffffffffffffffffffffffffffff166370a08231306040518263ffffffff1660e01b8152600401610dbf91906126a1565b602060405180830381865afa158015610ddc573d6000803e3d6000fd5b505050506040513d601f19601f82011682018060405250810190610e00919061252c565b611caf565b610e446040518060400160405280601181526020017f4269646465722062616c616e636520257300000000000000000000000000000081525083611caf565b610e836040518060400160405280600e81526020017f66696e616c20707269636520257300000000000000000000000000000000000081525088611caf565b7f000000000000000000000000000000000000000000000000000000000000000073ffffffffffffffffffffffffffffffffffffffff1663095ea7b330610eca8489611dea565b6040518363ffffffff1660e01b8152600401610ee79291906126bc565b6020604051808303816000875af1158015610f06573d6000803e3d6000fd5b505050506040513d601f19601f82011682018060405250810190610f2a9190612711565b507f000000000000000000000000000000000000000000000000000000000000000073ffffffffffffffffffffffffffffffffffffffff166323b872dd308573ffffffffffffffffffffffffffffffffffffffff1663893d20e86040518163ffffffff1660e01b8152600401602060405180830381865afa158015610fb3573d6000803e3d6000fd5b505050506040513d601f19601f82011682018060405250810190610fd791906124ea565b610fe1858a611dea565b6040518463ffffffff1660e01b8152600401610fff9392919061273e565b6020604051808303816000875af115801561101e573d6000803e3d6000fd5b505050506040513d601f19601f820116820180604052508101906110429190612711565b508273ffffffffffffffffffffffffffffffffffffffff16638b30bb0d7f0000000000000000000000000000000000000000000000000000000000000000670de0b6b3a76400008a611094868b611dea565b61109e9190612588565b6110a891906125f9565b6040518363ffffffff1660e01b81526004016110c5929190612775565b600060405180830381600087803b1580156110df57600080fd5b505af11580156110f3573d6000803e3d6000fd5b505050508085611103919061265e565b94505050508080600101915050610b51565b5060008111156111ad577f000000000000000000000000000000000000000000000000000000000000000073ffffffffffffffffffffffffffffffffffffffff16639dc29fac30836040518363ffffffff1660e01b815260040161117a9291906126bc565b600060405180830381600087803b15801561119457600080fd5b505af11580156111a8573d6000803e3d6000fd5b505050505b6111b56119bb565b5050505050565b7f000000000000000000000000000000000000000000000000000000000000000073ffffffffffffffffffffffffffffffffffffffff163373ffffffffffffffffffffffffffffffffffffffff161461124a576040517f08c379a000000000000000000000000000000000000000000000000000000000815260040161124190612810565b60405180910390fd5b6000600481111561125e5761125d61214c565b5b600360019054906101000a900460ff1660048111156112805761127f61214c565b5b146112c0576040517f08c379a00000000000000000000000000000000000000000000000000000000081526004016112b79061287c565b60405180910390fd5b6112c8611e03565b7f000000000000000000000000000000000000000000000000000000000000000073ffffffffffffffffffffffffffffffffffffffff166370a08231306040518263ffffffff1660e01b815260040161132191906126a1565b602060405180830381865afa15801561133e573d6000803e3d6000fd5b505050506040513d601f19601f82011682018060405250810190611362919061252c565b7f0000000000000000000000000000000000000000000000000000000000000000146113c3576040517f08c379a00000000000000000000000000000000000000000000000000000000081526004016113ba906128e8565b60405180910390fd5b426000819055506104b06000546113da919061262a565b6001819055506102586001546113f0919061262a565b6002819055506001600360016101000a81548160ff0219169083600481111561141c5761141b61214c565b5b02179055507f3f4c24a923c6d179ea7c88de6d1fda3838ebebf47ee74ba760bc5fdc58f8a13460405160405180910390a1565b60025481565b600160048111156114695761146861214c565b5b600360019054906101000a900460ff16600481111561148b5761148a61214c565b5b0361149d5761149861184c565b6114d9565b600260048111156114b1576114b061214c565b5b600360019054906101000a900460ff1660048111156114d3576114d261214c565b5b03611849575b6006819080600181540180825580915050600190039060005260206000200160009091909190916101000a81548173ffffffffffffffffffffffffffffffffffffffff021916908373ffffffffffffffffffffffffffffffffffffffff16021790555060006001600680549050611550919061265e565b90505b600081111561184757600060068281548110611572576115716124a6565b5b9060005260206000200160009054906101000a900473ffffffffffffffffffffffffffffffffffffffff169050600060066001846115b0919061265e565b815481106115c1576115c06124a6565b5b9060005260206000200160009054906101000a900473ffffffffffffffffffffffffffffffffffffffff1690508073ffffffffffffffffffffffffffffffffffffffff1663b80777ea6040518163ffffffff1660e01b8152600401602060405180830381865afa158015611639573d6000803e3d6000fd5b505050506040513d601f19601f8201168201806040525081019061165d919061252c565b8273ffffffffffffffffffffffffffffffffffffffff1663b80777ea6040518163ffffffff1660e01b8152600401602060405180830381865afa1580156116a8573d6000803e3d6000fd5b505050506040513d601f19601f820116820180604052508101906116cc919061252c565b101561182b57600060066001856116e3919061265e565b815481106116f4576116f36124a6565b5b9060005260206000200160009054906101000a900473ffffffffffffffffffffffffffffffffffffffff16905060068481548110611735576117346124a6565b5b9060005260206000200160009054906101000a900473ffffffffffffffffffffffffffffffffffffffff16600660018661176f919061265e565b815481106117805761177f6124a6565b5b9060005260206000200160006101000a81548173ffffffffffffffffffffffffffffffffffffffff021916908373ffffffffffffffffffffffffffffffffffffffff16021790555080600685815481106117dd576117dc6124a6565b5b9060005260206000200160006101000a81548173ffffffffffffffffffffffffffffffffffffffff021916908373ffffffffffffffffffffffffffffffffffffffff16021790555050611832565b5050611847565b5050808061183f90612908565b915050611553565b505b50565b600160048111156118605761185f61214c565b5b600360019054906101000a900460ff1660048111156118825761188161214c565b5b146118c2576040517f08c379a00000000000000000000000000000000000000000000000000000000081526004016118b99061297d565b60405180910390fd5b6002600360016101000a81548160ff021916908360048111156118e8576118e761214c565b5b02179055507fa9b7c536f4ad8f5a0c6ba4f6ab9717a6ad7a0ee02530eeed56b43324f024561b60405160405180910390a1565b6104b081565b606060068054806020026020016040519081016040528092919081815260200182805480156119a557602002820191906000526020600020905b8160009054906101000a900473ffffffffffffffffffffffffffffffffffffffff1673ffffffffffffffffffffffffffffffffffffffff168152602001906001019080831161195b575b5050505050905090565b61025881565b60005481565b600360048111156119cf576119ce61214c565b5b600360019054906101000a900460ff1660048111156119f1576119f061214c565b5b14611a31576040517f08c379a0000000000000000000000000000000000000000000000000000000008152600401611a2890612a0f565b60405180910390fd5b6001600360006101000a81548160ff0219169083151502179055506004600360016101000a81548160ff02191690836004811115611a7257611a7161214c565b5b02179055507f3d0e69dc9ce8a9bbf47ebbc220df09048c06daa8a24d8ea4b345f1d38b6010ec60405160405180910390a1565b60015481565b7f000000000000000000000000000000000000000000000000000000000000000081565b7f000000000000000000000000000000000000000000000000000000000000000081565b6000806004811115611b0857611b0761214c565b5b600360019054906101000a900460ff166004811115611b2a57611b2961214c565b5b03611b57577f00000000000000000000000000000000000000000000000000000000000000009050611c13565b60016004811115611b6b57611b6a61214c565b5b600360019054906101000a900460ff166004811115611b8d57611b8c61214c565b5b14611ba157611b9a611c18565b9050611c13565b6000805483611bb0919061265e565b90506000817f0000000000000000000000000000000000000000000000000000000000000000611be09190612588565b9050807f0000000000000000000000000000000000000000000000000000000000000000611c0e919061265e565b925050505b919050565b60007f00000000000000000000000000000000000000000000000000000000000000006104b0611c489190612588565b7f0000000000000000000000000000000000000000000000000000000000000000611c73919061265e565b905090565b600360009054906101000a900460ff1681565b7f000000000000000000000000000000000000000000000000000000000000000081565b611d478282604051602401611cc5929190612aae565b6040516020818303038152906040527fb60e72cc000000000000000000000000000000000000000000000000000000007bffffffffffffffffffffffffffffffffffffffffffffffffffffffff19166020820180517bffffffffffffffffffffffffffffffffffffffffffffffffffffffff8381831617835250505050612038565b5050565b611de5838383604051602401611d6393929190612ade565b6040516020818303038152906040527f1c7ec448000000000000000000000000000000000000000000000000000000007bffffffffffffffffffffffffffffffffffffffffffffffffffffffff19166020820180517bffffffffffffffffffffffffffffffffffffffffffffffffffffffff8381831617835250505050612038565b505050565b6000818310611df95781611dfb565b825b905092915050565b7f000000000000000000000000000000000000000000000000000000000000000073ffffffffffffffffffffffffffffffffffffffff163373ffffffffffffffffffffffffffffffffffffffff1614611e91576040517f08c379a0000000000000000000000000000000000000000000000000000000008152600401611e8890612810565b60405180910390fd5b60006004811115611ea557611ea461214c565b5b600360019054906101000a900460ff166004811115611ec757611ec661214c565b5b14611f07576040517f08c379a0000000000000000000000000000000000000000000000000000000008152600401611efe9061287c565b60405180910390fd5b7f000000000000000000000000000000000000000000000000000000000000000073ffffffffffffffffffffffffffffffffffffffff166323b872dd33307f00000000000000000000000000000000000000000000000000000000000000006040518463ffffffff1660e01b8152600401611f849392919061273e565b6020604051808303816000875af1158015611fa3573d6000803e3d6000fd5b505050506040513d601f19601f82011682018060405250810190611fc79190612711565b503373ffffffffffffffffffffffffffffffffffffffff167fe3a6e26dceff30d982e183d0ce051fb5b791f2108785a9d440d417247cef5b417f000000000000000000000000000000000000000000000000000000000000000060405161202e91906121ed565b60405180910390a2565b61204f81612047612052612073565b63ffffffff16565b50565b60006a636f6e736f6c652e6c6f679050600080835160208501845afa505050565b61207e819050919050565b612086612b1c565b565b600073ffffffffffffffffffffffffffffffffffffffff82169050919050565b60006120b382612088565b9050919050565b6120c3816120a8565b82525050565b60006020820190506120de60008301846120ba565b92915050565b600080fd5b6000819050919050565b6120fc816120e9565b811461210757600080fd5b50565b600081359050612119816120f3565b92915050565b600060208284031215612135576121346120e4565b5b60006121438482850161210a565b91505092915050565b7f4e487b7100000000000000000000000000000000000000000000000000000000600052602160045260246000fd5b6005811061218c5761218b61214c565b5b50565b600081905061219d8261217b565b919050565b60006121ad8261218f565b9050919050565b6121bd816121a2565b82525050565b60006020820190506121d860008301846121b4565b92915050565b6121e7816120e9565b82525050565b600060208201905061220260008301846121de565b92915050565b600061221382612088565b9050919050565b61222381612208565b811461222e57600080fd5b50565b6000813590506122408161221a565b92915050565b60006020828403121561225c5761225b6120e4565b5b600061226a84828501612231565b91505092915050565b600081519050919050565b600082825260208201905092915050565b6000819050602082019050919050565b6122a881612208565b82525050565b60006122ba838361229f565b60208301905092915050565b6000602082019050919050565b60006122de82612273565b6122e8818561227e565b93506122f38361228f565b8060005b8381101561232457815161230b88826122ae565b9750612316836122c6565b9250506001810190506122f7565b5085935050505092915050565b6000602082019050818103600083015261234b81846122d3565b905092915050565b60008115159050919050565b61236881612353565b82525050565b6000602082019050612383600083018461235f565b92915050565b6000819050919050565b60006123ae6123a96123a484612088565b612389565b612088565b9050919050565b60006123c082612393565b9050919050565b60006123d2826123b5565b9050919050565b6123e2816123c7565b82525050565b60006020820190506123fd60008301846123d9565b92915050565b600082825260208201905092915050565b7f546869732061756374696f6e206973206e6f7420696e2072657665616c696e6760008201527f2073746167650000000000000000000000000000000000000000000000000000602082015250565b6000612470602683612403565b915061247b82612414565b604082019050919050565b6000602082019050818103600083015261249f81612463565b9050919050565b7f4e487b7100000000000000000000000000000000000000000000000000000000600052603260045260246000fd5b6000815190506124e48161221a565b92915050565b600060208284031215612500576124ff6120e4565b5b600061250e848285016124d5565b91505092915050565b600081519050612526816120f3565b92915050565b600060208284031215612542576125416120e4565b5b600061255084828501612517565b91505092915050565b7f4e487b7100000000000000000000000000000000000000000000000000000000600052601160045260246000fd5b6000612593826120e9565b915061259e836120e9565b92508282026125ac816120e9565b915082820484148315176125c3576125c2612559565b5b5092915050565b7f4e487b7100000000000000000000000000000000000000000000000000000000600052601260045260246000fd5b6000612604826120e9565b915061260f836120e9565b92508261261f5761261e6125ca565b5b828204905092915050565b6000612635826120e9565b9150612640836120e9565b925082820190508082111561265857612657612559565b5b92915050565b6000612669826120e9565b9150612674836120e9565b925082820390508181111561268c5761268b612559565b5b92915050565b61269b81612208565b82525050565b60006020820190506126b66000830184612692565b92915050565b60006040820190506126d16000830185612692565b6126de60208301846121de565b9392505050565b6126ee81612353565b81146126f957600080fd5b50565b60008151905061270b816126e5565b92915050565b600060208284031215612727576127266120e4565b5b6000612735848285016126fc565b91505092915050565b60006060820190506127536000830186612692565b6127606020830185612692565b61276d60408301846121de565b949350505050565b600060408201905061278a60008301856120ba565b61279760208301846121de565b9392505050565b7f4f6e6c79207468652073656c6c65722063616e20706572666f726d207468697360008201527f20616374696f6e00000000000000000000000000000000000000000000000000602082015250565b60006127fa602783612403565b91506128058261279e565b604082019050919050565b60006020820190508181036000830152612829816127ed565b9050919050565b7f546869732061756374696f6e2068617320616c72656164792073746172746564600082015250565b6000612866602083612403565b915061287182612830565b602082019050919050565b6000602082019050818103600083015261289581612859565b9050919050565b7f4e6f7420656e6f75676820746f6b656e7320696e6a6563746564000000000000600082015250565b60006128d2601a83612403565b91506128dd8261289c565b602082019050919050565b60006020820190508181036000830152612901816128c5565b9050919050565b6000612913826120e9565b91506000820361292657612925612559565b5b600182039050919050565b7f546869732061756374696f6e206973206e6f206c6f6e67657220616374697665600082015250565b6000612967602083612403565b915061297282612931565b602082019050919050565b600060208201905081810360008301526129968161295a565b9050919050565b7f546869732061756374696f6e206973206e6f7420696e2064697374726962757460008201527f696e672073746167650000000000000000000000000000000000000000000000602082015250565b60006129f9602983612403565b9150612a048261299d565b604082019050919050565b60006020820190508181036000830152612a28816129ec565b9050919050565b600081519050919050565b60005b83811015612a58578082015181840152602081019050612a3d565b60008484015250505050565b6000601f19601f8301169050919050565b6000612a8082612a2f565b612a8a8185612403565b9350612a9a818560208601612a3a565b612aa381612a64565b840191505092915050565b60006040820190508181036000830152612ac88185612a75565b9050612ad760208301846121de565b9392505050565b60006060820190508181036000830152612af88186612a75565b9050612b0760208301856121de565b612b146040830184612692565b949350505050565b7f4e487b7100000000000000000000000000000000000000000000000000000000600052605160045260246000fdfea26469706673582212204c95f8a7fa63da2131554082b0d50b17129407891feffbe2517ae8905c4a46c364736f6c634300081b0033",
  "linkReferences": {},
  "deployedLinkReferences": {}
}