{
  "_format": "hh-sol-artifact-1",
  "contractName": "Dutch_Auction",
  "sourceName": "contracts/Dutch_Auction.sol",
  "abi": [
    {
      "inputs": [
        {
          "internalType": "uint256",
          "name": "_reservePrice",
          "type": "uint256"
        },
        {
          "internalType": "uint256",
          "name": "_startPrice",
          "type": "uint256"
        }
      ],
      "stateMutability": "nonpayable",
      "type": "constructor"
    },
    {
      "inputs": [],
      "name": "Dutch_Auction__IsOwner",
      "type": "error"
    },
    {
      "inputs": [],
      "name": "Dutch_Auction__NotOpen",
      "type": "error"
    },
    {
      "inputs": [],
      "name": "Dutch_Auction__NotOwner",
      "type": "error"
    },
    {
      "inputs": [],
      "name": "Dutch_Auction__Open",
      "type": "error"
    },
    {
      "inputs": [],
      "name": "ReentrancyGuardReentrantCall",
      "type": "error"
    },
    {
      "anonymous": false,
      "inputs": [
        {
          "indexed": false,
          "internalType": "address",
          "name": "bidderAddress",
          "type": "address"
        },
        {
          "indexed": false,
          "internalType": "uint256",
          "name": "TokensPurchased",
          "type": "uint256"
        },
        {
          "indexed": false,
          "internalType": "uint256",
          "name": "refundValue",
          "type": "uint256"
        }
      ],
      "name": "RefundEvent",
      "type": "event"
    },
    {
      "anonymous": false,
      "inputs": [
        {
          "indexed": false,
          "internalType": "uint256",
          "name": "bidderID",
          "type": "uint256"
        },
        {
          "indexed": false,
          "internalType": "address",
          "name": "walletAddress",
          "type": "address"
        },
        {
          "indexed": false,
          "internalType": "uint256",
          "name": "bidvalue",
          "type": "uint256"
        }
      ],
      "name": "addBidderEvent",
      "type": "event"
    },
    {
      "anonymous": false,
      "inputs": [
        {
          "indexed": false,
          "internalType": "address",
          "name": "bidderAddress",
          "type": "address"
        },
        {
          "indexed": false,
          "internalType": "uint256",
          "name": "TokensPurchased",
          "type": "uint256"
        },
        {
          "indexed": false,
          "internalType": "uint256",
          "name": "refundValue",
          "type": "uint256"
        }
      ],
      "name": "calculateEvent",
      "type": "event"
    },
    {
      "anonymous": false,
      "inputs": [
        {
          "indexed": false,
          "internalType": "uint256",
          "name": "totalBidders",
          "type": "uint256"
        },
        {
          "indexed": false,
          "internalType": "uint256",
          "name": "burntERC20",
          "type": "uint256"
        },
        {
          "indexed": false,
          "internalType": "uint256",
          "name": "totalETHEarned",
          "type": "uint256"
        }
      ],
      "name": "endAuctionEvent",
      "type": "event"
    },
    {
      "anonymous": false,
      "inputs": [
        {
          "indexed": false,
          "internalType": "address",
          "name": "bidderAddress",
          "type": "address"
        },
        {
          "indexed": false,
          "internalType": "uint256",
          "name": "tokensSent",
          "type": "uint256"
        }
      ],
      "name": "sendTokenEvent",
      "type": "event"
    },
    {
      "anonymous": false,
      "inputs": [
        {
          "indexed": false,
          "internalType": "uint256",
          "name": "startTime",
          "type": "uint256"
        },
        {
          "indexed": false,
          "internalType": "address",
          "name": "ERC20Address",
          "type": "address"
        },
        {
          "indexed": false,
          "internalType": "uint256",
          "name": "totalAlgosAvailable",
          "type": "uint256"
        },
        {
          "indexed": false,
          "internalType": "uint256",
          "name": "changePerMin",
          "type": "uint256"
        }
      ],
      "name": "startAuctionEvent",
      "type": "event"
    },
    {
      "anonymous": false,
      "inputs": [
        {
          "indexed": false,
          "internalType": "uint256",
          "name": "timeElapsed",
          "type": "uint256"
        },
        {
          "indexed": false,
          "internalType": "uint256",
          "name": "currentprice",
          "type": "uint256"
        }
      ],
      "name": "updateCurrentPriceEvent",
      "type": "event"
    },
    {
      "stateMutability": "payable",
      "type": "fallback"
    },
    {
      "inputs": [],
      "name": "addBidder",
      "outputs": [],
      "stateMutability": "payable",
      "type": "function"
    },
    {
      "inputs": [
        {
          "internalType": "uint256",
          "name": "bidder",
          "type": "uint256"
        }
      ],
      "name": "balanceOfBidder",
      "outputs": [
        {
          "internalType": "uint256",
          "name": "",
          "type": "uint256"
        }
      ],
      "stateMutability": "view",
      "type": "function"
    },
    {
      "inputs": [
        {
          "internalType": "uint256",
          "name": "",
          "type": "uint256"
        }
      ],
      "name": "biddersList",
      "outputs": [
        {
          "internalType": "uint256",
          "name": "bidderID",
          "type": "uint256"
        },
        {
          "internalType": "address",
          "name": "walletAddress",
          "type": "address"
        },
        {
          "internalType": "uint256",
          "name": "bidValue",
          "type": "uint256"
        },
        {
          "internalType": "uint256",
          "name": "totalAlgosPurchased",
          "type": "uint256"
        },
        {
          "internalType": "uint256",
          "name": "refundEth",
          "type": "uint256"
        },
        {
          "internalType": "bool",
          "name": "isExist",
          "type": "bool"
        },
        {
          "internalType": "bool",
          "name": "tokenSent",
          "type": "bool"
        },
        {
          "internalType": "bool",
          "name": "ethRefunded",
          "type": "bool"
        }
      ],
      "stateMutability": "view",
      "type": "function"
    },
    {
      "inputs": [],
      "name": "calculate",
      "outputs": [],
      "stateMutability": "nonpayable",
      "type": "function"
    },
    {
      "inputs": [],
      "name": "endAuction",
      "outputs": [],
      "stateMutability": "nonpayable",
      "type": "function"
    },
    {
      "inputs": [],
      "name": "getAuctionState",
      "outputs": [
        {
          "internalType": "enum Dutch_Auction.AuctionState",
          "name": "",
          "type": "uint8"
        }
      ],
      "stateMutability": "view",
      "type": "function"
    },
    {
      "inputs": [
        {
          "internalType": "uint256",
          "name": "bidder",
          "type": "uint256"
        }
      ],
      "name": "getRefundState",
      "outputs": [
        {
          "internalType": "bool",
          "name": "",
          "type": "bool"
        }
      ],
      "stateMutability": "view",
      "type": "function"
    },
    {
      "inputs": [],
      "name": "getUnsoldAlgos",
      "outputs": [
        {
          "internalType": "uint256",
          "name": "",
          "type": "uint256"
        }
      ],
      "stateMutability": "view",
      "type": "function"
    },
    {
      "inputs": [],
      "name": "refundETH",
      "outputs": [],
      "stateMutability": "nonpayable",
      "type": "function"
    },
    {
      "inputs": [],
      "name": "retreiveContractER20Tokens",
      "outputs": [
        {
          "internalType": "uint256",
          "name": "",
          "type": "uint256"
        }
      ],
      "stateMutability": "view",
      "type": "function"
    },
    {
      "inputs": [
        {
          "internalType": "uint256",
          "name": "bidder",
          "type": "uint256"
        }
      ],
      "name": "retrieveBidderAlgos",
      "outputs": [
        {
          "internalType": "uint256",
          "name": "",
          "type": "uint256"
        }
      ],
      "stateMutability": "view",
      "type": "function"
    },
    {
      "inputs": [
        {
          "internalType": "uint256",
          "name": "bidder",
          "type": "uint256"
        }
      ],
      "name": "retrieveBidderBidValue",
      "outputs": [
        {
          "internalType": "uint256",
          "name": "",
          "type": "uint256"
        }
      ],
      "stateMutability": "view",
      "type": "function"
    },
    {
      "inputs": [],
      "name": "retrieveContractBalance",
      "outputs": [
        {
          "internalType": "uint256",
          "name": "",
          "type": "uint256"
        }
      ],
      "stateMutability": "view",
      "type": "function"
    },
    {
      "inputs": [],
      "name": "retrieveContractOwner",
      "outputs": [
        {
          "internalType": "address",
          "name": "",
          "type": "address"
        }
      ],
      "stateMutability": "view",
      "type": "function"
    },
    {
      "inputs": [],
      "name": "retrieveCurrentPrice",
      "outputs": [
        {
          "internalType": "int256",
          "name": "",
          "type": "int256"
        }
      ],
      "stateMutability": "view",
      "type": "function"
    },
    {
      "inputs": [
        {
          "internalType": "uint256",
          "name": "bidder",
          "type": "uint256"
        }
      ],
      "name": "retrieveRefund",
      "outputs": [
        {
          "internalType": "uint256",
          "name": "",
          "type": "uint256"
        }
      ],
      "stateMutability": "view",
      "type": "function"
    },
    {
      "inputs": [],
      "name": "retrieveReservePrice",
      "outputs": [
        {
          "internalType": "uint256",
          "name": "",
          "type": "uint256"
        }
      ],
      "stateMutability": "view",
      "type": "function"
    },
    {
      "inputs": [],
      "name": "retrieveTimeElapsed",
      "outputs": [
        {
          "internalType": "uint256",
          "name": "",
          "type": "uint256"
        }
      ],
      "stateMutability": "view",
      "type": "function"
    },
    {
      "inputs": [],
      "name": "retrieveTotalAlgos",
      "outputs": [
        {
          "internalType": "uint256",
          "name": "",
          "type": "uint256"
        }
      ],
      "stateMutability": "view",
      "type": "function"
    },
    {
      "inputs": [],
      "name": "retrieveTotalBidder",
      "outputs": [
        {
          "internalType": "uint256",
          "name": "",
          "type": "uint256"
        }
      ],
      "stateMutability": "view",
      "type": "function"
    },
    {
      "inputs": [],
      "name": "sendTokens",
      "outputs": [],
      "stateMutability": "nonpayable",
      "type": "function"
    },
    {
      "inputs": [
        {
          "internalType": "uint256",
          "name": "_totalAlgosAvailable",
          "type": "uint256"
        },
        {
          "internalType": "uint256",
          "name": "_changePerMin",
          "type": "uint256"
        }
      ],
      "name": "startAuction",
      "outputs": [],
      "stateMutability": "nonpayable",
      "type": "function"
    },
    {
      "inputs": [],
      "name": "updateCurrentPrice",
      "outputs": [],
      "stateMutability": "nonpayable",
      "type": "function"
    },
    {
      "stateMutability": "payable",
      "type": "receive"
    }
  ],
  "bytecode": "0x60e060405260006002556000600760006101000a81548160ff0219169083151502179055506000600760016101000a81548160ff0219169083151502179055506000600760026101000a81548160ff02191690831515021790555034801561006657600080fd5b50604051614b95380380614b9583398181016040528101906100889190610192565b60016000819055508082106100d2576040517f08c379a00000000000000000000000000000000000000000000000000000000081526004016100c990610255565b60405180910390fd5b3373ffffffffffffffffffffffffffffffffffffffff1660c08173ffffffffffffffffffffffffffffffffffffffff16815250508160a0818152505080600181905550806080818152505060006004819055506001600a60006101000a81548160ff0219169083600181111561014b5761014a610275565b5b021790555050506102a4565b600080fd5b6000819050919050565b61016f8161015c565b811461017a57600080fd5b50565b60008151905061018c81610166565b92915050565b600080604083850312156101a9576101a8610157565b5b60006101b78582860161017d565b92505060206101c88582860161017d565b9150509250929050565b600082825260208201905092915050565b7f7265736572766520707269636520697320686967686572207468616e2063757260008201527f72656e7420707269636500000000000000000000000000000000000000000000602082015250565b600061023f602a836101d2565b915061024a826101e3565b604082019050919050565b6000602082019050818103600083015261026e81610232565b9050919050565b7f4e487b7100000000000000000000000000000000000000000000000000000000600052602160045260246000fd5b60805160a05160c05161485961033c60003960008181610533015281816108c60152818161097301528181610a160152818161102a015281816112d80152818161136501528181611414015281816116740152818161195b015281816119ea01528181611a770152611e6301526000818161094b015281816115d301526115ff015260008181611155015261159501526148596000f3fe6080604052600436106101445760003560e01c806388a38ce9116100b6578063ca77ab651161006f578063ca77ab6514610438578063d5e7a54b1461044f578063df3853061461048c578063e4655bca146104b7578063e47112bd146104e2578063fe67a54b146104f957610145565b806388a38ce914610338578063a45b4abb14610363578063aa5cd178146103a0578063aa9d9bd6146103cb578063ac5ece6d146103e2578063c891607b1461040d57610145565b80631f8cdb04116101085780631f8cdb041461021c5780632d21a3ed146102265780633fa8578d146102635780634fee13fc146102a75780637ded653f146102d057806383634e1c146102fb57610145565b806308bfc300146101475780630b3248081461017257806312210e8a1461019d57806314df33ac146101b45780631f732088146101df57610145565b5b005b34801561015357600080fd5b5061015c610510565b604051610169919061208b565b60405180910390f35b34801561017e57600080fd5b50610187610527565b60405161019491906120bf565b60405180910390f35b3480156101a957600080fd5b506101b2610531565b005b3480156101c057600080fd5b506101c96108c2565b6040516101d691906120f3565b60405180910390f35b3480156101eb57600080fd5b506102066004803603810190610201919061213f565b61096f565b60405161021391906120f3565b60405180910390f35b610224610a14565b005b34801561023257600080fd5b5061024d6004803603810190610248919061213f565b610ebe565b60405161025a91906120f3565b60405180910390f35b34801561026f57600080fd5b5061028a6004803603810190610285919061213f565b610f99565b60405161029e9897969594939291906121c8565b60405180910390f35b3480156102b357600080fd5b506102ce60048036038101906102c99190612246565b611028565b005b3480156102dc57600080fd5b506102e56112d4565b6040516102f291906120f3565b60405180910390f35b34801561030757600080fd5b50610322600480360381019061031d919061213f565b611361565b60405161032f91906120f3565b60405180910390f35b34801561034457600080fd5b5061034d611406565b60405161035a91906120f3565b60405180910390f35b34801561036f57600080fd5b5061038a6004803603810190610385919061213f565b611410565b60405161039791906120f3565b60405180910390f35b3480156103ac57600080fd5b506103b56114b5565b6040516103c291906120f3565b60405180910390f35b3480156103d757600080fd5b506103e0611558565b005b3480156103ee57600080fd5b506103f7611670565b6040516104049190612286565b60405180910390f35b34801561041957600080fd5b50610422611698565b60405161042f91906120f3565b60405180910390f35b34801561044457600080fd5b5061044d6116cd565b005b34801561045b57600080fd5b506104766004803603810190610471919061213f565b61192a565b60405161048391906122a1565b60405180910390f35b34801561049857600080fd5b506104a1611957565b6040516104ae91906120f3565b60405180910390f35b3480156104c357600080fd5b506104cc6119e6565b6040516104d991906120f3565b60405180910390f35b3480156104ee57600080fd5b506104f7611a75565b005b34801561050557600080fd5b5061050e611e61565b005b6000600a60009054906101000a900460ff16905090565b6000600154905090565b7f000000000000000000000000000000000000000000000000000000000000000073ffffffffffffffffffffffffffffffffffffffff163373ffffffffffffffffffffffffffffffffffffffff16146105b6576040517fae4a21bc00000000000000000000000000000000000000000000000000000000815260040160405180910390fd5b600a60009054906101000a900460ff1660018111156105d8576105d7612014565b5b600060018111156105ec576105eb612014565b5b03610623576040517f6668065e00000000000000000000000000000000000000000000000000000000815260040160405180910390fd5b600760019054906101000a900460ff1615610673576040517f08c379a000000000000000000000000000000000000000000000000000000000815260040161066a90612319565b60405180910390fd5b6001600760016101000a81548160ff02191690831515021790555060005b6002548110156108a457600060096000838152602001908152602001600020600401541180156106d65750600960008281526020019081526020016000206004015447115b15610897576000600960008381526020019081526020016000206004015490506000600960008481526020019081526020016000206004018190555060008111801561072157508047115b1561080a5760006009600084815260200190815260200160002060010160009054906101000a900473ffffffffffffffffffffffffffffffffffffffff1673ffffffffffffffffffffffffffffffffffffffff16826040516107829061236a565b60006040518083038185875af1925050503d80600081146107bf576040519150601f19603f3d011682016040523d82523d6000602084013e6107c4565b606091505b5050905080610808576040517f08c379a00000000000000000000000000000000000000000000000000000000081526004016107ff906123cb565b60405180910390fd5b505b7fb24b09fd2e8e4d8904c3c26f3e935824e032891520ffda419dec9f086b0e1eea6009600084815260200190815260200160002060010160009054906101000a900473ffffffffffffffffffffffffffffffffffffffff16600960008581526020019081526020016000206003015483604051610889939291906123eb565b60405180910390a160009050505b8080600101915050610691565b506000600760016101000a81548160ff021916908315150217905550565b60007f000000000000000000000000000000000000000000000000000000000000000073ffffffffffffffffffffffffffffffffffffffff163373ffffffffffffffffffffffffffffffffffffffff1614610949576040517fae4a21bc00000000000000000000000000000000000000000000000000000000815260040160405180910390fd5b7f0000000000000000000000000000000000000000000000000000000000000000905090565b60007f000000000000000000000000000000000000000000000000000000000000000073ffffffffffffffffffffffffffffffffffffffff163373ffffffffffffffffffffffffffffffffffffffff16146109f6576040517fae4a21bc00000000000000000000000000000000000000000000000000000000815260040160405180910390fd5b60096000838152602001908152602001600020600201549050919050565b7f000000000000000000000000000000000000000000000000000000000000000073ffffffffffffffffffffffffffffffffffffffff163373ffffffffffffffffffffffffffffffffffffffff1603610a99576040517fc3fdc7c100000000000000000000000000000000000000000000000000000000815260040160405180910390fd5b600a60009054906101000a900460ff166001811115610abb57610aba612014565b5b600180811115610ace57610acd612014565b5b03610b05576040517f5de7a96600000000000000000000000000000000000000000000000000000000815260040160405180910390fd5b60003411610b48576040517f08c379a0000000000000000000000000000000000000000000000000000000008152600401610b3f9061246e565b60405180910390fd5b610b506116cd565b6001543411610b94576040517f08c379a0000000000000000000000000000000000000000000000000000000008152600401610b8b906124da565b60405180910390fd5b6104b060045442610ba59190612529565b10610be5576040517f08c379a0000000000000000000000000000000000000000000000000000000008152600401610bdc906125a9565b60405180910390fd5b600060055411610c2a576040517f08c379a0000000000000000000000000000000000000000000000000000000008152600401610c2190612615565b60405180910390fd5b600060096000600254815260200190815260200160002090506002548160000181905550338160010160006101000a81548173ffffffffffffffffffffffffffffffffffffffff021916908373ffffffffffffffffffffffffffffffffffffffff16021790555034816002018190555060018160050160006101000a81548160ff021916908315150217905550600081600301819055506000816004018190555060008160050160016101000a81548160ff02191690831515021790555060008160050160026101000a81548160ff02191690831515021790555080600960006002548152602001908152602001600020600082015481600001556001820160009054906101000a900473ffffffffffffffffffffffffffffffffffffffff168160010160006101000a81548173ffffffffffffffffffffffffffffffffffffffff021916908373ffffffffffffffffffffffffffffffffffffffff1602179055506002820154816002015560038201548160030155600482015481600401556005820160009054906101000a900460ff168160050160006101000a81548160ff0219169083151502179055506005820160019054906101000a900460ff168160050160016101000a81548160ff0219169083151502179055506005820160029054906101000a900460ff168160050160026101000a81548160ff0219169083151502179055509050507f6559452b5cf88e12990371c9441273d2dbb464fb7dd9cc4030551b86df924b6281600001548260010160009054906101000a900473ffffffffffffffffffffffffffffffffffffffff168360020154604051610e9393929190612635565b60405180910390a160026000815480929190610eae9061266c565b9190505550610ebb6116cd565b50565b6000600760039054906101000a900473ffffffffffffffffffffffffffffffffffffffff1673ffffffffffffffffffffffffffffffffffffffff166370a082316009600085815260200190815260200160002060010160009054906101000a900473ffffffffffffffffffffffffffffffffffffffff166040518263ffffffff1660e01b8152600401610f519190612286565b602060405180830381865afa158015610f6e573d6000803e3d6000fd5b505050506040513d601f19601f82011682018060405250810190610f9291906126c9565b9050919050565b60096020528060005260406000206000915090508060000154908060010160009054906101000a900473ffffffffffffffffffffffffffffffffffffffff16908060020154908060030154908060040154908060050160009054906101000a900460ff16908060050160019054906101000a900460ff16908060050160029054906101000a900460ff16905088565b7f000000000000000000000000000000000000000000000000000000000000000073ffffffffffffffffffffffffffffffffffffffff163373ffffffffffffffffffffffffffffffffffffffff16146110ad576040517fae4a21bc00000000000000000000000000000000000000000000000000000000815260040160405180910390fd5b600a60009054906101000a900460ff1660018111156110cf576110ce612014565b5b600060018111156110e3576110e2612014565b5b0361111a576040517f6668065e00000000000000000000000000000000000000000000000000000000815260040160405180910390fd5b6000600a60006101000a81548160ff021916908360018111156111405761113f612014565b5b021790555081600381905550806006819055507f000000000000000000000000000000000000000000000000000000000000000060018190555081600581905550600060028190555042600481905550600354306040516111a090612007565b6111ab9291906126f6565b604051809103906000f0801580156111c7573d6000803e3d6000fd5b50600760036101000a81548173ffffffffffffffffffffffffffffffffffffffff021916908373ffffffffffffffffffffffffffffffffffffffff160217905550600760039054906101000a900473ffffffffffffffffffffffffffffffffffffffff16600860006101000a81548173ffffffffffffffffffffffffffffffffffffffff021916908373ffffffffffffffffffffffffffffffffffffffff1602179055507f0f0eb7cc9cde5623ecdc8f18c7fe6bacab47ab80468f73b4d9b3d08ec7284af5600454600860009054906101000a900473ffffffffffffffffffffffffffffffffffffffff166003546006546040516112c8949392919061271f565b60405180910390a15050565b60007f000000000000000000000000000000000000000000000000000000000000000073ffffffffffffffffffffffffffffffffffffffff163373ffffffffffffffffffffffffffffffffffffffff161461135b576040517fae4a21bc00000000000000000000000000000000000000000000000000000000815260040160405180910390fd5b47905090565b60007f000000000000000000000000000000000000000000000000000000000000000073ffffffffffffffffffffffffffffffffffffffff163373ffffffffffffffffffffffffffffffffffffffff16146113e8576040517fae4a21bc00000000000000000000000000000000000000000000000000000000815260040160405180910390fd5b60096000838152602001908152602001600020600301549050919050565b6000600554905090565b60007f000000000000000000000000000000000000000000000000000000000000000073ffffffffffffffffffffffffffffffffffffffff163373ffffffffffffffffffffffffffffffffffffffff1614611497576040517fae4a21bc00000000000000000000000000000000000000000000000000000000815260040160405180910390fd5b60096000838152602001908152602001600020600401549050919050565b6000600760039054906101000a900473ffffffffffffffffffffffffffffffffffffffff1673ffffffffffffffffffffffffffffffffffffffff166370a08231306040518263ffffffff1660e01b81526004016115129190612286565b602060405180830381865afa15801561152f573d6000803e3d6000fd5b505050506040513d601f19601f8201168201806040525081019061155391906126c9565b905090565b600760009054906101000a900460ff1661166e57600654603c6004544261157f9190612529565b6115899190612793565b61159391906127c4565b7f00000000000000000000000000000000000000000000000000000000000000006115be919061283c565b60018190555060006001541315806115f857507f000000000000000000000000000000000000000000000000000000000000000060015413155b15611625577f00000000000000000000000000000000000000000000000000000000000000006001819055505b7f7cda8554820ef0a356899263aefa9db86ab6966b7b823eda047b78c3afdfeb8e600454426116549190612529565b60015460405161166592919061287f565b60405180910390a15b565b60007f0000000000000000000000000000000000000000000000000000000000000000905090565b60008060045411156116c557603c600454426116b49190612529565b6116be9190612793565b90506116ca565b600090505b90565b6116d5611558565b6000600354905060005b6002548110156118c257600154600960008381526020019081526020016000206002015461170d9190612793565b82106117a35760015460096000838152602001908152602001600020600201546117379190612793565b600960008381526020019081526020016000206003018190555060015460096000838152602001908152602001600020600201546117759190612793565b826117809190612529565b9150600060096000838152602001908152602001600020600401819055506118b5565b6000821180156117d5575060015460096000838152602001908152602001600020600201546117d29190612793565b82105b1561185d5781600960008381526020019081526020016000206003018190555060009150600154600960008381526020019081526020016000206003015461181d91906128a8565b600960008381526020019081526020016000206002015461183e9190612529565b60096000838152602001908152602001600020600401819055506118b4565b600082116118b35760006009600083815260200190815260200160002060030181905550600960008281526020019081526020016000206002015460096000838152602001908152602001600020600401819055505b5b5b80806001019150506116df565b5060008111156118d85780600581905550611927565b6001600a60006101000a81548160ff021916908360018111156118fe576118fd612014565b5b021790555060006005819055506001600760006101000a81548160ff0219169083151502179055505b50565b60006009600083815260200190815260200160002060050160029054906101000a900460ff169050919050565b60007f000000000000000000000000000000000000000000000000000000000000000073ffffffffffffffffffffffffffffffffffffffff163373ffffffffffffffffffffffffffffffffffffffff16146119de576040517fae4a21bc00000000000000000000000000000000000000000000000000000000815260040160405180910390fd5b600354905090565b60007f000000000000000000000000000000000000000000000000000000000000000073ffffffffffffffffffffffffffffffffffffffff163373ffffffffffffffffffffffffffffffffffffffff1614611a6d576040517fae4a21bc00000000000000000000000000000000000000000000000000000000815260040160405180910390fd5b600254905090565b7f000000000000000000000000000000000000000000000000000000000000000073ffffffffffffffffffffffffffffffffffffffff163373ffffffffffffffffffffffffffffffffffffffff1614611afa576040517fae4a21bc00000000000000000000000000000000000000000000000000000000815260040160405180910390fd5b600a60009054906101000a900460ff166001811115611b1c57611b1b612014565b5b60006001811115611b3057611b2f612014565b5b03611b67576040517f6668065e00000000000000000000000000000000000000000000000000000000815260040160405180910390fd5b60005b600254811015611e5e5760006009600083815260200190815260200160002060030154118015611bbb57506009600082815260200190815260200160002060050160019054906101000a900460ff16155b15611e5157600060096000838152602001908152602001600020600301549050600760039054906101000a900473ffffffffffffffffffffffffffffffffffffffff1673ffffffffffffffffffffffffffffffffffffffff1663095ea7b36009600085815260200190815260200160002060010160009054906101000a900473ffffffffffffffffffffffffffffffffffffffff16670de0b6b3a764000084611c6491906128a8565b6040518363ffffffff1660e01b8152600401611c819291906128ea565b6020604051808303816000875af1158015611ca0573d6000803e3d6000fd5b505050506040513d601f19601f82011682018060405250810190611cc4919061293f565b50600760039054906101000a900473ffffffffffffffffffffffffffffffffffffffff1673ffffffffffffffffffffffffffffffffffffffff166323b872dd306009600086815260200190815260200160002060010160009054906101000a900473ffffffffffffffffffffffffffffffffffffffff16670de0b6b3a764000085611d4f91906128a8565b6040518463ffffffff1660e01b8152600401611d6d9392919061296c565b6020604051808303816000875af1158015611d8c573d6000803e3d6000fd5b505050506040513d601f19601f82011682018060405250810190611db0919061293f565b507f039b13884cbcea684931b2bcff6faab7170693e1bc173e651e14168c890c70806009600084815260200190815260200160002060010160009054906101000a900473ffffffffffffffffffffffffffffffffffffffff1682604051611e189291906128ea565b60405180910390a160016009600084815260200190815260200160002060050160016101000a81548160ff021916908315150217905550505b8080600101915050611b6a565b50565b7f000000000000000000000000000000000000000000000000000000000000000073ffffffffffffffffffffffffffffffffffffffff163373ffffffffffffffffffffffffffffffffffffffff1614611ee6576040517fae4a21bc00000000000000000000000000000000000000000000000000000000815260040160405180910390fd5b6001600a60006101000a81548160ff02191690836001811115611f0c57611f0b612014565b5b0217905550611f196116cd565b611f21611a75565b611f29610531565b60006005541115611fc657600760039054906101000a900473ffffffffffffffffffffffffffffffffffffffff1673ffffffffffffffffffffffffffffffffffffffff16639dc29fac306005546040518363ffffffff1660e01b8152600401611f939291906128ea565b600060405180830381600087803b158015611fad57600080fd5b505af1158015611fc1573d6000803e3d6000fd5b505050505b7f99d9aed25b1415a4a35a1890d2ee6aa1db28f98ba8eff1de3d494a6af9dca77260025460055447604051611ffd939291906129a3565b60405180910390a1565b611e49806129db83390190565b7f4e487b7100000000000000000000000000000000000000000000000000000000600052602160045260246000fd5b6002811061205457612053612014565b5b50565b600081905061206582612043565b919050565b600061207582612057565b9050919050565b6120858161206a565b82525050565b60006020820190506120a0600083018461207c565b92915050565b6000819050919050565b6120b9816120a6565b82525050565b60006020820190506120d460008301846120b0565b92915050565b6000819050919050565b6120ed816120da565b82525050565b600060208201905061210860008301846120e4565b92915050565b600080fd5b61211c816120da565b811461212757600080fd5b50565b60008135905061213981612113565b92915050565b6000602082840312156121555761215461210e565b5b60006121638482850161212a565b91505092915050565b600073ffffffffffffffffffffffffffffffffffffffff82169050919050565b60006121978261216c565b9050919050565b6121a78161218c565b82525050565b60008115159050919050565b6121c2816121ad565b82525050565b6000610100820190506121de600083018b6120e4565b6121eb602083018a61219e565b6121f860408301896120e4565b61220560608301886120e4565b61221260808301876120e4565b61221f60a08301866121b9565b61222c60c08301856121b9565b61223960e08301846121b9565b9998505050505050505050565b6000806040838503121561225d5761225c61210e565b5b600061226b8582860161212a565b925050602061227c8582860161212a565b9150509250929050565b600060208201905061229b600083018461219e565b92915050565b60006020820190506122b660008301846121b9565b92915050565b600082825260208201905092915050565b7f4c6f636b2069732068656c642062792074686520636f6e747261637400000000600082015250565b6000612303601c836122bc565b915061230e826122cd565b602082019050919050565b60006020820190508181036000830152612332816122f6565b9050919050565b600081905092915050565b50565b6000612354600083612339565b915061235f82612344565b600082019050919050565b600061237582612347565b9150819050919050565b7f4661696c656420746f2073656e64206574686572000000000000000000000000600082015250565b60006123b56014836122bc565b91506123c08261237f565b602082019050919050565b600060208201905081810360008301526123e4816123a8565b9050919050565b6000606082019050612400600083018661219e565b61240d60208301856120e4565b61241a60408301846120e4565b949350505050565b7f62696456616c7565206c657373207468616e2030000000000000000000000000600082015250565b60006124586014836122bc565b915061246382612422565b602082019050919050565b600060208201905081810360008301526124878161244b565b9050919050565b7f62696456616c7565206c657373207468616e2063757272656e74207072696365600082015250565b60006124c46020836122bc565b91506124cf8261248e565b602082019050919050565b600060208201905081810360008301526124f3816124b7565b9050919050565b7f4e487b7100000000000000000000000000000000000000000000000000000000600052601160045260246000fd5b6000612534826120da565b915061253f836120da565b9250828203905081811115612557576125566124fa565b5b92915050565b7f74696d6520697320757000000000000000000000000000000000000000000000600082015250565b6000612593600a836122bc565b915061259e8261255d565b602082019050919050565b600060208201905081810360008301526125c281612586565b9050919050565b7f5468657265206973206e6f206d6f726520616c676f73206c6566740000000000600082015250565b60006125ff601b836122bc565b915061260a826125c9565b602082019050919050565b6000602082019050818103600083015261262e816125f2565b9050919050565b600060608201905061264a60008301866120e4565b612657602083018561219e565b61266460408301846120e4565b949350505050565b6000612677826120da565b91507fffffffffffffffffffffffffffffffffffffffffffffffffffffffffffffffff82036126a9576126a86124fa565b5b600182019050919050565b6000815190506126c381612113565b92915050565b6000602082840312156126df576126de61210e565b5b60006126ed848285016126b4565b91505092915050565b600060408201905061270b60008301856120e4565b612718602083018461219e565b9392505050565b600060808201905061273460008301876120e4565b612741602083018661219e565b61274e60408301856120e4565b61275b60608301846120e4565b95945050505050565b7f4e487b7100000000000000000000000000000000000000000000000000000000600052601260045260246000fd5b600061279e826120da565b91506127a9836120da565b9250826127b9576127b8612764565b5b828204905092915050565b60006127cf826120a6565b91506127da836120a6565b92508282026127e8816120a6565b91507f800000000000000000000000000000000000000000000000000000000000000084146000841216156128205761281f6124fa565b5b8282058414831517612835576128346124fa565b5b5092915050565b6000612847826120a6565b9150612852836120a6565b9250828203905081811260008412168282136000851215161715612879576128786124fa565b5b92915050565b600060408201905061289460008301856120e4565b6128a160208301846120e4565b9392505050565b60006128b3826120da565b91506128be836120da565b92508282026128cc816120da565b915082820484148315176128e3576128e26124fa565b5b5092915050565b60006040820190506128ff600083018561219e565b61290c60208301846120e4565b9392505050565b61291c816121ad565b811461292757600080fd5b50565b60008151905061293981612913565b92915050565b6000602082840312156129555761295461210e565b5b60006129638482850161292a565b91505092915050565b6000606082019050612981600083018661219e565b61298e602083018561219e565b61299b60408301846120e4565b949350505050565b60006060820190506129b860008301866120e4565b6129c560208301856120e4565b6129d260408301846120e4565b94935050505056fe608060405234801561001057600080fd5b50604051611e49380380611e49833981810160405281019061003291906107c3565b336040518060400160405280600a81526020017f4552433230546f6b656e000000000000000000000000000000000000000000008152506040518060400160405280600281526020017f455400000000000000000000000000000000000000000000000000000000000081525081600390816100ae9190610a49565b5080600490816100be9190610a49565b505050600073ffffffffffffffffffffffffffffffffffffffff168173ffffffffffffffffffffffffffffffffffffffff16036101335760006040517f1e4fbdf700000000000000000000000000000000000000000000000000000000815260040161012a9190610b2a565b60405180910390fd5b6101428161019160201b60201c565b5061016633670de0b6b3a76400008461015b9190610b74565b61025760201b60201c565b61018981670de0b6b3a76400008461017e9190610b74565b6102df60201b60201c565b505050610c4b565b6000600560009054906101000a900473ffffffffffffffffffffffffffffffffffffffff16905081600560006101000a81548173ffffffffffffffffffffffffffffffffffffffff021916908373ffffffffffffffffffffffffffffffffffffffff1602179055508173ffffffffffffffffffffffffffffffffffffffff168173ffffffffffffffffffffffffffffffffffffffff167f8be0079c531659141344cd1fd0a4f28419497f9722a3daafe3b4186f6b6457e060405160405180910390a35050565b600073ffffffffffffffffffffffffffffffffffffffff168273ffffffffffffffffffffffffffffffffffffffff16036102c95760006040517fec442f050000000000000000000000000000000000000000000000000000000081526004016102c09190610b2a565b60405180910390fd5b6102db6000838361030e60201b60201c565b5050565b6000806102f061053360201b60201c565b905061030381858561053b60201b60201c565b600191505092915050565b600073ffffffffffffffffffffffffffffffffffffffff168373ffffffffffffffffffffffffffffffffffffffff16036103605780600260008282546103549190610bb6565b92505081905550610433565b60008060008573ffffffffffffffffffffffffffffffffffffffff1673ffffffffffffffffffffffffffffffffffffffff168152602001908152602001600020549050818110156103ec578381836040517fe450d38c0000000000000000000000000000000000000000000000000000000081526004016103e393929190610bf9565b60405180910390fd5b8181036000808673ffffffffffffffffffffffffffffffffffffffff1673ffffffffffffffffffffffffffffffffffffffff16815260200190815260200160002081905550505b600073ffffffffffffffffffffffffffffffffffffffff168273ffffffffffffffffffffffffffffffffffffffff160361047c57806002600082825403925050819055506104c9565b806000808473ffffffffffffffffffffffffffffffffffffffff1673ffffffffffffffffffffffffffffffffffffffff168152602001908152602001600020600082825401925050819055505b8173ffffffffffffffffffffffffffffffffffffffff168373ffffffffffffffffffffffffffffffffffffffff167fddf252ad1be2c89b69c2b068fc378daa952ba7f163c4a11628f55a4df523b3ef836040516105269190610c30565b60405180910390a3505050565b600033905090565b61054e838383600161055360201b60201c565b505050565b600073ffffffffffffffffffffffffffffffffffffffff168473ffffffffffffffffffffffffffffffffffffffff16036105c55760006040517fe602df050000000000000000000000000000000000000000000000000000000081526004016105bc9190610b2a565b60405180910390fd5b600073ffffffffffffffffffffffffffffffffffffffff168373ffffffffffffffffffffffffffffffffffffffff16036106375760006040517f94280d6200000000000000000000000000000000000000000000000000000000815260040161062e9190610b2a565b60405180910390fd5b81600160008673ffffffffffffffffffffffffffffffffffffffff1673ffffffffffffffffffffffffffffffffffffffff16815260200190815260200160002060008573ffffffffffffffffffffffffffffffffffffffff1673ffffffffffffffffffffffffffffffffffffffff168152602001908152602001600020819055508015610724578273ffffffffffffffffffffffffffffffffffffffff168473ffffffffffffffffffffffffffffffffffffffff167f8c5be1e5ebec7d5bd14f71427d1e84f3dd0314c0f7b2291e5b200ac8c7c3b9258460405161071b9190610c30565b60405180910390a35b50505050565b600080fd5b6000819050919050565b6107428161072f565b811461074d57600080fd5b50565b60008151905061075f81610739565b92915050565b600073ffffffffffffffffffffffffffffffffffffffff82169050919050565b600061079082610765565b9050919050565b6107a081610785565b81146107ab57600080fd5b50565b6000815190506107bd81610797565b92915050565b600080604083850312156107da576107d961072a565b5b60006107e885828601610750565b92505060206107f9858286016107ae565b9150509250929050565b600081519050919050565b7f4e487b7100000000000000000000000000000000000000000000000000000000600052604160045260246000fd5b7f4e487b7100000000000000000000000000000000000000000000000000000000600052602260045260246000fd5b6000600282049050600182168061088457607f821691505b6020821081036108975761089661083d565b5b50919050565b60008190508160005260206000209050919050565b60006020601f8301049050919050565b600082821b905092915050565b6000600883026108ff7fffffffffffffffffffffffffffffffffffffffffffffffffffffffffffffffff826108c2565b61090986836108c2565b95508019841693508086168417925050509392505050565b6000819050919050565b600061094661094161093c8461072f565b610921565b61072f565b9050919050565b6000819050919050565b6109608361092b565b61097461096c8261094d565b8484546108cf565b825550505050565b600090565b61098961097c565b610994818484610957565b505050565b5b818110156109b8576109ad600082610981565b60018101905061099a565b5050565b601f8211156109fd576109ce8161089d565b6109d7846108b2565b810160208510156109e6578190505b6109fa6109f2856108b2565b830182610999565b50505b505050565b600082821c905092915050565b6000610a2060001984600802610a02565b1980831691505092915050565b6000610a398383610a0f565b9150826002028217905092915050565b610a5282610803565b67ffffffffffffffff811115610a6b57610a6a61080e565b5b610a75825461086c565b610a808282856109bc565b600060209050601f831160018114610ab35760008415610aa1578287015190505b610aab8582610a2d565b865550610b13565b601f198416610ac18661089d565b60005b82811015610ae957848901518255600182019150602085019450602081019050610ac4565b86831015610b065784890151610b02601f891682610a0f565b8355505b6001600288020188555050505b505050505050565b610b2481610785565b82525050565b6000602082019050610b3f6000830184610b1b565b92915050565b7f4e487b7100000000000000000000000000000000000000000000000000000000600052601160045260246000fd5b6000610b7f8261072f565b9150610b8a8361072f565b9250828202610b988161072f565b91508282048414831517610baf57610bae610b45565b5b5092915050565b6000610bc18261072f565b9150610bcc8361072f565b9250828201905080821115610be457610be3610b45565b5b92915050565b610bf38161072f565b82525050565b6000606082019050610c0e6000830186610b1b565b610c1b6020830185610bea565b610c286040830184610bea565b949350505050565b6000602082019050610c456000830184610bea565b92915050565b6111ef80610c5a6000396000f3fe608060405234801561001057600080fd5b50600436106100cf5760003560e01c8063715018a61161008c5780639dc29fac116100665780639dc29fac14610204578063a9059cbb14610220578063dd62ed3e14610250578063f2fde38b14610280576100cf565b8063715018a6146101be5780638da5cb5b146101c857806395d89b41146101e6576100cf565b806306fdde03146100d4578063095ea7b3146100f257806318160ddd1461012257806323b872dd14610140578063313ce5671461017057806370a082311461018e575b600080fd5b6100dc61029c565b6040516100e99190610e01565b60405180910390f35b61010c60048036038101906101079190610ebc565b61032e565b6040516101199190610f17565b60405180910390f35b61012a610351565b6040516101379190610f41565b60405180910390f35b61015a60048036038101906101559190610f5c565b61035b565b6040516101679190610f17565b60405180910390f35b61017861038a565b6040516101859190610fcb565b60405180910390f35b6101a860048036038101906101a39190610fe6565b610393565b6040516101b59190610f41565b60405180910390f35b6101c66103db565b005b6101d06103ef565b6040516101dd9190611022565b60405180910390f35b6101ee610419565b6040516101fb9190610e01565b60405180910390f35b61021e60048036038101906102199190610ebc565b6104ab565b005b61023a60048036038101906102359190610ebc565b6104d4565b6040516102479190610f17565b60405180910390f35b61026a6004803603810190610265919061103d565b6104f7565b6040516102779190610f41565b60405180910390f35b61029a60048036038101906102959190610fe6565b61057e565b005b6060600380546102ab906110ac565b80601f01602080910402602001604051908101604052809291908181526020018280546102d7906110ac565b80156103245780601f106102f957610100808354040283529160200191610324565b820191906000526020600020905b81548152906001019060200180831161030757829003601f168201915b5050505050905090565b600080610339610604565b905061034681858561060c565b600191505092915050565b6000600254905090565b600080610366610604565b905061037385828561061e565b61037e8585856106b2565b60019150509392505050565b60006012905090565b60008060008373ffffffffffffffffffffffffffffffffffffffff1673ffffffffffffffffffffffffffffffffffffffff168152602001908152602001600020549050919050565b6103e36107a6565b6103ed600061082d565b565b6000600560009054906101000a900473ffffffffffffffffffffffffffffffffffffffff16905090565b606060048054610428906110ac565b80601f0160208091040260200160405190810160405280929190818152602001828054610454906110ac565b80156104a15780601f10610476576101008083540402835291602001916104a1565b820191906000526020600020905b81548152906001019060200180831161048457829003601f168201915b5050505050905090565b6104b36107a6565b6104d082670de0b6b3a7640000836104cb919061110c565b6108f3565b5050565b6000806104df610604565b90506104ec8185856106b2565b600191505092915050565b6000600160008473ffffffffffffffffffffffffffffffffffffffff1673ffffffffffffffffffffffffffffffffffffffff16815260200190815260200160002060008373ffffffffffffffffffffffffffffffffffffffff1673ffffffffffffffffffffffffffffffffffffffff16815260200190815260200160002054905092915050565b6105866107a6565b600073ffffffffffffffffffffffffffffffffffffffff168173ffffffffffffffffffffffffffffffffffffffff16036105f85760006040517f1e4fbdf70000000000000000000000000000000000000000000000000000000081526004016105ef9190611022565b60405180910390fd5b6106018161082d565b50565b600033905090565b6106198383836001610975565b505050565b600061062a84846104f7565b90507fffffffffffffffffffffffffffffffffffffffffffffffffffffffffffffffff81146106ac578181101561069c578281836040517ffb8f41b20000000000000000000000000000000000000000000000000000000081526004016106939392919061114e565b60405180910390fd5b6106ab84848484036000610975565b5b50505050565b600073ffffffffffffffffffffffffffffffffffffffff168373ffffffffffffffffffffffffffffffffffffffff16036107245760006040517f96c6fd1e00000000000000000000000000000000000000000000000000000000815260040161071b9190611022565b60405180910390fd5b600073ffffffffffffffffffffffffffffffffffffffff168273ffffffffffffffffffffffffffffffffffffffff16036107965760006040517fec442f0500000000000000000000000000000000000000000000000000000000815260040161078d9190611022565b60405180910390fd5b6107a1838383610b4c565b505050565b6107ae610604565b73ffffffffffffffffffffffffffffffffffffffff166107cc6103ef565b73ffffffffffffffffffffffffffffffffffffffff161461082b576107ef610604565b6040517f118cdaa70000000000000000000000000000000000000000000000000000000081526004016108229190611022565b60405180910390fd5b565b6000600560009054906101000a900473ffffffffffffffffffffffffffffffffffffffff16905081600560006101000a81548173ffffffffffffffffffffffffffffffffffffffff021916908373ffffffffffffffffffffffffffffffffffffffff1602179055508173ffffffffffffffffffffffffffffffffffffffff168173ffffffffffffffffffffffffffffffffffffffff167f8be0079c531659141344cd1fd0a4f28419497f9722a3daafe3b4186f6b6457e060405160405180910390a35050565b600073ffffffffffffffffffffffffffffffffffffffff168273ffffffffffffffffffffffffffffffffffffffff16036109655760006040517f96c6fd1e00000000000000000000000000000000000000000000000000000000815260040161095c9190611022565b60405180910390fd5b61097182600083610b4c565b5050565b600073ffffffffffffffffffffffffffffffffffffffff168473ffffffffffffffffffffffffffffffffffffffff16036109e75760006040517fe602df050000000000000000000000000000000000000000000000000000000081526004016109de9190611022565b60405180910390fd5b600073ffffffffffffffffffffffffffffffffffffffff168373ffffffffffffffffffffffffffffffffffffffff1603610a595760006040517f94280d62000000000000000000000000000000000000000000000000000000008152600401610a509190611022565b60405180910390fd5b81600160008673ffffffffffffffffffffffffffffffffffffffff1673ffffffffffffffffffffffffffffffffffffffff16815260200190815260200160002060008573ffffffffffffffffffffffffffffffffffffffff1673ffffffffffffffffffffffffffffffffffffffff168152602001908152602001600020819055508015610b46578273ffffffffffffffffffffffffffffffffffffffff168473ffffffffffffffffffffffffffffffffffffffff167f8c5be1e5ebec7d5bd14f71427d1e84f3dd0314c0f7b2291e5b200ac8c7c3b92584604051610b3d9190610f41565b60405180910390a35b50505050565b600073ffffffffffffffffffffffffffffffffffffffff168373ffffffffffffffffffffffffffffffffffffffff1603610b9e578060026000828254610b929190611185565b92505081905550610c71565b60008060008573ffffffffffffffffffffffffffffffffffffffff1673ffffffffffffffffffffffffffffffffffffffff16815260200190815260200160002054905081811015610c2a578381836040517fe450d38c000000000000000000000000000000000000000000000000000000008152600401610c219392919061114e565b60405180910390fd5b8181036000808673ffffffffffffffffffffffffffffffffffffffff1673ffffffffffffffffffffffffffffffffffffffff16815260200190815260200160002081905550505b600073ffffffffffffffffffffffffffffffffffffffff168273ffffffffffffffffffffffffffffffffffffffff1603610cba5780600260008282540392505081905550610d07565b806000808473ffffffffffffffffffffffffffffffffffffffff1673ffffffffffffffffffffffffffffffffffffffff168152602001908152602001600020600082825401925050819055505b8173ffffffffffffffffffffffffffffffffffffffff168373ffffffffffffffffffffffffffffffffffffffff167fddf252ad1be2c89b69c2b068fc378daa952ba7f163c4a11628f55a4df523b3ef83604051610d649190610f41565b60405180910390a3505050565b600081519050919050565b600082825260208201905092915050565b60005b83811015610dab578082015181840152602081019050610d90565b60008484015250505050565b6000601f19601f8301169050919050565b6000610dd382610d71565b610ddd8185610d7c565b9350610ded818560208601610d8d565b610df681610db7565b840191505092915050565b60006020820190508181036000830152610e1b8184610dc8565b905092915050565b600080fd5b600073ffffffffffffffffffffffffffffffffffffffff82169050919050565b6000610e5382610e28565b9050919050565b610e6381610e48565b8114610e6e57600080fd5b50565b600081359050610e8081610e5a565b92915050565b6000819050919050565b610e9981610e86565b8114610ea457600080fd5b50565b600081359050610eb681610e90565b92915050565b60008060408385031215610ed357610ed2610e23565b5b6000610ee185828601610e71565b9250506020610ef285828601610ea7565b9150509250929050565b60008115159050919050565b610f1181610efc565b82525050565b6000602082019050610f2c6000830184610f08565b92915050565b610f3b81610e86565b82525050565b6000602082019050610f566000830184610f32565b92915050565b600080600060608486031215610f7557610f74610e23565b5b6000610f8386828701610e71565b9350506020610f9486828701610e71565b9250506040610fa586828701610ea7565b9150509250925092565b600060ff82169050919050565b610fc581610faf565b82525050565b6000602082019050610fe06000830184610fbc565b92915050565b600060208284031215610ffc57610ffb610e23565b5b600061100a84828501610e71565b91505092915050565b61101c81610e48565b82525050565b60006020820190506110376000830184611013565b92915050565b6000806040838503121561105457611053610e23565b5b600061106285828601610e71565b925050602061107385828601610e71565b9150509250929050565b7f4e487b7100000000000000000000000000000000000000000000000000000000600052602260045260246000fd5b600060028204905060018216806110c457607f821691505b6020821081036110d7576110d661107d565b5b50919050565b7f4e487b7100000000000000000000000000000000000000000000000000000000600052601160045260246000fd5b600061111782610e86565b915061112283610e86565b925082820261113081610e86565b91508282048414831517611147576111466110dd565b5b5092915050565b60006060820190506111636000830186611013565b6111706020830185610f32565b61117d6040830184610f32565b949350505050565b600061119082610e86565b915061119b83610e86565b92508282019050808211156111b3576111b26110dd565b5b9291505056fea26469706673582212207de1423758e8ad894555dcca5c8bbc9902ff2e7757ee9e71e3086e8be7560ad964736f6c634300081b0033a264697066735822122033ce457d682ef285f6db606a4b8b84e6bd3e1d7e80821ef9b5ab20a71903544d64736f6c634300081b0033",
  "linkReferences": {},
  "deployedLinkReferences": {}
}