{
  "_format": "hh-sol-artifact-1",
  "contractName": "Reveal",
  "sourceName": "contracts/Reveal.sol",
  "abi": [
    {
      "anonymous": false,
      "inputs": [
        {
          "indexed": true,
          "internalType": "address",
          "name": "owner",
          "type": "address"
        },
        {
          "indexed": true,
          "internalType": "address",
          "name": "factory",
          "type": "address"
        },
        {
          "indexed": false,
          "internalType": "bytes32",
          "name": "byteCode",
          "type": "bytes32"
        }
      ],
      "name": "FactoryBytesStored",
      "type": "event"
    },
    {
      "inputs": [
        {
          "internalType": "address",
          "name": "bidderAddress",
          "type": "address"
        },
        {
          "internalType": "address",
          "name": "dutchAuctionAddress",
          "type": "address"
        }
      ],
      "name": "revealExecution",
      "outputs": [],
      "stateMutability": "nonpayable",
      "type": "function"
    },
    {
      "inputs": [
        {
          "internalType": "address",
          "name": "_owner",
          "type": "address"
        },
        {
          "internalType": "address",
          "name": "_factory",
          "type": "address"
        },
        {
          "internalType": "bytes32",
          "name": "_byteCode",
          "type": "bytes32"
        }
      ],
      "name": "storeFactoryPlusBytes",
      "outputs": [],
      "stateMutability": "nonpayable",
      "type": "function"
    }
  ],
  "bytecode": "0x6080604052348015600f57600080fd5b5061058a8061001f6000396000f3fe608060405234801561001057600080fd5b50600436106100365760003560e01c80636a4224c91461003b578063e94b4e1814610057575b600080fd5b61005560048036038101906100509190610388565b610073565b005b610071600480360381019061006c91906103db565b61019e565b005b816000808573ffffffffffffffffffffffffffffffffffffffff1673ffffffffffffffffffffffffffffffffffffffff16815260200190815260200160002060006101000a81548173ffffffffffffffffffffffffffffffffffffffff021916908373ffffffffffffffffffffffffffffffffffffffff16021790555080600160008573ffffffffffffffffffffffffffffffffffffffff1673ffffffffffffffffffffffffffffffffffffffff168152602001908152602001600020819055508173ffffffffffffffffffffffffffffffffffffffff168373ffffffffffffffffffffffffffffffffffffffff167fab07a0a8a1fd5a62250ce524b8626cbe14e8320eb954a0163c6474f167bd903483604051610191919061042a565b60405180910390a3505050565b60008273ffffffffffffffffffffffffffffffffffffffff1663893d20e86040518163ffffffff1660e01b8152600401602060405180830381865afa1580156101eb573d6000803e3d6000fd5b505050506040513d601f19601f8201168201806040525081019061020f919061045a565b90503373ffffffffffffffffffffffffffffffffffffffff168173ffffffffffffffffffffffffffffffffffffffff161461027f576040517f08c379a00000000000000000000000000000000000000000000000000000000081526004016102769061050a565b60405180910390fd5b8173ffffffffffffffffffffffffffffffffffffffff16638c7dca16846040518263ffffffff1660e01b81526004016102b89190610539565b600060405180830381600087803b1580156102d257600080fd5b505af11580156102e6573d6000803e3d6000fd5b50505050505050565b600080fd5b600073ffffffffffffffffffffffffffffffffffffffff82169050919050565b600061031f826102f4565b9050919050565b61032f81610314565b811461033a57600080fd5b50565b60008135905061034c81610326565b92915050565b6000819050919050565b61036581610352565b811461037057600080fd5b50565b6000813590506103828161035c565b92915050565b6000806000606084860312156103a1576103a06102ef565b5b60006103af8682870161033d565b93505060206103c08682870161033d565b92505060406103d186828701610373565b9150509250925092565b600080604083850312156103f2576103f16102ef565b5b60006104008582860161033d565b92505060206104118582860161033d565b9150509250929050565b61042481610352565b82525050565b600060208201905061043f600083018461041b565b92915050565b60008151905061045481610326565b92915050565b6000602082840312156104705761046f6102ef565b5b600061047e84828501610445565b91505092915050565b600082825260208201905092915050565b7f43616c6c6572206973206e6f7420746865206f776e6572206f6620746865206260008201527f6964000000000000000000000000000000000000000000000000000000000000602082015250565b60006104f4602283610487565b91506104ff82610498565b604082019050919050565b60006020820190508181036000830152610523816104e7565b9050919050565b61053381610314565b82525050565b600060208201905061054e600083018461052a565b9291505056fea2646970667358221220f11c5159f332c97a3418dea0954e7275472c5ffb19bcc8b828184c3542f7d71064736f6c634300081b0033",
  "linkReferences": {},
  "deployedLinkReferences": {}
}